:020000040000FA
:030000000200E318
:0300130002076081
:0300330002069230
:03003B000207BCFD
:03006B0002057219
:03007B0002060278
:1000830002072200000080FB120113B900030200E3
:10009300CDE4900301783C79038002F0A3D8FCD926
:1000A300FA90053CAA82AB839001167819790180F6
:1000B30015E493A3AC82AD838A828B83F0A3AA82D7
:1000C300AB838C828D83D8E9D9E775828275830CE3
:1000D30074001200F575828675830074001200F5B2
:1000E30075D00075813F751001751103759F00026E
:1000F300008BC09FF59FE473D09F22D083D082C032
:100103009FE493C0E0740193C0E0740293F59F22CF
:10011300790122FF00000000000000000000000041
:1001230000000000C20100FF0001001200FE2308CE
:10013300001200FECA08001200FE2B09001200FE86
:10014300480A001200FED10A001200FE6D0B0012D5
:1001530000FE7D0B001200FE260C001200FE4C1266
:10016300001200FE1612001200FE6612001200FEBC
:100173006B12001200FE6D11001200FE7D110012C1
:1001830000FEA911001200FE2610001200FE5510F9
:10019300001200FE5A10001200FE7010001200FE42
:1001A3008710001200FE9E10001200FECA100012FB
:1001B30000FEEE10001200FEFF10001200FE0811F8
:1001C300001200FE1111001200FE2611001200FEA3
:1001D3003B11001200FE5A11001200FE9D0E001288
:1001E30000FEAA0F001200FE3A0C001200FE480C9B
:1001F300001200FED01100E493667013087401939B
:1002030066700C0874029366700508740393662283
:10021300C3E4939608740193960874029396087442
:1002230003939622E0FAA3E0FBA3E0FCA3E0FD2204
:10023300EAF0A3EBF0A3ECF0A3EDF022CAC0E0E6F2
:10024300F0A308DAFAD0E0FA22700422600D18C68F
:10025300C333C608C633C6D5E0F41822C0D0251070
:1002630010AF08F510500205118008F51050020573
:1002730011D2AFD0D0222510F58210AF08F510406F
:100283000215118008F51040021511D2AF851183B4
:10029300222510F582E43511F58322E4732510C578
:1002A30082C0E0E51134FFC583C0E0E510C3958249
:1002B30024F810AF08858311858210800885831187
:1002C300858210D2AFCEF0A3E520F0A37808E6082C
:1002D300F0A3DEFAEFF0A3E58124FAF8E608F0A331
:1002E300E608F0A3E608F0A30808E608F0A3E6088A
:1002F300F0A315811581D0E0FED0E0F815811581BA
:100303001581E8C0E0EEC0E022851183851082E00C
:10031300A3FEE0A3F5207808E0A3F608DFFAE0A344
:10032300FFE0A3C0E0E0A3C0E0E0A3C0E0E0A3C01F
:10033300E0E0A3C0E010AF08858210858311800838
:10034300858210858311D2AFD083D0820200FBC097
:10035300D02510C582C0E0E51134FFC583C0E0E5B8
:1003630010C3958224F310AF088583118582108012
:1003730008858311858210D2AFC8F0A3E9F0A3EA00
:10038300F0A3EBF0A37908E709F0A3D8FAECF0A304
:10039300EDF0A3EEF0A3EFF0A3D0E0F0A3D0E0F0F4
:1003A300A3D0E0F0A3E520F0A3E5F0F0A3228511AC
:1003B30083851082E0C0E0A3E0F9A3E0FAA3E0FBA9
:1003C300A37808E0F608A3DFFAE0FCA3E0FDA3E0CE
:1003D300FEA3E0FFA3E0C0E0A3E0C0E0A3E0F5D00C
:1003E300A3E0F520A3E0A3F5F010AF088583118502
:1003F30082108008858311858210D2AFD082D0838A
:10040300D0E0F8D0E03274028000C0E0F4041202BD
:1004130079D0E012023F22D083D082C5F0E493A3C7
:10042300C5F0C395F0F5F0E493A3C395F04005E55B
:10043300F0048001E475F002A42582F582E5F0352D
:1004430083F583E493A3C0E0E493C0E022D083D098
:1004530082E9C0E0E493A3C386F0C5F095F0F90800
:10046300E493A386F0C5F095F0700BE493A3C399CE
:100473004005E9048002A3E475F002A42582F58215
:10048300E5F03583F583D0E0F9E493A3C0E0E4938A
:10049300C0E022D083D082ECC0E0EDC0E0EEC0E04B
:1004A300EFC0E0E493A3FCE493A3FDE493A3FEE491
:1004B30093A3FFEF4E4D4C6015120512EC24FFFC85
:1004C300ED34FFFDEE34FFFEEF34FFFF80E5E493F0
:1004D300A3FCE493A3FDE493A3FEE493A3FFEF4EF5
:1004E3004D4C601512054FEC24FFFCED34FFFDEE7F
:1004F30034FFFEEF34FFFF80E5D0E0FFD0E0FED015
:10050300E0FDD0E0FCE493A3C0E0E493C0E022C0AC
:10051300E0C0F088F0120213A8F040071201FAA815
:10052300F0701AA3A3A3A3120213A8F0A3A3A3A377
:100533004013D0F0D0E0D0E0D0E00204FCA3A3A3AA
:10054300A3A3A3A3A3A3A3D0F0D0E022C0E0C0F051
:1005530088F01201FAA8F0A3A3A3A3700BD0F0D0E4
:10056300E0D0E0D0E00204FCA3A3D0F0D0E022C0AE
:10057300E074F1120352C2C5E589607E7E00807487
:10058300750801750900EE780812024CE508AF08FA
:10059300E5895F605EEEF87900E875F002A4C8AA09
:1005A300F075F000A42AFA75F002E9A42AF974FDA3
:1005B30028F582740339F583E0F8A3E0F9E849608C
:1005C3002EEEF87900E875F002A4C8AAF075F000E1
:1005D300A42AFA75F002E9A42AF974FD28F58274B5
:1005E3000339F583E0F8A3E0F583888212029EEFD6
:1005F300F452890EEEC3940840867F020203B1C011
:10060300E074F1120352C2EBE58A607E7E008074CF
:10061300750801750900EE780812024CE508AF0869
:10062300E58A5F605EEEF87900E875F002A4C8AA77
:10063300F075F000A42AFA75F002E9A42AF9740D02
:1006430028F582740439F583E0F8A3E0F9E84960FA
:100653002EEEF87900E875F002A4C8AAF075F00050
:10066300A42AFA75F002E9A42AF9740D28F5827414
:100673000439F583E0F8A3E0F583888212029EEF44
:10068300F4528A0EEEC3940840867F020203B1C07F
:10069300E074F1120352C2E8E58B607E7E00807441
:1006A300750801750900EE780812024CE508AF08D9
:1006B300E58B5F605EEEF87900E875F002A4C8AAE6
:1006C300F075F000A42AFA75F002E9A42AF9741D62
:1006D30028F582740439F583E0F8A3E0F9E849606A
:1006E3002EEEF87900E875F002A4C8AAF075F000C0
:1006F300A42AFA75F002E9A42AF9741D28F5827474
:100703000439F583E0F8A3E0F583888212029EEFB3
:10071300F4528B0EEEC3940540867F020203B1C0F0
:10072300E074F2120352A2AFE433FEC2AFE5E9A2D2
:10073300E65020900427E0F8A3E0F9E849600E9022
:100743000427E0F8A3E0F583888212029E759B00DC
:1007530053E9BFEEA2E092AF7F010203B1C0E0C054
:10076300D0E8C0E0E9C0E0C082C083E5C1C0E0904A
:1007730004AAE0F87900742928F582740439F58312
:10078300D0E0F09004A9E0F89004AAE0687006E5D0
:10079300959004ABF09004AAE024019004AAF0C35E
:1007A300948040069004AA7400F0D083D082D0E0F5
:1007B300F9D0E0F8D0D0D0E032C0E0C0D0E8C0E05B
:1007C300C008C009C082C08390052CE0F890052DB5
:1007D300E068700B539AFB90052E7401F08031C2D0
:1007E300E990052CE0F5087401250890052CF075B7
:1007F300090074AC2508F58274043509F583E0F526
:10080300C190052CE0C39480400690052C7400F041
:10081300D083D082D009D008D0E0F8D0D0D0E03255
:1008230074F71202A0E9FEEAF8EBF9E8FAE9FB74BF
:100833000B2E8A828B83F0900308E0F8A3E0F58304
:100843008882A3A3A3A3A3E06006786179888004C8
:1008530078417988E88A828B83A3F0E4E9F88A8275
:100863008B83A3A3F0900301E08A828B83A3A3A3CA
:10087300F0900308E0F8A3E0F5838882A3A3E0F8EF
:10088300A3E0F98A828B83A3A3A3A3E8F0A3E9F0EF
:100893008A828B83A3A3A3A3A3A3ECF0A3EDF0907D
:1008A3000308E0F8A3E0F5838882E0F8A3E0F98A7F
:1008B300828B83A3A3A3A3A3A3A3A3E8F0A3E9F039
:1008C300790A7F0102030C74F21202A0ECFEEDFF21
:1008D3008908A908EAFCEBFD7A0A7B0312012EE9D9
:1008E300FB7A0080348A0A750B00EE250AF582EF45
:1008F300350BF583E0C0E08B0A750B008A0C750D90
:1009030000E50A250CF8E50B350DF9740A28F58284
:10091300740339F583D0E0F00AEAC3950840C6EBC7
:100923002508F97F0602030C74F71202A07E7D7F6F
:10093300031201C412016A7901EEFAEFFB1201AC52
:100943008E828F83E0C2E7F08E828F83E06405702E
:10095300528E828F83E0F97A7E7B031201AC8E8202
:100963008F83A3E0A2E55004D2F08002C2F0A2F08C
:10097300E433900544F07881790388828983A3E086
:10098300A2E74003020A3D8E828F83A3A3A3E0F86C
:10099300900301E0686003020A3D9003027401F0D2
:1009A300020A3D8E828F83E024F5900541F08E820A
:1009B3008F83E0F97A7E7B031201AC8E828F83A34F
:1009C300E0A2E55004D2F08002C2F0A2F0E433903A
:1009D3000544F08E828F83A3A3A3A3A3A3A3A3E0C1
:1009E300F8A3E0F990053DE8F0A3E9F0900542741F
:1009F30087F0A37403F0900541E0F83395E0F99094
:100A03000542E028F8A3E039F988828983E090055C
:100A130045F088828983A3E0A2E750128E828F83F8
:100A2300A3E054DF644170069005467401F08E82A2
:100A33008F83A3A3A3E090053CF01201701201CAB7
:100A43007F0102030C74F71202A0EAFEEBFF12010E
:100A530088E9640170047901806F120170900308C2
:100A6300EEF0A3EFF09005427400F0A37400F09051
:100A730003037401F0900548120227900304120245
:100A830033900308E0F8A3E0F5838882A3A3A3A32C
:100A9300E0F9120194900308E0F8A3E0F58388825B
:100AA300E0FAA3E0FB12019A900308E0F8A3E0F553
:100AB300838882A3A3E0FAA3E0FB1201A07A3A7B26
:100AC300011201D012016A79007F0102030C74F450
:100AD3001202A0EAFEEBFF8C0A8D0B890890030338
:100AE300E070031201B8E508C3946750058508094F
:100AF30080037509678509081201D61201C4A90884
:100B0300AC0AAD0BEEFAEFFB120134E9F97A0A7B7A
:100B1300031201A61201CA1201B2E960027E01901A
:100B23000308E0F8A3E0F5838882A3A3A3A3A3E0CB
:100B3300601C9003027400F07A4A7B0212017C90DD
:100B43000302E06004740080027401FE80027E00F0
:100B5300900303E070031201BEEE7007900301E0FF
:100B63002401F0EEF97F0402030CC082C0839005D8
:100B730046E0F9D083D0820200FB74F21202A08A0D
:100B83000A8B0BECFEEDFF740E120294E0F508A342
:100B9300E0F509120170900541E0F83395E0F9C3DF
:100BA300E89EE99F500D900541E0F50C3395E0F583
:100BB3000D80048E0C8F0D780C120409900542E011
:100BC300FCA3E0FDAA0AAB0B1201F4740212025F4C
:100BD300E5084509602612018EE9F50A900545E00E
:100BE300F83395E0F9750B00E8C3950AF8E9950B1E
:100BF300F9850882850983E8F0A3E9F09005467436
:100C030000F012016A900541E0F83395E0F9C3E87A
:100C13009EE99F5007900541E0F98002EEF97F06B7
:100C230002030CC082C0839003037401F01201B865
:100C3300D083D0820200FBE5F475F40043FE1B531E
:100C430090E40200FBC082C0839005317411F0A3CD
:100C53007411F0900533740BF090052F7444F0A3D6
:100C63007412F09005347401F07A2F7B0512014061
:100C7300E9640160F4120158D083D0820200FB12B0
:100C8300015E1201EE79017C507D057A557B1212CB
:100C93000146E91201E88012D294D293D291D29004
:100CA3007400900539F0900538F012014CE9602D7D
:100CB300E4F508F50978081204097C017D007A3B04
:100CC3007B05120152740212025FE990053BE06456
:100CD300FF700A9005527400F0A37400F09005525F
:100CE300E0F8A3E0F9E84970235390E4D2947AD072
:100CF3007B071201825390E49005527401F0A374B0
:100D030000F07400900550F090053BF0900552E020
:100D130064017004A3E0640070907C037D007A3565
:100D23007B051201E28A0A8B0B850A08850B09C32E
:100D3300E5089401E5099400A2D265D0335003027B
:100D43000CA37808120450010002A50D550D610D86
:100D53007F0D900535E024D0900538F08044900550
:100D630036C082C08375F00A900535E0A4D083D0E5
:100D730082F8E02824F0900538F08026900537C0EB
:100D830082C08375F00A900536E0A4F875F064908C
:100D93000535E0A428D083D082F8E02824309005DC
:100DA30038F075F010900538E084900551F0900507
:100DB30038E075F01084E5F0900539F079027C5045
:100DC3007D057A557B12120146E9900539E012043C
:100DD3001A000FA30CF80D030E0E0E190E240E2F7E
:100DE3000E3A0E450E500E5B0E660E710E7C0E878C
:100DF3000E920E9B0CC294C293C291C290020CA39A
:100E0300D293C294C291C290020CA3D294C293C251
:100E130091C290020CA3D294D293C291C290020CBD
:100E2300A3D290C294C293C291020CA3D293D29044
:100E3300C294C291020CA3D294D290C293C29102E3
:100E43000CA3D294D293D290C291020CA3D291C29A
:100E530094C293C290020CA3D293D291C294C29033
:100E6300020CA3D294D291C293C290020CA3D29447
:100E7300D293D291C290020CA3D290D291C294C2C7
:100E830093020CA3D293D290D291C294020CA3D218
:100E930094D290D291C293020CA374F41202A08A4A
:100EA300088B098C0A8D0B53F1FE43F30C53F2F3B9
:100EB30075868075C4807808120496000000000CC3
:100EC300000000B0040000100F60090000180FC0FC
:100ED300120000200F80250000280F40380000304A
:100EE3000F004B0000380F80700000400F00960089
:100EF30000480F00E10000500F002C0100580F00C4
:100F0300C20100600F00840300680F700F75C23BBD
:100F130075C505805E75C23B75C506805675C23BB7
:100F230075C507804E75C23B75C508804675C2D826
:100F330075C508803E75C23B75C509803675C2D834
:100F430075C509802E75C23B75C50A802675C2D842
:100F530075C50A801E75C23B75C50B801675C2D850
:100F630075C50B800E75C2D875C50C800675C23B5E
:100F730075C50A75C402438640D2AA75C1009004A0
:100F8300A97400F09004AA7400F090052C7400F08A
:100F930090052D7400F09004AB7400F090052E744E
:100FA30000F07F0402030C74F41202A08A088B0978
:100FB3008C0A8D0B7E007F00804B7A887B13120195
:100FC3007C9004A9E0F87900742928F58274043927
:100FD300F583E0850882850983F09004A9E0240164
:100FE300F0850882850983A3858208858309900497
:100FF300A9E0C3948040069004A97400F0EE240194
:10100300FEEF3400FF9004A9E0F89004AAE06860C2
:1010130009C3EE950AEF950B40A0EEFAEFFB7F04B0
:1010230002030CC082C083906189E04460F0906148
:101033009074D5F09061FA7409F09061B27415F070
:101043009061AE7400F01201CA7900D083D082029D
:1010530000FB79490200FBC082C08375F005E9A457
:1010630024D490618FF0D083D0820200FBC082C071
:1010730083EA906174F0E4EBFA906175F0D083D069
:10108300820200FBC082C083EA906172F0E4EBFA53
:10109300906173F0D083D0820200FB74F61202A039
:1010A30075E1EE7591FD780080138808750900EAF3
:1010B3002508F582EB3509F583E0F5D908E8C399EE
:1010C30040E87F0202030CC082C0838011E5D98A05
:1010D300828B83F08A828B83A3AA82AB8319E9C3B1
:1010E300940150E9D083D0820200FB75E1E9E591D8
:1010F300A2E150FA7591FD79000200FB75E1EC75F0
:10110300E1E30200FB75E1EF75E1EC0200FBC08255
:10111300C0839061A3E0C2E6F0539AFED083D082ED
:101123000200FBC082C0839061A3E0D2E6F0439A41
:1011330001D083D0820200FBC082C083A2AFE4331C
:10114300F8C2AF900427EAF0A3EBF0E8A2E092AF75
:10115300D083D0820200FBC082C083906193E054AD
:101163002270F8D083D0820200FBC082C083790052
:10117300120164D083D0820200FBEBC313FBEA139A
:10118300FAEAF8EBF9E824FFFAE934FFFBE84960EF
:10119300120000000000000000000000000000003A
:1011A3000080DE0200FB74F71202A0EAFEEBFFEE02
:1011B300F8EFF9E824FFFEE934FFFFE84960097A14
:1011C300E87B0312017C80E77F0102030C74F612B3
:1011D30002A0740A120294E0FEA3E0FFEAF8EBF91E
:1011E30080188C828D83E088828983F0A3A882A9EA
:1011F300838C828D83A3AC82AD838E088F09E5082F
:1012030024FF1EE50934FFFFE508450970D47F027A
:1012130002030CE5C65480F853BEFBE59DA2E550DE
:10122300FAE59DA2E240F40074016970077449482D
:10123300F5C68005E9700288C6E5C6F8E59EFAE8BA
:101243006A70F943BE040200FBC082C083120176B8
:1012530090054C1202271201DC12016AD083D0825E
:0D1263000200FBD2AF0200FBC2AF0200FB95
:04000005000000E314
:00000001FF
