:020000040000FA
:030000000200E318
:030013000206AD35
:030033000205DFE4
:03003B00020709B0
:03006B000204BFCD
:03007B0002054F2C
:1000830002066F00000080FB120113B90003020097
:10009300CDE4900301783979038002F0A3D8FCD929
:1000A300FA900539AA82AB839001167815790180FD
:1000B30015E493A3AC82AD838A828B83F0A3AA82D7
:1000C300AB838C828D83D8E9D9E775820E75830E55
:1000D30074001200F575828675830074001200F5B2
:1000E30075D00075813F751001751103759F00026E
:1000F300008BC09FF59FE473D09F22D083D082C032
:100103009FE493C0E0740193C0E0740293F59F22CF
:10011300790122FF00000000000000000000000041
:10012300000000802500001200FE7007001200FE90
:100133001708001200FE7808001200FE950900124D
:1001430000FE1E0A001200FEBA0A001200FEFB0F98
:10015300001200FEC50F001200FE1510001200FE73
:100163001A10001200FE890F001200FE990F0012F0
:1001730000FE470E001200FE760E001200FE8C0EEB
:10018300001200FEA30E001200FEBA0E001200FEC3
:10019300E60E001200FE0A0F001200FE1B0F0012F3
:1001A30000FE240F001200FE2D0F001200FE420F6E
:1001B300001200FE570F001200FE760F001200FE21
:1001C300CE0A001200FEDB0B001200FE400C0012F0
:1001D30000FE8C0C001200FEC60C001200FEDE0CAA
:1001E300001200FEC60D00E49366701308740193B9
:1001F30066700C0874029366700508740393662294
:10020300C3E4939608740193960874029396087452
:1002130003939622E0FAA3E0FBA3E0FCA3E0FD2214
:10022300EAF0A3EBF0A3ECF0A3EDF022700422605C
:100233000D18C6C333C608C633C6D5E0F41822E486
:10024300732510C582C0E0E51134FFC583C0E0E526
:1002530010C3958224F810AF08858311858210801E
:1002630008858311858210D2AFCEF0A3E520F0A3D9
:100273007808E608F0A3DEFAEFF0A3E58124FAF8A4
:10028300E608F0A3E608F0A3E608F0A30808E608EA
:10029300F0A3E608F0A315811581D0E0FED0E0F8C5
:1002A300158115811581E8C0E0EEC0E02285118338
:1002B300851082E0A3FEE0A3F5207808E0A3F6080A
:1002C300DFFAE0A3FFE0A3C0E0E0A3C0E0E0A3C047
:1002D300E0E0A3C0E0E0A3C0E010AF088582108592
:1002E30083118008858210858311D2AFD083D08299
:1002F3000200FBC0D02510C582C0E0E51134FFC564
:1003030083C0E0E510C3958224F310AF0885831101
:100313008582108008858311858210D2AFC8F0A32F
:10032300E9F0A3EAF0A3EBF0A37908E709F0A3D877
:10033300FAECF0A3EDF0A3EEF0A3EFF0A3D0E0F01E
:10034300A3D0E0F0A3D0E0F0A3E520F0A3E5F0F024
:10035300A322851183851082E0C0E0A3E0F9A3E026
:10036300FAA3E0FBA37808E0F608A3DFFAE0FCA316
:10037300E0FDA3E0FEA3E0FFA3E0C0E0A3E0C0E054
:10038300A3E0F5D0A3E0F520A3E0A3F5F010AF08B8
:100393008583118582108008858311858210D2AFF1
:1003A300D082D083D0E0F8D0E032D083D082C5F0C1
:1003B300E493A3C5F0C395F0F5F0E493A3C395F0DC
:1003C3004005E5F0048001E475F002A42582F5827E
:1003D300E5F03583F583E493A3C0E0E493C0E02222
:1003E300D083D082ECC0E0EDC0E0EEC0E0EFC0E02F
:1003F300E493A3FCE493A3FDE493A3FEE493A3FF9C
:10040300EF4E4D4C601512045FEC24FFFCED34FFFE
:10041300FDEE34FFFEEF34FFFF80E5E493A3FCE43D
:1004230093A3FDE493A3FEE493A3FFEF4E4D4C602F
:100433001512049CEC24FFFCED34FFFDEE34FFFEAB
:10044300EF34FFFF80E5D0E0FFD0E0FED0E0FDD049
:10045300E0FCE493A3C0E0E493C0E022C0E0C0F07A
:1004630088F0120203A8F040071201EAA8F0701AFC
:10047300A3A3A3A3120203A8F0A3A3A3A34013D08F
:10048300F0D0E0D0E0D0E0020449A3A3A3A3A3A348
:10049300A3A3A3A3D0F0D0E022C0E0C0F088F01261
:1004A30001EAA8F0A3A3A3A3700BD0F0D0E0D0E09F
:1004B300D0E0020449A3A3D0F0D0E022C0E074F15D
:1004C3001202F6C2C5E589607E7E0080747508015C
:1004D300750900EE780812022FE508AF08E5895F79
:1004E300605EEEF87900E875F002A4C8AAF075F032
:1004F30000A42AFA75F002E9A42AF974FD28F5820A
:10050300740339F583E0F8A3E0F9E849602EEEF8C7
:100513007900E875F002A4C8AAF075F000A42AFADD
:1005230075F002E9A42AF974FD28F582740339F5FC
:1005330083E0F8A3E0F5838882120242EFF4528944
:100543000EEEC3940840867F02020355C0E074F1A7
:100553001202F6C2EBE58A607E7E008074750801A4
:10056300750900EE780812022FE508AF08E58A5FE7
:10057300605EEEF87900E875F002A4C8AAF075F0A1
:1005830000A42AFA75F002E9A42AF9740D28F58269
:10059300740439F583E0F8A3E0F9E849602EEEF836
:1005A3007900E875F002A4C8AAF075F000A42AFA4D
:1005B30075F002E9A42AF9740D28F582740439F55B
:1005C30083E0F8A3E0F5838882120242EFF4528AB3
:1005D3000EEEC3940840867F02020355C0E074F117
:1005E3001202F6C2E8E58B607E7E00807475080116
:1005F300750900EE780812022FE508AF08E58B5F56
:10060300605EEEF87900E875F002A4C8AAF075F010
:1006130000A42AFA75F002E9A42AF9741D28F582C8
:10062300740439F583E0F8A3E0F9E849602EEEF8A5
:100633007900E875F002A4C8AAF075F000A42AFABC
:1006430075F002E9A42AF9741D28F582740439F5BA
:1006530083E0F8A3E0F5838882120242EFF4528B21
:100663000EEEC3940540867F02020355C0E074F288
:100673001202F6A2AFE433FEC2AFE5E9A2E65020D0
:10068300900427E0F8A3E0F9E849600E900427E01E
:10069300F8A3E0F5838882120242759B0053E9BFF9
:1006A300EEA2E092AF7F01020355C0E0C0D0E8C0E4
:1006B300E0E9C0E0C082C083E5C1C0E09004AAE0E5
:1006C300F87900742928F582740439F583D0E0F0B1
:1006D3009004A9E0F89004AAE0687006E5959004F8
:1006E300ABF09004AAE024019004AAF0C3948040E4
:1006F300069004AA7400F0D083D082D0E0F9D0E051
:10070300F8D0D0D0E032C0E0C0D0E8C0E0C008C02C
:1007130009C082C08390052CE0F890052DE0687035
:100723000B539AFB90052E7401F08031C2E99005BA
:100733002CE0F5087401250890052CF07509007468
:10074300AC2508F58274043509F583E0F5C19005FD
:100753002CE0C39480400690052C7400F0D083D025
:1007630082D009D008D0E0F8D0D0D0E03274F712AC
:100773000244E9FEEAF8EBF9E8FAE9FB740B2E8A86
:10078300828B83F0900308E0F8A3E0F5838882A3CB
:10079300A3A3A3A3E06006786179888004784179F4
:1007A30088E88A828B83A3F0E4E9F88A828B83A3A7
:1007B300A3F0900301E08A828B83A3A3A3F09003A9
:1007C30008E0F8A3E0F5838882A3A3E0F8A3E0F9A7
:1007D3008A828B83A3A3A3A3E8F0A3E9F08A828B85
:1007E30083A3A3A3A3A3A3ECF0A3EDF0900308E0DA
:1007F300F8A3E0F5838882E0F8A3E0F98A828B838B
:10080300A3A3A3A3A3A3A3A3E8F0A3E9F0790A7F77
:10081300010202B074F2120244ECFEEDFF8908A952
:1008230008EAFCEBFD7A0A7B0312012AE9FB7A0052
:1008330080348A0A750B00EE250AF582EF350BF535
:1008430083E0C0E08B0A750B008A0C750D00E50A86
:10085300250CF8E50B350DF9740A28F58274033974
:10086300F583D0E0F00AEAC3950840C6EB2508F902
:100873007F060202B074F71202447E7D7F031201E9
:10088300A812015A7901EEFAEFFB1201908E828FC2
:1008930083E0C2E7F08E828F83E0640570528E821C
:1008A3008F83E0F97A7E7B031201908E828F83A37C
:1008B300E0A2E55004D2F08002C2F0A2F0E433904B
:1008C3000541F07881790388828983A3E0A2E74018
:1008D3000302098A8E828F83A3A3A3E0F890030106
:1008E300E068600302098A9003027401F002098A36
:1008F3008E828F83E024F590053EF08E828F83E015
:10090300F97A7E7B031201908E828F83A3E0A2E5A6
:100913005004D2F08002C2F0A2F0E433900541F01B
:100923008E828F83A3A3A3A3A3A3A3A3E0F8A3E02F
:10093300F990053AE8F0A3E9F090053F7487F0A336
:100943007403F090053EE0F83395E0F990053FE03D
:1009530028F8A3E039F988828983E0900542F0887A
:10096300828983A3E0A2E750128E828F83A3E0548F
:10097300DF644170069005437401F08E828F83A378
:10098300A3A3E0900539F01201601201AE7F0102CA
:1009930002B074F7120244EAFEEBFF120172E9643B
:1009A3000170047901806F120160900308EEF0A3D7
:1009B300EFF090053F7400F0A37400F0900303740C
:1009C30001F09005451202179003041202239003CD
:1009D30008E0F8A3E0F5838882A3A3A3A3E0F912B8
:1009E3000178900308E0F8A3E0F5838882E0FAA396
:1009F300E0FB12017E900308E0F8A3E0F583888210
:100A0300A3A3E0FAA3E0FB1201847A367B0112016F
:100A1300B412015A79007F010202B074F412024445
:100A2300EAFEEBFF8C0A8D0B8908900303E0700349
:100A330012019CE508C39467500585080980037576
:100A430009678509081201BA1201A8A908AC0AAD01
:100A53000BEEFAEFFB120130E9F97A0A7B0312017C
:100A63008A1201AE120196E960027E01900308E04A
:100A7300F8A3E0F5838882A3A3A3A3A3E0601C905B
:100A830003027400F07A4A7B0212016C900302E0C5
:100A93006004740080027401FE80027E00900303F0
:100AA300E070031201A2EE7007900301E02401F04D
:100AB300EEF97F040202B0C082C083900303740185
:100AC300F012019CD083D0820200FB74F412024422
:100AD3008A088B098C0A8D0B53F1FE43F30C53F2F6
:100AE300F375868075C48078081203E30000000064
:100AF3000C000000B0040000410B60090000490B2A
:100B0300C0120000510B80250000590B4038000033
:100B1300610B004B0000690B80700000710B0096A5
:100B23000000790B00E10000810B002C0100890B10
:100B330000C20100910B00840300990BA10B75C245
:100B43003B75C505805E75C23B75C506805675C28B
:100B53003B75C507804E75C23B75C508804675C297
:100B6300D875C508803E75C23B75C509803675C208
:100B7300D875C509802E75C23B75C50A802675C216
:100B8300D875C50A801E75C23B75C50B801675C224
:100B9300D875C50B800E75C2D875C50C800675C295
:100BA3003B75C50A75C402438640D2AA75C100903D
:100BB30004A97400F09004AA7400F090052C74004A
:100BC300F090052D7400F09004AB7400F090052EA6
:100BD3007400F07F040202B074F7120244780079C3
:100BE30000803E9004A9E0FE7F0074292EF58274F4
:100BF300043FF583E08A828B83F09004A9E024010B
:100C0300F08A828B83A3AA82AB839004A9E0C39466
:100C13008040069004A97400F0E82401F8E9340048
:100C2300F99004A9E0FE9004AAE06E6007C3E89C73
:100C3300E99D40AFE8FAE9FB7F010202B0C082C040
:100C4300839004A9E0F89004AAE0C39840179004A5
:100C5300AAE0F879009004A9E0FA7B00E8C39AFAC5
:100C6300E99BFB801D9004A9E0F879007480C39888
:100C7300F8740099F99004AAE0FA7B00E82AFAE9EB
:100C83003BFBD083D0820200FBC082C0839005313E
:100C93007411F0A37411F0900533740BF090052FC9
:100CA3007422F0A37422F09005347401F07A2F7B40
:100CB3000512013CE9640160F4120148D083D0823B
:100CC3000200FB53F4E443FE1B5390E453F4FB5341
:100CD300FEFB53F6FB53F7BF0200FBC082C08390B9
:100CE3000537E01203ADA00FB10D0D0D180D230D47
:100CF3002E0D390D430D4D0D570D610D6B0D750DFA
:100D03007F0D890D930D9D0DA70DC294C293C291C2
:100D1300C290020DBFD291C294C293C290020DBF82
:100D2300D290C294C293C291020DBFC294C293D215
:100D330091D290020DBFD294C290C293C291807C93
:100D4300C293C290D294D2918072D294D290C29321
:100D5300C2918068D294D291D290C293805ED29392
:100D6300C294C291C2908054D293D291C294C29041
:100D7300804AC294C291D293D2908040D293D291AE
:100D8300D290C2948036C291C290D294D293802CD6
:100D9300D293D291D294C2908022D294D293D29001
:100DA300C2918018D294D293D291D290800E7901BD
:100DB3007C377D057A337B33120142E9D083D082BD
:100DC3000200FBC082C083A29240397A0A7B0012E0
:100DD300016CA292402EA29250FC900538E064016F
:100DE30070089005387400F0800C900538E07006A8
:100DF3009005387401F079017C387D057A337B33B3
:100E0300120142E9D083D0820200FB12014E12018B
:100E1300D21201D81201E41201CC900535EAF0A3F5
:100E2300EBF0900535C3E09401A3E09400A2D265F2
:100E3300D03340E07C017D007A377B051201C61276
:100E430001DE80D0C082C083906189E04460F0906D
:100E5300619074D5F09061FA7409F09061B27415E1
:100E6300F09061AE7400F01201AE7900D083D082AD
:100E73000200FBC082C08375F005E9A424D490610D
:100E83008FF0D083D0820200FBC082C083EA9061DE
:100E930074F0E4EBFA906175F0D083D0820200FB2A
:100EA300C082C083EA906172F0E4EBFA906173F060
:100EB300D083D0820200FB74F612024475E1EE7512
:100EC30091FD780080138808750900EA2508F582EA
:100ED300EB3509F583E0F5D908E8C39940E87F02CB
:100EE3000202B0C082C0838011E5D98A828B83F06D
:100EF3008A828B83A3AA82AB8319E9C3940150E945
:100F0300D083D0820200FB75E1E9E591A2E150FABA
:100F13007591FD79000200FB75E1EC75E1E30200D8
:100F2300FB75E1EF75E1EC0200FBC082C0839061C9
:100F3300A3E0C2E6F0539AFED083D0820200FBC046
:100F430082C0839061A3E0D2E6F0439A01D083D0BC
:100F5300820200FBC082C083A2AFE433F8C2AF9029
:100F63000427EAF0A3EBF0E8A2E092AFD083D082AB
:100F73000200FBC082C083906193E0542270F8D0DA
:100F830083D0820200FBC082C0837900120154D057
:100F930083D0820200FBEBC313FBEA13FAEAF8EBFC
:100FA300F9E824FFFAE934FFFBE849601200000086
:100FB3000000000000000000000000000080DE02CE
:100FC30000FBE5C65480F853BEFBE59DA2E550FA4D
:100FD300E59DA2E240F4007401697007744948F585
:100FE300C68005E9700288C6E5C6F8E59EFAE86A98
:100FF30070F943BE040200FBC082C08312016690F5
:1010030005491202171201C012015AD083D082027D
:0C10130000FBD2AF0200FBC2AF0200FBEA
:04000005000000E314
:00000001FF
