:020000040000FA
:030000000200E318
:0300130002111BBC
:0300330002104D6B
:03003B0002117738
:03006B00020F2D54
:03007B00020FBDB4
:100083000210DD00000080FB120113B9000302001F
:10009300CDE4900301784079038002F0A3D8FCD922
:1000A300FA900540AA82AB839001167868790180A3
:1000B30015E493A3AC82AD838A828B83F0A3AA82D7
:1000C300AB838C828D83D8E9D9E7758295758326B6
:1000D30074001200F575828675830074001200F5B2
:1000E30075D00075813F751001751103759F00026E
:1000F300008BC09FF59FE473D09F22D083D082C032
:100103009FE493C0E0740193C0E0740293F59F22CF
:10011300790122FF00000000000000000000000041
:1001230000000000C20100470048002563000A00E8
:1001330000003031323334353637383941424344A5
:10014300454600286E756C6C20706F696E7465721D
:1001530029003F3F3F000000807F0000803FF902FD
:100163001550B743BA510000204100E7DB2E0000D1
:10017300A04010000000080000001200FE2D220025
:100183001200FED422001200FE3523001200FE529C
:1001930024001200FEDB24001200FE77250012006B
:1001A300FE8725001200FE3026001200FE9A2C0066
:1001B3001200FE642C001200FEB42C001200FEB9E3
:1001C3002C001200FEBB2B001200FECB2B001200F2
:1001D300FEF72B001200FED429001200FE032A00B2
:1001E3001200FE082A001200FE1E2A001200FE352D
:1001F3002A001200FE4C2A001200FE782A00120088
:10020300FE9C2A001200FEAD2A001200FEB62A0050
:100213001200FEBF2A001200FED42A001200FEE9DB
:100223002A001200FE082B001200FE1628001200FE
:10023300FE2329001200FE8829001200FE44260036
:100243001200FE7E26001200FE1E2C001200FE1B72
:100253002B001200FE452B001200FEDE11001200DF
:10026300FEFC1600E4936670130874019366700C29
:1002730008740293667005087403936622C008C36A
:10028300E096F50808A3E096420808A3E096420822
:1002930008A3E0964208A2D265D033E5087001D3E3
:1002A300D00822C3E49396087401939608740293CA
:1002B30096087403939622080808E630E711120A99
:1002C300F61202D2080808C64480C6181818221865
:1002D3001818E9799EC608CAC608CBC608CCC6C397
:1002E30070207996CACBCC7019798ECBCC701379E8
:1002F30086CC700EF9802ACA33CACB33CBCC33CC2D
:10030300331930E7F2CCCBCA3350147004EA30E02F
:100313000DE4CA3ACACB3BCBCC3CCC500209C3E96F
:1003230013C6CC182313C6CB18C6CA18C6F9221293
:10033300037220F01430E72B74FFFCFBFA747F8008
:1003430022E4FCFBFA7480801AB48008BC00F2BB80
:1003530000EF800F50EBF9E4C39AFAE49BFBE49CB3
:10036300FCE499C6CC18C6CB18C6CA18C6F922E451
:10037300C9C608CAC608CBC6D3330308CCC6339252
:10038300F0C3947F402E94184019C9B90704CACB0F
:10039300CC225025C309CA33CACB33CBCC33CC339D
:1003A300D9F422F4600DC9CCC313CB13CBCA13CA3F
:1003B300D9F6CC22E4FCFBFA2214FCFBFA22E6C3B6
:1003C3003318461846184622E7C333194719471905
:1003D3004722181818E6084608700AE608C333705F
:1003E30005E633F4220822191919E7094709700AA7
:1003F300E709C3337005E733F4220922E608460808
:10040300C3134608336002E633F422E7094709C3FE
:10041300134709336002E733F4221203FF60251206
:10042300040E60201203C170030203CB080808E71F
:100433006670101819E766700A1819E766700418D1
:1004430019E76622F4221203FF601C12040E6017E0
:100453001203C170071203CB7001D322C0D0120361
:10046300CB7006D0D0B322C32233D0D0501430E0A7
:10047300F6C3E7960809E7960809E7960809E79699
:10048300B32220E0D5E6970809E6970809E697081E
:1004930009E697B3221203FF601B12040E601612C3
:1004A30003C170071203CB600CB322C0D01203CB7D
:1004B3007005D0D022C32233D0D0501330E0EBC329
:1004C300E7960809E7960809E7960809E7962220C0
:1004D300E0E4E6970809E6970809E6970809E6972E
:1004E30022001203FF604F12040E6012E75480666D
:1004F300F61203D570111203CB703B090909F4F608
:1005030018F618F618F6221203EA70151203C1083A
:10051300080860EAE6447FF618768018E4F618F6D1
:10052300221203C160161203CB7012E4F608F60818
:10053300F608E65480F609090918181822EAC0E0FB
:10054300EBC0E0ECC0E0EDC0E0E687F0A4FBACF06C
:1005530008E687F0A42CFCE435F0FA1809E687F0E6
:10056300A42C4B60027401CA35F0FCE433FB09E6AA
:1005730087F0D2F7A42CCB35F0FC1908E687F0A45A
:100583002BCC35F0FBE433FD0819E687F0D2E7A462
:100593002C4ACB35F0CD3400FC09E687F0D2E7A432
:1005A3002DCC35F0FDE433FA0918E687F0D2F7A431
:1005B3002CCD35F0CA3400FC08E687F0D2E7D2F739
:1005C300A42ACC35F07A7E20E70B0ACB33CBCD338C
:1005D300CDCC33CC33CB3350147004ED30E00ED29A
:1005E300F1E4CD3DCDCC3CCC3B5005DA05C2F1EB7B
:1005F300547FC63308E63392F0FBE73309E733C38E
:100603009A502D2B70190C0D4C4D70151806E608D9
:10061300C333700D20F10AA2F013F6E418800B40E7
:1006230024E4F630F002768018F618F618F68024E3
:10063300D33B14501074FFA2F013F6187680E4181D
:10064300F618F6800FA2F013F618E63303F618EC4B
:10065300F618EDF6D0E0FDD0E0FCD0E0FBD0E0FAF8
:100663002212040E60461203FF603DE9687008F62B
:1006730018F618F618F622748067F7120698090917
:1006830009748067F7221203FF601D12040E7005C0
:10069300191919801A1203D5701F1203EAC37003C4
:1006A300E66733191919400718181822080808743F
:1006B300FFF618F618F618F6221203EA601712036B
:1006C300CB702192F01203C17019501720F0140857
:1006D3000808090909E7F61819E7F61819E7F618DB
:1006E30019E7F6221203C160E6E869701F0808E6FD
:1006F3002480F608E436F618547FB47F0CE6548061
:100703006007F6E418F618F622181822E9C6CC0892
:10071300C6CD08C6CE08C6CFC0E0E8C0E0EAC0E058
:10072300EBC0E009E9F809E7FA09E7FBE6F918E69F
:10073300F8C3EC98ED99EE9AEBC2E7F5F0EFC2E758
:1007430095F0500E600CEBCFFBEACEFAE9CDF9E859
:10075300CCF8EAA2E7D2E7FAEB33FB13F5F0EEA20B
:10076300E7D2E7FEEF33FFC5F013A2E730E601B3AC
:1007730013C5F0C3C0E0C0F07F00C39BFB605B9474
:1007830018600C401AD0E023F9D0E0F80208678A19
:10079300F0E9486003D2F0E4AFF0FAF9F8803BEBFC
:1007A30030E40D89F0EA6003D2F0E4AFF0F9CAF85F
:1007B300EB30E30D88F0EF6002D2F0AFF0E4CAC98A
:1007C300F8EB54076014FBC3EA13FAE913F9E813CF
:1007D300F8EF135002D2E0FFDBEDD0E0C0E030E7EA
:1007E30039C3E49FFFF5F0EC98FC42F0ED99FD422C
:1007F300F0EE9AFE42F0D0E0F9D0E0F8E5F0607A4E
:10080300E923F9EE20E742D8028067C3EF33FFEC18
:1008130033FCED33FDEE33FE80EAEC28FCED39FDCD
:10082300EE3AFED0E023F9D0E0F84002801BC3EE9D
:1008330013FEED13FDEC13FCEF135002D2E0FF089F
:10084300B800067F7F74FF802EEF3350178CF020A3
:10085300F00260100CBC000C0DBD00080EBE0004BD
:1008630008E860DFE933E813FFEE2313FE4F4D4C36
:100873008008E95480FFE4FEFDFCEE33EF33F470AF
:1008830004FCFD7E80D0E0FBD0E0FAD0E0F8D0E0BD
:10089300CFC618CEC618CDC618CCC6F9221203FF90
:1008A30070041818182212040E700D74FFF618192C
:1008B300F61819F61819F622E7548066F61203C1E2
:1008C300700F1203CB70F014F608F608F608F680E2
:1008D300D11203CB700CF608F608768008E6447F45
:1008E30080EC1203ED700C1203D860BFE65480F65F
:1008F300E480BB1203D8700519191980A5E8697043
:100903000C763F18768018F618F6E8F922E6CDC083
:10091300E018ECC0E0E633CD33CDD313F6E719FC92
:10092300E7191933CC33C3947F400ECD9D5024086F
:10093300E65480F6E418F6800FF4043D14501408CE
:10094300E6447FF6187680E418F618F6D0E0FCD07B
:10095300E0FD22CCD313CCFD18E4C6CBC0E018E4F1
:10096300C6CAC0E00808ED08C633E613F618E43338
:10097300C675F003C3CA97CA09CB97CB199C400429
:100983007D08802EBD0003020A4916B6FF05060640
:10099300081618C3CA33CACB33CB33CA27CA09CB09
:1009A30037CB193CC37D08803E187D0820E75CC621
:1009B30033C6CA33CACB33CB33DDF1D5F0EB30E7E3
:1009C3007BCA97CA09CB974ACB199C406F4B7025BA
:1009D300E620E0218066187D08C3CA97CA09CB9731
:1009E300CB199CD3C633C6CA33CACB33CB3350C916
:1009F300DDE7D5F0E1D3E4C636C608C636C608C679
:100A030036C608C636C61818188031C3CA97CA092D
:100A1300CB97CB199CB34097C633C6CA33CACB33E3
:100A2300CB33DD34D5F02EC6A2E0C640C8CA27CAF0
:100A330009CB37194A70BECB3CB480B90808E633FA
:100A430008E633601F181818D0E0FAD0E0FBD0E0B6
:100A5300FCD0E0FD22187D08CA27CA09CB37CB1981
:100A63003CD3808013F618E4B67F11F618B6FF0E58
:100A7300F618C60470D20808768080CAF618F618ED
:100A8300F680C5E4CFC0E0E4CEC0E0E4CDC0E0E44E
:100A9300CCC0E075F020C3E633F608E633F608E68B
:100AA30033F608E633F6181818EC33FCED33FDEE95
:100AB30033FEEF33FFC3EC9709ED9709EE9709EF88
:100AC30097191919400FFFEC97FC09ED97FD09EEF3
:100AD30097FE191906D5F0BEECF709EDF709EEF705
:100AE30009EFF7191919D0E0FCD0E0FDD0E0FED0F2
:100AF300E0FF22181818E4C396F608E496F608E413
:100B030096F608E496F622E0F608A3E0F608A3E0DA
:100B1300F608A3E0F622E6F008A3E6F008A3E6F061
:100B230008A3E6F022E0FAA3E0FBA3E0FCA3E0FDC8
:100B330022EAF0A3EBF0A3ECF0A3EDF022CAC0E0AD
:100B4300E6F0A308DAFAD0E0FA22CAC0E0E0A3C5CF
:100B530082CCC582C583CDC583F0A3C582CCC582B3
:100B6300C583CDC583DAE6D0E0CA22C3E498F8E4AE
:100B730099F9120BAF8026C3E49AFAE49BFBE920B0
:100B8300E7E9120BAFE498F8E499F922C3E498F883
:100B9300E499F9120BAFE498F8E499F9C3E49AFAEB
:100BA300E49BFB22EB20E7CFE920E7E0B90010BB91
:100BB3000008E88AF084F8AAF022E4FBC8FA22EBE2
:100BC30070227B10C833C8C933C9335007C39AC3D3
:100BD300DBF280069A50012ADBEAC833F4C8C93332
:100BE300F4C9FA2275F008E4C833C8C933C933C954
:100BF3009AC99B5004C92AC93BD5F0ECFBC833F40E
:100C0300C8E4C9FA22700422600D18C6C333C608AB
:100C1300C633C6D5E0F41822251010AF08F51040EE
:100C23000215118008F51040021511D2AF22C0D071
:100C3300251010AF08F510500205118008F510506B
:100C4300020511D2AFD0D0222510F58210AF08F5DE
:100C530010400215118008F51040021511D2AF851E
:100C63001183222510F582E43511F58322E47325DF
:100C730010C582C0E0E51134FFC583C0E0E510C3B1
:100C8300958224F810AF088583118582108008852A
:100C93008311858210D2AFCEF0A3E520F0A37808AC
:100CA300E608F0A3DEFAEFF0A3E58124FAF8E608FC
:100CB300F0A3E608F0A3E608F0A30808E608F0A30B
:100CC300E608F0A315811581D0E0FED0E0F8158188
:100CD30015811581E8C0E0EEC0E0228511838510FF
:100CE30082E0A3FEE0A3F5207808E0A3F608DFFA8C
:100CF300E0A3FFE0A3C0E0E0A3C0E0E0A3C0E0E026
:100D0300A3C0E0E0A3C0E010AF0885821085831183
:100D13008008858210858311D2AFD083D0820200F0
:100D2300FBC0D02510C582C0E0E51134FFC583C0E8
:100D3300E0E510C3958224F310AF08858311858203
:100D4300108008858311858210D2AFC8F0A3E9F023
:100D5300A3EAF0A3EBF0A37908E709F0A3D8FAEC30
:100D6300F0A3EDF0A3EEF0A3EFF0A3D0E0F0A3D057
:100D7300E0F0A3D0E0F0A3E520F0A3E5F0F0A32298
:100D8300851183851082E0C0E0A3E0F9A3E0FAA314
:100D9300E0FBA37808E0F608A3DFFAE0FCA3E0FD9C
:100DA300A3E0FEA3E0FFA3E0C0E0A3E0C0E0A3E074
:100DB300F5D0A3E0F520A3E0A3F5F010AF088583F9
:100DC300118582108008858311858210D2AFD0826D
:100DD300D083D0E0F8D0E032740280027401C0E026
:100DE300F404120C4BD0E0120B402274028000CCAE
:100DF300C0E0EDC0E0E510C39CCCAD1150011D1067
:100E0300AF068C108D1180068C108D11D2AF120B92
:100E13004DD0E0FDD0E0FC22D083D082C5F0E49336
:100E2300A3C5F0C395F0F5F0E493A3C395F0400593
:100E3300E5F0048001E475F002A42582F582E5F073
:100E43003583F583E493A3C0E0E493C0E022D08329
:100E5300D082ECC0E0EDC0E0EEC0E0EFC0E0E49390
:100E6300A3FCE493A3FDE493A3FEE493A3FFEF4E5B
:100E73004D4C6015120ECDEC24FFFCED34FFFDEE5E
:100E830034FFFEEF34FFFF80E5E493A3FCE493A378
:100E9300FDE493A3FEE493A3FFEF4E4D4C601512C4
:100EA3000F0AEC24FFFCED34FFFDEE34FFFEEF34BC
:100EB300FFFF80E5D0E0FFD0E0FED0E0FDD0E0FC16
:100EC300E493A3C0E0E493C0E022C0E0C0F088F064
:100ED3001202A6A8F04007120267A8F0701AA3A393
:100EE300A3A31202A6A8F0A3A3A3A34013D0F0D0F8
:100EF300E0D0E0D0E0020EB7A3A3A3A3A3A3A3A3D0
:100F0300A3A3D0F0D0E022C0E0C0F088F0120267C3
:100F1300A8F0A3A3A3A3700BD0F0D0E0D0E0D0E05F
:100F2300020EB7A3A3D0F0D0E022C0E074F1120DFB
:100F330024C2C5E589607E7E008074750801750949
:100F430000EE7808120C08E508AF08E5895F605EDB
:100F5300EEF87900E875F002A4C8AAF075F000A4D1
:100F63002AFA75F002E9A42AF974FD28F5827403BC
:100F730039F583E0F8A3E0F9E849602EEEF879004B
:100F8300E875F002A4C8AAF075F000A42AFA75F077
:100F930002E9A42AF974FD28F582740339F583E084
:100FA300F8A3E0F5838882120C70EFF452890EEEF9
:100FB300C3940840867F02020D83C0E074F1120DD2
:100FC30024C2EBE58A607E7E008074750801750992
:100FD30000EE7808120C08E508AF08E58A5F605E4A
:100FE300EEF87900E875F002A4C8AAF075F000A441
:100FF3002AFA75F002E9A42AF9740D28F58274041B
:1010030039F583E0F8A3E0F9E849602EEEF87900BA
:10101300E875F002A4C8AAF075F000A42AFA75F0E6
:1010230002E9A42AF9740D28F582740439F583E0E2
:10103300F8A3E0F5838882120C70EFF4528A0EEE67
:10104300C3940840867F02020D83C0E074F1120D41
:1010530024C2E8E58B607E7E008074750801750903
:1010630000EE7808120C08E508AF08E58B5F605EB8
:10107300EEF87900E875F002A4C8AAF075F000A4B0
:101083002AFA75F002E9A42AF9741D28F58274047A
:1010930039F583E0F8A3E0F9E849602EEEF879002A
:1010A300E875F002A4C8AAF075F000A42AFA75F056
:1010B30002E9A42AF9741D28F582740439F583E042
:1010C300F8A3E0F5838882120C70EFF4528B0EEED6
:1010D300C3940540867F02020D83C0E074F2120DB3
:1010E30024A2AFE433FEC2AFE5E9A2E650209004A8
:1010F30027E0F8A3E0F9E849600E900427E0F8A39D
:10110300E0F5838882120C70759B0053E9BFEEA251
:10111300E092AF7F01020D83C0E0C0D0E8C0E0E9F8
:10112300C0E0C082C083E5C1C0E09004AAE0F879C2
:1011330000742928F582740439F583D0E0F0900413
:10114300A9E0F89004AAE0687006E5959004ABF076
:101153009004AAE024019004AAF0C394804006906E
:1011630004AA7400F0D083D082D0E0F9D0E0F8D0A4
:10117300D0D0E032C0E0C0D0E8C0E0C008C009C0B1
:1011830082C08390052CE0F890052DE068700B5326
:101193009AFB90052E7401F08031C2E990052CE092
:1011A300F5087401250890052CF075090074AC2529
:1011B30008F58274043509F583E0F5C190052CE048
:1011C300C39480400690052C7400F0D083D082D065
:1011D30009D008D0E0F8D0D0D0E03274F0120C720D
:1011E30074FD120C1B7402120C66E9F08A088B0959
:1011F3008C0A8D0B7415120C66E0FEA3E0FF8510BC
:1012030082851183E4F0A3F08E828F83A3AA82AB3D
:1012130083900583780C120B0A7808790C12041D4D
:1012230070188E828F8374691216BD746EF0A37466
:1012330066F0A30A0AAB83021658780879081204E9
:101243001D60118E828F83746E1216BD7461F0A3BC
:10125300746E80DD900587780C120B0A7808790C80
:10126300120449500302130890054C780C120B0A20
:101273007808790C12041D600302135C7417120CB6
:1012830066E0700302139E851082851183C082C0BD
:10129300837413120C661220FBD083D0821216962D
:1012A300502C851082851183C3E094FCA3E094FF46
:1012B300A2D265D03340177402120C66E41221CF18
:1012C300F97413120C66C3E098F0A3E099F0741359
:1012D300120C661216B37418120C66E07003021334
:1012E3009B7417120C66E402139D90058B780C1205
:1012F3000B0A7808790C1208A0851082851183E007
:10130300240A12220C90058F780C120B0A780879A4
:101313000C12044940D4900593780C120B0A7808F8
:10132300790C120449400302127F900593780C1242
:101333000B0A7808790C1208A012220380D89005B2
:101343008B780C120B0A7808790C1204E48510824E
:10135300851183E024F61216B6900597780C120BCC
:101363000A7808790C12049840D4900587780C12F7
:101373000B0A7808790C120498400302127F900537
:1013830093780C120B0A7808790C1204E485108206
:101393008511831216B380D27401F07402120C66A5
:1013A300E060077A007B000214AA1216A2507D8E19
:1013B300828F837430F0EAFEEBFF7413120C66E045
:1013C300FCA3E0FDEC4D70087418120C66E0600B92
:1013D3008E828F83742EF0A30EAF837A007B0080FE
:1013E300118E828F8374301216DE7413120C661200
:1013F30016B3EA24FF1AEB34FFFB851082851183B1
:1014030012168A500B7413120C661220FF4970D106
:1014130085108285118374FFC39CF874FF9DF912B4
:10142300169650030215787A010213A88510828557
:1014330011831220FBC3E498FAE499FB80698508C1
:101443000C85090D850A0E850B0F780C120332AC3F
:101453000CE50D3395E0F50EF50F780C1202BA7812
:1014630008790C120664900593780C120B0A78081D
:10147300790C1204E4EC1216D8EAF8EBF9E824012B
:101483000AE93400FBE849701E7413120C6612203B
:10149300FF4970087418120C66E0600B8E828F830C
:1014A300742EF0A30EAF837413120C6612168A50B7
:1014B3008D90059B780C120B0A7808790C1204495D
:1014C30040030215787C01EE24FFF8EF34FFF97432
:1014D30015120C66E0F508A3E0F50988828983E01C
:1014E300642E6010E02CF0643A70077430F07C01D5
:1014F30080027C00E8FAE9FBEA24FF18EB34FFF9E9
:10150300C3E5089AE5099B40D2ECA2E05067740258
:10151300120C66E06036EEF8EF800A121675E824C6
:10152300FF18E934FFF9C3E50898E5099950181243
:101533001662E0642E70E4E824FEF582E934FFF5D8
:101543008312166FF980D7122203801E8E828F8337
:10155300A3AE82AF83EEF8EF800612166212166F07
:10156300F9C3E50898E5099940F07415120C661261
:10157300211A7431F07417120C66E07005801A1E7C
:10158300AF83EE24FFF582EF34FFF583E064306030
:10159300EEE0642E70031EAF837402120C66E070DB
:1015A300030216541216DAA3A9831216A28E828F8F
:1015B300835014742DF00EE9FF8510828511831278
:1015C30021431216CB8006742BF00EE9FF7C007DBD
:1015D30000EE240AFEEF3400FFEC24010CED34008E
:1015E300FD12167C120BA7EA1216D812167C120BE8
:1015F300A71216E54970E2C3EC9402ED1220AC4049
:10160300D8ECFAEDFBC3E49CF8E49DF9EE28F582EF
:10161300EF39F583E0C0E0C3E49AF8E49BF9EE28E0
:10162300F8EF39F9E82CF8E93DF9E824F5F582E912
:1016330034FFF583D0E0F0EC24FF1CED34FFFDC351
:10164300EC9401ED1220AC50BCEE24F6FEEF34FF17
:10165300FFEEFAEFFB7403120C317F08020CDEE895
:1016630024FFFAE934FFFB8A828B83221216751852
:10167300EB22E088828983F0228510828511831210
:1016830021507A0A7B0022C3E09AA3E09BA2D26591
:10169300D03322C3E098A3E099A2D265D033228548
:1016A3001082851183C3A3E09400A2D265D03322B4
:1016B300E024FFF0A3E034FFF022F0EAFEEBFF8E1C
:1016C300828F8322A3E03400F9851082851183E899
:1016D300F0A3E9F02224308E828F83F0A3AE82AF91
:1016E30083228510828511831216EF22E8F0A3E985
:1016F300F0851082851183E02274F0120C7274B0AD
:10170300120C1B8510828511831221B57418120CDB
:1017130066ECF0A3EDF0740F120C66E4F0A38022E4
:101723007460120C661220EB7404120C66E0F974F8
:1017330018120C6612211A120C70740F120C661216
:1017430020B4F012212EFA1221EE120C66EAF07484
:10175300256A6010E070C9740F120C661220EB74D6
:101763005002165A12212E64257019851082851194
:1017730083E02401081216C77460120C661220EB72
:10178300792580AB740E120C66E4F0740D120C66AE
:10179300E4F0740C120C66E4F07405120C66E4F0C9
:1017A300741E120C66A882A9837402120C6680153B
:1017B3007405120C66E070077405120C66EAF08576
:1017C30010828511831216EB1220E2122175FA247E
:1017D300E060DD24FD601724F860DD24FE6006244C
:1017E300FD600F8011740C120C66E00480D0740D40
:1017F30080F5740E80F1122175642A705B74621295
:101803000C66122180FB8A828B83E0FCA3E0FD74CB
:101813000A120C66ECF0A3EDF0EA24020A0AEB3498
:1018230000FB7462120C661221AD740A120C66126C
:1018330016A8501F740A120C661220EBC3E49AFA1E
:10184300E49BFB740A120C661221B5740C120C662D
:10185300E004F01216CC804A740A120C66E4F0A37A
:10186300802D740A120C661220FF75F00AA4F8AAE0
:10187300F075F00AE9A42AF9E50828F8E439F9E84B
:1018830024D0F8E934FFF9740A120C6612221312F9
:1018930021CFF5838882E0F50874D02508C3940A24
:1018A30040C0740C120C66E06007740E120C66E400
:1018B300F012212E642E60030219478510828511D0
:1018C30083E0240108A3E03400F91216E512211F76
:1018D300E0642A702C7462120C66122134F8A3E0BF
:1018E300F988828983E0FEA3E0FFE824020808E97F
:1018F3003400F97462120C66122168122213F0800C
:10190300477E007F0085108285118312213D74D0AC
:101913002508C3940A5031EE75F00AA4FEA8F075A9
:10192300F00AEFA428FFE5082EF8E43FF9E824D0F5
:10193300FEE934FFFF851082851183E02401F8124C
:1019430016C780C17EFF7FFF7A00851082851183D1
:101953001220DD851082851183E0FBA3E0F5838BE4
:1019630082E024B4600824E4600524FC70040A12B5
:1019730016CC12212EFB1221EE120C66EBF0700333
:10198300021F5224BB7003021E1824FE7003021DA3
:10199300FA24EF7003021B4424F57003021A49145E
:1019A3007003021BE9147003021E18147003021E55
:1019B30016147003021DFA24FE7003021BE924FBB4
:1019C3006024147003021B34147003021B4424FDAF
:1019D3007003021A8224FE7003021B4424FD700369
:1019E300021B44021F5E7462120C661221A7120CC2
:1019F300661216D2EAA2E0740F5033120C66E0FCB2
:101A0300A3E0FD3395E0FE7406120C66122188EC08
:101A1300F0A3EDF0A3EEF0A3F07462120C661221B2
:101A23008F120C66122168E8F0A3E9021745120C25
:101A3300661220FB7406120C66122180F5838A82DB
:101A4300E8F0A3E980D27462120C66122188E0C028
:101A5300E0741E120C66D0E0F07462120C66122160
:101A63008F120C661221681216D2741F120C66A80C
:101A730082A9837412120C66E8F0A3E9021F75743D
:101A830062120C661221A7120C661216D274061289
:101A93000C661221A7120C66E02402FAA3E03400BC
:101AA300FB7462120C661221AD7402120C661216DC
:101AB300D2E849700C7402120C667470F0A37405BA
:101AC300F01220AA50047E107F277408120C66E4DB
:101AD300F0A380087408120C661220B4F07402128A
:101AE3000C661220FB88828983A3AA82AB837402CB
:101AF300120C661221B588828983E0600A74081289
:101B03000C6612210440CD7402120C661220CB74B1
:101B130012120C661216D27408120C66122143F9C3
:101B23007412120C66E028F8A3E039F97402021A61
:101B330078740D120C66E06008EE4F70047E017F2E
:101B4300007462120C661221A7120C661221FB129A
:101B53000C66E0647070387406120C6612219D12D4
:101B63000C661221D6120C66E0240212215F120CBD
:101B7300661221681216D290059F120B28741A124E
:101B83000C66120B347405120C66E4F0021C79EA3D
:101B9300A2E07406501B120C6612211A120B287451
:101BA30014120C66120B347406120C66E0240480C3
:101BB30012120C6612219D120C661221D6120C66AB
:101BC300E0240212215F120C661221681221FB121B
:101BD3000C66E0646F70059005A3809EE0647570E9
:101BE3009690055B80947462120C661221A7120C06
:101BF300661216D2EAA2E074065016120C6612217F
:101C03001A7808120B0A7406120C66E02404F88092
:101C13001B120C6612213DA3E0F5093395E0F50A8A
:101C2300F50B7406120C66E02402080812216012F8
:101C33000C661221E3120C667808120B1990054CFE
:101C4300780812028040217405120C66742DF0741A
:101C530014120C667808120B0A7808120AF9741425
:101C6300120C667808120B1990055B120B28741A74
:101C7300120C66120B34744F120C66A882A983747B
:101C830002120C661216D27412120C661221E6129C
:101C93000C667808120B0AE5084509450A450B60EE
:101CA300097411120C66740180067411120C66E437
:101CB300F0EE4F7008E0A2E04003021D6D740212C3
:101CC3000C66122114120C661221E6120C66780CB3
:101CD300120B0A741A120C667808120B0A780C7924
:101CE30008120A86745F2508F58274053509F583A1
:101CF300E0C0E07402120C6612211AD0E0F07414F2
:101D0300120C66780C120B0A741A120C66780812FD
:101D13000B0A780C7908120A867414120C66780C74
:101D2300120B197414120C667808120B0AE5084595
:101D330009450A450B70861220AA502E740E120C08
:101D430066E060267405120C66E06004D2F080023F
:101D5300C2F0740A120C661220BD800E7402120CBB
:101D6300661221C7120C661221277402120C661226
:101D730020CB744F120C66C082C0837402120C66AF
:101D83001220EBD083D082E582C39AFAE5839BFBD2
:101D9300C3EA9EEB12210D40C3740D120C66E07072
:101DA30003021F767411120C66E0A2E04003021FC7
:101DB300767404120C66E064786005E06458701E63
:101DC300121675E824FF18E934FFF97402120C6641
:101DD3001221C7120C6612211A7430021F75E064B7
:101DE3006F6003021F767402120C6612217B64304B
:101DF3007003021F7680D47408120C667401F0A37A
:101E0300E4F07404120C66E024FEF0EE4F700F7ED3
:101E1300018012E4F07408120C66E4F0A3F01220BF
:101E2300AA50047E067F007462120C661221A71268
:101E33000C661216D27406120C6612211A780C1252
:101E43000B0A7406120C66E0240412215F120C665E
:101E53001221E3120C66780C120B1990054C7808CA
:101E6300120B0A780C790812049850227405120C8C
:101E730066742DF07414120C667808120B0AE50BC5
:101E8300B2E7F50B7414120C667808120B19740A76
:101E9300120C661220FB741E120C66E58228F8E50C
:101EA3008339F97402120C661216D2740D120C6681
:101EB300E0F5087808120DDF7409120C66E0F508E6
:101EC3007808120DDF7404120C66120DEE8E088F63
:101ED300097808120DDB740A120C66E0F9741A1201
:101EE3000C66120B2812025B7406120C3174121268
:101EF3000C661221B5740E120C66E060767405123E
:101F03000C66E06004D2F08002C2F0740A120C6620
:101F13001220BD7412120C66C082C0837402120CAC
:101F2300661220FBD083D082E0C398F8A3E099F92E
:101F3300C3E89EE912210D503A7402120C66122175
:101F430014120C661221C7120C6612212780C48555
:101F530010828511831220D41216CB7402120C66E0
:101F6300747FF0A37405F07412120C667482F0A3EC
:101F73007405F07412120C66C082C0837402120CD2
:101F8300661220FBD083D082E0C398FEA3E099FFC2
:101F9300740A120C66122104500A7408120C66E4C7
:101FA300F0A380307405120C66E06004D2F0800266
:101FB300C2F0740A120C66E0C39EF8A3E09FF9A274
:101FC300F0E433FAE89AF8E99400F97408120C661D
:101FD300E8F0A3E9F0740C120C66E0702B8019741E
:101FE30060120C661220F1120C6612211A120C7088
:101FF300740F120C661222097408120C661221BBAC
:10200300120C661216A850D77405120C66E06050C5
:102013007460120C661220EB7405120C66E0F974FE
:1020230018120C6612211A120C70802C7460120C98
:10203300661220EB7402120C66122134F974181222
:102043000C6612211A120C707402120C661220DD37
:102053007402120C661216D2740F120C6612220945
:10206300EE24FF1EEF34FFFFC31220AC50BE740CEE
:10207300120C66E070030217467408120C661221F4
:10208300BB120C661216A850030217467460120C9A
:10209300661220F1120C6612211A120C70740F12C0
:1020A3000C6612220980D2C3EF9400A2D265D0330A
:1020B30022E02401F0A3E0340022A2F0E433F8E0AC
:1020C30098FEA3E09400FF221220CF221220D4F91D
:1020D30022E024FFF8A3E034FF22E01220E22224CE
:1020E30001F8A3E03400F922E0FAA3E0FB22E0FACE
:1020F300A3E0FB792074182212215022122150E808
:1021030022C3E09EA3E012210D229FA2D265D03309
:10211300221220CF74022212211E22E0F8A3E0F53E
:102123008388822212211E7430F022851082851149
:102133008312213822122156E022122138F5082277
:10214300122150C3E498F8E49922122156E0F8A32F
:10215300E0F922E0F8A3E0F583888222F8A3E034D3
:1021630000F974622212216C22E0FAA3E0F5838A5B
:10217300822285108285118312216CE02212216C48
:10218300E0FAA3E02212213812211F22122138245F
:1021930002F8A3E03400F974622212214DE8FAE94F
:1021A300FB74142212214D740622E0FCA3E0F58394
:1021B3008C82EAF0A3EBF022E024FFF0A3E034FFEB
:1021C300F0740822E8F0A3E9F07402221216F3F87F
:1021D300A3E022EAF0A3EBF0A3E4F0A3F074062259
:1021E30012216CE8F0A3E9F07414228510828511A2
:1021F30083E0240108122221E8F0A3E9F074042209
:10220300851082851183E02401F0A3E03400F022DD
:102213001216EF2401F8122221E8F0A3E922A3E029
:102223003400F98510828511832274F7120C72E948
:10223300FEEAF8EBF9E8FAE9FB740B2E8A828B834A
:10224300F0900308E0F8A3E0F5838882A3A3A3A397
:10225300A3E0600678617988800478417988E88A08
:10226300828B83A3F0E4E9F88A828B83A3A3F090A3
:102273000301E08A828B83A3A3A3F0900308E0F811
:10228300A3E0F5838882A3A3E0F8A3E0F98A828B15
:1022930083A3A3A3A3E8F0A3E9F08A828B83A3A378
:1022A300A3A3A3A3ECF0A3EDF0900308E0F8A3E04D
:1022B300F5838882E0F8A3E0F98A828B83A3A3A342
:1022C300A3A3A3A3A3E8F0A3E9F0790A7F01020C77
:1022D300DE74F2120C72ECFEEDFF8908A908EAFC29
:1022E300EBFD7A0A7B0312017DE9FB7A0080348AD5
:1022F3000A750B00EE250AF582EF350BF583E0C076
:10230300E08B0A750B008A0C750D00E50A250CF8A5
:10231300E50B350DF9740A28F582740339F583D07A
:10232300E0F00AEAC3950840C6EB2508F97F0602E8
:102333000CDE74F7120C727E7D7F031202131201FE
:10234300B97901EEFAEFFB1201FB8E828F83E0C2B3
:10235300E7F08E828F83E0640570528E828F83E074
:10236300F97A7E7B031201FB8E828F83A3E0A2E5C1
:102373005004D2F08002C2F0A2F0E433900548F09A
:102383007881790388828983A3E0A2E7400302244A
:10239300478E828F83A3A3A3E0F8900301E06860D4
:1023A300030224479003027401F00224478E828FB4
:1023B30083E024F5900545F08E828F83E0F97A7EE1
:1023C3007B031201FB8E828F83A3E0A2E55004D22C
:1023D300F08002C2F0A2F0E433900548F08E828FC1
:1023E30083A3A3A3A3A3A3A3A3E0F8A3E0F9900566
:1023F30041E8F0A3E9F09005467487F0A37403F075
:10240300900545E0F83395E0F9900546E028F8A3F8
:10241300E039F988828983E0900549F088828983CD
:10242300A3E0A2E750128E828F83A3E054DF6441BE
:10243300700690054A7401F08E828F83A3A3A3E0F4
:10244300900540F01201BF1202197F01020CDE74E5
:10245300F7120C72EAFEEBFF1201D7E96401700474
:102463007901806F1201BF900308EEF0A3EFF090A3
:1024730005467400F0A37400F09003037401F09018
:10248300054C120B28900304120B34900308E0F858
:10249300A3E0F5838882A3A3A3A3E0F91201E39049
:1024A3000308E0F8A3E0F5838882E0FAA3E0FB12D7
:1024B30001E9900308E0F8A3E0F5838882A3A3E091
:1024C300FAA3E0FB1201EF7A897B0112021F1201CA
:1024D300B979007F01020CDE74F4120C72EAFEEB90
:1024E300FF8C0A8D0B8908900303E0700312020727
:1024F300E508C39467500585080980037509678556
:102503000908120225120213A908AC0AAD0BEEFA50
:10251300EFFB120183E9F97A0A7B031201F5120238
:1025230019120201E960027E01900308E0F8A3E0BA
:10253300F5838882A3A3A3A3A3E0601C9003027482
:1025430000F07A4A7B021201CB900302E06004742C
:102553000080027401FE80027E00900303E070039A
:1025630012020DEE7007900301E02401F0EEF97FF3
:1025730004020CDEC082C08390054AE0F9D083D008
:10258300820200FB74F2120C728A0A8B0BECFEEDD2
:10259300FF740E120C66E0F508A3E0F5091201BF03
:1025A300900545E0F83395E0F9C3E89EE99F500DA7
:1025B300900545E0F50C3395E0F50D80048E0C8F06
:1025C3000D780C120DDB900546E0FCA3E0FDAA0A92
:1025D300AB0B1202497402120C31E508450960265F
:1025E3001201DDE9F50A900549E0F83395E0F97544
:1025F3000B00E8C3950AF8E9950BF985088285096C
:1026030083E8F0A3E9F090054A7400F01201B99051
:102613000545E0F83395E0F9C3E89EE99F5007903C
:102623000545E0F98002EEF97F06020CDEC082C0A8
:10263300839003037401F0120207D083D082020057
:10264300FBC082C0839005317411F0A37411F09024
:102653000533740BF090052F7422F0A37422F090CD
:1026630005347401F07A2F7B0512018FE964016050
:10267300F41201A7D083D0820200FB43FE0143FE84
:102683000243FE0843FE10C294C293C291C2900259
:1026930000FB1201AD12023D120243D2937AD07BAA
:1026A300071201D1C29379017C547D057A337B33C0
:1026B300120195E9120237EA900535F08025790178
:1026C3007C567D057A337B33120195E9C293C2911F
:1026D300C290D2947AD07B071201D1C294C293C222
:1026E30091C290900535E0704A12019BE960F4E4D1
:1026F300F508F5097808120DDB7C017D007A387B3B
:10270300051201A17402120C31E9900538E0644707
:1027130060AC900538E0644870C9C293C291C2901E
:10272300D2947AD07B071201D1C294C293C291C2D0
:102733009080B0900535E0C3940140317C027D0068
:102743007A367B05120231900536E0900539F09018
:102753000539E0F5087509007808120DDB7C587D12
:10276300057A3B7B051202557402120C3179017C08
:102773003A7D057A337B33120195E990053BE012EC
:102783000E1B000FB726B726A927AE27B327BA27F4
:10279300BF27C627CD27D627DB27E227E927F2273E
:1027A300F92702280B28D2930226B7D2940226B720
:1027B300D294D2930226B7D2900226B7D293D29064
:1027C3000226B7D294D2900226B7D294D293D29053
:1027D3000226B7D2910226B7D293D2910226B7D25C
:1027E30094D2910226B7D294D293D2910226B7D231
:1027F30090D2910226B7D293D290D2910226B7D229
:1028030094D290D2910226B7D294D293D290D291FD
:102813000226B774F4120C728A088B098C0A8D0B8A
:1028230053F1FE43F30C53F2F375868075C480783D
:1028330008120E51000000000C000000B00400005C
:102843008928600900009128C0120000992880257A
:102853000000A12840380000A928004B0000B1283F
:1028630080700000B92800960000C12800E1000034
:10287300C928002C0100D12800C20100D9280084F6
:102883000300E128E92875C23B75C505805E75C262
:102893003B75C506805675C23B75C507804E75C22C
:1028A3003B75C508804675C2D875C508803E75C29C
:1028B3003B75C509803675C2D875C509802E75C2AA
:1028C3003B75C50A802675C2D875C50A801E75C2B8
:1028D3003B75C50B801675C2D875C50B800E75C2C6
:1028E300D875C50C800675C23B75C50A75C402430D
:1028F3008640D2AA75C1009004A97400F09004AA7E
:102903007400F090052C7400F090052D7400F09085
:1029130004AB7400F090052E7400F07F04020CDE0B
:1029230074F7120C7278007900803E9004A9E0FEDF
:102933007F0074292EF58274043FF583E08A828B2D
:1029430083F09004A9E02401F08A828B83A3AA82F6
:10295300AB839004A9E0C3948040069004A974005B
:10296300F0E82401F8E93400F99004A9E0FE9004AA
:10297300AAE06E6007C3E89CE99D40AFE8FAE9FB73
:102983007F01020CDEC082C0839004A9E0F89004AA
:10299300AAE0C39840179004AAE0F879009004A92C
:1029A300E0FA7B00E8C39AFAE99BFB801D9004A937
:1029B300E0F879007480C398F8740099F99004AA38
:1029C300E0FA7B00E82AFAE93BFBD083D0820200DD
:1029D300FBC082C083906189E04460F09061907491
:1029E300D5F09061FA7409F09061B27415F09061BA
:1029F300AE7400F01202197900D083D0820200FB7A
:102A030079490200FBC082C08375F005E9A424D490
:102A130090618FF0D083D0820200FBC082C083EA32
:102A2300906174F0E4EBFA906175F0D083D0820288
:102A330000FBC082C083EA906172F0E4EBFA90611C
:102A430073F0D083D0820200FB74F6120C7275E12E
:102A5300EE7591FD780080138808750900EA250852
:102A6300F582EB3509F583E0F5D908E8C39940E829
:102A73007F02020CDEC082C0838011E5D98A828B7B
:102A830083F08A828B83A3AA82AB8319E9C394015F
:102A930050E9D083D0820200FB75E1E9E591A2E120
:102AA30050FA7591FD79000200FB75E1EC75E1E3E5
:102AB3000200FB75E1EF75E1EC0200FBC082C0830D
:102AC3009061A3E0C2E6F0539AFED083D082020065
:102AD300FBC082C0839061A3E0D2E6F0439A01D0A9
:102AE30083D0820200FBC082C083A2AFE433F8C26A
:102AF300AF900427EAF0A3EBF0E8A2E092AFD08313
:102B0300D0820200FBC082C083906193E0542270A4
:102B1300F8D083D0820200FBC082C0838A828B8379
:102B2300122BB2E9F08A828B83E02401FCA3E03408
:102B330000FD8A828B83ECF0A3EDF0D083D0820278
:102B430000FB74F6120C7274FC120C1B7402120C50
:102B530066EAF0A3EBF0ECFAEDFB740E120C66A838
:102B630082A983851082851183E8F0A3E9F085109B
:102B7300828511838582088583097808120DDB74A9
:102B830004120C668582088583097808120DDB7CA4
:102B93004F7D021202617404120C317402120C662E
:102BA300122BB2E4F07404120C317F02020CDEE04B
:102BB300F8A3E0F583888222C082C08379001201E2
:102BC300B3D083D0820200FBEBC313FBEA13FAEA10
:102BD300F8EBF9E824FFFAE934FFFBE84960120057
:102BE3000000000000000000000000000000008062
:102BF300DE0200FB74F7120C72EAFEEBFFEEF8EF55
:102C0300F9E824FFFEE934FFFFE84960097AE87B2D
:102C1300031201CB80E77F01020CDE74F6120C7203
:102C2300740A120C66E0FEA3E0FFEAF8EBF98018E1
:102C33008C828D83E088828983F0A3A882A9838C08
:102C4300828D83A3AC82AD838E088F09E50824FFB0
:102C53001EE50934FFFFE508450970D47F02020C25
:102C6300DEE5C65480F853BEFBE59DA2E550FAE5C8
:102C73009DA2E240F4007401697007744948F5C6E7
:102C83008005E9700288C6E5C6F8E59EFAE86A7031
:102C9300F943BE040200FBC082C0831201C5900544
:102CA30050120B2812022B1201B9D083D0820200DA
:0B2CB300FBD2AF0200FBC2AF0200FB2F
:04000005000000E314
:00000001FF
