:020000040800F2
:10000000780A00200901000853270008130100089E
:1000100051270008BD070008793F000800000000D4
:100020000000000000000000000000001B010008AC
:10003000BF070008000000001F010008B1330008DE
:100040002301000823010008230100082301000800
:100050002301000823010008C10700080B0800085D
:100060001B0800082B0800083B08000823010008B3
:1000700023010008230100082301000823010008D0
:1000800023010008230100082301000823010008C0
:100090002301000823010008230100084B08000881
:1000A00000000000230100082301000823010008CC
:1000B0007535000881350008230100082301000878
:1000C0002301000823010008230100082301000880
:1000D00023010008F53A0008230100082301000865
:1000E000D1070008BD2B00082301000823010008E8
:1000F00023010008DFF80CD000F0C4FA00480047E4
:1001000015460008780A0020064880470648004740
:10011000FEE7FEE7FEE7FEE7FEE7FEE7FEE7FEE7B7
:10012000FEE7FEE725350008F500000840EA010378
:100130009B0703D009E008C9121F08C0042AFAD29D
:1001400003E011F8013B00F8013B521EF9D2704761
:10015000D2B201E000F8012B491EFBD27047002209
:10016000F6E710B513460A4604461946FFF7F0FFB6
:10017000204610BD2DE9FE4F804681EA0300C00FE6
:100180000C46009021F0004123F00045B8EB02003E
:10019000A94105D24046214690461C460B460246E0
:1001A00023F00040104347D0270DC7F30A00C3F3E4
:1001B0000A510290401A019040286BDAC3F31300F1
:1001C00040F4801B0098924620B10023D2EB030A32
:1001D00063EB0B0B01985946C0F14002504600F00A
:1001E0007FF906460D4650465946019A00F097F9A8
:1001F00010EB08006141002487EA115284EAE7739A
:100200001A4340D0009A62B3019A012A4FEA07527A
:1002100015DC001B61EB02014FF0004202EA0752BD
:10022000CDE90042001C41F5801132462B4600F01A
:1002300097F903B0BDE8F08F40462146F9E7001B6F
:1002400061EB0201001C41F5801300185B4120188E
:10025000A2F5001747EB030140EAD570B6196D41CE
:1002600011E06D084FEA360645EAC0754FEA0752BD
:10027000001B61EB0201001C41F5801149084FEAA7
:1002800030000019514132462B4603B0BDE8F04F13
:1002900000F057B90098012240000023D0EB020281
:1002A00063EBE073009821464FEAE074B8EB00007E
:1002B00061EB0401E9E783F000435BE781F0004173
:1002C00058E72DE9FE4F81EA030404F0004421F0D1
:1002D000004100944FF0000B23F0004350EA01046A
:1002E0005ED052EA03045BD0C3F30A54C1F30A554B
:1002F0002C44A4F2F3340194A0FB0254C1F3130183
:1003000041F48011C3F3130343F4801301FB02444F
:1003100000FB034E840A970A44EA815447EA835754
:10032000A4FB076802958D0A05FB07854FEA932C0D
:1003300004FB0C542705029D4FEA065847EA16377E
:10034000B5EB08056EEB070C870E920E47EA811796
:1003500042EA8312A7FB0201B6EB0B0164EB000437
:100360002B0D43EA0C335E1844EB1C50DA46514621
:10037000E7FB0201C5F313044FEA0B3343EA1453BE
:100380004FEA0432019C43EA0603A4F10C040294F0
:10039000009CCDE900B400F0E3F803B0BDE8F08FB5
:1003A00000200146F9E70EB5C10F80EAE07008446D
:1003B000CA07002140F233438DE80E000A460B467F
:1003C00000F0CEF803B000BD0EB540F2334102910B
:1003D0000021CDE900110A460B4600F0C1F803B038
:1003E00000BD70B5C1F30A5201F000450024C1F30D
:1003F000130140F2FF3341F480119A4201DA0020E8
:1004000070BD40F233439A42A2F2334203DC5242BF
:1004100000F075F800E090402C43F1D0404270BDF0
:10042000C1F30A5210B5C1F3130140F2FF3341F496
:1004300080119A4201DA002010BD40F233439A4203
:10044000A2F2334203DC524200F059F810BD904052
:1004500010BD000030B5041E71F1000404DB4FF044
:100460000044404264EB0101141E73F1000405DBFB
:100470001C464FF00043524263EB04038B4208BF1B
:10048000824230BD30B5041E71F1000404DB4FF030
:100490000044404264EB0101141E73F1000405DBCB
:1004A0001C464FF00043524263EB0403994208BFDD
:1004B000904230BD30B50B46014600202022012479
:1004C00009E021FA02F59D4205D303FA02F5491B22
:1004D00004FA02F52844151EA2F10102F1DC30BD38
:1004E000202A04DB203A00FA02F1002070479140F4
:1004F000C2F1200320FA03F3194390407047202AE9
:1005000004DB203A21FA02F00021704721FA02F3BD
:10051000D040C2F120029140084319467047202A7A
:1005200006DBCB17203A41FA02F043EAE07306E01B
:1005300041FA02F3D040C2F120029140084319462B
:10054000704710B5141E73F1000408DA401C41F125
:10055000000192185B411A4301D120F0010010BD47
:100560002DE9F04D92469B4611B1B1FA81F202E0BD
:10057000B0FA80F220329046FFF7B2FF04460F46F1
:1005800040EA0A0041EA0B0153465A46084313D099
:10059000114653EA010019D0C8F140025046FFF756
:1005A000AEFF05460E46504659464246FFF798FFB5
:1005B000084305D0012004E020463946BDE8F08D0F
:1005C0000020054346EAE0762C4337430A9863054A
:1005D000E40AA0EB08000022FD0A44EA47540A306E
:1005E00002D500200146E9E7010510196941DDE95E
:1005F000084500196941BDE8F04DA2E72DE9F04139
:10060000054621F000400C46284309D0C4F30A50A7
:1006100040F23341884205DD28462146BDE8F0819D
:100620002846FBE740F2FE31884210DC0CDB4FEA43
:10063000043040EA155050EA053105D0104804F066
:10064000004101430020E9E700200146E6E7A0F26F
:1006500033404642C6F1400228462146FFF740FF9C
:1006600007468846284621463246FFF748FF43465C
:100670003A46FFF766FF3246BDE8F041FFF730BF6C
:100680000000F03F064C074D06E0E06840F0010333
:1006900094E8070098471034AC42F6D3FFF72EFDDC
:1006A0006C5F00088C5F000810B5040001D002F0F8
:1006B0003DFD0148C47010BD3800002072B60248EC
:1006C0004178491C41707047340000200449487843
:1006D000401E10F0FF00487000D162B67047000065
:1006E0003400002030B51B4D85B02878A0B102F051
:1006F000B5FE00BF4FF0FF30009005230622072112
:10070000154802F0CDFD02F07DFD2878002801D1CA
:100710000120287005B030BD00F0B6FC02F050FE9C
:1007200002F0BCFC0024009401230322122102A841
:10073000019400F0F5F9009400230322082102A897
:10074000019400F0EDF900F091FA00F07FFA00F06A
:1007500085FACFE7340000204C0500201CB50024AA
:1007600000942346012203211348019400F0D8F994
:10077000114800940023012218210C30019400F04C
:10078000CFF90120CDE900040B4800231A462D21A2
:10079000183000F0C5F90121074800F055FA064865
:1007A00001210C3000F050FABDE81C400248012144
:1007B000183000F049BA0000C0000020FEE7704782
:1007C00010B502F0B3FCBDE81040012000F072BB90
:1007D00010B502F0ABFC4FF4806000F06BFB4FF4FF
:1007E000006000F067FB4FF4805000F063FB4FF4B3
:1007F000005000F05FFB4FF4804000F05BFBBDE871
:1008000010404FF4004000F055BB10B502F08EFCD4
:10081000BDE81040022000F04DBB10B502F086FC90
:10082000BDE81040042000F045BB10B502F07EFC8E
:10083000BDE81040082000F03DBB10B502F076FC8A
:10084000BDE81040102000F035BB10B502F06EFC82
:10085000202000F02FFB402000F02CFB802000F037
:1008600029FB4FF4807000F025FBBDE810404FF4E9
:10087000007000F01FBB000070B506464CF250350A
:100880000C46284600F022F9002824D113480168BC
:1008900021F4807101602CB134702846BDE87040AD
:1008A00000F014B926F003052C68B007C10EFF2034
:1008B000884084432946022000F0ECF9084E0020CD
:1008C000224630742946102000F00EFA317C0129AE
:1008D00002D00121317470BD022070BD043C024081
:1008E000E00300202DE9F04104464CF250370E465B
:1008F000384600F0EBF8050034D11D48016821F4BA
:10090000807101602EB12680384600F0DFF8054680
:1009100028E0184E00203074E043800713D024F004
:1009200003073D68A007C10E4FF6FF70884085435E
:100930003946022000F0AEF92A463946102000F070
:10094000D3F9054609E000222146042000F0CCF945
:100950000022611C042000F0C7F9307C012804D07B
:10096000012030742846BDE8F0810220FBE700003A
:10097000043C0240E003002070B505464CF25036BE
:100980000C46304600F0A2F800281FD12CB12C7084
:100990003046BDE8704000F099B825F00306346891
:1009A000A807C10EFF20884084433146022000F092
:1009B00071F9084D0020224628743146102000F0BD
:1009C00093F9297C012902D00121297470BD0220EC
:1009D00070BD0000E00300202DE9F04104464CF218
:1009E00050370E46384600F071F805002FD12EB171
:1009F0002680384600F06AF8054628E0164E0020AA
:100A00003074E043800713D024F003073D68A0074B
:100A1000C10E4FF6FF70884085433946022000F032
:100A200039F92A463946102000F05EF9054609E0FA
:100A300000222146042000F057F90022611C042006
:100A400000F052F9307C012804D00120307428468F
:100A5000BDE8F0810220FBE7E00300200749002207
:100A60004A6107490B6843F400730B600B6843F05D
:100A700008030B6020F0FF0002607047E0030020D5
:100A8000043C02400F4A00211068C3050E4804D5FB
:100A9000416941F002014161911513689B0505D53B
:100AA000436943F00103436141F4007113681B057E
:100AB00005D5436943F00403436141F400611160CB
:100AC00070470000183C0240E003002070B5054666
:100AD00000F0CCFA0646114C09E0681C07D025B19D
:100AE00000F0C4FA801BA84201D9032070BD206821
:100AF000C007F2D12068800701D50220206020685D
:100B0000C00505D42068000502D42068800503D5FF
:100B1000FFF7B8FF012070BD002070BD183C0240F7
:100B20007CB5DDE90645CDE9004500F001F87CBD66
:100B3000F0B587B00546DDE90C760170481C6AD037
:100B400001F00F04012000FA04F46C80334C11F022
:100B5000F00F1FD0C1F30311012925D002292DD098
:100B6000032935D02E496960216841F020012160B8
:100B7000216801F02001059169880091AF7202217E
:100B8000CDE9027172B3032A2ED0022A2FD0012B95
:100B900035D035E023496960216841F001012160C9
:100BA000216801F00101E6E71F496960216841F011
:100BB00002012160216801F00201DCE71B49696044
:100BC000216841F004012160216801F00401D2E7AD
:100BD00017496960216841F008012160216801F02E
:100BE0000801C8E7002000E0032001900FE0012B7E
:100BF00002D0019104960AE012200190FAE7112038
:100C00000190012A03D13146284600F013F86946C5
:100C1000686800F05BF907B0F0BD00001C380240C6
:100C2000001402400000024000040240000802409C
:100C3000000C024090F90020521C04D0CAB2418836
:100C4000406800F00EBA7047FFF7F4BF02484168F1
:100C500041F0010141607047002004E00248416812
:100C600041F0040141607047002004E002484168FF
:100C700041F0020141607047002004E031B500F00E
:100C8000F5F9044600F0F2F90099001B8842F9D307
:100C900038BD000070B505464CF250360C46304663
:100CA000FFF714FF002811D109494861022D03D034
:100CB000012D03D025B104E0206002E0208000E097
:100CC00020703046BDE87040FFF700BF70BD0000E7
:100CD000E00300200348016841F0010101600020A9
:100CE00070470000043C02402DE9F047264E0546BF
:100CF0001446307C0F4601280AD0012030744CF293
:100D000050384046FFF7E2FE4FF0000918B138E0D6
:100D10000220BDE8F087C6F81490042D09D0082DF4
:100D20000CD0102D0FD0022D18D0012D20D025B3BE
:100D300027E0E1B23846FFF79FFD22E0A1B2384636
:100D4000FFF7D0FD1DE045464046FFF7BFFEC0B9A6
:100D50000E48016821F48071016004E04546404678
:100D6000FFF7B4FE68B93C602846FFF7AFFE08E025
:100D7000A1B23846FFF730FE03E0E1B23846FFF794
:100D8000FBFD86F81090C4E7E0030020043C02401D
:100D900006480068C00707D00448054908300160CC
:100DA000044901600020704701207047043C024064
:100DB000EFCDAB89050403022DE9F0471C4E054633
:100DC0000F46307C012808D0012030744CF2503896
:100DD0004046FFF77BFE18B127E00220BDE8F08710
:100DE0004FF0FF313960C146DFF848806C6816E08B
:100DF0002046FFF733FE4846FFF768FED8F800208C
:100E000022F00802C8F80020D8F8002022F400726E
:100E1000C8F8002008B13C6007E004F58074D5E90B
:100E2000011201EB0221A142E2D800213174D5E781
:100E3000E0030020043C02400348016841F0020145
:100E40000160002070470000043C02400B4801682C
:100E5000890710D50068C00705D008480849083040
:100E6000016008490160054807490C3001600749E5
:100E7000016000207047012070470000043C0240E0
:100E8000EFCDAB8905040302BFAE9D8C161514137C
:100E9000002118B904E04008491CC9B20128FAD160
:100EA000034850F82100002800D000477047000098
:100EB00028010020044910B50A68024202D00860E7
:100EC000FFF7E6FF10BD0000140401402DE9F84FC4
:100ED000DFF864B100234FF0010C4FF0030A4FF02C
:100EE0000F090BF1040EA0E00CFA03F6324072D0A9
:100EF0004C68022C01D0122C0ED1DC0800EB8408C7
:100F0000D8F820405D07EF0E09FA07F5AC430D69EC
:100F1000BD402543C8F8205007685D0091F8048063
:100F20000AFA05F408F00308A74308FA05F848EAA6
:100F30000708C0F800804F68012F05D0022F03D0AA
:100F4000112F01D0122F11D18768D1F80C80A7433F
:100F500008FA05F848EA0708C0F808804768B74368
:100F60000E79C6F300169E403E434660C668A6430F
:100F70008C68AC403443C4604C68E40054D52F4CBA
:100F8000256845F001052560246823F0030504F079
:100F9000010400942A4C2544AF689C07240F09FAE9
:100FA00004F6B743274EB04201D1002615E0264E85
:100FB000B04201D1012610E0244EB04201D10226F8
:100FC0000BE0234EB04201D1032606E0214EB04291
:100FD00002D1042601E027E00526A6403E43AE608C
:100FE000DBF800405D464E689443F60300D5144399
:100FF0002C60DEF8004075464E689443B60300D579
:1010000014432C600C4D08352C684E689443F6024E
:1010100000D514432C60084D0C352C684E68944361
:10102000B60200D514432C605B1C0A6832FA03F444
:101030007FF45AAFBDE8F88F000401402038024029
:10104000000001400000024000040240000802408D
:10105000000C0240001002400069084000D001204E
:1010600070470AB1816170470904FBE701480068D5
:10107000704700006000002002480168491C0160C0
:10108000704700006000002010B5032000F048F811
:10109000002000F005F800F017F8002010BD000057
:1010A00010B5044607484FF47A710068B0FBF1F0C0
:1010B00001F0A4F900222146501E00F011F8002092
:1010C00010BD00005C000020704700F01F020121ED
:1010D00091404009800000F1E020C0F80011704705
:1010E000F0B40E4B1B680C46C3F30223C3F1070593
:1010F000042D00D90425191D072901D2002300E081
:10110000DB1E012606FA05F1491E214099409E404A
:10111000761E16403143F0BC01F01CBB0CED00E024
:10112000064900F0070208684FF6FF03184040EA3E
:101130000220034A10430860704700000CED00E0F5
:101140000000FA050248006800F4C0507047000033
:10115000007000402DE9F84F06460078C00775D0B2
:10116000DFF84C810027D8F80000C0000BD4D8F875
:10117000001041F08051C8F80010D8F80000012795
:1011800000F0805000904B4C2068C00510D42068BF
:1011900040F480702060FFF769FF054605E000BF5E
:1011A000FFF764FF401B64284ED82068C005F7D5C0
:1011B0003F4D243D286800F0C041706800F0C042F7
:1011C0008A4209D0C0F30141032905D12968890366
:1011D00002D50120BDE8F88F354C1034216811F498
:1011E00040314AD000F44030884246D03078C007C1
:1011F00043D020684FF4000292FAA2F1B1FA81F1D3
:101200004FEA810C2C494FF0010A8C4420F4403005
:10121000CCF880A692FAA2F2B2FA82F201EB820135
:101220000023C1F880362060C00526D5FFF71EFFD9
:1012300081464FF4007B0AE0FFF718FFA0EB09019D
:1012400041F28830814202D90320C3E72EE09BFAA5
:10125000ABF0B0FA80F040F04001BAEB511F01D181
:10126000296800E021689BFAABF2B2FA82F202F040
:101270001F020AFA02F00142DED07068C0F3014199
:10128000032906D1296800F0C04021F0C041014384
:1012900029602068716801F44031084320602FB153
:1012A000D8F8001021F08051C8F80010002091E714
:1012B0002438024000700040000047422DE9F0470A
:1012C000DFF8BC8105460E46D8F8000000F00100AA
:1012D000B04214D2012E05D1D8F8001041F004011B
:1012E000C8F80010D8F8001021F001013143C8F807
:1012F0000010D8F8000000F00100B04271D1287849
:10130000604C800705D52068A96820F0F0000843EC
:1013100020602878C00771D05A4A5A4B696801206A
:10132000083A2C33022910D003292ED001292FD0BE
:101330005FEA402797FAA7FCBCFA8CFC4CF0200C23
:101340005FEA5C1C04D0126803E04FF40037F1E759
:101350001A6897FAA7F3B3FA83F303F01F039840D0
:10136000024262D0206820F0030008432060FFF7AB
:101370007DFE6968074641F28830022910D00329B2
:101380001CD00129814626D034E04FF00077D1E708
:101390000227CFE7FFF76AFEC11B494501D926E0C6
:1013A00081462068C0F381000228F3D126E000BF07
:1013B000FFF75CFEC11B494501D918E08146206852
:1013C000C0F381000328F3D118E000BFFFF74EFE01
:1013D000C11B49450BD82068C0F381000128F5D115
:1013E0000CE022E0FFF742FEC11B494502D9032071
:1013F000BDE8F087206810F00C0FF3D1D8F800108A
:10140000404601F00101B14211D9012E03D101681A
:1014100041F004010160016821F0010131430160E4
:10142000006800F00100B04201D00120E0E7287818
:10143000400705D52068E96820F4E0600843206093
:101440002878000706D52068296920F4605040EA12
:10145000C100206000F052F82168F02292FAA2F256
:1014600001F0F001B2FA82F2D140074A515CC84063
:10147000064908600020FFF713FE0020B8E70000CF
:10148000003C024008380240614C00085C0000202B
:1014900001480068704700005C00002008480949C6
:1014A000006809684FF4E06292FAA2F201F4E06188
:1014B000B2FA82F2D140044A515CC8407047000041
:1014C0005C00002008380240714C000808480949B7
:1014D000006809684FF4605292FAA2F201F4605178
:1014E000B2FA82F2D140044A515CC8407047000011
:1014F0005C00002008380240714C00081E4A116848
:1015000001F00C00042813D0082813D00C2813D0A5
:10151000101F006800F460414FF4604090FAA0F0A2
:10152000B0FA80F0C1404FF40040491C8840704739
:1015300012487047124870474FF4701393FAA3F3A0
:1015400001F47010B3FA83F3D8400E4B01F440015C
:101550001268185C4FF4400393FAA3F3B3FA83F3D1
:10156000D940491CD20301D5054A00E0034A504343
:10157000B0FBF1F070470000083802400024F4008E
:1015800000127A00584C00082DE9F84F0746007801
:10159000FB4EFC4DC0074FF0010428D0F84808303E
:1015A00001684FF40038C1F38101022907D00168B6
:1015B000C1F3810103291BD10068C00318D598FA33
:1015C000A8F0B0FA80F040F02000400901D0306867
:1015D00000E0286898FAA8F1B1FA81F101F01F0142
:1015E00004FA01F108425CD0786800287BD058E00A
:1015F000786801280AD008B1052811D0306820F495
:1016000080303060306820F4802002E0306840F4A0
:1016100080303060786828B3FFF728FD81460BE002
:10162000306840F480203060F0E700BFFFF71EFD17
:10163000A0EB0900642872D898FAA8F0B0FA80F0FC
:1016400040F02000400901D0306800E0286898FA96
:10165000A8F1B1FA81F101F01F0104FA01F1084289
:10166000E4D01EE0FFF702FD814605E0FFF7FEFC37
:10167000A0EB09006428DED898FAA8F0B0FA80F050
:1016800040F02000400901D0306800E0286898FA56
:10169000A8F1B1FA81F101F01F0104FA01F1084249
:1016A000E4D13878DFF8E08280074FF0000B4FF08C
:1016B00002095FD5B24808300168C1F381010129F0
:1016C00007D00168C1F3810103291CD10068C00360
:1016D00019D499FAA9F0B0FA80F040F0200040093E
:1016E00002D0306801E086E0286899FAA9F1B1FAE1
:1016F00081F101F01F0104FA01F108422BD0F868D2
:10170000012878D127E0F868A8B394FAA4F0B0FAD9
:1017100080F048F82040FFF7A9FC824606E066E129
:10172000FFF7A4FCA0EB0A00022884D899FAA9F1DB
:10173000B1FA81F141F02001490901D0316800E09E
:10174000296899FAA9F0B0FA80F000F01F0004FAB5
:1017500000F00142E4D08A48001D01684FF4F853BC
:1017600093FAA3F33A69B3FA83F321F4F8519A4058
:101770001143016025E0FFE794FAA4F1B1FA81F189
:1017800048F821B0FFF772FC824605E0FFF76EFCD7
:10179000A0EB0A000228C8D899FAA9F0B0FA80F0A4
:1017A00040F02000400901D0306800E0286899FA34
:1017B000A9F1B1FA81F101F01F0104FA01F1084227
:1017C000E4D138784FF4007AC0067CD56C480830F4
:1017D000006810F00C0F0FD0B9694FF48070002929
:1017E00072D090FAA0F0B0FA80F048F82040FFF7ED
:1017F0003DFC00907EE087E09AFAAAF0B0FA80F013
:1018000040F02000400901D0306800E028689AFAD2
:10181000AAF1B1FA81F101F01F0104FA01F10842C5
:1018200002D0B86900286FD05548396A001D006899
:1018300000F4604081421AD9084601F083F900287B
:1018400062D14F48001D01683A6A21F4604111439A
:10185000016001684FF07F4393FAA3F3FA69B3FA8A
:1018600083F321F07F419A401143016018E044481E
:10187000001D026822F460420A43026001684FF0D2
:101880007F4393FAA3F3FA69B3FA83F321F07F411C
:101890009A4011430160386A01F054F90028CFD111
:1018A0004FF4604191FAA1F1386AB1FA81F1C84070
:1018B0004FF40041401C8140314808300068F0225C
:1018C00000F0F00001E070E040E092FAA2F2B2FA1B
:1018D00082F2D0402D4A105CC1402D4801600020AA
:1018E000FFF7DEFB61E000BFFFF7C0FB0099401A85
:1018F00002287CD89AFAAAF0B0FA80F040F02000D2
:10190000400902D0306801E0BCE128689AFAAAF1E7
:10191000B1FA81F101F01F0104FA01F10842E3D0AC
:101920001748001D01683A6A21F4604111430160C3
:1019300001684FF07F4393FAA3F3FA69B3FA83F394
:1019400021F07F419A40114301602EE090FAA0F00F
:10195000B0FA80F048F820B0FFF788FB009005E06F
:10196000FFF784FB0099401A0228C2D89AFAAAF01D
:10197000B0FA80F040F0200040090BD030680AE057
:10198000003802403438024000004742614C0008F1
:101990005C00002028689AFAAAF1B1FA81F101F0FE
:1019A0001F0104FA01F10842DAD13878000753D553
:1019B000786948B394FAA4F0B0FA80F008EB80009C
:1019C000C0F88046FFF752FB009005E0FFF74EFBA2
:1019D0000099401A02288CD899FAA9F0B0FA80F040
:1019E00040F04000B4EB501F02D1306801E08EE0BF
:1019F000286899FAA9F1B1FA81F101F01F0104FAFE
:101A000001F21042E2D027E094FAA4F1B1FA81F198
:101A100008EB8101C1F880B6FFF728FB009005E0D4
:101A2000FFF724FB0099401A022870D899FAA9F010
:101A3000B0FA80F040F04000B4EB501F01D13068A4
:101A400000E0286899FAA9F1B1FA81F101F01F01CB
:101A500004FA01F21042E3D1387840077BD59B4865
:101A60004FF000090068C0000AD49848016841F0AE
:101A70008051016000684FF0010900F08050009033
:101A800093480168C90511D4016841F4807101606F
:101A9000FFF7ECFA009005E0FFF7E8FA0099401A2A
:101AA000642834D88A480068C005F5D5B86801288C
:101AB0000AD008B1052811D0286820F48070286069
:101AC000286820F4806002E0286840F48070286074
:101AD000B86848B3FFF7CAFA00900DE0286840F4F0
:101AE00080602860F0E700BFFFF7C0FA0099411A54
:101AF00041F2883081420AD89AFAAAF0B0FA80F00E
:101B000040F04000B4EB501F02D1306801E095E096
:101B100028689AFAAAF1B1FA81F101F01F0104FADA
:101B200001F21042E0D022E0FFF7A0FA009007E0B7
:101B3000FFF79CFA0099411A41F2883081427DD822
:101B40009AFAAAF0B0FA80F040F04000B4EB501FCF
:101B500002D1306801E012E028689AFAAAF1B1FADD
:101B600081F101F01F0104FA01F21042E0D1B9F154
:101B7000000F04D05548016821F080510160786A57
:101B8000E8B3DFF84891A9F11C09D9F80010C1F3B6
:101B90008101032976D002284FF080714FF0007A3E
:101BA00058460BD091FAA1F1B1FA81F148F8210021
:101BB000FFF75CFAB046074656466DE04FF080717D
:101BC00091FAA1F1B1FA81F18A0042495050FFF730
:101BD0004DFAB3468046564606E000BFFFF746FA88
:101BE000A0EB0800022854D896FAA6F0B0FA80F0CC
:101BF00040F02000400903D0DBF8000001E061E084
:101C0000286896FAA6F1B1FA81F101F01F0104FAF1
:101C100001F10842E2D1D7E90A103A6BD9F8003055
:101C2000014323F47D031A431143C9F800104FF018
:101C3000807090FAA0F0B0FA80F000E029E0810016
:101C400024480C50FFF712FA074604E0FFF70EFA9B
:101C5000C01B02281DD896FAA6F0B0FA80F040F01A
:101C60002000400902D0DBF8000000E0286896FA66
:101C7000A6F1B1FA81F101F01F0104FA01F1084265
:101C8000E4D01FE020E000BFFFF7F0F9C01B0228FE
:101C900002D90320BDE8F88F96FAA6F0B0FA80F0DA
:101CA00040F02000400902D0D8F8000000E0286889
:101CB00096FAA6F1B1FA81F101F01F0104FA01F1DF
:101CC0000842E1D10020E5E70120E3E724380240A3
:101CD000007000400000474270472DE9F04704467D
:101CE000007F01281CD0012626770220607721681A
:101CF000CA2048622168532048622068816821F424
:101D0000806181602068816821F480418160FFF7F3
:101D1000ADF9054600274FF0FF084FF47A790EE041
:101D20000220BDE8F087FFF7A1F9401B484506D91E
:101D30002168C1F82480032060772777F1E72068C5
:101D4000C0684007EFD52168C1F8248066772777FF
:101D50000020E6E77047000010B50446006881687F
:101D6000C9040CD5C068C00509D52046FFF7F2FFAD
:101D70002068C16801F0800161F4C071C160206811
:101D8000816889040CD5C068800509D52046FFF715
:101D9000A3FF2068C16801F0800161F42071C16077
:101DA00003494FF4003008600120607710BD000047
:101DB000140401402DE9F0470446007F012822D099
:101DC0004FF0010884F81C80022060772268CA2046
:101DD000506222685320506220680025FF26B1F52A
:101DE000807F81684FF0030A4FF47A790ED021F496
:101DF000007181602068816821F400518160FFF7E3
:101E000035F9074624E00220BDE8F08721F480710F
:101E100081602068816821F480518160FFF726F994
:101E2000074604E0FFF722F9C01B484509D820689F
:101E3000C068C007F6D00FE0FFF718F9C01B48458F
:101E400006D92068466284F81DA025770320DBE7C9
:101E50002068C0688007EFD52068466284F81D803E
:101E600025770020D0E710B50C464FF480718A42E8
:101E700003D1A1610068C16904E04FF40071A16160
:101E80000068016AC1F305402070C1F30622627048
:101E900001F07F02A270402202EA1142E270C1F317
:101EA0000562227501F0804201F08031C4E903121D
:101EB00073B900F099FE2070607800F095FE6070B4
:101EC000A07800F091FEA070207D00F08DFE2075BE
:101ED000002010BD10B500680B4641680D48014058
:101EE000080CD870C1F304245C7001F03F049C70AE
:101EF000C1F34231197052B900F076FED8705878AB
:101F000000F072FE5870987800F06EFE9870002015
:101F100010BD00003FFFFF0010B500680C460168CF
:101F20000E480140C1F305402070C1F306236370E1
:101F300001F07F03A370402303EA1141E17052B91D
:101F400000F052FE2070607800F04EFE6070A078C5
:101F500000F04AFEA070002010BD00007F7F7F00CF
:101F600070B5040002D0607F10B106E0012070BDA2
:101F700000202077204600F041F802206077216899
:101F8000CA204862216853204862204600F040FE83
:101F9000FF210028206803D0416204206077E5E734
:101FA0008268154B1A408260226890686368184303
:101FB000D4E904352B43184390602268E06810612F
:101FC00020680269238942EA034202612068C268EC
:101FD00022F08002C2602068026C22F48022026437
:101FE0002068026CA3691A430264206841620120E0
:101FF0006077002070BD0000BFFF8FFF70470000BA
:102000002DE9F05F0446007F0D46012844D04FF0D3
:10201000010B84F81CB002206077206800278068DC
:102020004FEA4060BAB3002852DA287800F0DCFDAD
:10203000287D00F0D9FDA8782978EA7840EA0140A7
:102040006978090241EA02410843297D40EA0166B4
:10205000286921680643E8680643CA204862216867
:1020600053204862A869FF25B0F5807F20684FF0B3
:10207000030A4FF47A7981682CD021F400718160D1
:102080002068C16801F0800161F42071C160FEF731
:10209000EDFF80464FE002E00220BDE8F09F0028FF
:1020A00000DBEF70287800F0A8FD0604687800F0E7
:1020B000A4FD46EA0026A87800F09FFD0643E878D4
:1020C00046EA0046287D00F098FD46EA0066BFE734
:1020D000EF70ADE721F4807181602068C16801F084
:1020E000800161F4C071C160FEF7C0FF804605E069
:1020F000FEF7BCFFA0EB0800484515D82068C06873
:10210000C007F5D02068C6612068816841F48071FD
:1021100081602068816841F480511BE0FEF7A6FFD2
:10212000A0EB0800484506D92068456284F81DA048
:1021300027770320B1E72068C0688007EED52068C4
:1021400006622068816841F40071816020688168BE
:1021500041F4005181600948016841F40031016097
:1021600006480830016841F400310160206845628A
:1021700084F81DB0277700208FE70000000401409D
:102180002DE9F0470446007F0B46012825D04FF08B
:10219000010984F81C9002206077587802B300F09F
:1021A00023FD987800F020FD9878D97840EA014521
:1021B00058781978000240EA413005432168CA2066
:1021C0004862216853204862204600F021FD002625
:1021D000FF274FF0040838BB19E00220BDE8F08764
:1021E000C10603D500F0EF000A305870D87800F02F
:1021F00004FD0204587800F000FD42EA00229878BD
:1022000000F0FBFC0243187842EA4035D6E70D485F
:102210000540206845602068C16821F08001C160E8
:10222000204600F085F830B12068476284F81D80B0
:1022300026770120D2E72068476284F81D90267730
:102240000020CBE73FFFFF002DE9F0470446007F69
:102250000D46012811D04FF0010A84F81CA002207D
:1022600060772068002680684FEA406042B100280D
:102270001ADA287800F0B8FC17E00220BDE8F087F1
:10228000002800DBEE70287800F0B7FC02046878C4
:1022900000F0B3FC42EA0022A87800F0AEFC024352
:1022A000E87842EA00470AE0EE70A878297840EA28
:1022B00001476878E978000240EA01400743216855
:1022C000CA204862216853204862204600F0A0FCE2
:1022D0004FF0FF084FF00409C0B9144807402068C8
:1022E00007602068816821F480218160D5E90101BF
:1022F000084321688A68104388602068C16821F01B
:102300008001C160204600F013F838B12168C1F89F
:10231000248084F81D9026770120AFE72168C1F85A
:10232000248084F81DA026770020A7E77F7F7F0008
:1023300070B504460068C16821F0A001C160FEF7D5
:1023400095FE05464FF47A7607E000BFFEF78EFE55
:10235000401BB04201D9032070BD2068C0688006D0
:10236000F4D5002070BD70B5040004D094F851007D
:10237000002510B106E0012070BD84F850502046C1
:1023800000F02EF8022084F851002068016821F046
:1023900040010160D4E901010843D4E9031211436B
:1023A000084361690843218B01F400710843E16926
:1023B0000843216A0843A16A084321680860A069AC
:1023C000042101EA1040616A0843216848602168DD
:1023D000E06A08616565012084F85100002070BD45
:1023E00070474FF0E0210428086903D020F0040072
:1023F0000861704740F00400FAE7704710B5401ECE
:10240000B0F1807F01D3012010BD4FF0E024606166
:102410000F21601700F09EF90020A06107202061C5
:10242000002010BD10B5FFF7E8FF10BD10B5040087
:1024300003D094F8350010B107E0012010BD002052
:1024400084F83400204600F00DF8022084F83500AE
:10245000211D206801F09AF8012084F83500002041
:1024600010BD000008B501681448B1F1804F14D0C8
:10247000134A914220D1016841F0020101600068D5
:10248000012200F00200009003211D20FEF728FE2B
:102490001D20BDE80840FEF718BE016841F00101AB
:1024A00001600068002200F00100009003211C2060
:1024B000FEF716FE1C20ECE708BD000024380240A1
:1024C000000400400168CA6842F00102CA60006866
:1024D000016841F00101016000207047704770B54C
:1024E0000446006801694FF00005C943890715D407
:1024F000C168C943890711D4E91E01610120207513
:10250000206880698007204602D0FFF7E7FF04E0DB
:1025100000F078F8204600F076F82575206801690B
:10252000C943490717D4C168C943490713D46FF099
:1025300004010161022020752068806910F4407F49
:10254000204602D0FFF7CAFF04E000F05BF8204607
:1025500000F059F8257520680169C943090716D4A8
:10256000C168C943090712D46FF008010161042052
:1025700020752068C0698007204602D0FFF7AEFFB3
:1025800004E000F03FF8204600F03DF82575206893
:102590000169C943C90617D4C168C943C90613D420
:1025A0006FF010010161082020752068C06910F4E7
:1025B000407F204602D0FFF791FF04E000F022F8B0
:1025C000204600F020F8257520680169C943C90735
:1025D00008D1C168C943C90704D1891E01612046D9
:1025E00000F012F820680169C943490609D4C1689E
:1025F000C943490605D46FF040010161204600F04F
:1026000017F870BD7047704701680748B1F1804FF7
:1026100006D0064A914205D14068002802D0004702
:102620000068FAE7704700004800002000040040FE
:10263000704770B5040004D094F83900002510B13B
:1026400006E0012070BD84F83850204600F020F8E4
:10265000022084F839002068C16821F40051C1606B
:10266000204601F0EDF82068016921F490410161F4
:102670002068416921F02A0141612068C16841F464
:102680000051C160E563012084F83900002070BD6D
:102690007047000090F83930012B01D0122B2CD15B
:1026A00039B332B390F83830012B26D0012380F8AB
:1026B000383081628285C2850021C16390F839205B
:1026C000122A18D05FF0220280F8392080F83810E2
:1026D0000168CA6842F48072CA6001684A6942F0BF
:1026E00001024A610068C16841F02001C160002018
:1026F0007047012070473222E6E702207047000051
:1027000010B5FDF7EFFFFEF729F801F061FF06486D
:1027100002F08AFA012000F06FFFBDE810404FF48C
:102720007A6000F0ADBF00000937000810B501F075
:102730003BFF002808D000F01DF804490120086084
:10274000BDE8104002F0E2B810BD000028000020F3
:10275000FEE770470907090E002806DA00F00F00AF
:1027600000F1E02080F8141D704700F1E02080F8AF
:102770000014704770B5002404F1B000C0B200210D
:1027800000F098F90021022000F094F900211020B7
:1027900000F090F900250121002000F08BF96D1C5C
:1027A000EDB2802DF7D3641CE4B2082CE4D370BDE5
:1027B00070B50446861C18E004F1B000C0B20021D8
:1027C00000F078F90021022000F074F900211020B7
:1027D00000F070F900250121002000F06BF96D1C5C
:1027E000EDB2802DF7D3641CE4B2B442E4D370BDE3
:1027F000A62000F001B800007CB501240546009435
:10280000002322461C214D480194FEF789F94B48CC
:102810000094002301221E210C300194FEF780F960
:1028200046480094002301221D2118300194FEF730
:1028300077F942480094002301221F21243001949B
:10284000FEF76EF90021AE2000F034F900210220DD
:1028500000F030F90021102000F02CF90021402078
:1028600000F028F90021812000F024F90021CF2078
:1028700000F020F90021A12000F01CF90021C8205F
:1028800000F018F90021A62000F014F90021A8207A
:1028900000F010F900213F2000F00CF90021D320B6
:1028A00000F008F90021084600F004F90021D520C5
:1028B00000F000F90021802000F0FCF80021D92070
:1028C00000F0F8F80021F12000F0F4F80021DA20FF
:1028D00000F0F0F80021122000F0ECF80021DB20DD
:1028E00000F0E8F80021402000F0E4F8002120206A
:1028F00000F0E0F80021022000F0DCF800218D203B
:1029000000F0D8F80021142000F0D4F80021A42011
:1029100000F0D0F80021284600F0CCF80021AF20CC
:1029200000F0C8F80021AF2000F0C4F8FFF722FF44
:10293000BDE87C400021084600F002B8F803002002
:1029400010B50446B031C8B2002100F0B3F8102031
:1029500040EA1410002100F0ADF804F00F00BDE8CB
:10296000104040F00100002100F0A4B82DE9F04132
:1029700015460E460746FFF7E3FF0F48002400EB1D
:1029800085150121285D00F095F8641CE4B2102C37
:10299000F7D3761CF1B23846FFF7D2FF002428198E
:1029A000012190F8200000F085F8641CE4B2102C9E
:1029B000F5D3BDE8F0810000695200082DE9F0412F
:1029C000203A00240D468046D7B27F2803D9002044
:1029D0008D1C8046EDB22946FFF7B2FF0F4E00BFB7
:1029E00004EB07100121305C00F064F8641CE4B2D1
:1029F000082CF5D36D1CE9B24046FFF7A1FF002477
:102A000004EB071030440121007A00F053F8641CF5
:102A1000E4B2082CF4D3BDE8F0810000794C000842
:102A20002DE9F0478046002608981D4691468A46C3
:102A30003446470821E0281B401EC1B20A2001F09D
:102A400013FFB9FBF0F00A21B0FBF1F201FB120019
:102A500026B9691E8C4201DA30B101263030C2B28B
:102A600007FB0480C0B203E007FB0480C0B2202251
:102A70005146FFF7A3FF641CE4B2AC42DBD3BDE8D0
:102A8000F0872DE9F04117460E46044600250CE07C
:102A900031462046FFF792FF0834E4B2782C02D981
:102AA0000024B61CF6B26D1CEDB27A5D002AEFD19F
:102AB000BDE8F08170B5054601B101211648FEF769
:102AC000C3F8154800210C38FEF7BEF80024124860
:102AD00000210C30FEF7B8F8280601D5012100E0EE
:102AE00000210D481830FEF7AFF80B4801210C30DB
:102AF000FEF7AAF86806641C050EE4B2082CE6D3BB
:102B0000054801210C38FEF79FF8BDE8704001210F
:102B10000148FEF799B800000404002010B50648EB
:102B200000F048FE05484178002903D0002141709B
:102B30000121017010BD0000CC03002054000020D2
:102B400000687047F8B507461A48002600681A4D15
:102B500010F0F00F20D1174C1C342068C00002D5B3
:102B6000FEF7F0FA0DE0206840F080502060206809
:102B700000F080500090FEF7E5FA216821F08051C6
:102B80002160B0F5C05F07D1B7F5404F04D1286888
:102B9000012640F004002860286820F0010030433E
:102BA0002860286800F00100B04201D00120F8BD83
:102BB0000020F8BD08380240003C024010B509482A
:102BC000FFF7CAF84FF480710648FFF7F3F800F0FA
:102BD000ADFA00F02BF90020FDF766FDBDE81040CE
:102BE00000F0A6BD68010020010901EB810100F0A1
:102BF0000F0000EB4100C0B27047002102E00A382C
:102C0000C0B2491C0A28FAD2090740EA116070478D
:102C100070B504460068C168490614D44FF0FF310E
:102C2000C160FEF723FA05464FF47A7607E000BF4D
:102C3000FEF71CFA401BB04201D9032070BD20688A
:102C4000C0684006F4D5002070BD00000FB4142207
:102C50002DE9F04F87B00C4612A96846FDF766FAD9
:102C60009DF85200059067489DF851809DF850707E
:102C70009DF84C60844201D214B102E0044600E0A9
:102C800001242046FDF7A0FB5F4A604BFDF719FBCE
:102C90008A46814601F040FE04460D464A465346A8
:102CA000FDF709FB00225A4BFDF70BFBDFF864A18F
:102CB00081468B46DAF80C00FDF775FB4A465B4609
:102CC000FDF758FAFDF78DFBDFF84C91DFF84CB1BA
:102CD000CAF80C00B0F5F47F16DBA0F5F470CAF862
:102CE0000C0000224E4B20462946FDF743FA0446CD
:102CF0000D4609E000224B4620462946FDF7DBFA47
:102D0000761C04460D46B6B200224B4620462946A4
:102D1000FDF7B8FBEED9D94600224B46204629469E
:102D2000FDF7B0FB17D800224B4620462946FDF799
:102D3000C2FA7F1C04460D46BFB2EDE700224B46A7
:102D400020462946FDF7B7FA044608F101000D4672
:102D50001FFA80F801E0DFF8CC9000224B462046B5
:102D60002946FDF78FFBE9D90598FDF72DFB224693
:102D70002B46FDF7FFF9FDF753FB80B205E03C3829
:102D800008F1010180B21FFA81F83C28F7D205E072
:102D9000A8F13C017F1C1FFA81F8BFB2B8F13C0FCB
:102DA000F6D203E0183F761CBFB2B6B2182FF9D2A4
:102DB0009DF84D1009B39AF80620114489071CD0DC
:102DC0009DF84B201849491E515CB14203D2B6FB15
:102DD000F1F201FB12668DF80A008DF809808DF87A
:102DE00004608DF80870142269461098FDF79EF96A
:102DF00007B0BDE8F00F5DF814FB0B499DF84B20C0
:102E00000C31E0E742061200FCA9F1D24D6200400D
:102E100000408F40380000200018F5400020AC40F2
:102E20000000F03F00004E40404C000810B5224C1E
:102E300092B0607900283CD10DA800F0F1F814227E
:102E40000DA901A8FDF772F900234FF4807206A9BD
:102E50001A48FFF708F89DF81900C0EB0010810030
:102E60009DF81800C0EB4012C2EB002001EB0010EF
:102E70009DF81A1008449DF80D10C1EB01118A004D
:102E80009DF80C10C1EB4113C3EB012102EB0111C2
:102E90009DF80E201144081AFDF796FA0022084BFF
:102EA000FDF70FFA01F05EFAFDF7BAFAA060012013
:102EB000607112B010BD00003800002068010020D1
:102EC0000040DF3F2DE9F04700248AB0254680B15D
:102ED000142201466846FDF729F99DF80510BDF852
:102EE00000000026DFF8F490DFF8F4A088460F1801
:102EF00012E005A800F094F8142205A9EAE7CEB183
:102F0000B00717D00022534620462946FDF732F974
:102F1000761C04460D4636B2B742F0DCB8F1000F1D
:102F20000BD0B80709D09DF803700026DFF8B480F5
:102F30007F1E2BE000224B46E6E7DFF8A8809DF8D5
:102F40000370002608F10C087F1E0DE018F806003B
:102F500025494843FDF738FA22462B46FDF70AF982
:102F6000761C04460D46F6B2B742EFDC10E000BF17
:102F700018F806001C494843FDF726FA22462B465E
:102F8000FDF7F8F8761C04460D46F6B2B742EFDCC2
:102F90009DF809109DF80A00C1EB011100EB8102B8
:102FA0009DF808004FF4616148439DF8041040F219
:102FB000A323594300EBC1101044FDF705FA224644
:102FC0002B46FDF7D7F80022084BFDF77AF901F000
:102FD000A3FC0AB0BDE8F047FDF722BA50287E41B5
:102FE00038137E41404C0008805101000040DF3F13
:102FF0000A498B680022984204D94B7813B14A7071
:103000008B68C01A8B68984202D9322801D28A7024
:10301000704701228A708968401A70473800002082
:1030200010B586B004460022114802A9FEF774FFCD
:1030300000220F480DF10201FEF74CFF0D499DF8EB
:103040000530CA88ADF80020632B03D0087840B162
:103050001BB106E00120087003E000200870643214
:10306000CA80142269462046FDF760F806B010BDFC
:10307000680100203800002010B50020FFF722FF73
:1030800004460548FFF71EFF844202D2C043204495
:1030900010BD201A10BD00008801002070B51F4E21
:1030A00086B03079002837D10125A80590FAA0F024
:1030B0001B49B0FA80F001EB8000C0F880561A4836
:1030C00018490024C0E9001403218160C0E90314F9
:1030D00044618461FEF744FF8DF8035006208DF8AB
:1030E00005408DF802008DF8045000220E480DF1C5
:1030F0000201FFF745F80294039400220A4802A94E
:103100000494FFF7A1F8002204212920FDF7E8FF2D
:103110002920FDF7DAFF357106B070BD38000020B8
:103120000000474200280040680100200C48416828
:10313000C943C9070ED00B49012048700A480168ED
:10314000C1F38101012903D0006810F00C0F06D1F2
:10315000FDF7C8BA016841F004010160EEE770476D
:10316000007000403800002008380240AFF30080B3
:1031700030B505464FF4807499B021462048FEF7DB
:1031800019FE1F48FEF7A9FD14A8FFF749FF1422F6
:1031900014A908A8FCF7CAFF1948142208A920306E
:1031A000FCF7C4FF0AAB93E807008DE80700DDE9F0
:1031B0000823294614A8FFF749FD142214A903A8DF
:1031C000FCF7B4FF0020119010908DF837009DF8A7
:1031D00016008DF836009DF815008DF835009DF825
:1031E000140013948DF834009DF810008DF84800F9
:1031F00000220DA90248FEF703FF19B030BD000000
:10320000680100207CB5012400940023224604219B
:103210000B480194FDF784FC002509482B462A46FB
:103220001B219438CDE90045FDF77AFC04480023C2
:103230001A461A218838CDE90045FDF771FC7CBD9E
:10324000C805002030B50024039D846061B14FF4AF
:103250000061C160046207214462C0E90A41C0E91B
:1032600004231DB1446030BDC460F3E74FF48271A4
:10327000416030BD094B00221B6803E05B08521C13
:10328000072A01D28B42F9D8302101EAC201D207C4
:1032900000D008221143C161704700005C0000208B
:1032A0002DE9FF4F83B08B460446109FFDF706FAC9
:1032B0000525022604F1580004F1640904F17008A0
:1032C00004F17C0ABBF1070F03D0BBF11F0F2ED016
:1032D00021E033490A6842F480520A600A6822F405
:1032E00080520A602E490C310A6842F480520A600A
:1032F000096801F4805100912A492DE04FF40070D3
:10330000A0610020009000E0009600231A461946B4
:103310002046FFF797FF24492046FFF7ABFF2046E2
:10332000FFF721F807B0BDE8F04FFDF7CFB91C4912
:10333000091D0A6842F480420A600A6822F4804249
:103340000A60174910310A6842F480420A6009682D
:1033500001F48041009115492160CDE90065002309
:1033600002225946FDF7DCFBCDE90065002302226D
:1033700048460599FDF7D4FBCDE9006500230222FC
:1033800040460699FDF7CCFB0126CDE900650023F8
:10339000022239465046FDF7C3FB7F1CB4D1ADE78E
:1033A00014380240003001408096980000380040F8
:1033B00010B5FDF761FEBDE81040FFF733B800001F
:1033C00030B5244895B0016841F080510160006833
:1033D00000F0805014902048016821F4C05141F45D
:1033E0000061016001240520CDE900040220C5032D
:1033F0000294CDE909054FF440200B90A0050C90F4
:103400006846FEF7C1F80F200D9003200E900020B3
:103410000F901090119001210DA8FDF74FFF12A8F9
:10342000CDE91245FDF796FEFEF732F84FF47A71BA
:10343000B0FBF1F0FEF7E2FF0420FEF7D2FF03201D
:10344000FDF76EFE00221146501EFDF749FE15B035
:1034500030BD0000243802400070004038B52E48CE
:10346000016841F080510160006800F080500090D8
:103470002A48016821F4C05141F4006101602649E5
:103480002439086840F480300860234C4FF400323F
:103490001034012092FAA2F3B3FA83F343F020032D
:1034A0005B0901D00B6800E0236892FAA2F5B5FA37
:1034B00085F505F01F0500FA05F52B42EAD04FF01F
:1034C000807292FAA2F2164BB2FA82F243F822000C
:1034D0004FF0007393FAA3F2B2FA82F242F02002A4
:1034E000520901D00A6800E0226893FAA3F5B5FA00
:1034F00085F505F01F0500FA05F52A42EAD00648D1
:103500001C38016841F0030101600168C1F38101C9
:103510000329FAD138BD0000243802400070004071
:10352000000047420F48016841F4807101600D4975
:1035300008310A680C4B1A400A6002680B4B1A40AB
:103540000260026822F480220260086820F47D0094
:1035500008600020091D086005494FF00060086000
:1035600070470000003802400CC0FF88FEFFFEEEEE
:1035700008ED00E00148FEF7B2BF00009C0100200A
:103580000148FEF7ACBF0000D401002070B502680E
:103590004FF08046134B144CB04203D0984201D0F8
:1035A000A04205D122F070054A682A43B0420CD0EF
:1035B00098420AD0A04208D00C4B984205D00C4B40
:1035C000984202D00B4B984203D122F44073CA6850
:1035D0001A4302608A68C2620968816201214161FE
:1035E00070BD0000000400400008004000080140D9
:1035F000000C014000100140134910B509684FF458
:103600007A42B1FBF2F211494FF08043521E0B6037
:103610004FF0FF3303EB8010C86000200861C1E960
:1036200001200846FEF702FF10B109A000F0C0FC1F
:103630000648FEF747FF002804D0BDE810400AA066
:1036400000F0B6BC10BD00005C0000209C01002012
:10365000B6A8CAB1C6F732B3F5CABCBBAFCAA7B0E9
:10366000DCA3A10D0A000000B6A8CAB1C6F732C695
:10367000F4B6AFD6D0B6CFCAA7B0DCA3A10D0A006E
:10368000124910B509684FF47A42B1FBF2F21149C0
:103690000F4B521E0B604FF0FF3303EB0010C8605E
:1036A00000200861C1E901200846FEF7BFFE10B105
:1036B00009A000F07DFC0748FEF704FF002804D0B5
:1036C000BDE810400AA000F073BC10BD5C000020F3
:1036D00000040040D4010020B6A8CAB1C6F733B335
:1036E000F5CABCBBAFCAA7B0DCA3A10D0A0000009D
:1036F000B6A8CAB1C6F733C6F4B6AFD6D0B6CFCAED
:10370000A7B0DCA3A10D0A0000F054BF0348016874
:10371000002902D14168491C4160704728000020FF
:103720000022026042600272C0E90312704700008A
:1037300010B5134C6068002820D0FFF79DFC61682D
:1037400000220B68834201D80A6001E0181A086061
:103750000A7204E001696160C06800B18047606876
:1037600000280BD001680029F4D0017A012905D086
:1037700001210172BDE8104000F004B810BD000046
:103780007400002010B50649044600200870206827
:10379000FFF72EFC2060BDE81040FFF7E7BC0000FB
:1037A0007400002070B50D46044600F003F8256053
:1037B000656070BD70B50546FCF780FF1F4C606802
:1037C000011E36D005B3A84221D1017A0026012975
:1037D00007D00069C8B129686060026811440160BF
:1037E00027E0FFF749FC2968814200D20846626859
:1037F000091A106948B116726060026811440160CC
:1038000001210172FFF7BEFF13E0666011E02A6834
:103810000DE0A94209D1096921B10161086810448C
:10382000086006E00021016103E0084609690029FB
:10383000EFD1BDE87040FCF749BF000074000020E4
:103840002DE9F041044600680169E26821F4405125
:10385000114301612169A068E2690843616911436C
:1038600008432168CA6849F20C639A430243CA605C
:1038700020684169A26921F4407111434161E16905
:103880006425B1F5004F954821684FF032083DD0CE
:1038900081427AD1FDF71AFE00EBC00101EB001066
:1038A00061688900B0FBF1F6FDF710FE00EBC00186
:1038B00001EB001061688900B0FBF1F0B0FBF5F09E
:1038C0006FF01801484306EB800108EB0110B0FBD4
:1038D000F5F000F0F006FDF7F9FD00EBC00101EB9B
:1038E000001061688900B0FBF1F0B0FBF5F006EB69
:1038F0000016FDF7EBFD00EBC00101EB0010616865
:103900008900B0FBF1F7FDF7E1FDD0E081423DD148
:10391000FDF7DCFD00EBC00101EB00106168490020
:10392000B0FBF1F0B0FBF5F00601FDF7CFFD00EBC9
:10393000C00101EB001061684900B0FBF1F7FDF731
:10394000C5FD00EBC00101EB001061684900B0FB50
:10395000F1F0B0FBF5F06FF01801484307EB800180
:1039600008EBC100B0FBF5F000F0F80006EB4006F4
:10397000FDF7ACFD00EBC00101EB001061684900F0
:10398000B0FBF1F7FDF7A2FD3CE055E0FDF786FD49
:1039900000EBC00101EB001061684900B0FBF1F0E1
:1039A000B0FBF5F00601FDF779FD00EBC00101EB7E
:1039B000001061684900B0FBF1F7FDF76FFD00EB07
:1039C000C00101EB001061684900B0FBF1F0B0FBF1
:1039D000F5F06FF01801484307EB800108EBC100D8
:1039E000B0FBF5F000F0F80006EB4006FDF756FDE1
:1039F00000EBC00101EB001061684900B0FBF1F77A
:103A0000FDF74CFD00EBC00101EB001061684900BF
:103A1000B0FBF1F0B0FBF5F06FF01801484307EB95
:103A2000800108EBC100B0FBF5F000F00700216851
:103A300030448860BDE8F081FDF730FD00EBC00147
:103A400001EB001061688900B0FBF1F6FDF726FD7F
:103A500000EBC00101EB001061688900B0FBF1F0E0
:103A6000B0FBF5F06FF01801484306EB800108EB5E
:103A70000110B0FBF5F000F0F006FDF70FFD00EBD4
:103A8000C00101EB001061688900B0FBF1F0B0FBF0
:103A9000F5F006EB0016FDF701FD00EBC00101EBB0
:103AA000001061688900B0FBF1F7FDF7F7FC00EB4F
:103AB000C00101EB001061688900B0FBF1F0B0FBC0
:103AC000F5F06FF01801484307EB800108EB011097
:103AD000B0FBF5F000F00F00A9E70000003801404E
:103AE000034A0146002012680A4200D001207047B4
:103AF0000038014000B52020FFF7F2FF002810D069
:103B000000F044F80849074B8A889854521C90B238
:103B10000022888001238A704B70FF2800D38A809E
:103B20004B7000BDCC020020540000203EB504467E
:103B30000A23092200210C4800F055F800210091C9
:103B400001910B46029122460221074800F03EF8FF
:103B500006490748FFF7E4FD03B00321BDE8304004
:103B60000348FFF71FBE0000F00000201D2B0008D7
:103B7000CC0300200348002181800170FF2102480E
:103B8000FCF7EDBA54000020CC0200200248006887
:103B9000C0F30800704700000438014030B50B4600
:103BA0000446094D0CE04020FFF79AFF0128FAD1A6
:103BB000207828604020FFF793FF0128FAD1641C89
:103BC0005B1EDBB2EFD230BD04380140FEB5077892
:103BD000DDE908540A9EFF2F04D0CDE90054029677
:103BE00000F00EF8FEBD30B44478002C06D101245C
:103BF0004470FF2902D030BC00F062B930BC70477D
:103C00002DE9F05FA94CDDE90BC790F80080DDF8E5
:103C1000289004F1400504F18006B8F1000F21D08E
:103C2000B8F1010F23D0B8F1020F7CD1DFF8808208
:103C3000C6E9008290F8008000224FF0080A4FF099
:103C4000040B4FF00C0EB8F1000F15D0B8F1010FB6
:103C500021D0B8F1020F66D161B301292DD002291C
:103C60002ED035E0DFF84C82C4E90082E2E7DFF8CD
:103C70004882C5E90082DDE721B1012905D002298A
:103C800006D029E0C4F814A01CE0C4F814B019E070
:103C9000C4F814E016E021B1012905D0022906D0AC
:103CA00024E0C5F814A00DE0C5F814B00AE0C5F88A
:103CB00014E007E0C6F814A004E0C6F814B001E070
:103CC000C6F814E0017839B101290FD002292AD1B0
:103CD000B3B1012B16D01EE013B1012B02D045E089
:103CE000A26012E04FF48051A1600EE013B1012BED
:103CF00002D044E0AA6008E04FF48051A96004E0DB
:103D0000B26002E04FF48051B160017871B30129D3
:103D100035D0022907D1B9F1020F3AD0F26001780B
:103D20004FF4806300E078E04FF4C06881B301296C
:103D300042D0022971D1BCF1000F4AD0BCF1010F71
:103D400049D0C6F8108000784FF480714B004FF4D2
:103D5000407C78B3012861D002285ED15FB3012F87
:103D60007ED0022F7DD0032F7CD086E0B9F1020FE8
:103D700001D0E260D3E74FF40051E160CFE7B9F141
:103D8000020F01D0EA60CAE74FF40051E960C6E7CC
:103D900003E04FF40051F160C1E7BCF1000F05D022
:103DA000BCF1010F04D0C4F81080CCE72261CAE74F
:103DB0002361C8E711E058E0BCF1000F05D0BCF169
:103DC000010F04D0C5F81080BDE72A61BBE72B6165
:103DD000B9E73261B7E73361B5E737B1012F06D0F4
:103DE000022F06D0032F06D007E0A26105E0A161F3
:103DF00003E0A36101E0C4F818C02C48E261FEF7BB
:103E000018FC002208212520FDF76AF92520FDF77E
:103E10005CF901222949254841E044E037B1012FEE
:103E200006D0022F06D0032F06D007E0AA6105E0D6
:103E3000A96103E0AB6101E0C5F818C01B48EA6165
:103E40004030FEF7F6FB002208212620FDF748F956
:103E50002620FDF73AF919490122491C134802E0CE
:103E600005E006E007E0403019E0B26105E0B1612D
:103E700003E0B36101E0C6F818C00C48F26180307D
:103E8000FEF7D7FB002208212720FDF729F927207C
:103E9000FDF71BF9094905480122891C8030BDE85E
:103EA000F05FFEF7F7BBBDE8F09F00000C020020BA
:103EB000004800400038014000440040500000200D
:103EC0002DE9FC419846174601700B1E4FF007067E
:103ED0004FF0010400F1100516D0264A25490C3296
:103EE000012B25D0022B43D10B6843F480230B60B8
:103EF0000B6823F480230B60116841F4802111606A
:103F0000116801F4802122E01A49091F0A6842F46D
:103F100080420A600A6822F480420A60154908312A
:103F20000A6842F480420A60096801F480410EE0A8
:103F30000B6843F400330B600B6823F400330B6011
:103F4000116841F400311160116801F400310091F1
:103F5000CDE90046002302223946001DFCF7E0FDB2
:103F6000CDE900460023022241462846FCF7D8FD51
:103F7000BDE8FC8118380240FEE77FB50D460446D7
:103F8000FCF764FFFCF704FF00200121CDE90210DB
:103F9000CDE9000403A96846FCF70EFF2A46214636
:103FA0000220FCF7A1FEFCF795FEFCF745FF7FBD64
:103FB0000FB4054B10B503A9044A029800F02CF881
:103FC00010BC5DF814FB0000794500087C0000205F
:103FD0000FB4084B10B504A902AA039800F01CF80E
:103FE000044602A9002000F0B8F9204610BC5DF894
:103FF00014FB00005B43000802E008C8121F08C160
:10400000002AFAD170477047002001E001C1121F59
:10401000002AFBD1704700002DE9FF4F8BB0884686
:104020000546002606E025280BD0DDE90D12904755
:104030006D1C761C28780028F5D10FB03046BDE8FD
:10404000F08F0024A146A2460122AE4900E00443BD
:1040500015F8013F203B02FA03F00842F7D1287817
:104060002A2810D06FF02F022878A0F130010929FA
:1040700015D809EB890102EB410144F0020400EB81
:1040800001096D1CF0E758F8041B5FEA010903D52C
:1040900044F40054C9F1000944F002046D1C28786E
:1040A0002E2817D115F8010F44F004042A280ED049
:1040B0006FF02F022878A0F1300109290AD80AEB05
:1040C0008A0102EB410100EB010A6D1CF2E758F88E
:1040D00004AB6D1C28786C280FD006DC4C2817D058
:1040E00068280DD06A2814D104E0742810D07A28EA
:1040F0000FD10DE044F400140AE044F4801401E010
:1041000044F440146978814202D104F580146D1C96
:104110006D1C2878692865D006DC00288DD06328BE
:1041200027D0642806D15DE06E2808D073282AD0F5
:10413000752877D0DDE90D129047761CE0E0C4F3D6
:104140000250022809D003280DD0D8F80010042806
:104150000DD00E6008F10408D2E0D8F80010F21774
:10416000C1E90062F6E7D8F800100E80F2E70E70A1
:10417000F0E718F8041B8DF8001000208DF80100FE
:10418000EB46012003E058F804BB4FF0FF30610715
:104190004FF0000701D40AE07F1C57450DDA874233
:1041A000FADB1BF807100029F6D106E07F1C8742D6
:1041B000FCDB1BF807100029F8D1DDE90D23A9EB82
:1041C00007008146214600F0B1F83044C61904E0EA
:1041D000DDE90D121BF8010B90477F1EF8D2214636
:1041E000484688E058F8040BC4F302514FF00A0B1C
:1041F000032900D100B2042900D140B2002802DA1C
:1042000040422D2102E0210505D52B218DF82410F7
:10421000012104E006E0E10710D02021F6E708AF15
:10422000089113E058F8040BC4F302514FF00A0B45
:10423000032900D180B2042900D1C0B20021EEE7E9
:104240005946FCF737F9303107F8011D0028F7D13E
:10425000ADEB070000F1200B600702D524F4803499
:1042600001E04FF0010ADA4502DDAAEB0B0000E0A5
:104270000020824600EB0B0108980144A9EB0100E5
:104280000A90E00306D4DDE90D2321460A9800F0E8
:104290004DF806444FF0000908E009A911F809009B
:1042A000DDE90D12904709F10109761C089989454D
:1042B000F3DBE0030CD5DDE90D2321460A9800F07D
:1042C00035F8064404E0DDE90D1230209047761CF5
:1042D000BAF10001AAF1010AF5DC05E0DDE90D12F1
:1042E00017F8010B9047761CBBF10001ABF1010BF5
:1042F000F4DC0A982146DDE90D2300F005F80644B8
:104300006D1C97E6092801002DE9F04104460025BF
:104310001E461746880404D405E039462020B047DD
:104320006D1C641EF9D52846BDE8F0812DE9F041E9
:10433000044600251E469046C80301D5302700E0FC
:104340002027880404D505E041463846B0476D1C57
:10435000641EF9D52846BDE8F0810A68531C0B603D
:10436000107070472DE9F041C1F30A52A2F2FF36F6
:104370002F4A304B0D460446142E2FDA002E12DA47
:10438000FBF7F8FE00221346FCF77CF84CD2002D18
:10439000BCBF4FF00045002446DB55EA040018BFBF
:1043A000254D19D140E0DFF894C02CFA06F705EA54
:1043B000070C5CEA040C08BFBDE8F081FBF7DAFEED
:1043C00000221346FCF75EF82ED2002D03DD4FF4D9
:1043D0008010F0400544BD43002425E0332EC8BFC3
:1043E000BDE8F081A6F1140C4FF0FF3727FA0CF767
:1043F0003C4208BFBDE8F081FBF760FF0022134696
:10440000FCF740F810D2002D0DDD142E08BF6D1CF6
:1044100009D0C6F13400012101FA00F02044A04285
:1044200038BF6D1C0446BC4329462046BDE8F081D8
:104430009C7500883CE4377E0000F03FFFFF0F00D2
:1044400010B500F0B1F8002828D0154C002015A2B6
:10445000E060217A7020FEF714FB01211248FCF77E
:10446000F3FB00F053FA1148E169FFF786FD1048AD
:10447000216AFFF782FD0F4801680F48FFF77DFDB5
:104480000E482169FFF779FD0D486169FFF775FD59
:10449000A169BDE810400B48FFF76FBD10BD0000DB
:1044A0000000002020000000CC00002000F30008E5
:1044B00000F400082C00002000F5000800F60008B9
:1044C00000F7000800F8000838B50021042208466B
:1044D000FEF74CFA052203210020FEF747FA0622D8
:1044E00011460020FEF742FA13A200211020FEF729
:1044F000C8FA11A203211020FEF7C3FA0EA206216A
:104500001020FEF7BEFA0D4D102400940423002164
:104510003020EA69FEF784FA009404230321302056
:104520002A6AFEF77DFA06480094042302680621F1
:104530003020FEF775FA38BD3A0000000000002078
:104540002C00002010B500F023F80A4C30B1606A4E
:10455000401C6062BDE8104000F0CCB900F01EF8CD
:10456000002806D0606A401E6062BDE8104000F07E
:10457000C7B910BD0000002004490A685206FCD5E6
:10458000024AC1B2121D116070470000003801409C
:104590000148807870470000640000200148C0781E
:1045A0007047000064000020014800797047000057
:1045B0006400002005490868401C08600A2803D3ED
:1045C0000020086000F0C2BA7047000030000020F0
:1045D000F0B585B04FF400500024012503268DE886
:1045E000710069460948FCF771FC02208DE87100F2
:1045F000074F69463846FCF769FC20208DE87100BA
:1046000069463846FCF762FC05B0F0BD0008024080
:1046100000040240FEF774F84FF4E130FFF786FA29
:10462000FEF7E6F8DFF824914846FEF789FA484C91
:10463000DFF820A1E0615046FEF782FADFF818B1FA
:1046400020625846FEF77CFA444D28604448FEF745
:1046500077FA20614348FEF773FA60614248FEF73B
:104660006FFA424FDFF80881424EA0613888A8B146
:104670000A20FCF703FB98F800104046FB2905D1FF
:104680004178042902D14179FE290ED03048032116
:1046900010F10300FFF782FAFFF76CFA3068D0B32D
:1046A0000128E3D1E068B8B343E098F80200C10FF5
:1046B00000EB117121F00F020911801A01EB810149
:1046C00000EB41014846E161FFF757FC98F8030011
:1046D000C10F00EB117121F00F020911801A01EBDB
:1046E000810100EB410150462162FFF746FC98F83A
:1046F0000400C10F00EB117121F00F020911801AA3
:1047000001EB810100EB410158462960FFF735FCC0
:1047100003210F48BEE700E009E000F0A9F900F02E
:104720004FF8154800F086FAFEF700F89EE700F013
:10473000A3F8E068012803D100F020F8FFF780FE1D
:1047400000F034F9FFF7C0FE90E7000000F3000826
:104750000000002000F4000800F500082C000020F4
:1047600000F6000800F7000800F8000858000020D4
:10477000CC020020280000200D37000870B50E4C38
:10478000A06858B1032810D0062806D10B4D286820
:104790006062FFF7D7FE606A286070BDE069606202
:1047A000FFF7D0FE606AE06170BD206A6062FFF7CB
:1047B000C9FE606A206270BD000000202C0000204D
:1047C00038B5002211461046FEF7D0F8012200212C
:1047D0001020FEF7CBF8022200212020FEF7C6F8B9
:1047E000032200213020FEF7C1F811A20021402051
:1047F000FEF747F90F4C10A1A0690090D4E90423FB
:104800001248FFF7E5FB114A03210020FEF739F9B2
:104810000F4810A100680090D4E907230B48FFF768
:10482000D7FBBDE838400621084A0020FEF729B929
:104830003A00000000000020253034642D2530327D
:10484000642D25303264202000000000800000200C
:104850002C000020253032643A253032643A25306D
:1048600032642020000000000246012000E0504396
:10487000491EC9B2FBD2704710B5FFF789FE1A4C2A
:1048800058B1207AFDF794FFA06820B1C01EA06047
:1048900000F030F821E00620F9E7FFF77FFE60B175
:1048A000207AFDF785FFA068062804D0C01CA06010
:1048B00000F026F811E00020F9E7FFF775FE60B17F
:1048C0000120E060217A09A27020FEF7DAF80021C9
:1048D0000748FCF7B9F900F019F8217A0722BDE87A
:1048E00010405420FEF742B80000002040000000B5
:1048F000CC0000200149002088707047640000202F
:1049000001490020C8707047640000200149002060
:1049100008717047640000202DE9F04D07460E46EF
:10492000FBF76CFE04460D463A463346FBF7C6FCE1
:10493000DFF86CA0DFF86CB01B4B0746884616F01A
:10494000004F4FF000020AD0FBF784FD0AD9002285
:104950005B4638464146FBF795FD1BD212E0FBF75C
:1049600079FD08D20022534620462946FBF7A3FCD6
:1049700004460D460EE000225B4638464146FBF7F2
:1049800081FD07D80022534620462946FBF7F2FB5B
:1049900004460D463146204665F31E01BDE8F08D04
:1049A0000000F03F0000E03F0000E0BF30B52E48BF
:1049B0003B21012203683B2B01DD026002E0002B5A
:1049C00000DA016029480023046A3B2C01DD036200
:1049D00002E0002C00DA0162C169172901DDC36120
:1049E00003E0002901DA1721C16141690C2900DDCA
:1049F00042611E4B01699B698C0705D1642491FBC0
:104A0000F4F504FB151454B94FF4C87491FBF4F594
:104A100004FB151119B1416902291DD002E0416959
:104A2000022916D001291AD0032918D0052916D039
:104A3000072914D0082912D00B2910D0042905D039
:104A4000062903D0092901D00C2901D11E2B08DC2D
:104A500030BD1D2B05DC30BD1C2B02DC30BD1F2BF7
:104A6000FCDD826130BD00002C0000200000002031
:104A700070B5344A0020344913683B2B01DC0A6AC4
:104A800003E010600A6A521C0A623B2A01DCCA6910
:104A900003E00862CA69521CCA61172A03DDC861B3
:104AA0008869401C886128480B694FF003044069FD
:104AB0009D074FF0010205D1642593FBF5F605FB38
:104AC00016354DB94FF4C87593FBF5F605FB163551
:104AD00015B1022821D001E0022817D01A4C6469D0
:104AE000641C01281DD003281BD0052819D00728D5
:104AF00017D0082815D00B2813D0042815D0062865
:104B000013D0092811D00C280FD013E088691D2874
:104B100002DD00BFC1E9054270BD88691C28F9DCCF
:104B200070BD88691F2803DC04E088691E2801DD48
:104B3000C1E9054248690C28F2DD5B1CC1E9043279
:104B400070BD00002C000020000000202DE9F04185
:104B50004FF400513148FCF77FFA314C0126002513
:104B60006179012900D110B1A57149B10AE0A0799C
:104B7000401CC0B2A071022804D3A670657101E088
:104B8000012809D0E571274F02213846FCF764FA65
:104B9000217A012908D008E0E079401CC0B2E07118
:104BA0000228F0D36671EEE710B1657249B10AE0F0
:104BB000607A401CC0B26072022804D3E67025728D
:104BC00001E0012808D0A57220213846FCF744FAFC
:104BD000E17A012908D008E0A07A401CC0B2A07296
:104BE0000228F1D32672EFE710B1257349B10AE02C
:104BF000207B401CC0B22073022804D32671E572CA
:104C000001E0012802D06573BDE8F081607B401CA3
:104C1000C0B260730228F7D3E672F5E700080240DD
:104C20006400002000040240014908607047000051
:104C300048000020014948607047000048000020FB
:104C40001F1C1F1E1F1E1F1F1E1F1E1F1F1D1F1E7E
:104C50001F1E1F1F1E1F1E1F030406080C101820F6
:104C600030000000000000000001020304060708F5
:104C70000900000000010203040000000000000021
:104C8000000000000000000000000000F80000002C
:104C900000000000333000000000100C06100C066D
:104CA00000000000000000000040C07840C07840D4
:104CB00000043F04043F040400007088FC08300036
:104CC00000001820FF211E0000F008F000E018008E
:104CD0000000211C031E211E0000F0088870000047
:104CE000001E2123241927211010160E0000000099
:104CF000000000000000000000000000E0180402B6
:104D000000000000071820400000020418E0000026
:104D1000000040201807000000404080F080404024
:104D2000000202010F01020200000000F00000007A
:104D3000000101011F01010100000000000000004E
:104D40000080B070000000000000000000000000C3
:104D5000000001010101010101000000000000004C
:104D600000003030000000000000000000806018EB
:104D700004006018060100000000E010080810E0C0
:104D800000000F102020100F00001010F80000008D
:104D9000000020203F2020000000700808088870D4
:104DA0000000302824222130000030088888483054
:104DB000000018202020110E000000C02010F80074
:104DC0000000070424243F240000F808888808080D
:104DD000000019212020110E0000E0108888180022
:104DE00000000F112020110E0000380808C83808F4
:104DF000000000003F000000000070880808887074
:104E000000001C222121221C0000E010080810E0F4
:104E1000000000312222110F00000000C0C000007D
:104E200000000000303000000000000080000000A2
:104E3000000000806000000000000080402010089A
:104E40000000010204081020004040404040404063
:104E5000000404040404040400000810204080003E
:104E6000000020100804020100007048080808F043
:104E7000000000003036010000C030C828E810E013
:104E8000000718272423140B000000C038E000009E
:104E900000203C23020227382008F8888888700008
:104EA00000203F202020110E00C0300808080838DC
:104EB00000071820202010080008F808080810E053
:104EC00000203F202020100F0008F88888E80810F4
:104ED00000203F20202320180008F88888E80810C8
:104EE00000203F200003000000C030080808380000
:104EF0000007182020221E020008F808000008F809
:104F000008203F210101213F20000808F80808007F
:104F1000000020203F2020000000000808F80808BA
:104F200000C08080807F00000008F888C028180832
:104F300000203F20012638200008F808000000006B
:104F400000203F20202020300008F8F800F8F80862
:104F500000203F003F003F200008F830C00008F864
:104F600008203F200007183F00E01008080810E064
:104F7000000F10202020100F0008F808080808F083
:104F800000203F210101010000E01008080810E0A6
:104F9000000F18242438504F0008F888888888703B
:104FA00000203F2000030C302000708808080838DB
:104FB000000038202121221C00180808F8080818D1
:104FC000000000203F2000000008F808000008F85A
:104FD00008001F202020201F000878880000C83803
:104FE00008000007380E010000F80800F80008F873
:104FF00000033C0700073C0300081868808068181D
:105000000820302C03032C30200838C800C838088A
:10501000000000203F2000000010080808C83808E1
:10502000002038262120201800000000FE02020285
:10503000000000007F40404000000C30C000000035
:1050400000000000010638C00000020202FE00005D
:1050500000004040407F0000000000040202020403
:105060000000000000000000000000000000000040
:105070000080808080808080800002020400000028
:105080000000000000000000000000808080800020
:10509000000019242222223F2008F800808000000E
:1050A00000003F112020110E0000000080808000D1
:1050B00000000E112020201100000000808088F8E0
:1050C00000000E112020103F200000808080800012
:1050D00000001F222222221300008080F08888888E
:1050E000180020203F202000000000808080808069
:1050F00000006B94949493600008F8008080800016
:1051000000203F210000203F2000809898000000F0
:10511000000020203F202000000000008098980020
:105120000000C08080807F000008F8000080808040
:1051300000203F24022D302000000808F800000065
:10514000000020203F202000008080808080808020
:1051500000203F20003F20003F80800080808000B2
:1051600000203F210000203F200000808080800040
:1051700000001F202020201F008080008080000071
:105180000080FFA12020110E0000000080808080A0
:1051900000000E112020A0FF808080800080808091
:1051A0000020203F212000010000008080808080BE
:1051B000000033242424241900008080E080800033
:1051C000000000001F202000008080000000808080
:1051D00000001F202020103F208080800000808061
:1051E0008000010E30080601008080008000808071
:1051F000800F300C030C300F000080800080808016
:10520000000020312E0E3120008080800000808040
:105210008080818E701806010000808080808080F0
:10522000000021302C2221300000000000807C0290
:105230000200000000003F404000000000FF0000AE
:105240000000000000FF0000000002027C8000005F
:10525000000040403F00000000000601010202047F
:10526000040000000000000000004042445840409C
:105270007F40405048C600000000000000000000D1
:10528000000000000000000000004044444444448A
:105290004444444444FF00000000000000000000BB
:1052A0000000000000000000000808E8292E28E89F
:1052B0000808C80C0BE80808000000000000000007
:1052C0000000000000000000000000FF0949897F85
:1052D00000000F40807F0000000000000000000080
:1052E00000000000000000000000FC848484FC003A
:1052F0001010101010FF101000000000000000003F
:10530000000000000000000000003F1010103F00EF
:1053100000010640807F0000000000000000000047
:1053200000000000000000000000F8010600F0127C
:105330001212F2020202FE00000000000000000053
:1053400000000000000000000000FF0000001F112E
:1053500011111F0040807F000000000000000000CD
:1053600000000000000000000000FC848484FC00B9
:105370001010101010FF10100000000000000000BE
:10538000000000000000000000003F1010103F006F
:1053900000010640807F00000000000000000000C7
:1053A00000000000000000000080402090888680FF
:1053B0008080838C102040800000000000000000EE
:1053C00000000000000000000000804020180700DE
:1053D0004080403F0000000000000000000000008E
:1053E0000000000000000000002424A4FE2322008E
:1053F000C03800FF0008106000000000000000003E
:10540000000000000000000000080601FF01068106
:1054100080404027100C0300000000000000000046
:105420000000000000000000000000008080C0C0FC
:10543000E0E0F0F0F8F8FC000000000000000000E0
:105440000000000000000000000001010303070746
:105450000F0F1F1F3F3F7F000000000000000000F3
:10546000000000000000000000407C407F484840F1
:10547000F2121AD61212F202000000000000000020
:10548000000000000000000000908E404F201E80B1
:105490004F20180710204F8000000000000000007F
:1054A0000000000000000000000014A4442434ADFB
:1054B0006624940444A414000000000000000000CE
:1054C00000000000000000000008090808090909A0
:1054D000FD09090B08080908000000000000000091
:1054E000000000000000000000008060F807404855
:1054F00048E85F48484840400000000000000000C5
:10550000000000000000000000010000FF00000299
:105510000B1222D20A06000000000000000000006A
:105520000000000000000000000000FC04D45454FF
:1055300054D4047F84C5360400000000000000003D
:105540000000000000000000008866010063828205
:1055500092AB8482C10224CF000000000000000052
:1055600000000000000000000080809E9292929E49
:10557000E0809EB2D2929E800000000000000000F9
:105580000000000000000000000808F4949292F16E
:105590000001F2929494F80800000000000000005E
:1055A0000000000000000000002424A4FE232200CC
:1055B000F01010FF1010F0000000000000000000CC
:1055C000000000000000000000080601FF010600C6
:1055D000070202FF020207000000000000000000B6
:1055E0000000000000000000000010109254301075
:1055F000FF10305492101000000000000000000066
:105600000000000000000000008485454424140CC4
:10561000060C1424444584840000000000000000AF
:1056200000000000000000000088681FC80810C8C3
:105630005452D1129408D010000000000000000065
:10564000000000000000000000091909FF0500FF2C
:105650001292FF005F807F00000000000000000049
:105660000000000000000000000808080808F88991
:105670008E88888888080808000000000000000064
:10568000000000000000000000008040201807001B
:10569000004080403F0000000000000000000000CB
:1056A000000000000000000000101090909090900A
:1056B0001010FF1010111610000000000000000074
:1056C000000000000000000000002060203F1010DB
:1056D0001000030C102040F8000000000000000043
:1056E000000000000000000000404042CC0000FC30
:1056F00024A4242222A36200000000000000000075
:105700000000000000000000000040201F2058475B
:10571000504845424548504000000000000000004D
:105720000000000000000000000000FE0202F21273
:105730001212F20202FE0000000000000000000051
:1057400000000000000000000000007F202027244F
:1057500024242720207F000000000000000000001B
:105760000000000000000000000000000080402059
:10577000904824120904020000000000000000000C
:105780000000000000000000000000000000010216
:10579000040912244810200000000000000000004E
:1057A00000000000000000000000000204091224B4
:1057B0004890204080000000000000000000000031
:1057C000000000000000000000000020104824122B
:1057D00009040201000000000000000000000000B9
:1057E0000000000000000000001060028C0000FEBD
:1057F0009292929292FE00000000000000000000D1
:1058000000000000000000000004047E01407E4211
:10581000427E427E42427E400000000000000000C6
:105820000000000000000000000000FC242424FC14
:10583000252624FC2424240400000000000000008D
:1058400000000000000000000040308F80844C55B4
:10585000252525554C8080800000000000000000B8
:105860000000000000000000001060028C00FE92AA
:105870009292929292FE0000000000000000000050
:1058800000000000000000000004047E01444850B5
:105890007F40407F5048444000000000000000006E
:1058A0000000000000000000000000C03800000000
:1058B000FF00004020180000000000000000000071
:1058C00000000000000000000080814020100C0358
:1058D00000030C1020408080000000000000000049
:1058E000000000000000000000807000FF10082091
:1058F0009088874404948C80000000000000000021
:105900000000000000000000008060180708300060
:10591000FF444440404444FF0000000000000000F9
:10592000000000000000000000000000000000C0B7
:105930003FC0000000000000000000000000000068
:10594000000000000000000000804020100C030058
:105950000000030C10204080000000000000000048
:10596000000000000000000000008060F807101038
:1059700010D0FFD010101000000000000000000048
:10598000000000000000000000010000FF100804FB
:105990000B08FF080B0408100000000000000000C6
:1059A0000000000000000000004040424458C04099
:1059B0007F40C0504846404000000000000000000A
:1059C0000000000000000000008080402018070058
:1059D00000003F4040404078000000000000000010
:1059E00000000000000000000000FE424242FE00F5
:1059F00042A29E82A2C2BE00000000000000000081
:105A0000000000000000000000806F080828CF00A0
:105A1000002FC8080828CF00000000000000000088
:105A2000000000000000000000000202F21212124A
:105A3000F2020202FE02020200000000000000006A
:105A40000000000000000000000000000F0404043B
:105A50000F0040807F0000000000000000000000F8
:105A6000000000000000000000807000FF10289877
:105A700027C43C907F90121400000000000000003A
:105A80000000000000000000008060180708986413
:105A90000328C621C01126C8000000000000000035
:105AA00000000000000000000020104C4754545437
:105AB00054545454D40404000000000000000000BA
:105AC00000000000000000000000000000000000D6
:105AD000000000000F3040F0000000000000000057
