:020000040000FA
:030000000200E318
:0300130002068260
:030033000205B40F
:03003B000206DEDC
:03006B00020494F8
:03007B0002052457
:1000830002064400000080FB120113B900030200C2
:10009300CDE4900301784179048002F0A3D8FCD920
:1000A300FA900641AA82AB839001167826790180E3
:1000B30015E493A3AC82AD838A828B83F0A3AA82D7
:1000C300AB838C828D83D8E9D9E775825375830D11
:1000D30074001200F575828675830074001200F5B2
:1000E30075D00075813F751001751103759F00026E
:1000F300008BC09FF59FE473D09F22D083D082C032
:100103009FE493C0E0740193C0E0740293F59F22CF
:10011300790122FF00000000000000000000000041
:1001230000000000C20100FF550000030A07BB00E6
:10013300220000227EC7C0AB1200FE45070012005A
:10014300FEEC07001200FE4D08001200FE6A0900D3
:100153001200FEF309001200FE8F0A001200FEDCFB
:1001630010001200FEA610001200FEF6100012008E
:10017300FEFB10001200FE4310001200FE5310009D
:100183001200FE7F10001200FE010F001200FE306D
:100193000F001200FE460F001200FE5D0F0012005A
:1001A300FE740F001200FEA00F001200FEC40F0029
:1001B3001200FED50F001200FEDE0F001200FEE754
:1001C3000F001200FEFC0F001200FE1110001200BF
:1001D300FE3010001200FEA30A001200FEB00B0056
:1001E3001200FE2C0C001200FE010D001200FE197D
:1001F3000D00E4936670130874019366700C087421
:100203000293667005087403936622C3E493960809
:10021300740193960874029396087403939622E0EC
:10022300FAA3E0FBA3E0FCA3E0FD22EAF0A3EBF0DA
:10023300A3ECF0A3EDF022700422600D18C6C333C3
:10024300C608C633C6D5E0F41822E4732510C58268
:10025300C0E0E51134FFC583C0E0E510C3958224F7
:10026300F810AF0885831185821080088583118576
:100273008210D2AFCEF0A3E520F0A37808E608F011
:10028300A3DEFAEFF0A3E58124FAF8E608F0A3E68B
:1002930008F0A3E608F0A30808E608F0A3E608F0D0
:1002A300A315811581D0E0FED0E0F81581158115E5
:1002B30081E8C0E0EEC0E022851183851082E0A3CF
:1002C300FEE0A3F5207808E0A3F608DFFAE0A3FF39
:1002D300E0A3C0E0E0A3C0E0E0A3C0E0E0A3C0E08F
:1002E300E0A3C0E010AF08858210858311800885E4
:1002F3008210858311D2AFD083D0820200FBC0D09D
:100303002510C582C0E0E51134FFC583C0E0E510C8
:10031300C3958224F310AF0885831185821080086A
:10032300858311858210D2AFC8F0A3E9F0A3EAF068
:10033300A3EBF0A37908E709F0A3D8FAECF0A3ED57
:10034300F0A3EEF0A3EFF0A3D0E0F0A3D0E0F0A38E
:10035300D0E0F0A3E520F0A3E5F0F0A3228511831C
:10036300851082E0C0E0A3E0F9A3E0FAA3E0FBA3D9
:100373007808E0F608A3DFFAE0FCA3E0FDA3E0FEC3
:10038300A3E0FFA3E0C0E0A3E0C0E0A3E0F5D0A3B7
:10039300E0F520A3E0A3F5F010AF08858311858273
:1003A300108008858311858210D2AFD082D083D08C
:1003B300E0F8D0E032D083D082ECC0E0EDC0E0EED4
:1003C300C0E0EFC0E0E493A3FCE493A3FDE493A3B4
:1003D300FEE493A3FFEF4E4D4C6015120434EC245E
:1003E300FFFCED34FFFDEE34FFFEEF34FFFF80E54D
:1003F300E493A3FCE493A3FDE493A3FEE493A3FF9C
:10040300EF4E4D4C6015120471EC24FFFCED34FFEC
:10041300FDEE34FFFEEF34FFFF80E5D0E0FFD0E0D8
:10042300FED0E0FDD0E0FCE493A3C0E0E493C0E0A1
:1004330022C0E0C0F088F012020EA8F040071201BB
:10044300F5A8F0701AA3A3A3A312020EA8F0A3A306
:10045300A3A34013D0F0D0E0D0E0D0E002041EA369
:10046300A3A3A3A3A3A3A3A3A3D0F0D0E022C0E09C
:10047300C0F088F01201F5A8F0A3A3A3A3700BD0DA
:10048300F0D0E0D0E0D0E002041EA3A3D0F0D0E08F
:1004930022C0E074F1120301C2C5E589607E7E00CB
:1004A3008074750801750900EE780812023AE508B0
:1004B300AF08E5895F605EEEF87900E875F002A4A5
:1004C300C8AAF075F000A42AFA75F002E9A42AF983
:1004D30074FD28F582740339F583E0F8A3E0F9E8A5
:1004E30049602EEEF87900E875F002A4C8AAF07509
:1004F300F000A42AFA75F002E9A42AF974FD28F59C
:1005030082740339F583E0F8A3E0F583888212024D
:100513004DEFF452890EEEC3940840867F02020326
:1005230060C0E074F1120301C2EBE58A607E7E00D5
:100533008074750801750900EE780812023AE5081F
:10054300AF08E58A5F605EEEF87900E875F002A413
:10055300C8AAF075F000A42AFA75F002E9A42AF9F2
:10056300740D28F582740439F583E0F8A3E0F9E803
:1005730049602EEEF87900E875F002A4C8AAF07578
:10058300F000A42AFA75F002E9A42AF9740D28F5FB
:1005930082740439F583E0F8A3E0F58388821202BC
:1005A3004DEFF4528A0EEEC3940840867F02020395
:1005B30060C0E074F1120301C2E8E58B607E7E0047
:1005C3008074750801750900EE780812023AE5088F
:1005D300AF08E58B5F605EEEF87900E875F002A482
:1005E300C8AAF075F000A42AFA75F002E9A42AF962
:1005F300741D28F582740439F583E0F8A3E0F9E863
:1006030049602EEEF87900E875F002A4C8AAF075E7
:10061300F000A42AFA75F002E9A42AF9741D28F55A
:1006230082740439F583E0F8A3E0F583888212022B
:100633004DEFF4528B0EEEC3940540867F02020306
:1006430060C0E074F2120301A2AFE433FEC2AFE56F
:10065300E9A2E65020900427E0F8A3E0F9E8496016
:100663000E900427E0F8A3E0F583888212024D750B
:100673009B0053E9BFEEA2E092AF7F01020360C08B
:10068300E0C0D0E8C0E0E9C0E0C082C083E5C1C0FB
:10069300E09004AAE0F87900742928F582740439FB
:1006A300F583D0E0F09004A9E0F89004AAE0687024
:1006B30006E5959004ABF09004AAE024019004AA07
:1006C300F0C3948040069004AA7400F0D083D082D3
:1006D300D0E0F9D0E0F8D0D0D0E032C0E0C0D0E82C
:1006E300C0E0C008C009C082C08390052CE0F89028
:1006F300052DE068700B539AFB90052E7401F08072
:1007030031C2E990052CE0F5087401250890052C09
:10071300F075090074AC2508F58274043509F58376
:10072300E0F5C190052CE0C39480400690052C743D
:1007330000F0D083D082D009D008D0E0F8D0D0D058
:10074300E03274F712024FE9FEEAF8EBF9E8FAE94E
:10075300FB740B2E8A828B83F0900308E0F8A3E0EE
:10076300F5838882A3A3A3A3A3E0600678617988B5
:10077300800478417988E88A828B83A3F0E4E9F8DE
:100783008A828B83A3A3F0900301E08A828B83A3E5
:10079300A3A3F0900308E0F8A3E0F5838882A3A362
:1007A300E0F8A3E0F98A828B83A3A3A3A3E8F0A3D1
:1007B300E9F08A828B83A3A3A3A3A3A3ECF0A3ED05
:1007C300F0900308E0F8A3E0F5838882E0F8A3E063
:1007D300F98A828B83A3A3A3A3A3A3A3A3E8F0A370
:1007E300E9F0790A7F010202BB74F212024FECFEB8
:1007F300EDFF8908A908EAFCEBFD7A0A7B031201E5
:100803003BE9FB7A0080348A0A750B00EE250AF572
:1008130082EF350BF583E0C0E08B0A750B008A0C81
:10082300750D00E50A250CF8E50B350DF9740A285A
:10083300F582740339F583D0E0F00AEAC3950840E2
:10084300C6EB2508F97F060202BB74F712024F7E3E
:100853007D7F031201BF12016B7901EEFAEFFB12E8
:1008630001A78E828F83E0C2E7F08E828F83E064DC
:100873000570528E828F83E0F97A7E7B031201A783
:100883008E828F83A3E0A2E55004D2F08002C2F0EF
:10089300A2F0E433900649F0788179038882898352
:1008A300A3E0A2E7400302095F8E828F83A3A3A381
:1008B300E0F8900301E068600302095F90030274AB
:1008C30001F002095F8E828F83E024F5900646F0E3
:1008D3008E828F83E0F97A7E7B031201A78E828F4B
:1008E30083A3E0A2E55004D2F08002C2F0A2F0E4B8
:1008F30033900649F08E828F83A3A3A3A3A3A3A35C
:10090300A3E0F8A3E0F9900642E8F0A3E9F090062B
:10091300477487F0A37403F0900646E0F83395E03C
:10092300F9900647E028F8A3E039F988828983E043
:1009330090064AF088828983A3E0A2E750128E8250
:100943008F83A3E054DF6441700690064B7401F07B
:100953008E828F83A3A3A3E0900641F0120171124C
:1009630001C57F010202BB74F712024FEAFEEBFFDF
:10097300120189E9640170047901806F1201719099
:100983000308EEF0A3EFF09006477400F0A37400A1
:10099300F09003037401F090064D120222900304B9
:1009A30012022E900308E0F8A3E0F5838882A3A344
:1009B300A3A3E0F912018F900308E0F8A3E0F58305
:1009C3008882E0FAA3E0FB120195900308E0F8A304
:1009D300E0F5838882A3A3E0FAA3E0FB12019B7AEC
:1009E300477B011201CB12016B79007F010202BB2D
:1009F30074F412024FEAFEEBFF8C0A8D0B89089008
:100A03000303E070031201B3E508C394675005853F
:100A1300080980037509678509081201D11201BF0E
:100A2300A908AC0AAD0BEEFAEFFB120141E9F97A22
:100A33000A7B031201A11201C51201ADE960027E16
:100A430001900308E0F8A3E0F5838882A3A3A3A39E
:100A5300A3E0601C9003027400F07A4A7B02120147
:100A63007D900302E06004740080027401FE800242
:100A73007E00900303E070031201B9EE7007900348
:100A830001E02401F0EEF97F040202BBC082C083BF
:100A93009003037401F01201B3D083D0820200FBF0
:100AA30074F412024F8A088B098C0A8D0B53F1FEE2
:100AB30043F30C53F2F375868075C48078081203F0
:100AC300B8000000000C000000B0040000160B602A
:100AD3000900001E0BC0120000260B802500002E0B
:100AE3000B40380000360B004B00003E0B807000BB
:100AF30000460B009600004E0B00E10000560B0071
:100B03002C01005E0B00C20100660B008403006E23
:100B13000B760B75C23B75C505805E75C23B75C50B
:100B230006805675C23B75C507804E75C23B75C5B9
:100B330008804675C2D875C508803E75C23B75C529
:100B430009803675C2D875C509802E75C23B75C537
:100B53000A802675C2D875C50A801E75C23B75C545
:100B63000B801675C2D875C50B800E75C2D875C5B6
:100B73000C800675C23B75C50A75C402438640D214
:100B8300AA75C1009004A97400F09004AA7400F03F
:100B930090052C7400F090052D7400F09004AB7454
:100BA30000F090052E7400F07F040202BB74F4126F
:100BB300024F8A088B098C0A8D0B7E007F00804BC5
:100BC3007A887B1312017D9004A9E0F879007429D7
:100BD30028F582740439F583E0850882850983F05A
:100BE3009004A9E02401F0850882850983A3858206
:100BF300088583099004A9E0C3948040069004A962
:100C03007400F0EE2401FEEF3400FF9004A9E0F835
:100C13009004AAE0686009C3EE950AEF950B40A023
:100C2300EEFAEFFB7F040202BB74F712024F90054A
:100C33002CE0F890052DE0C398501F90052CE0F8A8
:100C4300790090052DE0FE7F00E8C39EF8E99FF947
:100C5300E824FFF8E934FFF9803790052DE0F879AF
:100C630000C3E498F8E499F990052CE0FE7F00E8CE
:100C73002EF8E93FF9E8247FF8E93400F9C3E89C4A
:100C8300E99D5004D2F08002C2F0A2F0E433F87977
:100C930000E84960067A007B00805E780079008076
:100CA3001290052DE02401F0439A04E82401F8E9A9
:100CB3003400F9C3E89CE99D503B8A828B83E0C0F2
:100CC300E090052DE0FE7F0074AC2EF58274043FA6
:100CD300F583D0E0F08A828B83A3AA82AB8390054D
:100CE3002E7400F090052DE0C3947F40B490052D41
:100CF3007400F080B3E8FAE9FB7F010202BB53F40E
:100D0300E443FE1B5390E453F4FB53FEFB53F6FB07
:100D130053F7BF0200FBC082C0839005317412F009
:100D2300A37412F0900533740BF090052F7422F026
:100D3300A37422F09005347401F07A2F7B0512011D
:100D43004DE9640160F4120159D083D0820200FBA3
:100D530012015F1201EF1201E9D2937AD07B0712DD
:100D63000183C29379017C657D067A117B1112019F
:100D730053E97A057B00120183D2947AD07B071260
:100D83000183C2947C107D007A557B061201E37ABD
:100D9300E87B031201837CFF7D007A357B0512011A
:100DA300DD8A088B09A808A909C3E5089401E509A8
:100DB3009400A2D265D03340CB90053DE06401702E
:100DC3001D90064074FFF09006657401F079017C74
:100DD300657D067A117B11120153E9020ED5900548
:100DE3003DE064026003020ED5780079008022742E
:100DF3004428F582740539F583E0C0E0743428F59E
:100E030082740639F583D0E0F0E82401F8E9340070
:100E1300F9C3E8940DE99400A2D265D03340D09091
:100E23000640E0F890063FE0687003020ED5900696
:100E33003FE0644A7024D291D290900665740AF020
:100E430079017C657D067A117B11120153E97AD011
:100E53007B071201835390E4807090063FE0644760
:100E63007024D294D293900665740BF079017C655B
:100E73007D067A117B11120153E97AD07B071201A7
:100E8300835390E48044900665740EF079017C6589
:100E93007D067A117B11120153E97E007F00801CCD
:100EA30043901B7AF47B011201835390E47AF47B21
:100EB30001120183EE2401FEEF3400FFC3EE94051B
:100EC300EF9400A2D265D03340D690063FE090065F
:100ED30040F078007900C3E8940DE99400A2D2654C
:100EE300D0334003020D87743428F582740639F534
:100EF300837400F0E82401F8E93400F980D8C08253
:100F0300C083906189E04460F090619074D5F09063
:100F130061FA7409F09061B27415F09061AE7400D7
:100F2300F01201C57900D083D0820200FBC082C0D9
:100F33008375F005E9A424D490618FF0D083D08227
:100F43000200FBC082C083EA906174F0E4EBFA9084
:100F53006175F0D083D0820200FBC082C083EA9027
:100F63006172F0E4EBFA906173F0D083D0820200F7
:100F7300FB74F612024F75E1EE7591FD7800801354
:100F83008808750900EA2508F582EB3509F583E041
:100F9300F5D908E8C39940E87F020202BBC082C0CA
:100FA300838011E5D98A828B83F08A828B83A3AAFB
:100FB30082AB8319E9C3940150E9D083D082020044
:100FC300FB75E1E9E591A2E150FA7591FD79000223
:100FD30000FB75E1EC75E1E30200FB75E1EF75E100
:100FE300EC0200FBC082C0839061A3E0C2E6F05331
:100FF3009AFED083D0820200FBC082C0839061A39B
:10100300E0D2E6F0439A01D083D0820200FBC08293
:10101300C083A2AFE433F8C2AF900427EAF0A3EB96
:10102300F0E8A2E092AFD083D0820200FBC082C07E
:1010330083906193E0542270F8D083D0820200FB46
:10104300C082C0837900120165D083D0820200FB85
:10105300EBC313FBEA13FAEAF8EBF9E824FFFAE926
:1010630034FFFBE8496012000000000000000000AC
:101073000000000000000080DE0200FB74F7120293
:101083004FEAFEEBFFEEF8EFF9E824FFFEE934FF49
:10109300FFE84960097AE87B0312017D80E77F015D
:1010A3000202BBE5C65480F853BEFBE59DA2E550A2
:1010B300FAE59DA2E240F40074016970077449489F
:1010C300F5C68005E9700288C6E5C6F8E59EFAE82C
:1010D3006A70F943BE040200FBC082C08312017729
:1010E3009006511202221201D712016BD083D082D3
:0D10F3000200FBD2AF0200FBC2AF0200FB07
:04000005000000E314
:00000001FF
