:020000040800F2
:10000000280A0020090100084F26000813010008F3
:100010004D260008790B0008C14D000800000000C3
:100020000000000000000000000000001B010008AC
:100030007B0B0008000000001F0100089D4800081D
:100040002301000823010008230100082301000800
:100050002301000823010008810B0008CB0B0008D6
:10006000DB0B0008EB0B0008FB0B0008230100086A
:1000700023010008230100082301000823010008D0
:1000800023010008230100082301000823010008C0
:100090002301000823010008230100080B0C0008BD
:1000A00000000000230100082301000823010008CC
:1000B000614A00086D4A0008230100082301000876
:1000C0002301000823010008230100082301000880
:1000D00023010008794D00082301000823010008CE
:1000E000910B0008C92B0008230100082301000818
:1000F00023010008DFF80CD000F078FC004800472E
:1001000059590008280A0020064880470648004739
:10011000FEE7FEE7FEE7FEE7FEE7FEE7FEE7FEE7B7
:10012000FEE7FEE7114A0008F500000840EA010377
:100130009B0703D009E008C9121F08C0042AFAD29D
:1001400003E011F8013B00F8013B521EF9D2704761
:10015000D2B201E000F8012B491EFBD27047002209
:10016000F6E710B513460A4604461946FFF7F0FFB6
:10017000204610BDF0B480EA0102D40F4200B2EB79
:10018000410F02D20246084611464A0042D0C30D32
:10019000DDB2C1F3C752AD1A202D35DAC1F3160115
:1001A00041F4000204B15242C5F1200602FA06F100
:1001B0002A411044B3EBD05F23D0C4B1012DA0EB92
:1001C000C35009DCF0BC4FF0004202EAC352DBB27C
:1001D00000F5000000F023BB400000F1807000EB50
:1001E000C350A0F1807040EAD170490009E049088D
:1001F00041EAC071A0EBC35000F50000400800EBDD
:10020000C350F0BC00F002BB6142012202EB41018D
:10021000001BF6E7F0BC704781F00041AAE780F0D0
:100220000040A7E730B480EA010202F0004530F058
:10023000004221F0004013D090B1C30DD40DC2F3A1
:100240001601C0F31600E41A41F4000140F4000264
:100250007D34914201D3641C00E04900002C02DA95
:1002600030BC002070474FF400000023914201D3BE
:10027000891A034340084FEA4101F7D151B1914235
:1002800002D14FF0004105E002D24FF0010101E040
:100290006FF0010103EBC450284430BC00F0B6BA43
:1002A0002DE9FE4F804681EA0300C00F0C46009006
:1002B00021F0004123F00045B8EB0200A94105D22E
:1002C0004046214690461C460B46024623F000401D
:1002D000104347D0270DC7F30A00C3F30A51029019
:1002E000401A019040286BDAC3F3130040F4801BDE
:1002F0000098924620B10023D2EB030A63EB0B0B6C
:1003000001985946C0F14002504600F04EFA0646A8
:100310000D4650465946019A00F066FA10EB080067
:100320006141002487EA115284EAE7731A4340D0FE
:10033000009A62B3019A012A4FEA075215DC001BAA
:1003400061EB02014FF0004202EA0752CDE90042A0
:10035000001C41F5801132462B4600F09DFA03B097
:10036000BDE8F08F40462146F9E7001B61EB020132
:10037000001C41F5801300185B412018A2F50017FE
:1003800047EB030140EAD570B6196D4111E06D08E5
:100390004FEA360645EAC0754FEA0752001B61EB8B
:1003A0000201001C41F5801149084FEA3000001994
:1003B000514132462B4603B0BDE8F04F00F05DBA24
:1003C0000098012240000023D0EB020263EBE073AF
:1003D000009821464FEAE074B8EB000061EB04019D
:1003E000E9E783F000435BE781F0004158E72DE93E
:1003F000FE4F81EA030404F0004421F00041009420
:100400004FF0000B23F0004350EA01045ED052EAA3
:1004100003045BD0C3F30A54C1F30A552C44A4F27D
:10042000F3340194A0FB0254C1F3130141F4801191
:10043000C3F3130343F4801301FB024400FB034E98
:10044000840A970A44EA815447EA8357A4FB076861
:1004500002958D0A05FB07854FEA932C04FB0C548B
:100460002705029D4FEA065847EA1637B5EB0805FF
:100470006EEB070C870E920E47EA811742EA831251
:10048000A7FB0201B6EB0B0164EB00042B0D43EA62
:100490000C335E1844EB1C50DA465146E7FB020170
:1004A000C5F313044FEA0B3343EA14534FEA043203
:1004B000019C43EA0603A4F10C040294009CCDE9DC
:1004C00000B400F0E9F903B0BDE8F08F0020014668
:1004D000F9E72DE9F04D81EA030404F0004B21F027
:1004E000004514464FF0000A23F0004150EA05028F
:1004F00020D054EA01021DD0C5F30A570246C5F3C5
:100500001303C1F31300C1F30A5640F4801543F4FA
:100510008013A7EB0608101BD64608F2FD3873EBD4
:10052000050002D308F1010801E092185B41B8F11F
:10053000000F03DA00200146BDE8F08D00204FF4E3
:100540008011064684460EE0171B73EB050705D3A2
:10055000121B63EB050306434CEA010C49084FEA02
:10056000300092185B4150EA0107EDD152EA0300D6
:1005700012D082EA040083EA0501084305D0101B6B
:10058000AB4106D20122002306E000224FF00043D7
:1005900002E06FF0010253101AEB06004CEB085119
:1005A00010EB0A0041EB0B01BDE8F04D00F065B91E
:1005B00070B521F0004303430CD0C1F30A55002469
:1005C000D5EB040564EB0403D617AD1AB34102DB87
:1005D0000020014670BD201841EB025170BD9623EA
:1005E0000022114600F01BB90EB5C10F80EAE07081
:1005F0000844CA07002140F233438DE80E000A4642
:100600000B4600F049F903B000BD0EB540F233418E
:1006100002910021CDE900110A460B4600F03CF999
:1006200003B000BD70B5C1F30A5201F000450024CB
:10063000C1F3130140F2FF3341F480119A4201DA11
:10064000002070BD40F233439A42A2F2334203DCF1
:10065000524200F0B9F800E090402C43F1D0404203
:1006600070BDC1F30A5210B5C1F3130140F2FF335C
:1006700041F480119A4201DA002010BD40F2334368
:100680009A42A2F2334203DC524200F09DF810BDC0
:10069000904010BD00F0004230F000400AD0C10D83
:1006A00001F56071C0F3160042EA0151C20840072B
:1006B00011437047002001467047000030B5041E0A
:1006C00071F1000404DB4FF00044404264EB01018F
:1006D000141E73F1000405DB1C464FF00043524228
:1006E00063EB04038B4208BF824230BD30B5041E69
:1006F00071F1000404DB4FF00044404264EB01015F
:10070000141E73F1000405DB1C464FF000435242F7
:1007100063EB0403994208BF904230BD30B50B46ED
:10072000014600202022012409E021FA02F59D4221
:1007300005D303FA02F5491B04FA02F52844151EF5
:10074000A2F10102F1DC30BD2DE9F05F0546002089
:1007500092469B4688460646814640241BE0284632
:1007600041464746224600F02FF853465A46C01AE3
:10077000914110D311461846224600F016F82D1A62
:1007800067EB01084F4622460120002100F00DF8DA
:1007900017EB00094E41201EA4F10104DFDC48469E
:1007A00031462A464346BDE8F09F202A04DB203A22
:1007B00000FA02F1002070479140C2F1200320FAB4
:1007C00003F3194390407047202A04DB203A21FAB2
:1007D00002F00021704721FA02F3D040C2F120025A
:1007E0009140084319467047202A06DBCB17203A70
:1007F00041FA02F043EAE07306E041FA02F3D04026
:10080000C2F1200291400843194670470029A8BF51
:100810007047401C490008BF20F00100704710B429
:10082000B0FA80FC00FA0CF050EA010404BF10BCDE
:10083000704749B1CCF1200421FA04F411FA0CF10B
:1008400018BF012121430843A3EB0C01CB1D4FEA44
:1008500000614FEA102042BF002010BC704700EB3F
:10086000C35010440029A4BF10BC7047401C49006D
:1008700008BF20F0010010BC704710B5141E73F1C2
:10088000000408DA401C41F1000192185B411A4350
:1008900001D120F0010010BD2DE9F04D92469B469C
:1008A00011B1B1FA81F202E0B0FA80F22032904642
:1008B000FFF77BFF04460F4640EA0A0041EA0B01BE
:1008C00053465A46084313D0114653EA010019D043
:1008D000C8F140025046FFF777FF05460E465046E6
:1008E00059464246FFF761FF084305D0012004E066
:1008F00020463946BDE8F08D0020054346EAE07603
:100900002C4337430A986305E40AA0EB0800002251
:10091000FD0A44EA47540A3002D500200146E9E7BF
:10092000010510196941DDE9084500196941BDE873
:10093000F04DA2E72DE9F041054621F000400C46BC
:10094000284309D0C4F30A5040F23341884205DD00
:1009500028462146BDE8F0812846FBE740F2FE31FB
:10096000884210DC0CDB4FEA043040EA155050EAB4
:10097000053105D0104804F0004101430020E9E7AB
:1009800000200146E6E7A0F233404642C6F14002AD
:1009900028462146FFF709FF074688462846214694
:1009A0003246FFF711FF43463A46FFF766FF3246ED
:1009B000BDE8F041FFF7F9BE0000F03FC1F30A5275
:1009C000C1F3130140F2FF3341F480119A4202DA7D
:1009D00000200146704740F233439A42A2F233426C
:1009E00002DC5242FFF7F0BEFFF7DFBE064C074DB8
:1009F00006E0E06840F0010394E8070098471034EF
:100A0000AC42F6D3FFF77AFBC0710008E071000832
:100A100010B50BA20021142001F0FBFF0BA2022154
:100A2000012001F0F6FF0BA20421012001F0F1FFEB
:100A30000621BDE8104009A2012001F0EABF000034
:100A40004175746F204C616D700000004C696768DF
:100A5000743A00002054656D703A00002048756DAE
:100A6000693A000010B5040001D002F079FB01489A
:100A7000C47010BD0C00002072B602484178491CB9
:100A8000417070470800002004494878401E10F06B
:100A9000FF00487000D162B67047000008000020D7
:100AA00030B51B4D85B02878A0B103F04DFF00BFD5
:100AB0004FF0FF300090052306220721154803F070
:100AC00065FE02F04DFD2878002801D10120287034
:100AD00005B030BD00F002FB03F0E8FE02F0F8FACA
:100AE0000024009401230322122102A8019400F0A3
:100AF000B9F8009400230322082102A8019400F011
:100B0000B1F800F0DBF900F0C9F900F0CFF9CFE758
:100B100008000020FC0400201CB50024009423469B
:100B2000012203211348019400F09CF8114800941D
:100B30000023012218210C30019400F093F80120C9
:100B4000CDE900040B4800231A462D21183000F08F
:100B500089F80121074800F09FF9064801210C306F
:100B600000F09AF9BDE81C4002480121183000F05D
:100B700093B9000080010020FEE7704700F0A6B99D
:100B800010B502F0EDFABDE81040012000F0BCB94C
:100B900010B502F0E5FA4FF4806000F0B5F94FF4BB
:100BA000006000F0B1F94FF4805000F0ADF94FF45F
:100BB000005000F0A9F94FF4804000F0A5F9BDE81D
:100BC00010404FF4004000F09FB910B502F0C8FA91
:100BD000BDE81040022000F097B910B502F0C0FA4D
:100BE000BDE81040042000F08FB910B502F0B8FA4B
:100BF000BDE81040082000F087B910B502F0B0FA47
:100C0000BDE81040102000F07FB910B502F0A8FA3E
:100C1000202000F079F9402000F076F9802000F0E3
:100C200073F94FF4807000F06FF9BDE810404FF495
:100C3000007000F069B90000094A002152F8313013
:100C4000834208D802EBC1039B68834203D902EBBD
:100C5000C10000797047491CC9B21529EED3FEE7DF
:100C6000107100087CB5DDE90645CDE9004500F0CE
:100C700001F87CBDF0B587B00546DDE90C76017062
:100C8000481C6AD001F00F04012000FA04F46C80C3
:100C9000334C11F0F00F1FD0C1F30311012925D0FF
:100CA00002292DD0032935D02E496960216841F0F1
:100CB00020012160216801F02001059169880091DF
:100CC000AF720221CDE9027172B3032A2ED0022A3B
:100CD0002FD0012B35D035E023496960216841F0E0
:100CE00001012160216801F00101E6E71F49696007
:100CF000216841F002012160216801F00201DCE776
:100D00001B496960216841F004012160216801F0FC
:100D10000401D2E717496960216841F008012160A8
:100D2000216801F00801C8E7002000E003200190DD
:100D30000FE0012B02D0019104960AE012200190ED
:100D4000FAE711200190012A03D13146284600F02C
:100D500097F86946686800F0E3F807B0F0BD000056
:100D60001C3802400014024000000240000402400F
:100D700000080240000C02402DE9F04186B01F003F
:100D8000904605464FF000064FF006046CD0688888
:100D90000090012916D0022916D035480190A87A72
:100DA0000290022003906946686800F0B9F85FEA93
:100DB00008000BD0012809D0022809D0B8F1030F90
:100DC00009D107E02B48E9E72B48E7E7032602E0D3
:100DD000022600E001266888B0F5807F33D012DC5F
:100DE00010282ED008DC012830D0022823D0042877
:100DF00023D008282AD122E0202824D0402822D03D
:100E0000802823D11FE0B0F5805F1ED009DCB0F54B
:100E1000007F18D0B0F5806F17D0B0F5006F15D1F6
:100E200013E0B0F5005F10D0B0F5804F0DD0B0F5F5
:100E3000004F0BD109E0072408E0082406E009244C
:100E400004E00A2402E0172400E0282428780B4953
:100E500000F00F00002241F820703146204600F0DB
:100E600069F9204600F05BF906B0BDE8F0810000AA
:100E7000000031100000111000002110B00100200E
:100E800090F90020521C04D0CAB24188406800F09A
:100E900012B97047FFF770BFFFF7F2BF0248416811
:100EA00041F0010141607047002004E002484168C0
:100EB00041F0040141607047002004E002484168AD
:100EC00041F0020141607047002004E031B500F0BC
:100ED000F7F8044600F0F4F80099001B8842F9D3B3
:100EE00038BD0000002118B904E04008491CC9B20F
:100EF0000128FAD1034850F82100002800D000470B
:100F000070470000B0010020044910B50A68024291
:100F100002D00860FFF7E6FF10BD00001404014096
:100F20002DE9F84FDFF864B100234FF0010C4FF0CA
:100F3000030A4FF00F090BF1040EA0E00CFA03F6C0
:100F4000324072D04C68022C01D0122C0ED1DC0839
:100F500000EB8408D8F820405D07EF0E09FA07F58A
:100F6000AC430D69BD402543C8F8205007685D00BB
:100F700091F804800AFA05F408F00308A74308FA78
:100F800005F848EA0708C0F800804F68012F05D02F
:100F9000022F03D0112F01D0122F11D18768D1F861
:100FA0000C80A74308FA05F848EA0708C0F808804B
:100FB0004768B7430E79C6F300169E403E4346602D
:100FC000C668A6438C68AC403443C4604C68E400F7
:100FD00054D52F4C256845F001052560246823F081
:100FE000030504F0010400942A4C2544AF689C07D3
:100FF000240F09FA04F6B743274EB04201D1002668
:1010000015E0264EB04201D1012610E0244EB04238
:1010100001D102260BE0234EB04201D1032606E0A7
:10102000214EB04202D1042601E027E00526A64069
:101030003E43AE60DBF800405D464E689443F603E5
:1010400000D514432C60DEF8004075464E6894438A
:10105000B60300D514432C600C4D08352C684E683F
:101060009443F60200D514432C60084D0C352C68CF
:101070004E689443B60200D514432C605B1C0A688A
:1010800032FA03F47FF45AAFBDE8F88F0004014050
:1010900020380240000001400000024000040240ED
:1010A00000080240000C02400010024000690840A5
:1010B00000D0012070470AB1816170470904FBE745
:1010C00001480068704700003400002002480168B1
:1010D000491C0160704700003400002010B5032057
:1010E00000F048F8002000F005F800F017F80020A4
:1010F00010BD000010B5044607484FF47A7100682F
:10110000B0FBF1F001F074F900222146501E00F00E
:1011100011F8002010BD000030000020704700F0E2
:101120001F02012191404009800000F1E020C0F839
:1011300000117047F0B40E4B1B680C46C3F302233A
:10114000C3F10705042D00D90425191D072901D273
:10115000002300E0DB1E012606FA05F1491E2140AE
:1011600099409E40761E16403143F0BC01F0D8BA3B
:101170000CED00E0064900F0070208684FF6FF0397
:10118000184040EA0220034A1043086070470000FC
:101190000CED00E00000FA050248006800F4C050C1
:1011A00070470000007000402DE9F84F06460078B7
:1011B000C00775D0DFF84C810027D8F80000C000C8
:1011C0000BD4D8F8001041F08051C8F80010D8F8BE
:1011D0000000012700F0805000904B4C2068C005B3
:1011E00010D4206840F480702060FFF769FF054646
:1011F00005E000BFFFF764FF401B64284ED820685D
:10120000C005F7D53F4D243D286800F0C041706807
:1012100000F0C0428A4209D0C0F30141032905D140
:101220002968890302D50120BDE8F88F354C1034B8
:10123000216811F440314AD000F44030884246D051
:101240003078C00743D020684FF4000292FAA2F130
:10125000B1FA81F14FEA810C2C494FF0010A8C441C
:1012600020F44030CCF880A692FAA2F2B2FA82F2D0
:1012700001EB82010023C1F880362060C00526D52D
:10128000FFF71EFF81464FF4007B0AE0FFF718FFCF
:10129000A0EB090141F28830814202D90320C3E763
:1012A0002EE09BFAABF0B0FA80F040F04001BAEBD0
:1012B000511F01D1296800E021689BFAABF2B2FA14
:1012C00082F202F01F020AFA02F00142DED07068D8
:1012D000C0F30141032906D1296800F0C04021F084
:1012E000C041014329602068716801F4403108431E
:1012F00020602FB1D8F8001021F08051C8F80010FC
:10130000002091E72438024000700040000047426E
:101310002DE9F047DFF8BC8105460E46D8F80000FD
:1013200000F00100B04214D2012E05D1D8F800100F
:1013300041F00401C8F80010D8F8001021F00101B4
:101340003143C8F80010D8F8000000F00100B042A6
:1013500071D12878604C800705D52068A96820F0F5
:10136000F000084320602878C00771D05A4A5A4BD1
:1013700069680120083A2C33022910D003292ED0A5
:1013800001292FD05FEA402797FAA7FCBCFA8CFC12
:101390004CF0200C5FEA5C1C04D0126803E04FF4B0
:1013A0000037F1E71A6897FAA7F3B3FA83F303F06B
:1013B0001F039840024262D0206820F003000843D7
:1013C0002060FFF77DFE6968074641F288300229F8
:1013D00010D003291CD00129814626D034E04FF0DB
:1013E0000077D1E70227CFE7FFF76AFEC11B494527
:1013F00001D926E081462068C0F381000228F3D19C
:1014000026E000BFFFF75CFEC11B494501D918E08B
:1014100081462068C0F381000328F3D118E000BFA3
:10142000FFF74EFEC11B49450BD82068C0F3810071
:101430000128F5D10CE022E0FFF742FEC11B49452F
:1014400002D90320BDE8F087206810F00C0FF3D11B
:10145000D8F80010404601F00101B14211D9012E27
:1014600003D1016841F004010160016821F001012C
:1014700031430160006800F00100B04201D001205A
:10148000E0E72878400705D52068E96820F4E060A7
:10149000084320602878000706D52068296920F4D1
:1014A000605040EAC100206000F022F82168F0227C
:1014B00092FAA2F201F0F001B2FA82F2D140074AA8
:1014C000515CC840064908600020FFF713FE002069
:1014D000B8E70000003C0240083802408D5D00087B
:1014E00030000020014800687047000030000020F4
:1014F0001E4A116801F00C00042813D0082813D0EC
:101500000C2813D0101F006800F460414FF46040B5
:1015100090FAA0F0B0FA80F0C1404FF40040491CAE
:101520008840704712487047124870474FF4701354
:1015300093FAA3F301F47010B3FA83F3D8400E4B7F
:1015400001F440011268185C4FF4400393FAA3F3CE
:10155000B3FA83F3D940491CD20301D5054A00E010
:10156000034A5043B0FBF1F07047000008380240D6
:101570000024F40000127A00845D00082DE9F84F81
:1015800007460078FB4EFC4DC0074FF0010428D001
:10159000F848083001684FF40038C1F3810102298E
:1015A00007D00168C1F3810103291BD10068C00382
:1015B00018D598FAA8F0B0FA80F040F02000400961
:1015C00001D0306800E0286898FAA8F1B1FA81F1FA
:1015D00001F01F0104FA01F108425CD0786800288C
:1015E0007BD058E0786801280AD008B1052811D0CE
:1015F000306820F480303060306820F4802002E0D1
:10160000306840F480303060786828B3FFF758FDC8
:1016100081460BE0306840F480203060F0E700BF86
:10162000FFF74EFDA0EB0900642872D898FAA8F0E5
:10163000B0FA80F040F02000400901D0306800E0AE
:10164000286898FAA8F1B1FA81F101F01F0104FAB3
:1016500001F10842E4D01EE0FFF732FD814605E0CB
:10166000FFF72EFDA0EB09006428DED898FAA8F059
:10167000B0FA80F040F02000400901D0306800E06E
:10168000286898FAA8F1B1FA81F101F01F0104FA73
:1016900001F10842E4D13878DFF8E08280074FF0AA
:1016A000000B4FF002095FD5B24808300168C1F362
:1016B0008101012907D00168C1F3810103291CD1EF
:1016C0000068C00319D499FAA9F0B0FA80F040F08C
:1016D0002000400902D0306801E086E0286899FACD
:1016E000A9F1B1FA81F101F01F0104FA01F10842F8
:1016F0002BD0F868012878D127E0F868A8B394FACD
:10170000A4F0B0FA80F048F82040FFF7D9FC8246F8
:1017100006E066E1FFF7D4FCA0EB0A00022884D8BB
:1017200099FAA9F1B1FA81F141F02001490901D0FA
:10173000316800E0296899FAA9F0B0FA80F000F069
:101740001F0004FA00F00142E4D08A48001D01683D
:101750004FF4F85393FAA3F33A69B3FA83F321F4FD
:10176000F8519A401143016025E0FFE794FAA4F193
:10177000B1FA81F148F821B0FFF7A2FC824605E0FA
:10178000FFF79EFCA0EB0A000228C8D899FAA9F03E
:10179000B0FA80F040F02000400901D0306800E04D
:1017A000286899FAA9F1B1FA81F101F01F0104FA50
:1017B00001F10842E4D138784FF4007AC0067CD5B4
:1017C0006C480830006810F00C0F0FD0B9694FF466
:1017D0008070002972D090FAA0F0B0FA80F048F83A
:1017E0002040FFF76DFC00907EE087E09AFAAAF0B7
:1017F000B0FA80F040F02000400901D0306800E0ED
:1018000028689AFAAAF1B1FA81F101F01F0104FAED
:1018100001F1084202D0B86900286FD05548396AF2
:10182000001D006800F4604081421AD9084601F0AA
:101830008FF9002862D14F48001D01683A6A21F4EF
:1018400060411143016001684FF07F4393FAA3F3B5
:10185000FA69B3FA83F321F07F419A4011430160A2
:1018600018E04448001D026822F460420A43026006
:1018700001684FF07F4393FAA3F3FA69B3FA83F355
:1018800021F07F419A4011430160386A01F060F90C
:101890000028CFD14FF4604191FAA1F1386AB1FA32
:1018A00081F1C8404FF40041401C8140314808306C
:1018B0000068F02200F0F00001E070E040E092FAF1
:1018C000A2F2B2FA82F2D0402D4A105CC1402D48FB
:1018D00001600020FFF70EFC61E000BFFFF7F0FBA6
:1018E0000099401A02287CD89AFAAAF0B0FA80F03F
:1018F00040F02000400902D0306801E0BCE12868D7
:101900009AFAAAF1B1FA81F101F01F0104FA01F18A
:101910000842E3D01748001D01683A6A21F460418B
:101920001143016001684FF07F4393FAA3F3FA6912
:10193000B3FA83F321F07F419A40114301602EE016
:1019400090FAA0F0B0FA80F048F820B0FFF7B8FBAA
:10195000009005E0FFF7B4FB0099401A0228C2D8B6
:101960009AFAAAF0B0FA80F040F0200040090BD0BB
:1019700030680AE000380240343802400000474234
:101980008D5D00083000002028689AFAAAF1B1FAAB
:1019900081F101F01F0104FA01F10842DAD138782F
:1019A000000753D5786948B394FAA4F0B0FA80F0F0
:1019B00008EB8000C0F88046FFF782FB009005E04E
:1019C000FFF77EFB0099401A02288CD899FAA9F0FB
:1019D000B0FA80F040F04000B4EB501F02D1306804
:1019E00001E08EE0286899FAA9F1B1FA81F101F0DD
:1019F0001F0104FA01F21042E2D027E094FAA4F1A8
:101A0000B1FA81F108EB8101C1F880B6FFF758FB0C
:101A1000009005E0FFF754FB0099401A022870D8A7
:101A200099FAA9F0B0FA80F040F04000B4EB501FF2
:101A300001D1306800E0286899FAA9F1B1FA81F182
:101A400001F01F0104FA01F21042E3D13878400797
:101A50007BD59B484FF000090068C0000AD4984825
:101A6000016841F08051016000684FF0010900F009
:101A70008050009093480168C90511D4016841F471
:101A800080710160FFF71CFB009005E0FFF718FB79
:101A90000099401A642834D88A480068C005F5D5F2
:101AA000B86801280AD008B1052811D0286820F4A8
:101AB00080702860286820F4806002E0286840F484
:101AC00080702860B86848B3FFF7FAFA00900DE01C
:101AD000286840F480602860F0E700BFFFF7F0FA64
:101AE0000099411A41F2883081420AD89AFAAAF044
:101AF000B0FA80F040F04000B4EB501F02D13068E3
:101B000001E095E028689AFAAAF1B1FA81F101F0B2
:101B10001F0104FA01F21042E0D022E0FFF7D0FAF0
:101B2000009007E0FFF7CCFA0099411A41F28830A3
:101B300081427DD89AFAAAF0B0FA80F040F04000D5
:101B4000B4EB501F02D1306801E012E028689AFA25
:101B5000AAF1B1FA81F101F01F0104FA01F2104279
:101B6000E0D1B9F1000F04D05548016821F080514F
:101B70000160786AE8B3DFF84891A9F11C09D9F847
:101B80000010C1F38101032976D002284FF0807143
:101B90004FF0007A58460BD091FAA1F1B1FA81F1D9
:101BA00048F82100FFF78CFAB046074656466DE02C
:101BB0004FF0807191FAA1F1B1FA81F18A004249A6
:101BC0005050FFF77DFAB3468046564606E000BF08
:101BD000FFF776FAA0EB0800022854D896FAA6F090
:101BE000B0FA80F040F02000400903D0DBF800009C
:101BF00001E061E0286896FAA6F1B1FA81F101F0FE
:101C00001F0104FA01F10842E2D1D7E90A103A6B48
:101C1000D9F80030014323F47D031A431143C9F876
:101C200000104FF0807090FAA0F0B0FA80F000E061
:101C300029E0810024480C50FFF742FA074604E0EF
:101C4000FFF73EFAC01B02281DD896FAA6F0B0FA9C
:101C500080F040F02000400902D0DBF8000000E0F6
:101C6000286896FAA6F1B1FA81F101F01F0104FA91
:101C700001F10842E4D01FE020E000BFFFF720FAA6
:101C8000C01B022802D90320BDE8F88F96FAA6F0FF
:101C9000B0FA80F040F02000400902D0D8F80000EF
:101CA00000E0286896FAA6F1B1FA81F101F01F016F
:101CB00004FA01F10842E1D10020E5E70120E3E761
:101CC00024380240007000400000474270472DE970
:101CD000F0470446007F01281CD001262677022009
:101CE00060772168CA2048622168532048622068D2
:101CF000816821F4806181602068816821F48041DD
:101D00008160FFF7DDF9054600274FF0FF084FF42B
:101D10007A790EE00220BDE8F087FFF7D1F9401B89
:101D2000484506D92168C1F82480032060772777C9
:101D3000F1E72068C0684007EFD52168C1F824802A
:101D4000667727770020E6E77047000010B5044665
:101D500000688168C9040CD5C068C00509D5204653
:101D6000FFF7F2FF2068C16801F0800161F4C071E3
:101D7000C1602068816889040CD5C068800509D5D8
:101D80002046FFF7A3FF2068C16801F0800161F4DD
:101D90002071C16003494FF4003008600120607772
:101DA00010BD0000140401402DE9F0470446007FF7
:101DB000012822D04FF0010884F81C8002206077AF
:101DC0002268CA2050622268532050622068002591
:101DD000FF26B1F5807F81684FF0030A4FF47A79CE
:101DE0000ED021F4007181602068816821F40051D7
:101DF0008160FFF765F9074624E00220BDE8F0871F
:101E000021F4807181602068816821F480518160B3
:101E1000FFF756F9074604E0FFF752F9C01B4845A3
:101E200009D82068C068C007F6D00FE0FFF748F96E
:101E3000C01B484506D92068466284F81DA0257756
:101E40000320DBE72068C0688007EFD52068466282
:101E500084F81D8025770020D0E710B50C464FF49C
:101E600080718A4203D1A1610068C16904E04FF426
:101E70000071A1610068016AC1F305402070C1F3DF
:101E80000622627001F07F02A270402202EA114233
:101E9000E270C1F30562227501F0804201F08031E9
:101EA000C4E9031273B900F0A5FE2070607800F059
:101EB000A1FE6070A07800F09DFEA070207D00F073
:101EC00099FE2075002010BD10B500680B464168D2
:101ED0000D480140080CD870C1F304245C7001F077
:101EE0003F049C70C1F34231197052B900F082FE78
:101EF000D870587800F07EFE5870987800F07AFE1E
:101F00009870002010BD00003FFFFF0010B5006872
:101F10000C4601680E480140C1F305402070C1F332
:101F20000623637001F07F03A370402303EA11418D
:101F3000E17052B900F05EFE2070607800F05AFE49
:101F40006070A07800F056FEA070002010BD000068
:101F50007F7F7F0070B5040002D0607F10B106E083
:101F6000012070BD00202077204600F041F80220BB
:101F700060772168CA204862216853204862204661
:101F800000F04CFEFF210028206803D041620420AD
:101F90006077E5E78268154B1A4082602268906896
:101FA00063681843D4E904352B43184390602268D2
:101FB000E068106120680269238942EA03420261F5
:101FC0002068C26822F08002C2602068026C22F49D
:101FD000802202642068026CA3691A4302642068AC
:101FE000416201206077002070BD0000BFFF8FFFBD
:101FF000704700002DE9F05F0446007F0D46012880
:1020000044D04FF0010B84F81CB0022060772068A8
:10201000002780684FEA4060BAB3002852DA287877
:1020200000F0E8FD287D00F0E5FDA8782978EA7841
:1020300040EA01406978090241EA02410843297DEA
:1020400040EA0166286921680643E8680643CA2019
:102050004862216853204862A869FF25B0F5807F57
:1020600020684FF0030A4FF47A7981682CD021F46C
:10207000007181602068C16801F0800161F4207105
:10208000C160FFF71DF880464FE002E00220BDE886
:10209000F09F002800DBEF70287800F0B4FD060404
:1020A000687800F0B0FD46EA0026A87800F0ABFDA5
:1020B0000643E87846EA0046287D00F0A4FD46EA9B
:1020C0000066BFE7EF70ADE721F4807181602068A2
:1020D000C16801F0800161F4C071C160FEF7F0FFDA
:1020E000804605E0FEF7ECFFA0EB0800484515D858
:1020F0002068C068C007F5D02068C6612068816884
:1021000041F4807181602068816841F480511BE056
:10211000FEF7D6FFA0EB0800484506D920684562C7
:1021200084F81DA027770320B1E72068C0688007E6
:10213000EED5206806622068816841F400718160F4
:102140002068816841F4005181600948016841F4C8
:102150000031016006480830016841F40031016037
:102160002068456284F81DB0277700208FE70000C3
:10217000000401402DE9F0470446007F0B4601288A
:1021800025D04FF0010984F81C9002206077587820
:1021900002B300F02FFD987800F02CFD9878D978E4
:1021A00040EA014558781978000240EA4130054379
:1021B0002168CA204862216853204862204600F006
:1021C0002DFD0026FF274FF0040838BB19E0022040
:1021D000BDE8F087C10603D500F0EF000A30587063
:1021E000D87800F010FD0204587800F00CFD42EAA7
:1021F0000022987800F007FD0243187842EA403543
:10220000D6E70D480540206845602068C16821F088
:102210008001C160204600F085F830B12068476237
:1022200084F81D8026770120D2E72068476284F871
:102230001D9026770020CBE73FFFFF002DE9F047F8
:102240000446007F0D46012811D04FF0010A84F8A2
:102250001CA0022060772068002680684FEA40605A
:1022600042B100281ADA287800F0C4FC17E00220F6
:10227000BDE8F087002800DBEE70287800F0C3FC92
:102280000204687800F0BFFC42EA0022A87800F05F
:10229000BAFC0243E87842EA00470AE0EE70A87808
:1022A000297840EA01476878E978000240EA01406D
:1022B00007432168CA2048622168532048622046AB
:1022C00000F0ACFC4FF0FF084FF00409C0B914480F
:1022D0000740206807602068816821F480218160C0
:1022E000D5E90101084321688A68104388602068A5
:1022F000C16821F08001C160204600F013F838B1B8
:102300002168C1F8248084F81D9026770120AFE76A
:102310002168C1F8248084F81DA026770020A7E753
:102320007F7F7F0070B504460068C16821F0A0017E
:10233000C160FEF7C5FE05464FF47A7607E000BFA0
:10234000FEF7BEFE401BB04201D9032070BD2068DD
:10235000C0688006F4D5002070BD70B5040004D0BC
:1023600094F85100002510B106E0012070BD84F8FA
:102370005050204600F02EF8022084F851002068CA
:10238000016821F040010160D4E901010843D4E96A
:1023900003121143084361690843218B01F4007162
:1023A0000843E1690843216A0843A16A0843216898
:1023B0000860A069042101EA1040616A08432168AD
:1023C00048602168E06A08616565012084F8510071
:1023D000002070BD70474FF0E0210428086903D049
:1023E00020F004000861704740F00400FAE77047ED
:1023F00010B5401EB0F1807F01D3012010BD4FF019
:10240000E02460610F21601700F08AF90020A061CC
:1024100007202061002010BD10B5FFF7E8FF10BDB8
:1024200010B5040003D094F8350010B107E0012086
:1024300010BD002084F83400204600F00DF8022082
:1024400084F83500211D206802F016FB012084F875
:102450003500002010BD000008B501681448B1F136
:10246000804F14D0134A914220D1016841F00201FB
:1024700001600068012200F00200009003211D208D
:10248000FEF758FE1D20BDE80840FEF748BE016873
:1024900041F0010101600068002200F0010000909D
:1024A00003211C20FEF746FE1C20ECE708BD0000BF
:1024B00024380240000400400168CA6842F001026A
:1024C000CA600068016841F00101016000207047A6
:1024D000704770B50446006801694FF00005C943B4
:1024E000890715D4C168C943890711D4E91E016160
:1024F00001202075206880698007204602D0FFF700
:10250000E7FF04E000F078F8204600F076F8257543
:1025100020680169C943490717D4C168C9434907FD
:1025200013D46FF0040101610220207520688069D6
:1025300010F4407F204602D0FFF7CAFF04E000F00D
:102540005BF8204600F059F8257520680169C943F9
:10255000090716D4C168C943090712D46FF00801EE
:102560000161042020752068C0698007204602D0E0
:10257000FFF7AEFF04E000F03FF8204600F03DF822
:10258000257520680169C943C90617D4C168C943C4
:10259000C90613D46FF0100101610820207520686E
:1025A000C06910F4407F204602D0FFF791FF04E09D
:1025B00000F022F8204600F020F825752068016917
:1025C000C943C90708D1C168C943C90704D1891ED5
:1025D0000161204600F012F820680169C9434906EC
:1025E00009D4C168C943490605D46FF040010161AF
:1025F000204600F017F870BD704770470168074823
:10260000B1F1804F06D0064A914205D140680028BA
:1026100002D000470068FAE7704700002000002061
:10262000000400407047000010B5FEF739FAFEF7CD
:1026300073FA03F06FF9044803F062FBBDE8104041
:10264000012002F04FBA00006D4B0008FEE7704712
:102650000848074901600849816008494160084904
:10266000C160084901610848016802480847000044
:10267000212B000864000020AD2A0008392B000837
:10268000092B0008F12A0008285D00082DE9F04117
:102690001D4614460E460746FFF7DAFF224631462E
:1026A000384600F009F80348416B2846BDE8F04180
:1026B00008470000285D00082DE9F041174D8846C5
:1026C0008AB0E96816468847002405940694CDE947
:1026D000074608270320CDE90107012607200090BF
:1026E000CDE90346D5F81CC0234622464146304674
:1026F000E047CDE90846CDE9044606940520079455
:10270000CDE90204CDE90047032307220021AC698B
:102710000120A0470AB0BDE8F0810000285D000854
:102720000907090E002806DA00F00F0000F1E0208A
:1027300080F8141D704700F1E02080F80014704705
:1027400070B5002404F1B000C0B2002100F07AF9A5
:102750000021022000F076F90021102000F072F92B
:1027600000250121002000F06DF96D1CEDB2802DD7
:10277000F7D3641CE4B2082CE4D370BD38B501EB88
:10278000D303049C0244DBB2D2B2009400F001F8FF
:1027900038BD2DE9F04798461746824600260C467C
:1027A000DDF8209011E02146504600F0B9F855467A
:1027B00007E019F806000121761C00F043F96D1CB2
:1027C000EDB2BD42F5D3641CE4B24445EBD3BDE8A1
:1027D000F087A620AFF300807CB501240546009465
:1027E000002322461C214D480194FEF73BFA4B483A
:1027F0000094002301221E210C300194FEF732FACE
:1028000046480094002301221D2118300194FEF750
:1028100029FA42480094002301221F212430019408
:10282000FEF720FA0021AE2000F00CF90021022072
:1028300000F008F90021102000F004F900214020E8
:1028400000F000F90021812000F0FCF80021CF20E9
:1028500000F0F8F80021A12000F0F4F80021C820D1
:1028600000F0F0F80021A62000F0ECF80021A820EC
:1028700000F0E8F800213F2000F0E4F80021D32028
:1028800000F0E0F80021084600F0DCF80021D52037
:1028900000F0D8F80021802000F0D4F80021D920E1
:1028A00000F0D0F80021F12000F0CCF80021DA206F
:1028B00000F0C8F80021122000F0C4F80021DB204D
:1028C00000F0C0F80021402000F0BCF800212020DA
:1028D00000F0B8F80021022000F0B4F800218D20AB
:1028E00000F0B0F80021142000F0ACF80021A42082
:1028F00000F0A8F80021284600F0A4F80021AF203D
:1029000000F0A0F80021AF2000F09CF8FFF718FFBE
:10291000BDE87C400021084600F002B8A803002072
:1029200010B50446B031C8B2002100F08BF8102079
:1029300040EA1410002100F085F804F00F00BDE813
:10294000104040F00100002100F07CB82DE9F0417A
:10295000203A00240D468046D7B27F2803D90020B4
:102960008D1C8046EDB22946FFF7DAFF0F4E00BFFF
:1029700004EB07100121305C00F064F8641CE4B241
:10298000082CF5D36D1CE9B24046FFF7C9FF0024BF
:1029900004EB071030440121007A00F053F8641C66
:1029A000E4B2082CF4D3BDE8F08100009D5D00087E
:1029B0002DE9F0478046002608981D4691468A4634
:1029C0003446470821E0281B401EC1B20A2003F00C
:1029D000BFF8B9FBF0F00A21B0FBF1F201FB1200E5
:1029E00026B9691E8C4201DA30B101263030C2B2FC
:1029F00007FB0480C0B203E007FB0480C0B22022C2
:102A00005146FFF7A3FF641CE4B2AC42DBD3BDE840
:102A1000F0872DE9F04117460E46044600250CE0EC
:102A200031462046FFF792FF0834E4B2782C02D9F1
:102A30000024B61CF6B26D1CEDB27A5D002AEFD10F
:102A4000BDE8F08170B5054601B101211648FEF7D9
:102A500023FA154800210C38FEF71EFA002412480C
:102A600000210C30FEF718FA280601D5012100E0FC
:102A700000210D481830FEF70FFA0B4801210C30E9
:102A8000FEF70AFA6806641C050EE4B2082CE6D3C9
:102A9000054801210C38FEF7FFF9BDE8704001211F
:102AA0000148FEF7F9B90000B40300202DE9F04712
:102AB0000C4E07469946F06A15460C468047DFF8EB
:102AC000288022463946A8F802400848FDF72EFB28
:102AD00088F8005088F80190716BBDE8F0474FF41A
:102AE0007A700847285D0008000000208000002060
:102AF00010B5044CE06A8047616BBDE810404FF4AC
:102B00007A700847285D000810B5044CE06A8047D9
:102B1000616BBDE810404FF47A700847285D0008EB
:102B200010B5044CE06A8047616BBDE810404FF47B
:102B30007A700847285D000810B5044CE06A8047A9
:102B4000616BBDE810404FF47A700847285D0008BB
:102B5000F8B507461A48002600681A4D10F0F00F25
:102B600020D1174C1C342068C00002D5FEF714FB9E
:102B70000DE0206840F080502060206800F0805018
:102B80000090FEF709FB216821F080512160B0F52B
:102B9000C05F07D1B7F5404F04D12868012640F047
:102BA00004002860286820F001003043286028686D
:102BB00000F00100B04201D00120F8BD0020F8BDB6
:102BC00008380240003C024010B50948FFF7BEF843
:102BD0004FF480710648FFF7E7F800F0C1FA00F003
:102BE0003FF90020FDF73EFFBDE8104002F002B8BB
:102BF000F0010020010901EB810100F00F0000EB62
:102C00004100C0B27047002102E00A38C0B2491C3E
:102C10000A28FAD2090740EA1160704770B50446E5
:102C20000068C168490614D44FF0FF31C160FEF757
:102C300047FA05464FF47A7607E000BFFEF740FA00
:102C4000401BB04201D9032070BD2068C068400617
:102C5000F4D5002070BD00000346074810B5448835
:102C600044B100214180224604491846FDF75EFA2E
:102C7000204610BD002010BD000000208000002074
:102C80000FB414222DE9F04F87B00C4612A9684604
:102C9000FDF74CFA9DF85200059067489DF8518069
:102CA0009DF850709DF84C60844201D214B102E04E
:102CB000044600E001242046FDF7A7FC5F4A604B74
:102CC000FDF795FB8A46814602F04AFF04460D4611
:102CD0004A465346FDF785FB00225A4BFDF787FB1A
:102CE000DFF864A181468B46DAF80C00FDF77CFC26
:102CF0004A465B46FDF7D4FAFDF794FCDFF84C91A9
:102D0000DFF84CB1CAF80C00B0F5F47F16DBA0F583
:102D1000F470CAF80C0000224E4B20462946FDF7FD
:102D2000BFFA04460D4609E000224B4620462946DC
:102D3000FDF757FB761C04460D46B6B200224B4603
:102D400020462946FDF7D2FCEED9D94600224B4653
:102D500020462946FDF7CAFC17D800224B462046DC
:102D60002946FDF73EFB7F1C04460D46BFB2EDE74A
:102D700000224B4620462946FDF733FB044608F166
:102D800001000D461FFA80F801E0DFF8CC90002228
:102D90004B4620462946FDF7A9FCE9D90598FDF7E1
:102DA00034FC22462B46FDF77BFAFDF75AFC80B235
:102DB00005E03C3808F1010180B21FFA81F83C2897
:102DC000F7D205E0A8F13C017F1C1FFA81F8BFB2E1
:102DD000B8F13C0FF6D203E0183F761CBFB2B6B292
:102DE000182FF9D29DF84D1009B39AF80620114416
:102DF00089071CD09DF84B201849491E515CB142EF
:102E000003D2B6FBF1F201FB12668DF80A008DF8D1
:102E100009808DF804608DF80870142269461098B6
:102E2000FDF784F907B0BDE8F00F5DF814FB0B491E
:102E30009DF84B200C31E0E742061200FCA9F1D2CC
:102E40004D62004000408F400C0000200018F5400B
:102E50000020AC400000F03F00004E40105D000834
:102E600010B5224C92B0607900283CD10DA800F03A
:102E7000F1F814220DA901A8FDF758F900234FF429
:102E8000807206A91A48FEF7E8FF9DF81900C0EB0A
:102E9000001081009DF81800C0EB4012C2EB00202A
:102EA00001EB00109DF81A1008449DF80D10C1EBBD
:102EB00001118A009DF80C10C1EB4113C3EB0121F5
:102EC00002EB01119DF80E201144081AFDF79DFB3D
:102ED0000022084BFDF78BFA02F026FCFDF7C1FB40
:102EE000A0600120607112B010BD00000C00002035
:102EF000F00100200040DF3F2DE9F04700248AB0B8
:102F0000254680B1142201466846FDF70FF99DF869
:102F10000510BDF800000026DFF8F490DFF8F4A0FB
:102F200088460F1812E005A800F094F8142205A9AD
:102F3000EAE7CEB1B00717D0002253462046294613
:102F4000FDF7AEF9761C04460D4636B2B742F0DC0A
:102F5000B8F1000F0BD0B80709D09DF80370002618
:102F6000DFF8B4807F1E2BE000224B46E6E7DFF857
:102F7000A8809DF80370002608F10C087F1E0DE064
:102F800018F8060025494843FDF73FFB22462B462B
:102F9000FDF786F9761C04460D46F6B2B742EFDC23
:102FA00010E000BF18F806001C494843FDF72DFB50
:102FB00022462B46FDF774F9761C04460D46F6B200
:102FC000B742EFDC9DF809109DF80A00C1EB011132
:102FD00000EB81029DF808004FF4616148439DF8C1
:102FE000041040F2A323594300EBC1101044FDF735
:102FF0000CFB22462B46FDF753F90022084BFDF748
:10300000F6F902F0ADFD0AB0BDE8F047FDF729BBC7
:1030100050287E4138137E41105D00088051010028
:103020000040DF3F0A498B680022984204D94B7860
:1030300013B14A708B68C01A8B68984202D9322843
:1030400001D28A70704701228A708968401A7047DD
:103050000C00002010B586B004460022114802A9D9
:10306000FEF754FF00220F480DF10201FEF72CFF7E
:103070000D499DF80530CA88ADF80020632B03D0B8
:10308000087840B11BB106E00120087003E0002081
:1030900008706432CA80142269462046FDF746F85B
:1030A00006B010BDF00100200C00002010B500207B
:1030B000FFF722FF04460548FFF71EFF844202D2B5
:1030C000C043204410BD201A10BD00001002002093
:1030D00070B51F4E86B03079002837D10125A8057C
:1030E00090FAA0F01B49B0FA80F001EB8000C0F824
:1030F00080561A4818490024C0E900140321816051
:10310000C0E9031444618461FEF724FF8DF8035085
:1031100006208DF805408DF802008DF8045000223D
:103120000E480DF10201FFF725F8029403940022E6
:103130000A4802A90494FFF781F8002204212920FB
:10314000FDF7F8FF2920FDF7EAFF357106B070BDE5
:103150000C0000200000474200280040F001002041
:103160000C484168C943C9070ED00B49012048707B
:103170000A480168C1F38101012903D0006810F0F9
:103180000C0F06D1FDF78CBC016841F00401016011
:10319000EEE77047007000400C0000200838024045
:1031A000AFF3008030B505464FF4807499B02146E6
:1031B0002048FEF7F9FD1F48FEF789FD14A8FFF728
:1031C00049FF142214A908A8FCF7B0FF19481422DB
:1031D00008A92030FCF7AAFF0AAB93E807008DE8A6
:1031E0000700DDE90823294614A8FFF749FD14224A
:1031F00014A903A8FCF79AFF0020119010908DF8F5
:1032000037009DF816008DF836009DF815008DF8F2
:1032100035009DF8140013948DF834009DF81000CB
:103220008DF8480000220DA90248FEF7E3FE19B010
:1032300030BD0000F001002070B5092000F009FC4D
:103240000546062000F005FC0404072000F001FC00
:1032500044EA0024082000F0FCFB2043FDF7D5F9E8
:103260000022184BFDF7C3F8FDF7FBF904460021D7
:10327000092001F011FA3B2000F0EBFB40F0400187
:103280003B2001F009FA3B2000F0E3FB8006FAD472
:103290000D4800F0B9FC3B2000F0DBFB40F04001A2
:1032A0003B2001F0F9F93B2000F0D3FB8006FAD473
:1032B0002946092001F0F0F92046BDE8704000F0F1
:1032C000A3BC000080844E4000A1BC3301207047A5
:1032D0000349884201D280207047002070470000D7
:1032E00040DD4A1F014890F8AC007047D804002028
:1032F0002DE9F34F0200724981B04FF000000CD06D
:10330000012A7DD10024D1F8EC002546072854D0AD
:10331000082855D0092858D155E08A46D1F8C4006C
:10332000FDF773F906460F460298FDF76EF98046E1
:103330008946302000F08DFB30F0F9004FF000049A
:1033400001D0604D00E00025272000F082FB20F036
:10335000F800BAF8C810401C0844FDF756F99AF86E
:10336000CA20012A4FF0000222D0564BFCF798FFEA
:1033700022462B46FCF794FF42464B46FCF790FF53
:103380009AF8CC20012A4FF0000213D05FF000031E
:10339000FCF786FF0322FDF70BF932463B46FDF7AB
:1033A00098F80022484BFDF722F802F0D9FB7FE0A5
:1033B0000023DBE74FF08043EAE70024434D04E0BD
:1033C0000024434D01E0434D00243D4E012056F8BA
:1033D000F07FB840FDF708F902460B462046294623
:1033E000FDF777F802460B4600203649FDF771F8E5
:1033F00004460D46F088FDF708F90022364B00E040
:103400005BE0FCF74DFF22462B46FCF7F0FF8346BE
:1034100000917079001DFDF7F8F8804630798946F3
:1034200000B10220381A8000FDF7EFF80646029836
:103430008A46C10022487A4201EB820190F8FA20C4
:1034400090F8F80001EB021100B11420081A1C30AA
:10345000FDF7DBF832465346FDF73BF802F064F91E
:1034600042464B46FCF7C3FF002207460E46134672
:10347000FDF73CF902D23846314601E00020014612
:103480000022164BFCF70CFF22462B46FCF7AFFF41
:1034900002460B4658460099FCF702FF00220A4BF1
:1034A000FCF7A5FF0E4A0F4BFCF7FAFE02F0AAF953
:1034B00003B0BDE8F04FFDF7D4B8BDE8FE8F0000C3
:1034C000D80400200000F03F00408F408084FE4080
:1034D00080840E4180841E41000011400000204085
:1034E0002B8716D9CEF7EF3F70B5184908601849F9
:1034F000184801F03DFB17481549143001F038FB1E
:1035000014481349283001F033FBFFF795FE0020E3
:1035100000F0F2FB0D48001D00F042F80E4D0024B3
:1035200004EB4406A85D00F0ABFB7019817840788D
:1035300001F0B2F8641CE4B2102CF1D3002000F0CA
:103540009FFB0649002081F8AC0070BD48000020B8
:1035500035390008E8050020E0700008D804002094
:103560007CB5012400940023224604210B480194D9
:10357000FDF778FB002509482B462A461B21943885
:10358000CDE90045FDF76EFB044800231A461A21D9
:103590008838CDE90045FDF765FB7CBD7805002046
:1035A00010B504460368032201210648FDF772FCAA
:1035B0000448636803220121BDE810400C30FDF788
:1035C00069BC0000E404002070B514460E460546B0
:1035D00000F056FB304600F017FB052000F08CFB96
:1035E0000120FDF7CBFA284600F066FA054600F008
:1035F00069FEA54201DD002070BD012070BD000004
:10360000F8B500258DF800508E4C8F4E94F8AC0024
:1036100001280AD0022854D104F5887001F05CFB1F
:1036200094F8AD0001287DD1FCE094F8AD00B8B16C
:10363000012846D14021122001F02EF8122000F07E
:1036400008FA8DF800009DF8000080066BD5202157
:10365000122001F021F894F8FE0000287ED090E0BE
:1036600094F8CC00012834D13F2000F0F2F98DF815
:1036700000009DF8000080072BD40B213E2001F0B4
:103680000BF810213F2001F007F8704801F024FBEF
:1036900094F8CE00B0B10D2000F0DBF940F040010D
:1036A0000D2000F0F9FF6948143001F0E5FA3068A8
:1036B00010B1006900B1804704F8D85F6570A5813A
:1036C0006581F8BD6148143001F006FB84F8AC5008
:1036D000EDE7B4F8E2105E4F11B9B4F8E40030B190
:1036E000B4F8E400091AC9B23844E2340EE094F8A0
:1036F000CA00A0B3322000F0ACF9A4F8E20000BF89
:1037000014F8E21F6088091AC9B2384400F0CEF9F3
:1037100034F8020B24F8E4094C4801F0DDFA94F87F
:10372000CE0001E082E034E010B30D2000F091F90A
:1037300040F040010D2000F0AFFF4448143001F08C
:103740009BFA30680028B7D08668002EB4D094F970
:10375000DA20B4F8E21000233D4801E00FE001E078
:10376000B047A9E739480121423800F09FF9C7E77F
:10377000364884F8AC50143001F0AEFAE1E784F832
:10378000AC50324801F0A8FA3068002899D000699E
:1037900052E0192000F05DF940B284F808010106FA
:1037A00005D5C043401CC0F38500474201E0C0F38B
:1037B00085071A2000F04DF92649D4F8B020002FD3
:1037C00006DA00EB20108A42384405D99D3804E01F
:1037D0008A4200EB2010F9D8A438A4F80A0113207B
:1037E00000F037F984F80C010146194800F05EF941
:1037F00094F8FE0008B984F8AC50144801F06CFA53
:1038000030680028C2D08568002DBFD094F90831F7
:10381000B4F90A2194F80C1101B0AC46BDE8F040AF
:103820000B4860470821122000F036FF84F8AC50A6
:1038300030680028AAD000680028A7D001B0BDE8F1
:10384000F0400047D804002048000020FC0500207C
:10385000D803002040DD4A1F70B5334C204694F851
:10386000AC3090F8AD20B0F8E210B0F8E400A4F568
:103870008075012B15D0022B12D1002A10D10A1A03
:10388000234694F8E710B3F8E430284618448A42F7
:1038900043DD00F02BFF34F8E40FE178084420808A
:1038A00070BDAAB1012AFBD1204801F015FA802190
:1038B000122000F0F1FE002084F8AC001C480068E3
:1038C0000028EDD0C0680028EAD0BDE8704000476D
:1038D00041B938B994F8CA00A0B1322000F0B9F863
:1038E000A4F8E200B4F8E210B4F8E4000A1A94F87C
:1038F000E6108A420CDD284400F0D8F834F8E40FD2
:10390000A178CBE709480121423800F0CFF8E9E778
:10391000D1B2284400F0CAF802E0D1B200F0E6FECD
:1039200034F8E20F608070BDD8040020FC05002050
:10393000480000202DE9F047324CDFF8CC904FF0E2
:10394000000894F8AC00012829D0022857D1FFF7CD
:1039500073FC002000F0D0F92C4E002505EB450744
:10396000F05D00F08DF9B8198178407800F094FE90
:103970006D1CEDB2102DF1D3002000F081F994F808
:10398000040100F0D1F984F8AC80D9F800000028D7
:1039900035D04068002832D0BDE8F047004794F8A1
:1039A000AD00D0B984F8D88084F8D980A4F8E48038
:1039B000A4F8E28045460B213E20CE3400F06CFE98
:1039C00010213F2000F068FE14F8CE0901280AD02B
:1039D00084F8AC500E4801F07FF9D9F800000028B7
:1039E0000DD0C068D6E70D2000F033F840F040015C
:1039F0000D2000F051FE064801F03EF9EDE7BDE86C
:103A0000F0870000D804002048000020E070000883
:103A10001006002070B50025012000F031F9FF21CB
:103A2000112000F039FE052000F066F90024012085
:103A3000FDF7A4F82C2000F00CF800F00100A040E5
:103A4000641C0543E4B2202CF1D300F03BFC284673
:103A500070BD08B50122694600F004F89DF8000029
:103A600008BD00002DE9F04104460F480E461546FA
:103A700000218046FDF710FA0B4804F07F017C38E6
:103A8000074600F067FE002406E00021384600F0FB
:103A900061FE3055641CE4B2AC42F6D34046BDE84A
:103AA000F0410121FDF7F8B9780500200A460146EA
:103AB0000020FFF7D7BF000010B520B1012808D0C3
:103AC0004FF0FF3010BD1120FFF7C3FF4008404208
:103AD00010BD08480849D0F8B00088424FF01B00DC
:103AE00003D9FFF7B6FF9D3810BDFFF7B2FFA4382A
:103AF00010BD0000D804002040DD4A1F73B53B4CC8
:103B00000546002094F8AD1011B101296BD12DE0CC
:103B10000020A4F8E4009DF80410A4F8E21094F842
:103B2000CA0058B1322000F0B7FD00BF9DF8042054
:103B3000501E3F2807D884F8E7200BE0012101A898
:103B400000F0D4FDF2E72946294801F0F7FF2020D4
:103B500084F8E70094F8E7102846D03400F0C6FD5A
:103B6000A08AE17D0844A08220683CE094F8FD0032
:103B700001284FF0330021D0FFF76BFF00F0BE01AA
:103B80003320491C00F088FD1D213B2000F084FDFE
:103B90009DF8041084F80C11222000F07DFD002116
:103BA0000E2000F079FD00210D2000F075FD0120B0
:103BB000FFF74FFF30F0F80009D00DE0FFF749FFA5
:103BC00000F0BE01332000F067FD1921DDE700F0B1
:103BD0008DFB0120FCF7D2FF9DF80410284600F071
:103BE00085FDD4F8000100F095FB7CBDD8040020D1
:103BF000D80300207047000002490A78824200D0B2
:103C0000087070471C0000200E4910B5C1F8B000C4
:103C1000FCF7FBFC00220C4BFCF75BFCFCF721FDE6
:103C20000446C0F30741062000F036FDC4F3072127
:103C3000072000F031FDE1B2BDE81040082000F09F
:103C40002BBD0000D804002080844E4070B50D4686
:103C5000044600F015F824B1012C0DD1294623208B
:103C600006E0064890F8CA00002805D1294632200F
:103C7000BDE8704000F010BD70BD0000D804002009
:103C800010B504460120FFF7E4FE1A49000601D5ED
:103C9000012000E0002081F8AD00C0B2A04227D092
:103CA00081F8AD40012C0FD000F00CFB0120FFF794
:103CB000D0FE00F07F01012000F0EEFC002140204A
:103CC00000F0EAFC30210EE000F0FCFA0120FFF7E2
:103CD000C0FE40F08001012000F0DEFC0021402009
:103CE00000F0DAFC0021BDE81040412000F0D4BC17
:103CF00010BD0000D804002010B5040010D0002032
:103D0000FFF77AFF2046FFF775FF0120FFF7A1FEBE
:103D100000F0F8012143BDE81040012000F0BCBCD8
:103D20000120FFF769FFF0E710B504460120FFF717
:103D3000A7FF064880F804410CB1342100E01221AD
:103D4000BDE81040392000F0A7BC0000D8040020D6
:103D500070B504460920FFF77CFE06464D20FFF7AC
:103D600078FE05462248D0F8B000FFF7B1FA06F019
:103D70007F01084340F0700001062BD5112C02DDB5
:103D800045F0070502E005F0F8052D1DE943490758
:103D900003D0022C0CDA02240DE0052C01DA0524F4
:103DA00002E0142C00DD142400F0F001641F05E093
:103DB000112C00DD112400F0F001A41E04F00F000E
:103DC0000143092000F068FC2946BDE870404D2001
:103DD00000F062BC4FF0FF318C4201DA0C4602E089
:103DE0000E2C00DD0E2400F0F001641CE6E700005C
:103DF000D804002070B5854C0546002694F8AD0027
:103E000010B1012824D124E014F8CE6F4020FFF730
:103E100020FE00F0030040F00C01402000F03CFCCC
:103E20004120FFF716FE40F0C101412000F034FCB4
:103E30003520FFF70EFE00F03F0020761E210D20FA
:103E400000F02AFC0020A072E072E082A082CE3C4A
:103E50009EE094F8FD0001284FF0330027D0FFF7D3
:103E6000F8FD00F0BE013320491C00F015FC1D21B7
:103E70003B2000F011FCD4F8EC0009284FF0310091
:103E80007ED2FFF7E6FD00F07F01312000F004FC58
:103E90000021302000F000FCD4F8EC0009285BD2AF
:103EA000DFE800F00E19242F3A4556565600FFF76A
:103EB000D0FD40F04101332000F0EEFB1921D7E79F
:103EC00048212F2000F0E8FBD4F8B000FCF79DFB60
:103ED00000224F4B35E044212F2000F0DDFBD4F8C9
:103EE000B000FCF792FB00224A4B2AE044212F202D
:103EF00000F0D2FBD4F8B000FCF787FB0022464B61
:103F00001FE044212F2000F0C7FBD4F8B000FCF7DD
:103F10007CFB0022414B14E044212F2000F0BCFB2D
:103F2000D4F8B000FCF771FB00223D4B09E04421BE
:103F30002F2000F0B1FBD4F8B000FCF766FB0022A4
:103F4000384BFCF7ADF9FCF78CFBFFF75DFE03E0A7
:103F500040212F2000F0A0FB94F8FB0094F8FE60B5
:103F6000012831D01F21112000F096FB4020FFF7DF
:103F700070FD00F03F01402000F08EFB002100E0CA
:103F80001CE00F2000F088FB00210D2000F084FBD6
:103F90004FF480712448FCF7E2F8012084F8AC006B
:103FA00035B12946214800F05FFE204800F064FE4C
:103FB00094F8AD0090B116B3052021E0FFF749FD5C
:103FC00040F080013120C5E71D21112000F064FB85
:103FD0004020FFF73EFD00F03301CCE70520FFF75E
:103FE0008BFE002E10D11148D4F8D410143000F0FC
:103FF0003BFEBDE870400D48143000F03DBE062089
:10400000BDE87040FFF778BE70BD0000D804002006
:104010000082BE40005AC4400082CE408057D44047
:104020008084DE40C058E440D8030020FC05002016
:104030002DE9FC5F9B4614468A468046DDF8449095
:104040000D9F0F9EFFF71CFE380A994D0090B8F1A6
:10405000000F06D0B8F1010F74D1BAF1020F73D975
:10406000FEE745F8BCAFAC600C986860AE73109882
:10407000E87385F81090149868741598A874AF8147
:104080002046FCF7C2FA04460B4601912246002066
:104090008849FCF71EFA0322FCF78AFA80468B4611
:1040A0000E98FCF7B2FA42465B46FCF7A0F90022F4
:1040B000814BFCF79CF9FCF7D4FAA861224600205A
:1040C0007E49019BFCF705FAFCF7CBFA84B2210A82
:1040D000022000F0E1FAE1B2032000F0DDFA5046E0
:1040E000FCF7AAFD0146122000F0D6FA0C98FCF766
:1040F000A3FD0146132000F0CFFA2520009900F01F
:10410000CBFAF9B2262000F0C7FA0EB1109900E000
:10411000FF21322000F0C0FA3020FFF79AFC00F0B7
:104120006F000EB1002100E08021084340EA091130
:10413000302000F0B1FA3120FFF78BFC40F0400155
:104140003120A5E0B2E0FFE728460AF10708E0E9E0
:104150003B840C2C80F809B0478106731099417399
:1041600080F80E901299C1731399017414994174D7
:10417000159985F8FE1001D90C2402E0062C00D216
:104180000624B8F1070F03D0B8F1080F02D003E0FE
:104190000B2C47D00C2C45D05FF0000185F8F410B3
:1041A0001D20FFF756FC4FEA081141EA4B0030434F
:1041B000C1B21D2000F070FA1E20FFF74AFC00F08B
:1041C000080040EA041141EA89000E99032202EA3C
:1041D00011210843C1B21E2000F05EFA2620FFF72D
:1041E00038FC00F0F70195F8F40041EAC000C1B2D4
:1041F000262000F051FA0E98C1B21F2000F04CFAB0
:104200002020009900F048FAF9B2212000F044FA89
:104210001EB12220109900F03FFA95F8FB0001280A
:1042200002D00EE00121B9E74420FFF712FC40F074
:104230008001442000F030FA95F8FC10242000F0B2
:104240002BFAB8F1090F02D00321362010E01C49E7
:10425000D5F8B00088424FF002014FF0360003D984
:1042600000F01AFA642102E000F016FA7F213A20E9
:1042700000F012FA062C4FF031000DD0FFF7E9FBE9
:1042800000F0F8013120C91C00F006FA0A2137209D
:10429000BDE8FC5F00F000BAFFF7DBFB00F0F801BF
:1042A0003120491D00F0F8F90C21F0E7BDE8FC9F32
:1042B000D80400200000F03F00408F4080847E4101
:1042C00040DD4A1F10B5074800F006FD05481438C8
:1042D00000F002FD0020FFF70FFD0349002081F8E8
:1042E000AC0010BDFC050020D804002010B5074824
:1042F00000F0F2FC0548143800F0EEFC0120FFF756
:10430000FBFC0349002081F8AC0010BDFC05002037
:10431000D804002010B50146254800F0A5FC254C26
:1043200094F8AD0010B101282DD119E04020FFF71D
:1043300090FB00F0030040F01001402000F0ACF9C9
:104340004120FFF786FB00F03E01412000F0A4F978
:104350003520FFF77EFB00F03F0084F8E60012E016
:1043600094F8FB00012819D0F721112000F094F9EE
:104370004020FFF76EFB00F03F0000BF40F040011F
:10438000402000F089F9022084F8AC00084800F0D1
:1043900073FCBDE810400320FFF7AEBCF5211120EF
:1043A00000F07AF94020FFF754FB00F03300E5E716
:1043B000E8050020D80400202DE9FF4F81B01D46FC
:1043C000DDE90E4BDDE910688946DDF854A0129F47
:1043D0000198FFF755FC4846FFF7BAFC7548320ACA
:1043E0000199009231B1012972D180F8E890022D33
:1043F00054D9FEE700F8B49F03990461C0E90115A0
:10440000868280F81680077680F819A01699C16117
:104410000398FCF7FAF80022674BFCF75AF8FCF710
:1044200020F985B2290A042000F036F9E9B2052006
:1044300000F032F92046FCF7E8F802460B4600206F
:104440005E49FCF746F8FCF70CF984B2210A022019
:1044500000F022F9E1B2032000F01EF925200099B6
:1044600000F01AF9F1B2262000F016F93020FFF71B
:10447000F0FA00F06F00B8F1000F01D0002100E069
:104480008021084340EA0711302000F005F931206F
:10449000FFF7DFFA40F04001312078E0ED1DC0E980
:1044A0003B5480F8F5B0A0F8F66080F8F8801399D6
:1044B00080F8FB10149A80F8FC2080F8FA7080F8DD
:1044C000FDA0169AC0F800210C2C02D90C2403E0A0
:1044D0006CE0062C00D20624072D02D0082D02D055
:1044E00003E00B2C08D00C2C06D0002280F8F4201E
:1044F0008146012902D00EE00122F7E74420FFF7B0
:10450000A8FA40F08001442000F0C6F899F8FC10A9
:10451000242000F0C1F81D20FFF79BFA290141EA91
:104520004B0040EA0800C1B21D2000F0B5F81E2083
:10453000FFF78FFA00F00B0040EA041040EA870012
:10454000C1B21E2000F0A8F82620FFF782FA00F082
:10455000F70199F8F40041EAC000C1B2262000F04A
:104560009BF82020009900F097F8F1B2212000F08C
:1045700093F8062C4FF031000ED0FFF76AFA00F0E6
:10458000F8013120C91C00F087F80A21372005B056
:10459000BDE8F04F00F080B8FFF75BFA00F0F801DB
:1045A0003120491D00F078F80C21EFE705B0BDE897
:1045B000F08F0000D804002080844E4080847E412B
:1045C00070B506468AB00D461046FCF71EF800226C
:1045D0001E4BFBF70CFFFCF744F804463046FFF790
:1045E00013FB002005900690CDE907040521CDE9D5
:1045F0000101039004904FF49650002300901A4656
:1046000029461846FFF7D8FE3120FFF722FA00F0BE
:10461000BF01312000F040F8F021402000F03CF8CC
:10462000A021412000F038F82146094800F01CFB89
:104630000849022081F8AC00054800F01DFB0AB0D3
:104640000320BDE87040FFF757BB000000408F40DB
:10465000E8050020D804002010B50E4C94F8AD00F9
:10466000002815D0012813D1FA21112000F014F8E8
:104670004020FFF7EEF900F0FC01402000F00CF8BC
:10468000032084F8AC00BDE810400720FFF734BBDE
:1046900010BD0000D804002013B5012201A900F0CC
:1046A00001F81CBD2DE9F04104460F480E461546A1
:1046B00000218046FCF7F0FB0B4844F080017C3879
:1046C000074600F047F8002405E0315D384600F069
:1046D00041F8641CE4B2AC42F7D34046BDE8F04177
:1046E0000121FCF7D9BB0000780500200A460146ED
:1046F0000020FFF7D7BF30B50024039D846061B16F
:104700004FF40061C160046207214462C0E90A41BC
:10471000C0E904231DB1446030BDC460F3E74FF429
:104720008271416030BD0000094B00221B6803E02C
:104730005B08521C072A01D28B42F9D8302101EACA
:10474000C201D20700D008221143C16170470000A6
:104750003000002070B5044600680D46016841F045
:1047600040010160FCF788F920688168C943890726
:10477000FBD4E9B2C16020688168C943C907FBD195
:10478000C068C4B2FCF780F9204670BD2DE9FF4F28
:1047900083B08B460446109FFCF76EF90525022670
:1047A00004F1580004F1640904F1700804F17C0A72
:1047B000BBF1070F03D0BBF11F0F2ED021E033490F
:1047C0000A6842F480520A600A6822F480520A6041
:1047D0002E490C310A6842F480520A60096801F4DB
:1047E000805100912A492DE04FF40070A061002013
:1047F000009000E0009600231A4619462046FFF775
:104800007AFF24492046FFF78FFF2046FDF7A5FDDC
:1048100007B0BDE8F04FFCF737B91C49091D0A681D
:1048200042F480420A600A6822F480420A60174912
:1048300010310A6842F480420A60096801F480413C
:10484000009115492160CDE90065002302225946F7
:10485000FCF708FACDE900650023022248460599D5
:10486000FCF700FACDE900650023022240460699D4
:10487000FCF7F8F90126CDE900650023022239464C
:104880005046FCF7EFF97F1CB4D1ADE71438024075
:1048900000300140809698000038004010B5FCF7C9
:1048A00015FCBDE81040FDF7B7BD000030B5244849
:1048B00095B0016841F080510160006800F08050BF
:1048C00014902048016821F4C05141F40061016056
:1048D00001240520CDE900040220C5030294CDE99E
:1048E00009054FF440200B90A0050C906846FCF79A
:1048F00045FE0F200D9003200E9000200F90109089
:10490000119001210DA8FCF703FD12A8CDE9124575
:10491000FCF74AFCFCF7E6FD4FF47A71B0FBF1F0CE
:10492000FDF766FD0420FDF756FD0320FCF722FC91
:1049300000221146501EFCF7FDFB15B030BD0000F3
:10494000243802400070004038B52E48016841F01C
:1049500080510160006800F0805000902A48016892
:1049600021F4C05141F400610160264924390868EE
:1049700040F480300860234C4FF4003210340120A2
:1049800092FAA2F3B3FA83F343F020035B0901D058
:104990000B6800E0236892FAA2F5B5FA85F505F0F8
:1049A0001F0500FA05F52B42EAD04FF0807292FA0B
:1049B000A2F2164BB2FA82F243F822004FF00073D3
:1049C00093FAA3F2B2FA82F242F02002520901D025
:1049D0000A6800E0226893FAA3F5B5FA85F505F0B8
:1049E0001F0500FA05F52A42EAD006481C3801687E
:1049F00041F0030101600168C1F381010329FAD18B
:104A000038BD0000243802400070004000004742DA
:104A10000F48016841F4807101600D4908310A684E
:104A20000C4B1A400A6002680B4B1A400260026885
:104A300022F480220260086820F47D0008600020D3
:104A4000091D086005494FF00060086070470000CC
:104A5000003802400CC0FF88FEFFFEEE08ED00E0CB
:104A60000148FDF736BD0000240200200148FDF793
:104A700030BD00005C02002070B502684FF0804637
:104A8000134B144CB04203D0984201D0A04205D140
:104A900022F070054A682A43B0420CD098420AD0EE
:104AA000A04208D00C4B984205D00C4B984202D043
:104AB0000B4B984203D122F44073CA681A43026038
:104AC0008A68C262096881620121416170BD00008B
:104AD000000400400008004000080140000C0140B4
:104AE00000100140134910B509684FF47A42B1FB38
:104AF000F2F211494FF08043521E0B604FF0FF332A
:104B000003EB8010C86000200861C1E9012008465D
:104B1000FDF786FC10B109A000F074F90648FDF716
:104B2000CBFC002804D0BDE810400AA000F06AB910
:104B300010BD00003000002024020020B6A8CAB139
:104B4000C6F732B3F5CABCBBAFCAA7B0DCA3A10D90
:104B50000A000000B6A8CAB1C6F732C6F4B6AFD68E
:104B6000D0B6CFCAA7B0DCA3A10D0A0000F0C4BE26
:104B70000022026042600272C0E903127047000026
:104B8000074B30B45A6822B10468091B1160002138
:104B90001172012102610172586030BC00F054B8FA
:104BA0005800002070B5124A002553681A6912B1E6
:104BB00014680C4414E00268511A15E00668A64215
:104BC00008D2711A016012B11468611A116018617B
:104BD000026170BD134612692AB116682146741825
:104BE000002BEBD170BD311B01601861056170BDF8
:104BF0005800002010B5134C6068002820D0FEF744
:104C000055FA616800220B68834201D80A6001E00E
:104C1000181A08600A7204E001696160C06800B196
:104C20008047606800280BD001680029F4D0017A21
:104C3000012905D001210172BDE8104000F004B83F
:104C400010BD00005800002010B5064904460020A1
:104C500008702068FEF7E6F92060BDE81040FEF716
:104C60009FBA00005800002070B50D46044600F0C1
:104C700033F82560656070BD70B50446FBF7FCFE37
:104C80001CB3144D6868024602E0A0421DD00069C2
:104C90000028FAD161682160207232B1107A0128AF
:104CA00007D01168206888420CD22046FFF768FFC1
:104CB0000BE0FEF7FBF969680968814200D20846FB
:104CC000091AEFE72046FFF76DFFBDE87040FBF7DC
:104CD000DBBE00005800002070B50546FBF7CCFE97
:104CE0001F4C6068011E36D005B3A84221D1017A5D
:104CF0000026012907D00069C8B1296860600268F0
:104D00001144016027E0FEF7D1F92968814200D201
:104D100008466268091A106948B116726060026834
:104D20001144016001210172FFF78EFF13E06660FC
:104D300011E02A680DE0A94209D1096921B1016198
:104D400008681044086006E00021016103E008469D
:104D500009690029EFD1BDE87040FBF795BE00005E
:104D600058000020034A0146002012680A4200D081
:104D7000012070470038014000B52020FFF7F2FF06
:104D8000002810D000F014F80849074B8A8898547E
:104D9000521C90B20022888001238A704B70FF2839
:104DA00000D38A804B7000BD9402002028000020B0
:104DB00002480068C0F30800704700000438014052
:104DC000FEE7000008B509A200211420FDF721FE2E
:104DD00009A202210120FDF71CFE102000900923EA
:104DE000074A02213020FDF7E3FD08BD56696577CB
:104DF0002046726571000000467265713A0000003D
:104E0000400ECF190FB4054B10B503A9044A029800
:104E100000F0EEF810BC5DF814FB0000E15800084B
:104E2000600000200FB4084B10B504A902AA039833
:104E300000F0DEF8044602A9002000F070FC2046D5
:104E400010BC5DF814FB00001F57000802E008C802
:104E5000121F08C1002AFAD170477047002001E0F4
:104E600001C1121F002AFBD1704700002DE9FF5F2E
:104E700082B00021DDE90430020DDDF840B00343CB
:104E800018D044F61050A2F2FF3242431514119884
:104E900001281FD0A5EB0B00401C5FEA000A4FF071
:104EA00000064E4FDFF83891B046504615D5CAF18E
:104EB000000413E0119801244AA3012801D16FEAEC
:104EC0000B010298119AC0E90031C0E9024206B014
:104ED000BDE8F09FCBF10000DFE704460021404A27
:104EE000491842EB0450CDE9001012E0E00707D06A
:104EF00032463B4640464946FBF779FA80468946AA
:104F000032463B4610461946FBF771FA06460F46F5
:104F10006410002CEAD1DDE90401DDE90023BAF1D7
:104F2000000F06DAFBF763FA42464B46FBF75FFADF
:104F300005E0FBF7CEFA42464B46FBF7CAFA0446B9
:104F40000E460022284BFBF7D1FB03D84FF0FF3071
:104F5000014607E00022254B20463146FBF7A0F929
:104F6000FBF72CFD102409E0002C0ADB0A220023A9
:104F7000FBF7EAFB039B30321A55641E50EA01022C
:104F8000F2D1641C039AC4F111031444119A012A4A
:104F900003D0012208430DD10AE0084304D00020C9
:104FA0004FF0110B119072E7A3EB0B056D1E0DE096
:104FB0005B4504DD4FF0000205F1010504E003DA72
:104FC0004FF00002A5F10105002AECD002981199DA
:104FD000C0E90231C0E9004579E700000000144053
:104FE0000000F03F300000000000F0430000E03F10
:104FF0002DE9FF4F95B09B468946064600250FE2F6
:10500000252877D100242746F84A0121059400E09D
:10501000044316F8013F203B01FA03F01042F7D198
:1050200030782A2811D06FF02F033078A0F13002A9
:10503000092A16D8059A44F0020402EB820203EB17
:1050400042021044761C0590EFE759F8042B0592B4
:10505000002A03DA504244F40054059044F002045C
:10506000761C30782E2816D116F8010F44F004046F
:105070002A280DD06FF02F023078A0F13003092BD1
:1050800009D807EB870302EB4303C718761CF3E745
:1050900059F8047B761C30786C280FD006DC4C283D
:1050A00017D068280DD06A2814D104E0742810D0D5
:1050B0007A280FD10DE044F400140AE044F480147F
:1050C00001E044F440147278824202D104F5801465
:1050D000761C761C307866280BD013DC582877D0E5
:1050E00009DC002875D04528F6D04628F4D047289A
:1050F0001AD19DE118E0632835D0642879D065285D
:1051000012D195E1702873D008DC6728F1D06928A6
:105110006FD06E280DD06F2806D1B5E073282CD043
:10512000752875D0782874D05A46179990476D1C09
:1051300075E1C4F30250022809D003280DD0D9F834
:10514000001004280DD00D6009F1040967E1D9F8B9
:105150000010EA17C1E90052F6E7D9F800100D80F7
:10516000F2E70D70F0E719F8041B8DF8001000202D
:105170008DF80100EA46012003E059F804AB4FF036
:10518000FF3061074FF0000102D40DE008F101018A
:105190008846B9420FDA8045F8DB1AF80810002972
:1051A000F4D108E008F1010188468142FADB1AF8DF
:1051B00008100029F6D105985B46A0EB08072146A8
:1051C0003846179A00F094FA284400EB080507E0E7
:1051D0004DE029E10DE01AF8010B5A461799904766
:1051E000B8F10108F7D25B4621463846179A13E119
:1051F00042E00A220092C4F302524FF0000A022A4F
:1052000008D059F804CB032A4FEAEC710AD00DE01C
:1052100029E02AE009F1070121F00702F2E802C1C2
:10522000914609E00FFA8CFC4FEAEC71042A03D195
:105230004FFA8CFC4FEAEC71002907DA0A4600218C
:10524000DCF1000C61EB02012D2202E0220504D505
:105250002B228DF80420012203E0E20701D0202256
:10526000F7E7904659E00A2102E010220DE01021F4
:105270004FF0000A00910BE010224FF0000A44F0BA
:1052800004040827009203E008224FF0000A00926D
:10529000C4F30252022A05D059F804CB0021032A94
:1052A00008D009E009F1070121F00702F2E802C184
:1052B000914605E01FFA8CFC042A01D10CF0FF0C8A
:1052C0004FF00008220728D5702806D0009B83F0F5
:1052D000100353EA0A0305D00EE040228DF80420A3
:1052E000012208E05CEA010206D030228DF8042099
:1052F0008DF8050002229046009B83F0080353EAD4
:105300000A030AD15CEA010201D1620705D5302205
:105310008DF804204FF001087F1E582804D034A0D7
:1053200003900EA802900DE036A0F9E753466046C0
:10533000009AFBF709FA84460398825C0298401EA3
:10534000029002705CEA0100F0D1029806A9081AE6
:1053500000F1200A600702D524F4803400E0012720
:10536000574502DDA7EB0A0000E0002000EB0A0130
:10537000009005984144401A0590E00306D45B462E
:105380002146179A059800F0B3F90544002706E076
:1053900001A85A46C05D179990476D1C7F1C474570
:1053A000F6DBE0030CD55B462146179A059800F022
:1053B0009FF9054404E030205A46179990476D1C28
:1053C0000099481E00900029F5DC08E00298029937
:1053D0005A460078491C0291179990476D1CBAF102
:1053E0000001AAF1010AF1DC65E1000009280100D1
:1053F000303132333435363738396162636465664B
:10540000000000003031323334353637383941420C
:10541000434445460000000000F058F90544761C5E
:10542000307800287FF4ECAD19B02846BDE8F08F45
:10543000620700D4062709F1070222F0070CFCE8F6
:105440000223E14603F000485FEA080C02D00FF2A5
:10545000702C0DE05FEA045C02D50FF2682C07E0C7
:105460005FEAC47C02D00FF2602C01E0AFF2700C56
:105470004FF0FF3823F00043CDF850C065280CD022
:1054800006DC452809D046281DD047283DD13DE0FF
:10549000662818D067287ED138E00021112F01DB63
:1054A000112000E0781CCDE9000106A90EA8FFF745
:1054B000DDFCDDE90F010E9A03910021009207F156
:1054C000010A04914DE04FF000400097CDE9011032
:1054D00006A90EA8FFF7CAFCDDE90F0203920E9B96
:1054E00011990022DDF80CA00093049211B9791CE7
:1054F00000EB010AB7EB0A0004D4C0F1FF3007F15A
:10550000010A0490AAEB0700019044E0012F00DAA1
:1055100001270021112F01DD112000E03846CDE9DF
:10552000000106A90EA8FFF7A1FCDDE90F010E9A04
:105530000391002104910092BA4621070CD40399EB
:10554000514500DA8A46BAF1010F05DD009AAAF149
:105550000101515C302908D0B84202DA10F1040F81
:1055600006DA0121CDE9011015E0AAF10101E9E710
:10557000002805DC049901440491AAEB000102E033
:10558000411C514500DD8A460499401A401C019097
:105590004FF000400290200704D40198504501DBF1
:1055A000CDF8048000208DF84F0002980DF14F07D0
:1055B000B0F1004F25D02B200E9002984FF002083A
:1055C00000280CDA404202902D200E9007E00A21BC
:1055D0000298FBF7A3F83031029007F8011DB8F1EB
:1055E0000001A8F10108F2DC02980028EFD1791E31
:1055F0000E980870307800F0200040F0450007F861
:10560000020D12A8C01B00F107081498007800B121
:10561000012000EB0A01019801EBE071059841447B
:10562000401A401E0590E00306D45B462146179AB7
:10563000059800F05DF805441498007818B15A46B2
:10564000179990476D1CE00324D55B462146179AB5
:10565000059800F04DF805441CE00498002807DB8D
:10566000DDE90301884203DD0098405C179901E001
:10567000179930205A469047049805F10105401CBF
:1056800004900198401E019004D12E205A4617998B
:1056900090476D1CBAF10001AAF1010ADDDC05E0BA
:1056A00017F8010B5A46179990476D1CB8F1000185
:1056B000A8F10108F4DC5B462146179A0598ABE691
:1056C0002D0000002B000000200000002DE9F0411B
:1056D000044600251E461746880404D405E03946D2
:1056E0002020B0476D1C641EF9D52846BDE8F08126
:1056F0002DE9F041044600251E469046C80301D519
:10570000302700E02027880404D505E041463846CC
:10571000B0476D1C641EF9D52846BDE8F0810A68C3
:10572000531C0B60107070472DE9F041C1F30A5211
:10573000A2F2FF362F4A304B0D460446142E2FDAC4
:10574000002E12DAFAF7ACFD00221346FAF7CEFF6C
:105750004CD2002DBCBF4FF00045002446DB55EA7B
:10576000040018BF254D19D140E0DFF894C02CFA91
:1057700006F705EA070C5CEA040C08BFBDE8F081F7
:10578000FAF78EFD00221346FAF7B0FF2ED2002D55
:1057900003DD4FF48010F0400544BD43002425E0B4
:1057A000332EC8BFBDE8F081A6F1140C4FF0FF37CF
:1057B00027FA0CF73C4208BFBDE8F081FAF714FE67
:1057C00000221346FAF792FF10D2002D0DDD142EA1
:1057D00008BF6D1C09D0C6F13400012101FA00F0A8
:1057E0002044A04238BF6D1C0446BC4329462046D5
:1057F000BDE8F0819C7500883CE4377E0000F03FF6
:10580000FFFF0F002DE9F041C1F30A52A2F2FF366B
:105810002F4A304B0D460446142E2FDA002E12DA92
:10582000FAF73EFD00221346FAF760FF4CD2002D36
:10583000A4BF0024254647DA25F00040204318BFC6
:10584000254D41D018E0DFF894C02CFA06F705EAA0
:10585000070C5CEA040C08BFBDE8F081FAF720FDF4
:1058600000221346FAF742FF2ED2002D03DA4FF43E
:105870008010F0400544BD43002425E0332EC8BF0E
:10588000BDE8F081A6F1140C4FF0FF3727FA0CF7B2
:105890003C4208BFBDE8F081FAF7A6FD002213469E
:1058A000FAF724FF10D2002D0DDA142E08BF6D1C5C
:1058B00009D0C6F13400012101FA00F02044A042D1
:1058C00038BF6D1C0446BC4329462046BDE8F08124
:1058D0009C7500883CE4377E0000F0BFFFFF0F009E
:1058E00004490A685206FCD5024AC1B2121D116071
:1058F000704700000038014005490868401C0860F6
:105900000A2803D30020086000F074B97047000033
:1059100004000020F0B585B04FF4005000240125AC
:1059200003268DE8710069460948FBF7F9FA022061
:105930008DE87100074F69463846FBF7F1FA2020E1
:105940008DE8710069463846FBF7EAFA05B0F0BD0C
:10595000000802400004024094B03C2101A8FAF77C
:10596000FEFB6548002400680090FCF75DFEFCF734
:1059700030FF4FF47A72134614216048FCF786FE1C
:105980006846FDF769F9012C79D100BF9DF8021036
:105990009DF8030001EB810100EB4100FAF71FFEC7
:1059A00005469DF80400FAF71AFE554E3146FAF7FF
:1059B00039FC2946FAF7DEFB0546FAF76BFE02468C
:1059C0000B4650A110A8FFF72DFA10AA0221302093
:1059D000FDF71FF89DF80500FAF701FE07469DF850
:1059E0000600FAF7FCFD3146FAF71CFC3946FAF7D7
:1059F000C1FBFAF74FFE02460B4642A110A8FFF783
:105A000011FA10AA04213020FDF703F89DF80700D1
:105A1000FAF7E5FD07469DF80800FAF7E0FD314684
:105A2000FAF700FC3946FAF7A5FBFAF733FE02460F
:105A30000B4634A110A8FFF7F5F910AA0621302073
:105A4000FCF7E7FF3148854205DA00213048FBF7D3
:105A500023FA002104E001212D48FBF71DFA012162
:105A60002C48FBF719FA9DF80000002888D1002483
:105A7000FCF766FE00F02CF96846FDF7EDF800280B
:105A80007FF77EAFFCF75CFE9DF8000040B1012877
:105A900009D002280ED00328E8D1FFF793F96FE769
:105AA00000F016F96CE7FAF7B3FF01246846FDF73A
:105AB000D3F86BE718A200211420FCF7AAFF9DF889
:105AC000010070B10128EAD116A20221FCF7A1FF62
:105AD00001210F48FBF7E0F901210E48FBF7DCF943
