:020000040000FA
:030000000200E318
:03001300020641A1
:0300330002057350
:03003B0002069D1D
:03006B0002045339
:03007B000204E399
:1000830002060300000080FB120113B90003020003
:10009300CDE490030178C279028002F0A3D8FCD9A1
:1000A300FA9004C2AA82AB83900116781579018075
:1000B30015E493A3AC82AD838A828B83F0A3AA82D7
:1000C300AB838C828D83D8E9D9E775822B75830B3B
:1000D30074001200F575828675830074001200F5B2
:1000E30075D00075813F751001751103759F00026E
:1000F300008BC09FF59FE473D09F22D083D082C032
:100103009FE493C0E0740193C0E0740293F59F22CF
:10011300790122FF00000000000000000000000041
:1001230000000000C201001200FE0407001200FEDE
:100133002108001200FEAA08001200FED20B0012D2
:1001430000FE9C0B001200FEEC0B001200FEF10BF4
:10015300001200FE390B001200FE490B001200FED4
:10016300750B001200FECB09001200FEFA09001203
:1001730000FE100A001200FE270A001200FE3E0ACB
:10018300001200FE620A001200FE6B0A001200FE5B
:10019300800A001200FE950A001200FEBE0800123B
:1001A30000FEB40A001200FEEE0A001200FE030B6A
:1001B30000E4936670130874019366700C0874026C
:1001C30093667005087403936622C3E493960874D8
:1001D3000193960874029396087403939622E0FAA7
:1001E300A3E0FBA3E0FCA3E0FD22EAF0A3EBF0A372
:1001F300ECF0A3EDF022700422600D18C6C333C6E1
:1002030008C633C6D5E0F41822E4732510C582C0AE
:10021300E0E51134FFC583C0E0E510C3958224F8FF
:1002230010AF08858311858210800885831185822C
:1002330010D2AFCEF0A3E520F0A37808E608F0A330
:10024300DEFAEFF0A3E58124FAF8E608F0A3E60866
:10025300F0A3E608F0A30808E608F0A3E608F0A375
:1002630015811581D0E0FED0E0F815811581158147
:10027300E8C0E0EEC0E022851183851082E0A3FE92
:10028300E0A3F5207808E0A3F608DFFAE0A3FFE097
:10029300A3C0E0E0A3C0E0E0A3C0E0E0A3C0E0E0CF
:1002A300A3C0E010AF088582108583118008858282
:1002B30010858311D2AFD083D0820200FBC0D0253A
:1002C30010C582C0E0E51134FFC583C0E0E510C36B
:1002D300958224F310AF08858311858210800885E9
:1002E3008311858210D2AFC8F0A3E9F0A3EAF0A38B
:1002F300EBF0A37908E709F0A3D8FAECF0A3EDF04B
:10030300A3EEF0A3EFF0A3D0E0F0A3D0E0F0A3D0EE
:10031300E0F0A3E520F0A3E5F0F0A32285118385A7
:100323001082E0C0E0A3E0F9A3E0FAA3E0FBA37826
:1003330008E0F608A3DFFAE0FCA3E0FDA3E0FEA3D8
:10034300E0FFA3E0C0E0A3E0C0E0A3E0F5D0A3E0BA
:10035300F520A3E0A3F5F010AF0885831185821083
:100363008008858311858210D2AFD082D083D0E0FC
:10037300F8D0E032D083D082ECC0E0EDC0E0EEC034
:10038300E0EFC0E0E493A3FCE493A3FDE493A3FEB6
:10039300E493A3FFEF4E4D4C60151203F3EC24FFDF
:1003A300FCED34FFFDEE34FFFEEF34FFFF80E5E4A8
:1003B30093A3FCE493A3FDE493A3FEE493A3FFEFD1
:1003C3004E4D4C6015120430EC24FFFCED34FFFD60
:1003D300EE34FFFEEF34FFFF80E5D0E0FFD0E0FE18
:1003E300D0E0FDD0E0FCE493A3C0E0E493C0E022BE
:1003F300C0E0C0F088F01201CDA8F040071201B4AC
:10040300A8F0701AA3A3A3A31201CDA8F0A3A3A3DA
:10041300A34013D0F0D0E0D0E0D0E00203DDA3A3EB
:10042300A3A3A3A3A3A3A3A3D0F0D0E022C0E0C0BF
:10043300F088F01201B4A8F0A3A3A3A3700BD0F02B
:10044300D0E0D0E0D0E00203DDA3A3D0F0D0E022DF
:10045300C0E074F11202C0C2C5E589607E7E0080EF
:1004630074750801750900EE78081201F9E508AF03
:1004730008E5895F605EEEF87900E875F002A4C8CC
:10048300AAF075F000A42AFA75F002E9A42AF97417
:100493008A28F582740339F583E0F8A3E0F9E84983
:1004A300602EEEF87900E875F002A4C8AAF075F0A2
:1004B30000A42AFA75F002E9A42AF9748A28F582BD
:1004C300740339F583E0F8A3E0F583888212020C04
:1004D300EFF452890EEEC3940840867F0202031F95
:1004E300C0E074F11202C0C2EBE58A607E7E008038
:1004F30074750801750900EE78081201F9E508AF73
:1005030008E58A5F605EEEF87900E875F002A4C83A
:10051300AAF075F000A42AFA75F002E9A42AF97486
:100523009A28F582740339F583E0F8A3E0F9E849E2
:10053300602EEEF87900E875F002A4C8AAF075F011
:1005430000A42AFA75F002E9A42AF9749A28F5821C
:10055300740339F583E0F8A3E0F583888212020C73
:10056300EFF4528A0EEEC3940840867F0202031F03
:10057300C0E074F11202C0C2E8E58B607E7E0080A9
:1005830074750801750900EE78081201F9E508AFE2
:1005930008E58B5F605EEEF87900E875F002A4C8A9
:1005A300AAF075F000A42AFA75F002E9A42AF974F6
:1005B300AA28F582740339F583E0F8A3E0F9E84942
:1005C300602EEEF87900E875F002A4C8AAF075F081
:1005D30000A42AFA75F002E9A42AF974AA28F5827C
:1005E300740339F583E0F8A3E0F583888212020CE3
:1005F300EFF4528B0EEEC3940540867F0202031F75
:10060300C0E074F21202C0A2AFE433FEC2AFE5E968
:10061300A2E650209003B4E0F8A3E0F9E849600EA5
:100623009003B4E0F8A3E0F583888212020C759B73
:100633000053E9BFEEA2E092AF7F0102031FC0E0C7
:10064300C0D0E8C0E0E9C0E0C082C083E5C1C0E03B
:10065300900437E0F8790074B628F582740339F50D
:1006630083D0E0F0900436E0F8900437E068700639
:10067300E595900438F0900437E02401900437F0B6
:10068300C3948040069004377400F0D083D082D0A6
:10069300E0F9D0E0F8D0D0D0E032C0E0C0D0E8C07C
:1006A300E0C008C009C082C0839004B9E0F8900498
:1006B300BAE068700B539AFB9004BB7401F080316D
:1006C300C2E99004B9E0F508740125089004B9F073
:1006D30075090074392508F58274043509F583E03A
:1006E300F5C19004B9E0C3948040069004B9740046
:1006F300F0D083D082D009D008D0E0F8D0D0D0E0B9
:100703003274F712020E7E0A7F0312018A12014825
:100713007901EEFAEFFB12017E8E828F83E0C2E74E
:10072300F08E828F83E0640570528E828F83E0F9AE
:100733007A0B7B0312017E8E828F83A3E0A2E550A6
:1007430004D2F08002C2F0A2F0E4339004CAF0783D
:100753000E790388828983A3E0A2E7400302081687
:100763008E828F83A3A3A3E0F8900301E068600364
:100773000208169003027401F00208168E828F831A
:10078300E024F59004C7F08E828F83E0F97A0B7B27
:100793000312017E8E828F83A3E0A2E55004D2F080
:1007A3008002C2F0A2F0E4339004CAF08E828F83F9
:1007B300A3A3A3A3A3A3A3A3E0F8A3E0F99004C373
:1007C300E8F0A3E9F09004C87414F0A37403F09064
:1007D30004C7E0F83395E0F99004C8E028F8A3E0F3
:1007E30039F988828983E09004CBF088828983A3D6
:1007F300E0A2E750128E828F83A3E054DF6441703E
:10080300069004CC7401F08E828F83A3A3A3E0909F
:1008130004C2F012014E1201907F0102027A74F7B2
:1008230012020EEAFEEBFF120166E964017004791D
:1008330001806F12014E900308EEF0A3EFF09004D5
:10084300C87400F0A37400F09003037401F09004E3
:10085300CE1201E19003041201ED900308E0F8A326
:10086300E0F5838882A3A3A3A3E0F912016C9003AC
:1008730008E0F8A3E0F5838882E0FAA3E0FB120125
:1008830072900308E0F8A3E0F5838882A3A3E0FA5B
:10089300A3E0FB1201787A2A7B0112019612014828
:1008A30079007F0102027AC082C08390030374013E
:1008B300F0120184D083D0820200FB74F412020E82
:1008C3008A088B098C0A8D0B53F1FE43F30C53F208
:1008D300F375868075C480780812037700000000E2
:1008E3000C000000B0040000310960090000390960
:1008F300C01200004109802500004909403800006A
:100903005109004B000059098070000061090096ED
:100913000000690900E100007109002C0100790958
:1009230000C201008109008403008909910975C28D
:100933003B75C505805E75C23B75C506805675C29D
:100943003B75C507804E75C23B75C508804675C2A9
:10095300D875C508803E75C23B75C509803675C21A
:10096300D875C509802E75C23B75C50A802675C228
:10097300D875C50A801E75C23B75C50B801675C236
:10098300D875C50B800E75C2D875C50C800675C2A7
:100993003B75C50A75C402438640D2AA75C100904F
:1009A30004367400F09004377400F09004B97400B6
:1009B300F09004BA7400F09004387400F09004BB13
:1009C3007400F07F0402027AC082C083906189E0E0
:1009D3004460F090619074D5F09061FA7409F090DE
:1009E30061B27415F09061AE7400F0120190790059
:1009F300D083D0820200FBC082C08375F005E9A4D6
:100A030024D490618FF0D083D0820200FBC082C0D7
:100A130083EA906174F0E4EBFA906175F0D083D0CF
:100A2300820200FBC082C083EA906172F0E4EBFAB9
:100A3300906173F0D083D0820200FBC082C08380B8
:100A430011E5D98A828B83F08A828B83A3AA82AB36
:100A53008319E9C3940150E9D083D0820200FB7566
:100A6300E1EC75E1E30200FBC082C0839061A3E087
:100A7300C2E6F0539AFED083D0820200FBC082C04C
:100A8300839061A3E0D2E6F0439A01D083D082023F
:100A930000FBC082C083A2AFE433F8C2AF9003B4BB
:100AA300EAF0A3EBF0E8A2E092AFD083D082020099
:100AB300FBC082C0839004BE7411F0A37411F09044
:100AC30004C0740BF09004BC7422F0A37422F09061
:100AD30004C17401F07ABC7B04120130E964016043
:100AE300F4120136D083D0820200FB43FE0143FEA1
:100AF3000243FE0843FE1053FEFB5390E40200FB47
:100B0300C082C083A29240197A327B00120160A294
:100B130092400E8004D290C291A29250F8D291D208
:100B230090D083D0820200FB12013C1201A2120179
:100B3300A81201AE80FBC082C0837900120142D0AB
:100B430083D0820200FBEBC313FBEA13FAEAF8EB50
:100B5300F9E824FFFAE934FFFBE8496012000000DA
:100B63000000000000000000000000000080DE0222
:100B730000FB74F712020EEAFEEBFFEEF8EFF9E862
:100B830024FFFEE934FFFFE84960097AE87B03129A
:100B9300015A80E77F0102027AE5C65480F853BE0A
:100BA300FBE59DA2E550FAE59DA2E240F400740145
:100BB300697007744948F5C68005E9700288C6E57F
:100BC300C6F8E59EFAE86A70F943BE040200FBC06A
:100BD30082C0831201549004D21201E112019C12CB
:100BE3000148D083D0820200FBD2AF0200FBC2AF28
:030BF3000200FB02
:04000005000000E314
:00000001FF
