:020000040800F2
:100000001009002009010008D72500081301000885
:10001000D5250008990700084535000800000000B4
:100020000000000000000000000000001B010008AC
:100030009B070008000000001F010008A131000814
:100040002301000823010008230100082301000800
:1000500023010008230100089D070008E7070008A6
:10006000F707000807080008170800082301000820
:1000700023010008230100082301000823010008D0
:1000800023010008230100082301000823010008C0
:1000900023010008230100082301000827080008A5
:1000A00000000000230100082301000823010008CC
:1000B000653300087133000823010008230100089C
:1000C0002301000823010008230100082301000880
:1000D00023010008FD340008230100082301000863
:1000E000AD070008AD29000823010008230100081E
:1000F00023010008DFF80CD000F0B2FA00480047F6
:1001000009390008100900200648804706480047C2
:10011000FEE7FEE7FEE7FEE7FEE7FEE7FEE7FEE7B7
:10012000FEE7FEE715330008F500000840EA01038A
:100130009B0703D009E008C9121F08C0042AFAD29D
:1001400003E011F8013B00F8013B521EF9D2704761
:100150002DE9FE4F804681EA0300C00F0C46009057
:1001600021F0004123F00045B8EB0200A94105D27F
:100170004046214690461C460B46024623F000406E
:10018000104347D0270DC7F30A00C3F30A5102906A
:10019000401A019040286BDAC3F3130040F4801B2F
:1001A0000098924620B10023D2EB030A63EB0B0BBD
:1001B00001985946C0F14002504600F07FF90646CA
:1001C0000D4650465946019A00F097F910EB080089
:1001D0006141002487EA115284EAE7731A4340D050
:1001E000009A62B3019A012A4FEA075215DC001BFC
:1001F00061EB02014FF0004202EA0752CDE90042F2
:10020000001C41F5801132462B4600F097F903B0EF
:10021000BDE8F08F40462146F9E7001B61EB020183
:10022000001C41F5801300185B412018A2F500174F
:1002300047EB030140EAD570B6196D4111E06D0836
:100240004FEA360645EAC0754FEA0752001B61EBDC
:100250000201001C41F5801149084FEA30000019E5
:10026000514132462B4603B0BDE8F04F00F057B97C
:100270000098012240000023D0EB020263EBE07300
:10028000009821464FEAE074B8EB000061EB0401EE
:10029000E9E783F000435BE781F0004158E72DE98F
:1002A000FE4F81EA030404F0004421F00041009471
:1002B0004FF0000B23F0004350EA01045ED052EAF5
:1002C00003045BD0C3F30A54C1F30A552C44A4F2CF
:1002D000F3340194A0FB0254C1F3130141F48011E3
:1002E000C3F3130343F4801301FB024400FB034EEA
:1002F000840A970A44EA815447EA8357A4FB0768B3
:1003000002958D0A05FB07854FEA932C04FB0C54DC
:100310002705029D4FEA065847EA1637B5EB080550
:100320006EEB070C870E920E47EA811742EA8312A2
:10033000A7FB0201B6EB0B0164EB00042B0D43EAB3
:100340000C335E1844EB1C50DA465146E7FB0201C1
:10035000C5F313044FEA0B3343EA14534FEA043254
:10036000019C43EA0603A4F10C040294009CCDE92D
:1003700000B400F0E3F803B0BDE8F08F00200146C0
:10038000F9E70EB5C10F80EAE0700844CA07002102
:1003900040F233438DE80E000A460B4600F0CEF8DB
:1003A00003B000BD0EB540F2334102910021CDE90A
:1003B00000110A460B4600F0C1F803B000BD70B54D
:1003C000C1F30A5201F000450024C1F3130140F2C9
:1003D000FF3341F480119A4201DA002070BD40F2EF
:1003E00033439A42A2F2334203DC524200F075F8E2
:1003F00000E090402C43F1D0404270BDC1F30A525E
:1004000010B5C1F3130140F2FF3341F480119A4259
:1004100001DA002010BD40F233439A42A2F2334287
:1004200003DC524200F059F810BD904010BD0000AE
:1004300030B5041E71F1000404DB4FF0004440426B
:1004400064EB0101141E73F1000405DB1C464FF040
:100450000043524263EB04038B4208BF824230BD2B
:1004600030B5041E71F1000404DB4FF0004440423B
:1004700064EB0101141E73F1000405DB1C464FF010
:100480000043524263EB0403994208BF904230BDDF
:1004900030B50B46014600202022012409E021FA54
:1004A00002F59D4205D303FA02F5491B04FA02F551
:1004B0002844151EA2F10102F1DC30BD202A04DB24
:1004C000203A00FA02F1002070479140C2F1200367
:1004D00020FA03F3194390407047202A04DB203AA6
:1004E00021FA02F00021704721FA02F3D040C2F154
:1004F00020029140084319467047202A06DBCB179B
:10050000203A41FA02F043EAE07306E041FA02F3CE
:10051000D040C2F12002914008431946704710B5FF
:10052000141E73F1000408DA401C41F10001921816
:100530005B411A4301D120F0010010BD2DE9F04DBF
:1005400092469B4611B1B1FA81F202E0B0FA80F214
:1005500020329046FFF7B2FF04460F4640EA0A00F9
:1005600041EA0B0153465A46084313D0114653EA59
:10057000010019D0C8F140025046FFF7AEFF054612
:100580000E46504659464246FFF798FF084305D0AD
:10059000012004E020463946BDE8F08D00200543E7
:1005A00046EAE0762C4337430A986305E40AA0EB59
:1005B00008000022FD0A44EA47540A3002D5002010
:1005C0000146E9E7010510196941DDE9084500190F
:1005D0006941BDE8F04DA2E72DE9F041054621F063
:1005E00000400C46284309D0C4F30A5040F233417E
:1005F000884205DD28462146BDE8F0812846FBE714
:1006000040F2FE31884210DC0CDB4FEA043040EA55
:10061000155050EA053105D0104804F0004101435F
:100620000020E9E700200146E6E7A0F23340464219
:10063000C6F1400228462146FFF740FF074688469C
:10064000284621463246FFF748FF43463A46FFF721
:1006500066FF3246BDE8F041FFF730BF0000F03FD3
:10066000064C074D06E0E06840F0010394E80700FF
:1006700098471034AC42F6D3FFF740FDC44300085E
:10068000E443000810B5040001D002F047FC014823
:10069000C47010BD1000002072B602484178491C99
:1006A000417070470C00002004494878401E10F04B
:1006B000FF00487000D162B6704700000C000020B7
:1006C00030B51B4D85B02878A0B102F0BFFD00BF4A
:1006D0004FF0FF300090052306220721154802F055
:1006E000D7FC02F087FC2878002801D1012028706F
:1006F00005B030BD00F0B6FC02F05AFD02F0C6FBBA
:100700000024009401230322122102A8019400F086
:10071000F5F9009400230322082102A8019400F0B7
:10072000EDF900F091FA00F07FFA00F085FACFE7DA
:100730000C000020E80300201CB500240094234690
:10074000012203211348019400F0D8F911480094C4
:100750000023012218210C30019400F0CFF9012070
:10076000CDE900040B4800231A462D21183000F073
:10077000C5F90121074800F055FA064801210C305F
:1007800000F050FABDE81C4002480121183000F08A
:1007900049BA000054000020FEE7704710B502F08F
:1007A000BDFBBDE81040012000F072BB10B502F0A7
:1007B000B5FB4FF4806000F06BFB4FF4006000F07D
:1007C00067FB4FF4805000F063FB4FF4005000F0E3
:1007D0005FFB4FF4804000F05BFBBDE810404FF43E
:1007E000004000F055BB10B502F098FBBDE810408A
:1007F000022000F04DBB10B502F090FBBDE81040A8
:10080000042000F045BB10B502F088FBBDE81040A5
:10081000082000F03DBB10B502F080FBBDE81040A1
:10082000102000F035BB10B502F078FB202000F05E
:100830002FFB402000F02CFB802000F029FB4FF420
:10084000807000F025FBBDE810404FF4007000F010
:100850001FBB000070B506464CF250350C462846CA
:1008600000F022F9002824D11348016821F4807196
:1008700001602CB134702846BDE8704000F014B916
:1008800026F003052C68B007C10EFF208840844382
:100890002946022000F0ECF9084E00202246307470
:1008A0002946102000F00EFA317C012902D00121E6
:1008B000317470BD022070BD043C02407C020020F7
:1008C0002DE9F04104464CF250370E46384600F010
:1008D000EBF8050034D11D48016821F480710160F6
:1008E0002EB12680384600F0DFF8054628E0184E85
:1008F00000203074E043800713D024F003073D68E4
:10090000A007C10E4FF6FF7088408543394602208C
:1009100000F0AEF92A463946102000F0D3F905461A
:1009200009E000222146042000F0CCF90022611CDD
:10093000042000F0C7F9307C012804D00120307475
:100940002846BDE8F0810220FBE70000043C02409D
:100950007C02002070B505464CF250360C463046FD
:1009600000F0A2F800281FD12CB12C703046BDE851
:10097000704000F099B825F003063468A807C10E4E
:10098000FF20884084433146022000F071F9084D71
:100990000020224628743146102000F093F9297C6B
:1009A000012902D00121297470BD022070BD000010
:1009B0007C0200202DE9F04104464CF250370E46EF
:1009C000384600F071F805002FD12EB12680384648
:1009D00000F06AF8054628E0164E00203074E04327
:1009E000800713D024F003073D68A007C10E4FF61F
:1009F000FF70884085433946022000F039F92A46C5
:100A00003946102000F05EF9054609E00022214633
:100A1000042000F057F90022611C042000F052F974
:100A2000307C012804D0012030742846BDE8F081D4
:100A30000220FBE77C020020074900224A610749A7
:100A40000B6843F400730B600B6843F008030B6002
:100A500020F0FF00026070477C020020043C02404E
:100A60000F4A00211068C3050E4804D5416941F0C2
:100A700002014161911513689B0505D5436943F057
:100A80000103436141F4007113681B0505D54369F7
:100A900043F00403436141F40061116070470000BA
:100AA000183C02407C02002070B5054600F0CCFAEC
:100AB0000646114C09E0681C07D025B100F0C4FAC5
:100AC000801BA84201D9032070BD2068C007F2D165
:100AD0002068800701D5022020602068C00505D469
:100AE0002068000502D42068800503D5FFF7B8FF11
:100AF000012070BD002070BD183C02407CB5DDE9CE
:100B00000645CDE9004500F001F87CBDF0B587B0A1
:100B10000546DDE90C760170481C6AD001F00F042F
:100B2000012000FA04F46C80334C11F0F00F1FD058
:100B3000C1F30311012925D002292DD0032935D075
:100B40002E496960216841F020012160216801F08F
:100B50002001059169880091AF720221CDE90271EF
:100B600072B3032A2ED0022A2FD0012B35D035E0C4
:100B700023496960216841F001012160216801F089
:100B80000101E6E71F496960216841F00201216027
:100B9000216801F00201DCE71B496960216841F02E
:100BA00004012160216801F00401D2E7174969605E
:100BB000216841F008012160216801F00801C8E7BF
:100BC000002000E0032001900FE0012B02D00191F2
:100BD00004960AE012200190FAE711200190012A00
:100BE00003D13146284600F013F86946686800F0E2
:100BF0005BF907B0F0BD00001C3802400014024051
:100C0000000002400004024000080240000C0240C4
:100C100090F90020521C04D0CAB24188406800F00C
:100C20000EBA7047FFF7F4BF0248416841F0010176
:100C300041607047002004E00248416841F004012F
:100C400041607047002004E00248416841F0020121
:100C500041607047002004E031B500F0F5F904462A
:100C600000F0F2F90099001B8842F9D338BD00006A
:100C700070B505464CF250360C463046FFF714FF6F
:100C8000002811D109494861022D03D0012D03D05C
:100C900025B104E0206002E0208000E020703046B2
:100CA000BDE87040FFF700BF70BD00007C0200206F
:100CB0000348016841F00101016000207047000015
:100CC000043C02402DE9F047264E05461446307C90
:100CD0000F4601280AD0012030744CF250384046AB
:100CE000FFF7E2FE4FF0000918B138E00220BDE83E
:100CF000F087C6F81490042D09D0082D0CD0102DC3
:100D00000FD0022D18D0012D20D025B327E0E1B25D
:100D10003846FFF79FFD22E0A1B23846FFF7D0FD2D
:100D20001DE045464046FFF7BFFEC0B90E480168CA
:100D300021F48071016004E045464046FFF7B4FEAF
:100D400068B93C602846FFF7AFFE08E0A1B238461C
:100D5000FFF730FE03E0E1B23846FFF7FBFD86F80F
:100D60001090C4E77C020020043C02400648006862
:100D7000C00707D0044805490830016004490160F4
:100D80000020704701207047043C0240EFCDAB8942
:100D9000050403022DE9F0471C4E05460F46307C42
:100DA000012808D0012030744CF250384046FFF73B
:100DB0007BFE18B127E00220BDE8F0874FF0FF313D
:100DC0003960C146DFF848806C6816E02046FFF7BE
:100DD00033FE4846FFF768FED8F8002022F00802EC
:100DE000C8F80020D8F8002022F40072C8F80020CB
:100DF00008B13C6007E004F58074D5E9011201EB0D
:100E00000221A142E2D800213174D5E77C02002002
:100E1000043C02400348016841F0020101600020E7
:100E200070470000043C02400B480168890710D558
:100E30000068C00705D00848084908300160084923
:100E40000160054807490C30016007490160002036
:100E50007047012070470000043C0240EFCDAB8991
:100E600005040302BFAE9D8C16151413002118B99A
:100E700004E04008491CC9B20128FAD1034850F8DF
:100E80002100002800D000477047000084000020A7
:100E9000044910B50A68024202D00860FFF7E6FF75
:100EA00010BD0000140401402DE9F84FDFF864B1D3
:100EB00000234FF0010C4FF0030A4FF00F090BF124
:100EC000040EA0E00CFA03F6324072D04C68022CFB
:100ED00001D0122C0ED1DC0800EB8408D8F8204099
:100EE0005D07EF0E09FA07F5AC430D69BD402543D8
:100EF000C8F8205007685D0091F804800AFA05F4EC
:100F000008F00308A74308FA05F848EA0708C0F8FC
:100F100000804F68012F05D0022F03D0112F01D080
:100F2000122F11D18768D1F80C80A74308FA05F871
:100F300048EA0708C0F808804768B7430E79C6F347
:100F400000169E403E434660C668A6438C68AC408F
:100F50003443C4604C68E40054D52F4C256845F0F8
:100F600001052560246823F0030504F001040094C2
:100F70002A4C2544AF689C07240F09FA04F6B743AE
:100F8000274EB04201D1002615E0264EB04201D1D5
:100F9000012610E0244EB04201D102260BE0234E80
:100FA000B04201D1032606E0214EB04202D1042610
:100FB00001E027E00526A6403E43AE60DBF8004096
:100FC0005D464E689443F60300D514432C60DEF86A
:100FD000004075464E689443B60300D514432C6018
:100FE0000C4D08352C684E689443F60200D5144326
:100FF0002C60084D0C352C684E689443B60200D521
:1010000014432C605B1C0A6832FA03F47FF45AAF75
:10101000BDE8F88F00040140203802400000014084
:10102000000002400004024000080240000C0240A0
:10103000001002400069084000D0012070470AB14A
:10104000816170470904FBE70148006870470000B0
:101050003400002002480168491C0160704700000C
:101060003400002010B5032000F048F8002000F004
:1010700005F800F017F8002010BD000010B5044678
:1010800007484FF47A710068B0FBF1F001F074F991
:1010900000222146501E00F011F8002010BD000073
:1010A00030000020704700F01F02012191404009EC
:1010B000800000F1E020C0F800117047F0B40E4B42
:1010C0001B680C46C3F30223C3F10705042D00D9A6
:1010D0000425191D072901D2002300E0DB1E01268B
:1010E00006FA05F1491E214099409E40761E1640A1
:1010F0003143F0BC01F070BA0CED00E0064900F09D
:10110000070208684FF6FF03184040EA0220034A2E
:1011100010430860704700000CED00E00000FA0585
:101120000248006800F4C0507047000000700040A2
:101130002DE9F84F06460078C00775D0DFF84C81DE
:101140000027D8F80000C0000BD4D8F8001041F0F8
:101150008051C8F80010D8F80000012700F0805036
:1011600000904B4C2068C00510D4206840F480707B
:101170002060FFF769FF054605E000BFFFF764FF49
:10118000401B64284ED82068C005F7D53F4D243D4C
:10119000286800F0C041706800F0C0428A4209D05F
:1011A000C0F30141032905D12968890302D5012033
:1011B000BDE8F88F354C1034216811F440314AD025
:1011C00000F44030884246D03078C00743D02068D1
:1011D0004FF4000292FAA2F1B1FA81F14FEA810CC8
:1011E0002C494FF0010A8C4420F44030CCF880A602
:1011F00092FAA2F2B2FA82F201EB82010023C1F864
:1012000080362060C00526D5FFF71EFF81464FF4CB
:10121000007B0AE0FFF718FFA0EB090141F28830DC
:10122000814202D90320C3E72EE09BFAABF0B0FA6B
:1012300080F040F04001BAEB511F01D1296800E075
:1012400021689BFAABF2B2FA82F202F01F020AFAAC
:1012500002F00142DED07068C0F30141032906D1DB
:10126000296800F0C04021F0C04101432960206896
:10127000716801F44031084320602FB1D8F80010A4
:1012800021F08051C8F80010002091E72438024076
:1012900000700040000047422DE9F047DFF8BC81B4
:1012A00005460E46D8F8000000F00100B04214D206
:1012B000012E05D1D8F8001041F00401C8F8001043
:1012C000D8F8001021F001013143C8F80010D8F817
:1012D000000000F00100B04271D12878604C800716
:1012E00005D52068A96820F0F00008432060287820
:1012F000C00771D05A4A5A4B69680120083A2C330A
:10130000022910D003292ED001292FD05FEA4027CF
:1013100097FAA7FCBCFA8CFC4CF0200C5FEA5C1C32
:1013200004D0126803E04FF40037F1E71A6897FA27
:10133000A7F3B3FA83F303F01F039840024262D08D
:10134000206820F0030008432060FFF77DFE6968F5
:10135000074641F28830022910D003291CD0012908
:10136000814626D034E04FF00077D1E70227CFE75F
:10137000FFF76AFEC11B494501D926E08146206876
:10138000C0F381000228F3D126E000BFFFF75CFE26
:10139000C11B494501D918E081462068C0F381008E
:1013A0000328F3D118E000BFFFF74EFEC11B4945EB
:1013B0000BD82068C0F381000128F5D10CE022E0B1
:1013C000FFF742FEC11B494502D90320BDE8F08763
:1013D000206810F00C0FF3D1D8F80010404601F04F
:1013E0000101B14211D9012E03D1016841F004017C
:1013F0000160016821F0010131430160006800F0E3
:101400000100B04201D00120E0E72878400705D56F
:101410002068E96820F4E06008432060287800072D
:1014200006D52068296920F4605040EAC100206098
:1014300000F022F82168F02292FAA2F201F0F00105
:10144000B2FA82F2D140074A515CC84006490860AE
:101450000020FFF713FE0020B8E70000003C024028
:1014600008380240813B0008300000200148006835
:1014700070470000300000201E4A116801F00C0087
:10148000042813D0082813D00C2813D0101F00688C
:1014900000F460414FF4604090FAA0F0B0FA80F0A0
:1014A000C1404FF40040491C8840704712487047C3
:1014B000124870474FF4701393FAA3F301F47010BD
:1014C000B3FA83F3D8400E4B01F440011268185C64
:1014D0004FF4400393FAA3F3B3FA83F3D940491CC2
:1014E000D20301D5054A00E0034A5043B0FBF1F0B6
:1014F00070470000083802400024F40000127A000F
:10150000783B00082DE9F84F07460078FB4EFC4D6C
:10151000C0074FF0010428D0F848083001684FF4A4
:101520000038C1F38101022907D00168C1F38101AC
:1015300003291BD10068C00318D598FAA8F0B0FAA7
:1015400080F040F02000400901D0306800E02868B9
:1015500098FAA8F1B1FA81F101F01F0104FA01F142
:1015600008425CD0786800287BD058E07868012871
:101570000AD008B1052811D0306820F480303060DE
:10158000306820F4802002E0306840F48030306021
:10159000786828B3FFF758FD81460BE0306840F4C7
:1015A00080203060F0E700BFFFF74EFDA0EB0900A0
:1015B000642872D898FAA8F0B0FA80F040F02000C1
:1015C000400901D0306800E0286898FAA8F1B1FA23
:1015D00081F101F01F0104FA01F10842E4D01EE09C
:1015E000FFF732FD814605E0FFF72EFDA0EB090075
:1015F0006428DED898FAA8F0B0FA80F040F0200015
:10160000400901D0306800E0286898FAA8F1B1FAE2
:1016100081F101F01F0104FA01F10842E4D13878A8
:10162000DFF8E08280074FF0000B4FF002095FD532
:10163000B24808300168C1F38101012907D001686F
:10164000C1F3810103291CD10068C00319D499FAA0
:10165000A9F0B0FA80F040F02000400902D03068D4
:1016600001E086E0286899FAA9F1B1FA81F101F068
:101670001F0104FA01F108422BD0F868012878D143
:1016800027E0F868A8B394FAA4F0B0FA80F048F81C
:101690002040FFF7D9FC824606E066E1FFF7D4FC64
:1016A000A0EB0A00022884D899FAA9F1B1FA81F1D5
:1016B00041F02001490901D0316800E0296899FA18
:1016C000A9F0B0FA80F000F01F0004FA00F0014227
:1016D000E4D08A48001D01684FF4F85393FAA3F34D
:1016E0003A69B3FA83F321F4F8519A401143016047
:1016F00025E0FFE794FAA4F1B1FA81F148F821B0AE
:10170000FFF7A2FC824605E0FFF79EFCA0EB0A0073
:101710000228C8D899FAA9F0B0FA80F040F0200069
:10172000400901D0306800E0286899FAA9F1B1FABF
:1017300081F101F01F0104FA01F10842E4D1387887
:101740004FF4007AC0067CD56C480830006810F071
:101750000C0F0FD0B9694FF48070002972D090FA45
:10176000A0F0B0FA80F048F82040FFF76DFC009040
:101770007EE087E09AFAAAF0B0FA80F040F020000C
:10178000400901D0306800E028689AFAAAF1B1FA5D
:1017900081F101F01F0104FA01F1084202D0B86999
:1017A00000286FD05548396A001D006800F4604079
:1017B00081421AD9084601F0BDF8002862D14F488D
:1017C000001D01683A6A21F460411143016001681B
:1017D0004FF07F4393FAA3F3FA69B3FA83F321F04E
:1017E0007F419A401143016018E04448001D02689F
:1017F00022F460420A43026001684FF07F4393FA8B
:10180000A3F3FA69B3FA83F321F07F419A401143BD
:101810000160386A01F08EF80028CFD14FF46041A2
:1018200091FAA1F1386AB1FA81F1C8404FF4004150
:10183000401C8140314808300068F02200F0F00080
:1018400001E070E040E092FAA2F2B2FA82F2D040F7
:101850002D4A105CC1402D4801600020FFF70EFCAE
:1018600061E000BFFFF7F0FB0099401A02287CD826
:101870009AFAAAF0B0FA80F040F02000400902D0B5
:10188000306801E0BCE128689AFAAAF1B1FA81F166
:1018900001F01F0104FA01F10842E3D01748001DCE
:1018A00001683A6A21F460411143016001684FF018
:1018B0007F4393FAA3F3FA69B3FA83F321F07F41EC
:1018C0009A40114301602EE090FAA0F0B0FA80F047
:1018D00048F820B0FFF7B8FB009005E0FFF7B4FB35
:1018E0000099401A0228C2D89AFAAAF0B0FA80F0F9
:1018F00040F0200040090BD030680AE00038024078
:101900003438024000004742813B0008300000208C
:1019100028689AFAAAF1B1FA81F101F01F0104FADC
:1019200001F10842DAD13878000753D5786948B315
:1019300094FAA4F0B0FA80F008EB8000C0F880467A
:10194000FFF782FB009005E0FFF77EFB0099401A4D
:1019500002288CD899FAA9F0B0FA80F040F0400043
:10196000B4EB501F02D1306801E08EE0286899FA8C
:10197000A9F1B1FA81F101F01F0104FA01F210425C
:10198000E2D027E094FAA4F1B1FA81F108EB8101E9
:10199000C1F880B6FFF758FB009005E0FFF754FB55
:1019A0000099401A022870D899FAA9F0B0FA80F08C
:1019B00040F04000B4EB501F01D1306800E02868CF
:1019C00099FAA9F1B1FA81F101F01F0104FA01F2CB
:1019D0001042E3D1387840077BD59B484FF000098F
:1019E0000068C0000AD49848016841F08051016045
:1019F00000684FF0010900F08050009093480168A2
:101A0000C90511D4016841F480710160FFF71CFB26
:101A1000009005E0FFF718FB0099401A642834D8BD
:101A20008A480068C005F5D5B86801280AD008B111
:101A3000052811D0286820F480702860286820F4D8
:101A4000806002E0286840F480702860B86848B37D
:101A5000FFF7FAFA00900DE0286840F480602860F3
:101A6000F0E700BFFFF7F0FA0099411A41F2883021
:101A700081420AD89AFAAAF0B0FA80F040F0400009
:101A8000B4EB501F02D1306801E095E028689AFA63
:101A9000AAF1B1FA81F101F01F0104FA01F210423A
:101AA000E0D022E0FFF7D0FA009007E0FFF7CCFA91
:101AB0000099411A41F2883081427DD89AFAAAF001
:101AC000B0FA80F040F04000B4EB501F02D1306813
:101AD00001E012E028689AFAAAF1B1FA81F101F066
:101AE0001F0104FA01F21042E0D1B9F1000F04D055
:101AF0005548016821F080510160786AE8B3DFF849
:101B00004891A9F11C09D9F80010C1F381010329FA
:101B100076D002284FF080714FF0007A58460BD0F3
:101B200091FAA1F1B1FA81F148F82100FFF78CFA9E
:101B3000B046074656466DE04FF0807191FAA1F12C
:101B4000B1FA81F18A0042495050FFF77DFAB3465D
:101B50008046564606E000BFFFF776FAA0EB080085
:101B6000022854D896FAA6F0B0FA80F040F020008F
:101B7000400903D0DBF8000001E061E0286896FA34
:101B8000A6F1B1FA81F101F01F0104FA01F1084256
:101B9000E2D1D7E90A103A6BD9F80030014323F4B7
:101BA0007D031A431143C9F800104FF0807090FA7A
:101BB000A0F0B0FA80F000E029E0810024480C5049
:101BC000FFF742FA074604E0FFF73EFAC01B02287F
:101BD0001DD896FAA6F0B0FA80F040F02000400937
:101BE00002D0DBF8000000E0286896FAA6F1B1FA0E
:101BF00081F101F01F0104FA01F10842E4D01FE075
:101C000020E000BFFFF720FAC01B022802D9032002
:101C1000BDE8F88F96FAA6F0B0FA80F040F0200008
:101C2000400902D0D8F8000000E0286896FAA6F132
:101C3000B1FA81F101F01F0104FA01F10842E1D18A
:101C40000020E5E70120E3E724380240007000406F
:101C50000000474270472DE9F0470446007F012805
:101C60001CD001262677022060772168CA204862AE
:101C70002168532048622068816821F48061816076
:101C80002068816821F480418160FFF7DDF9054615
:101C900000274FF0FF084FF47A790EE00220BDE8EC
:101CA000F087FFF7D1F9401B484506D92168C1F8F4
:101CB0002480032060772777F1E72068C068400719
:101CC000EFD52168C1F82480667727770020E6E702
:101CD0007047000010B5044600688168C9040CD53F
:101CE000C068C00509D52046FFF7F2FF2068C1682B
:101CF00001F0800161F4C071C160206881688904CD
:101D00000CD5C068800509D52046FFF7A3FF2068E1
:101D1000C16801F0800161F42071C16003494FF492
:101D2000003008600120607710BD000014040140FD
:101D30002DE9F0470446007F012822D04FF001082A
:101D400084F81C80022060772268CA2050622268D2
:101D50005320506220680025FF26B1F5807F8168FE
:101D60004FF0030A4FF47A790ED021F400718160AC
:101D70002068816821F400518160FFF765F907460A
:101D800024E00220BDE8F08721F4807181602068A2
:101D9000816821F480518160FFF756F9074604E01D
:101DA000FFF752F9C01B484509D82068C068C00732
:101DB000F6D00FE0FFF748F9C01B484506D9206868
:101DC000466284F81DA025770320DBE72068C06801
:101DD0008007EFD52068466284F81D8025770020B3
:101DE000D0E710B50C464FF480718A4203D1A1614F
:101DF0000068C16904E04FF40071A1610068016AE4
:101E0000C1F305402070C1F30622627001F07F0229
:101E1000A270402202EA1142E270C1F3056222750B
:101E200001F0804201F08031C4E9031273B900F07F
:101E3000D3FD2070607800F0CFFD6070A07800F0D6
:101E4000CBFDA070207D00F0C7FD2075002010BDE7
:101E500010B500680B4641680D480140080CD87069
:101E6000C1F304245C7001F03F049C70C1F3423163
:101E7000197052B900F0B0FDD870587800F0ACFD80
:101E80005870987800F0A8FD9870002010BD0000F0
:101E90003FFFFF0010B500680C4601680E48014086
:101EA000C1F305402070C1F30623637001F07F0386
:101EB000A370402303EA1141E17052B900F08CFD98
:101EC0002070607800F088FD6070A07800F084FDDC
:101ED000A070002010BD00007F7F7F0070B504005F
:101EE00002D0607F10B106E0012070BD0020207795
:101EF000204600F041F8022060772168CA2048623D
:101F0000216853204862204600F07AFDFF21002816
:101F1000206803D0416204206077E5E78268154BB2
:101F20001A4082602268906863681843D4E90435D7
:101F30002B43184390602268E068106120680269B2
:101F4000238942EA034202612068C26822F08002CB
:101F5000C2602068026C22F4802202642068026C55
:101F6000A3691A430264206841620120607700205F
:101F700070BD0000BFFF8FFF704700002DE9F05FCC
:101F80000446007F0D46012844D04FF0010B84F831
:101F90001CB0022060772068002780684FEA40600C
:101FA000BAB3002852DA287800F016FD287D00F038
:101FB00013FDA8782978EA7840EA01406978090297
:101FC00041EA02410843297D40EA01662869216807
:101FD0000643E8680643CA204862216853204862E5
:101FE000A869FF25B0F5807F20684FF0030A4FF401
:101FF0007A7981682CD021F4007181602068C168F1
:1020000001F0800161F42071C160FFF71DF8804686
:102010004FE002E00220BDE8F09F002800DBEF70F7
:10202000287800F0E2FC0604687800F0DEFC46EA5E
:102030000026A87800F0D9FC0643E87846EA004676
:10204000287D00F0D2FC46EA0066BFE7EF70ADE7FE
:1020500021F4807181602068C16801F0800161F421
:10206000C071C160FEF7F0FF804605E0FEF7ECFFAF
:10207000A0EB0800484515D82068C068C007F5D017
:102080002068C6612068816841F4807181602068A1
:10209000816841F480511BE0FEF7D6FFA0EB0800F9
:1020A000484506D92068456284F81DA0277703209B
:1020B000B1E72068C0688007EED520680662206816
:1020C000816841F4007181602068816841F40051A9
:1020D00081600948016841F4003101600648083018
:1020E000016841F4003101602068456284F81DB048
:1020F000277700208FE70000000401402DE9F0471A
:102100000446007F0B46012825D04FF0010984F8D2
:102110001C9002206077587802B300F05DFC98783C
:1021200000F05AFC9878D97840EA01455878197837
:10213000000240EA413005432168CA204862216814
:1021400053204862204600F05BFC0026FF274FF03A
:10215000040838BB19E00220BDE8F087C10603D5AA
:1021600000F0EF000A305870D87800F03EFC02040E
:10217000587800F03AFC42EA0022987800F035FCEA
:102180000243187842EA4035D6E70D4805402068FA
:1021900045602068C16821F08001C160204600F0E0
:1021A00085F830B12068476284F81D8026770120C9
:1021B000D2E72068476284F81D9026770020CBE79D
:1021C0003FFFFF002DE9F0470446007F0D46012840
:1021D00011D04FF0010A84F81CA00220607720681B
:1021E000002680684FEA406042B100281ADA287859
:1021F00000F0F2FB17E00220BDE8F087002800DBCA
:10220000EE70287800F0F1FB0204687800F0EDFB36
:1022100042EA0022A87800F0E8FB0243E87842EAAC
:1022200000470AE0EE70A878297840EA014768780C
:10223000E978000240EA014007432168CA20486269
:10224000216853204862204600F0DAFB4FF0FF0877
:102250004FF00409C0B9144807402068076020689F
:10226000816821F480218160D5E90101084321685A
:102270008A68104388602068C16821F08001C160CD
:10228000204600F013F838B12168C1F8248084F8A2
:102290001D9026770120AFE72168C1F8248084F8DB
:1022A0001DA026770020A7E77F7F7F0070B504463A
:1022B0000068C16821F0A001C160FEF7C5FE0546B7
:1022C0004FF47A7607E000BFFEF7BEFE401BB04237
:1022D00001D9032070BD2068C0688006F4D50020B5
:1022E00070BD70B5040004D094F85100002510B101
:1022F00006E0012070BD84F85050204600F02EF812
:10230000022084F851002068016821F0400101603A
:10231000D4E901010843D4E9031211430843616978
:102320000843218B01F400710843E1690843216AE5
:102330000843A16A084321680860A069042101EAF2
:102340001040616A0843216848602168E06A0861BA
:102350006565012084F85100002070BD70474FF082
:10236000E0210428086903D020F0040008617047C8
:1023700040F00400FAE7704710B5401EB0F1807FCE
:1023800001D3012010BD4FF0E02460610F216017E0
:1023900000F022F90020A06107202061002010BD7C
:1023A00010B5FFF7E8FF10BD10B5040003D094F896
:1023B000350010B107E0012010BD002084F8340082
:1023C000204600F00DF8022084F83500211D206819
:1023D00000F0D4FF012084F83500002010BD00007B
:1023E00008B501681448B1F1804F14D0134A9142E6
:1023F00020D1016841F0020101600068012200F073
:102400000200009003211D20FEF758FE1D20BDE8AC
:102410000840FEF748BE016841F001010160006814
:10242000002200F00100009003211C20FEF746FE70
:102430001C20ECE708BD00002438024000040040E6
:102440000168CA6842F00102CA600068016841F090
:102450000101016000207047704770B504460068B4
:1024600001694FF00005C943890715D4C168C94304
:10247000890711D4E91E0161012020752068806957
:102480008007204602D0FFF7E7FF04E000F078F86D
:10249000204600F076F8257520680169C943490790
:1024A00017D4C168C943490713D46FF0040101610F
:1024B000022020752068806910F4407F204602D0F9
:1024C000FFF7CAFF04E000F05BF8204600F059F87F
:1024D000257520680169C943090716D4C168C94335
:1024E000090712D46FF008010161042020752068EB
:1024F000C0698007204602D0FFF7AEFF04E000F07D
:102500003FF8204600F03DF8257520680169C94371
:10251000C90617D4C168C943C90613D46FF01001A6
:102520000161082020752068C06910F4407F2046B2
:1025300002D0FFF791FF04E000F022F8204600F0FF
:1025400020F8257520680169C943C90708D1C16809
:10255000C943C90704D1891E0161204600F012F861
:1025600020680169C943490609D4C168C9434906BD
:1025700005D46FF040010161204600F017F870BDEE
:102580007047704701680748B1F1804F06D0064A8E
:10259000914205D14068002802D000470068FAE760
:1025A0007047000020000020000400407047000039
:1025B00010B5FEF785F8FEF7BFF801F083F904487F
:1025C00001F0C8FABDE81040012000F00DBF000086
:1025D00071340008FEE770470907090E002806DA83
:1025E00000F00F0000F1E02080F8141D704700F1AA
:1025F000E02080F80014704770B5002404F1B000AA
:10260000C0B2002100F060F90021022000F05CF966
:102610000021102000F058F900250121002000F0D1
:1026200053F96D1CEDB2802DF7D3641CE4B2082C75
:10263000E4D370BDA62000F001B800007CB50124F1
:1026400005460094002322461C214D480194FEF7C4
:1026500055FA4B480094002301221E210C300194AE
:10266000FEF74CFA46480094002301221D21183041
:102670000194FEF743FA42480094002301221F21EF
:1026800024300194FEF73AFA0021AE2000F01CF944
:102690000021022000F018F90021102000F014F9A8
:1026A0000021402000F010F90021812000F00CF9F9
:1026B0000021CF2000F008F90021A12000F004F94A
:1026C0000021C82000F000F90021A62000F0FCF84D
:1026D0000021A82000F0F8F800213F2000F0F4F8D5
:1026E0000021D32000F0F0F80021084600F0ECF8BB
:1026F0000021D52000F0E8F80021802000F0E4F867
:102700000021D92000F0E0F80021F12000F0DCF8F1
:102710000021DA2000F0D8F80021122000F0D4F8CF
:102720000021DB2000F0D0F80021402000F0CCF8A0
:102730000021202000F0C8F80021022000F0C4F899
:1027400000218D2000F0C0F80021142000F0BCF81A
:102750000021A42000F0B8F80021284600F0B4F8C9
:102760000021AF2000F0B0F80021AF2000F0ACF85D
:10277000FFF742FFBDE87C400021084600F002B8A8
:102780009402002010B50446B031C8B2002100F018
:102790009BF8102040EA1410002100F095F804F096
:1027A0000F00BDE8104040F00100002100F08CB89F
:1027B0002DE9F04115460E460746FFF7E3FF0F48A7
:1027C000002400EB85150121285D00F07DF8641CD4
:1027D000E4B2102CF7D3761CF1B23846FFF7D2FFE3
:1027E00000242819012190F8200000F06DF8641CE5
:1027F000E4B2102CF5D3BDE8F0810000814100085F
:102800002DE9F041203A00240D468046D7B27F28BA
:1028100003D900208D1C8046EDB22946FFF7B2FF98
:102820000F4E00BF04EB07100121305C00F04CF8A4
:10283000641CE4B2082CF5D36D1CE9B24046FFF7E6
:10284000A1FF002404EB071030440121007A00F0BE
:102850003BF8641CE4B2082CF4D3BDE8F08100001E
:10286000913B00082DE9F0478046002608981D4658
:1028700091468A463446470821E0281B401EC1B2D3
:102880000A2001F095F8B9FBF0F00A21B0FBF1F253
:1028900001FB120026B9691E8C4201DA30B1012613
:1028A0003030C2B207FB0480C0B203E007FB0480F3
:1028B000C0B220225146FFF7A3FF641CE4B2AC4231
:1028C000DBD3BDE8F087000070B5054601B10121FA
:1028D0001648FEF7A7F9154800210C38FEF7A2F9B3
:1028E0000024124800210C30FEF79CF9280601D57F
:1028F000012100E000210D481830FEF793F90B4844
:1029000001210C30FEF78EF96806641C050EE4B256
:10291000082CE6D3054801210C38FEF783F9BDE801
:10292000704001210148FEF77DB90000A00200209F
:1029300000687047F8B507461A48002600681A4D27
:1029400010F0F00F20D1174C1C342068C00002D5C5
:10295000FEF7E6FB0DE0206840F080502060206824
:1029600000F080500090FEF7DBFB216821F08051E1
:102970002160B0F5C05F07D1B7F5404F04D128689A
:10298000012640F004002860286820F00100304350
:102990002860286800F00100B04201D00120F8BD95
:1029A0000020F8BD08380240003C024010B509483C
:1029B000FFF790F94FF480710648FFF7B9F900F07E
:1029C000ADFA00F02BF90020FDF75CFEBDE81040E9
:1029D00000F050BDC4000020010901EB810100F0AE
:1029E0000F0000EB4100C0B27047002102E00A383E
:1029F000C0B2491C0A28FAD2090740EA11607047A0
:102A000070B504460068C168490614D44FF0FF3120
:102A1000C160FEF719FB05464FF47A7607E000BF68
:102A2000FEF712FB401BB04201D9032070BD2068A5
:102A3000C0684006F4D5002070BD00000FB4142219
:102A40002DE9F04F87B00C4612A96846FDF76EFBE2
:102A50009DF85200059067489DF851809DF8507090
:102A60009DF84C60844201D214B102E0044600E0BB
:102A700001242046FDF796FC5F4A604BFDF70FFCF2
:102A80008A46814600F0AEFF04460D464A4653464C
:102A9000FDF7FFFB00225A4BFDF701FCDFF864A1B4
:102AA00081468B46DAF80C00FDF76BFC4A465B4624
:102AB000FDF74EFBFDF783FCDFF84C91DFF84CB1DE
:102AC000CAF80C00B0F5F47F16DBA0F5F470CAF874
:102AD0000C0000224E4B20462946FDF739FB0446E8
:102AE0000D4609E000224B4620462946FDF7D1FB62
:102AF000761C04460D46B6B200224B4620462946B7
:102B0000FDF7AEFCEED9D94600224B4620462946B9
:102B1000FDF7A6FC17D800224B4620462946FDF7B4
:102B2000B8FB7F1C04460D46BFB2EDE700224B46C2
:102B300020462946FDF7ADFB044608F101000D468D
:102B40001FFA80F801E0DFF8CC9000224B462046C7
:102B50002946FDF785FCE9D90598FDF723FC2246B7
:102B60002B46FDF7F5FAFDF749FC80B205E03C384D
:102B700008F1010180B21FFA81F83C28F7D205E084
:102B8000A8F13C017F1C1FFA81F8BFB2B8F13C0FDD
:102B9000F6D203E0183F761CBFB2B6B2182FF9D2B6
:102BA0009DF84D1009B39AF80620114489071CD0EE
:102BB0009DF84B201849491E515CB14203D2B6FB27
:102BC000F1F201FB12668DF80A008DF809808DF88C
:102BD00004608DF80870142269461098FDF7A6FA73
:102BE00007B0BDE8F00F5DF814FB0B499DF84B20D2
:102BF0000C31E0E742061200FCA9F1D24D62004020
:102C000000408F40100000200018F5400020AC402C
:102C10000000F03F00004E40603B000810B5224C21
:102C200092B0607900283CD10DA800F0F1F8142290
:102C30000DA901A8FDF77AFA00234FF4807206A9C6
:102C40001A48FFF7CEF89DF81900C0EB001081007C
:102C50009DF81800C0EB4012C2EB002001EB001001
:102C60009DF81A1008449DF80D10C1EB01118A005F
:102C70009DF80C10C1EB4113C3EB012102EB0111D4
:102C80009DF80E201144081AFDF78CFB0022084B1A
:102C9000FDF705FB00F07CFDFDF7B0FBA060012017
:102CA000607112B010BD000010000020C4000020B0
:102CB0000040DF3F2DE9F04700248AB0254680B16F
:102CC000142201466846FDF731FA9DF80510BDF85B
:102CD00000000026DFF8F490DFF8F4A088460F1813
:102CE00012E005A800F094F8142205A9EAE7CEB195
:102CF000B00717D00022534620462946FDF728FA90
:102D0000761C04460D4636B2B742F0DCB8F1000F2F
:102D10000BD0B80709D09DF803700026DFF8B48007
:102D20007F1E2BE000224B46E6E7DFF8A8809DF8E7
:102D30000370002608F10C087F1E0DE018F806004D
:102D400025494843FDF72EFB22462B46FDF700FAA6
:102D5000761C04460D46F6B2B742EFDC10E000BF29
:102D600018F806001C494843FDF71CFB22462B4679
:102D7000FDF7EEF9761C04460D46F6B2B742EFDCDD
:102D80009DF809109DF80A00C1EB011100EB8102CA
:102D90009DF808004FF4616148439DF8041040F22B
:102DA000A323594300EBC1101044FDF7FBFA224660
:102DB0002B46FDF7CDF90022084BFDF770FA00F025
:102DC00011FE0AB0BDE8F047FDF718BB50287E4160
:102DD00038137E41603B0008805101000040DF3F16
:102DE0000A498B680022984204D94B7813B14A7083
:102DF0008B68C01A8B68984202D9322801D28A7037
:102E0000704701228A708968401A704710000020BC
:102E100010B586B004460022114802A9FFF73AF81F
:102E200000220F480DF10201FFF712F80D499DF83D
:102E30000530CA88ADF80020632B03D0087840B174
:102E40001BB106E00120087003E000200870643226
:102E5000CA80142269462046FDF768F906B010BD05
:102E6000C40000201000002010B50020FFF722FF52
:102E700004460548FFF71EFF844202D2C0432044A7
:102E800010BD201A10BD0000E400002070B51F4ED8
:102E900086B03079002837D10125A80590FAA0F036
:102EA0001B49B0FA80F001EB8000C0F880561A4848
:102EB00018490024C0E9001403218160C0E903140B
:102EC00044618461FFF70AF88DF8035006208DF8FD
:102ED00005408DF802008DF8045000220E480DF1D7
:102EE0000201FFF70BF90294039400220A4802A999
:102EF0000494FFF767F9002204212920FEF7DEF889
:102F00002920FEF7D0F8357106B070BD1000002002
:102F10000000474200280040C40000200C484168DF
:102F2000C943C9070ED00B49012048700A480168FF
:102F3000C1F38101012903D0006810F00C0F06D104
:102F4000FDF7BEBB016841F004010160EEE7704788
:102F5000007000401000002008380240AFF30080ED
:102F600030B505464FF4807499B021462048FEF7ED
:102F7000DFFE1F48FEF76FFE14A8FFF749FF14227B
:102F800014A908A8FDF7D2F81948142208A920307E
:102F9000FDF7CCF80AAB93E807008DE80700DDE900
:102FA0000823294614A8FFF749FD142214A903A8F1
:102FB000FDF7BCF80020119010908DF837009DF8B7
:102FC00016008DF836009DF815008DF835009DF837
:102FD000140013948DF834009DF810008DF848000B
:102FE00000220DA90248FEF7C9FF19B030BD00004C
:102FF000C40000207CB50124009400232246042153
:103000000B480194FDF77AFD002509482B462A4616
:103010001B219438CDE90045FDF770FD04480023DD
:103020001A461A218838CDE90045FDF767FD7CBDB9
:103030006404002030B50024039D846061B14FF426
:103040000061C160046207214462C0E90A41C0E92D
:1030500004231DB1446030BDC460F3E74FF48271B6
:10306000416030BD094B00221B6803E05B08521C25
:10307000072A01D28B42F9D8302101EAC201D207D6
:1030800000D008221143C1617047000030000020C9
:103090002DE9FF4F83B08B460446109FFDF7FCFAE5
:1030A0000525022604F1580004F1640904F17008B2
:1030B00004F17C0ABBF1070F03D0BBF11F0F2ED028
:1030C00021E033490A6842F480520A600A6822F417
:1030D00080520A602E490C310A6842F480520A601C
:1030E000096801F4805100912A492DE04FF40070E5
:1030F000A0610020009000E0009600231A461946C7
:103100002046FFF797FF24492046FFF7ABFF2046F4
:10311000FFF7E7F807B0BDE8F04FFDF7C5BA1C4967
:10312000091D0A6842F480420A600A6822F480425B
:103130000A60174910310A6842F480420A6009683F
:1031400001F48041009115492160CDE9006500231B
:1031500002225946FDF7D2FCCDE900650023022288
:1031600048460599FDF7CAFCCDE900650023022217
:1031700040460699FDF7C2FC0126CDE90065002313
:10318000022239465046FDF7B9FC7F1CB4D1ADE7A9
:10319000143802400030014080969800003800400A
:1031A00010B5FDF757FFBDE81040FFF7F9B8000074
:1031B00030B5244895B0016841F080510160006845
:1031C00000F0805014902048016821F4C05141F46F
:1031D0000061016001240520CDE900040220C5033F
:1031E0000294CDE909054FF440200B90A0050C9006
:1031F0006846FEF787F90F200D9003200E900020FF
:103200000F901090119001210DA8FEF745F812A81B
:10321000CDE91245FDF78CFFFEF728F94FF47A71DE
:10322000B0FBF1F0FFF7A8F80420FFF798F80320AF
:10323000FDF764FF00221146501EFDF73FFF15B059
:1032400030BD0000243802400070004038B52E48E0
:10325000016841F080510160006800F080500090EA
:103260002A48016821F4C05141F4006101602649F7
:103270002439086840F480300860234C4FF4003251
:103280001034012092FAA2F3B3FA83F343F020033F
:103290005B0901D00B6800E0236892FAA2F5B5FA49
:1032A00085F505F01F0500FA05F52B42EAD04FF031
:1032B000807292FAA2F2164BB2FA82F243F822001E
:1032C0004FF0007393FAA3F2B2FA82F242F02002B6
:1032D000520901D00A6800E0226893FAA3F5B5FA12
:1032E00085F505F01F0500FA05F52A42EAD00648E3
:1032F0001C38016841F0030101600168C1F38101DC
:103300000329FAD138BD0000243802400070004083
:10331000000047420F48016841F4807101600D4987
:1033200008310A680C4B1A400A6002680B4B1A40BD
:103330000260026822F480220260086820F47D00A6
:1033400008600020091D086005494FF00060086012
:1033500070470000003802400CC0FF88FEFFFEEE00
:1033600008ED00E00148FFF778B80000F800002001
:103370000148FFF772B800003001002070B5026804
:103380004FF08046134B144CB04203D0984201D00A
:10339000A04205D122F070054A682A43B0420CD001
:1033A00098420AD0A04208D00C4B984205D00C4B52
:1033B000984202D00B4B984203D122F44073CA6862
:1033C0001A4302608A68C262096881620121416110
:1033D00070BD0000000400400008004000080140EB
:1033E000000C014000100140134910B509684FF46A
:1033F0007A42B1FBF2F211494FF08043521E0B604A
:103400004FF0FF3303EB8010C86000200861C1E972
:1034100001200846FEF7C8FF10B109A000F0AEF881
:103420000648FFF70DF8002804D0BDE810400AA0B8
:1034300000F0A4B810BD000030000020F80000200B
:10344000B6A8CAB1C6F732B3F5CABCBBAFCAA7B0FB
:10345000DCA3A10D0A000000B6A8CAB1C6F732C6A7
:10346000F4B6AFD6D0B6CFCAA7B0DCA3A10D0A0080
:1034700000F01ABA10B5134C6068002820D0FFF78E
:10348000F3FC616800220B68834201D80A6001E006
:10349000181A08600A7204E001696160C06800B12E
:1034A0008047606800280BD001680029F4D0017AB9
:1034B000012905D001210172BDE8104000F004B8D7
:1034C00010BD00004800002010B506490446002049
:1034D00008702068FFF784FC2060BDE81040FFF70B
:1034E0003DBD000048000020034A0146002012684C
:1034F0000A4200D0012070470038014000B520206A
:10350000FFF7F2FF002810D000F014F80849074B2D
:103510008A889854521C90B20022888001238A70B5
:103520004B70FF2800D38A804B7000BD68010020DB
:103530002800002002480068C0F30800704700001F
:1035400004380140FEE77FB50D460446FDF76CFCEC
:10355000FDF70CFC00200121CDE90210CDE90004AB
:1035600003A96846FDF716FC2A4621460220FDF70E
:10357000A9FBFDF79DFBFDF74DFC7FBD0FB4054B8F
:1035800010B503A9044A029800F018F810BC5DF8C1
:1035900014FB00006D3800085000002002E008C84D
:1035A000121F08C1002AFAD170477047002001E0BD
:1035B00001C1121F002AFBD1704700002DE9FF4F07
:1035C00089B09B460446002506E025280BD05A46C4
:1035D0000B999047641C6D1C20780028F5D10DB024
:1035E0002846BDE8F08F0027B8460122474900E091
:1035F000074314F8013F203B02FA03F00842F7D1D9
:1036000020782E2819D114F8010F47F004072A2832
:103610000ED06FF02F022078A0F1300109290CD8CC
:1036200008EB880102EB410100EB0108641CF2E7A2
:103630000A98641C50F8048B0A9020780028CED099
:10364000642808D0692806D075281ED05A460B99E0
:1036500090476D1C58E00A994FF00A0901C90A9178
:10366000002802DA40422D2102E0390504D52B2141
:103670008DF82010012103E0F90704D02021F7E79D
:103680008A4608AE0DE00021FAE70A994FF00A09D0
:1036900001C90A91F7E74946FCF7FAFE303106F80E
:1036A000011D0028F7D1ADEB060000F120097807D5
:1036B00001D44FF00108C84502DDA8EB090000E085
:1036C00000208046002706E008A85A46C05D0B99F6
:1036D00090476D1C7F1C5745F6DB04E030205A46AE
:1036E0000B9990476D1CB8F10001A8F10108F5DCB9
:1036F00005E016F8010B5A460B9990476D1CB9F17D
:103700000001A9F10109F4DC641C65E70928010046
:1037100038B500F0B7F81B4C38B1206808B1401E2E
:103720002060BDE8384000F04BB900F0B1F830B18E
:103730002068401C2060BDE8384000F047B900F028
:10374000ADF800281CD0226810206260009003238E
:1037500006214020FFF786F800F03EF90A4821686C
:10376000FFF7F1FE00210948FDF75CFA4FF47A708B
:10377000FDF772FABDE8384001210448FDF752BA5E
:1037800038BD00000000002000F3000860000020A9
:103790002DE9F041C1F30A52A2F2FF362F4A304B15
:1037A0000D460446142E2FDA002E12DAFCF7D0FC58
:1037B00000221346FCF754FE4CD2002DBCBF4FF044
:1037C0000045002446DB55EA040018BF254D19D1F9
:1037D00040E0DFF894C02CFA06F705EA070C5CEA33
:1037E000040C08BFBDE8F081FCF7B2FC00221346D0
:1037F000FCF736FE2ED2002D03DD4FF48010F04092
:103800000544BD43002425E0332EC8BFBDE8F08148
:10381000A6F1140C4FF0FF3727FA0CF73C4208BF13
:10382000BDE8F081FCF738FD00221346FCF718FED6
:1038300010D2002D0DDD142E08BF6D1C09D0C6F16D
:103840003400012101FA00F02044A04238BF6D1C71
:103850000446BC4329462046BDE8F0819C7500889B
:103860003CE4377E0000F03FFFFF0F0004490A6888
:103870005206FCD5024AC1B2121D11607047000009
:10388000003801400148807870470000380000206F
:103890000148C078704700003800002001480079D6
:1038A000704700003800002005490868401C086087
:1038B0000A2803D30020086000F0DEB8704700003B
:1038C00008000020F0B585B04FF400500024012519
:1038D00003268DE8710069460948FDF7E5FA0220E4
:1038E0008DE87100074F69463846FDF7DDFA202064
:1038F0008DE8710069463846FDF7D6FA05B0F0BD8F
:10390000000802400004024008B5FEF751FEFEF731
:1039100091FE01212348FDF785F900221146282058
:10392000FEF746FF012200213820FEF741FF022268
:1039300000214820FEF73CFF032211461020FEF72D
:1039400037FF042203212020FEF732FF0522032146
:103950003020FEF72DFF062211461020FEF728FF2B
:10396000072206212020FEF723FF0822062130200F
:10397000FEF71EFF0C48FEF7DBFF0C4D10242860FD
:10398000FFF7C6FE03230094194640202A68FEF77D
:1039900069FF00940323062140206A68FEF762FF56
:1039A000EEE700006000002000F3000800000020A7
:1039B0000246012000E05043491EC9B2FBD27047C5
:1039C000014900208870704738000020014900201C
:1039D000C870704738000020014900200871704706
:1039E000380000202DE9F04D07460E46FCF7F4FDA7
:1039F00004460D463A463346FCF74EFCDFF86CA011
:103A0000DFF86CB01B4B0746884616F0004F4FF0AE
:103A100000020AD0FCF70CFD0AD900225B463846AA
:103A20004146FCF71DFD1BD212E0FCF701FD08D258
:103A30000022534620462946FCF72BFC04460D463F
:103A40000EE000225B4638464146FCF709FD07D8E8
:103A50000022534620462946FCF77AFB04460D46D1
:103A60003146204665F31E01BDE8F08D0000F03FB1
:103A70000000E03F0000E0BF2DE9F0414FF40051AD
:103A80003148FDF7D7FA314C01260025617901292B
:103A900000D110B1A57149B10AE0A079401CC0B2B3
:103AA000A071022804D3A670657101E0012809D035
:103AB000E571274F02213846FDF7BCFA217A01292A
:103AC00008D008E0E079401CC0B2E0710228F0D3D1
:103AD0006671EEE710B1657249B10AE0607A401C88
:103AE000C0B26072022804D3E670257201E001289A
:103AF00008D0A57220213846FDF79CFAE17A012909
:103B000008D008E0A07A401CC0B2A0720228F1D30D
:103B10002672EFE710B1257349B10AE0207B401C03
:103B2000C0B22073022804D32671E57201E0012897
:103B300002D06573BDE8F081607B401CC0B2607349
:103B40000228F7D3E672F5E70008024038000020AB
:103B50000004024001490860704700002000002076
:103B60001F1C1F1E1F1E1F1F1E1F1E1F1F1D1F1E6F
:103B70001F1E1F1F1E1F1E1F030406080C101820E7
:103B800030000000000000000001020304060708E6
:103B9000090000000000000000000000000000001C
:103BA00000000000F80000000000000033300000BA
:103BB0000000100C06100C060000000000000000C1
:103BC0000040C07840C0784000043F04043F040433
:103BD00000007088FC08300000001820FF211E0043
:103BE00000F008F000E018000000211C031E211E58
:103BF0000000F00888700000001E212324192721EE
:103C00001010160E00000000000000000000000070
:103C100000000000E0180402000000000718204027
:103C20000000020418E00000000040201807000017
:103C300000404080F0804040000202010F0102027B
:103C400000000000F0000000000101011F0101015F
:103C500000000000000000000080B07000000000C4
:103C6000000000000000000000000101010101014E
:103C700001000000000000000000303000000000E3
:103C800000000000008060180400601806010000B9
:103C90000000E010080810E000000F102020100FB6
:103CA00000001010F8000000000020203F2020003D
:103CB0000000700808088870000030282422213095
:103CC0000000300888884830000018202020110E9D
:103CD000000000C02010F8000000070424243F2446
:103CE0000000F80888880808000019212020110E1B
:103CF0000000E0108888180000000F112020110E2D
:103D00000000380808C83808000000003F00000024
:103D1000000070880808887000001C222121221CE5
:103D20000000E010080810E0000000312222110F0E
:103D300000000000C0C000000000000030300000A3
:103D40000000000080000000000000806000000013
:103D5000000000804020100800000102040810202C
:103D60000040404040404040000404040404040477
:103D7000000008102040800000002010080402010C
:103D800000007048080808F000000000303601000C
:103D900000C030C828E810E0000718272423140BBF
:103DA000000000C038E0000000203C230202273859
:103DB0002008F8888888700000203F202020110EFD
:103DC00000C0300808080838000718202020100814
:103DD0000008F808080810E000203F202020100FFD
:103DE0000008F88888E8081000203F2020232018C9
:103DF0000008F88888E8081000203F200003000031
:103E000000C03008080838000007182020221E02D1
:103E10000008F808000008F808203F210101213FB0
:103E200020000808F8080800000020203F2020009B
:103E30000000000808F8080800C08080807F0000AB
:103E40000008F888C028180800203F2001263820E4
:103E50000008F8080000000000203F20202020304B
:103E60000008F8F800F8F80800203F003F003F2065
:103E70000008F830C00008F808203F200007183F6D
:103E800000E01008080810E0000F10202020100F9C
:103E90000008F808080808F000203F21010101008F
:103EA00000E01008080810E0000F18242438504FD4
:103EB0000008F8888888887000203F2000030C30B4
:103EC0002000708808080838000038202121221CB2
:103ED00000180808F8080818000000203F2000001B
:103EE0000008F808000008F808001F202020201F04
:103EF000000878880000C83808000007380E010064
:103F000000F80800F80008F800033C0700073C032D
:103F100000081868808068180820302C03032C30B3
:103F2000200838C800C83808000000203F200000E2
:103F30000010080808C8380800203826212020185A
:103F400000000000FE020202000000007F4040402E
:103F500000000C30C000000000000000010638C066
:103F60000000020202FE000000004040407F00000E
:103F70000000000402020204000000000000000033
:103F800000000000000000000080808080808080B1
:103F90008000020204000000000000000000000099
:103FA0000000008080808000000019242222223F2F
:103FB0002008F8008080000000003F112020110E32
:103FC000000000008080800000000E1120202011E1
:103FD00000000000808088F800000E112020103FB3
:103FE000200000808080800000001F2222222213F7
:103FF00000008080F0888888180020203F20200062
:10400000000000808080808000006B949494936016
:104010000008F8008080800000203F210000203F41
:104020002000809898000000000020203F20200001
:1040300000000000809898000000C08080807F0011
:104040000008F8000080808000203F24022D3020EE
:1040500000000808F8000000000020203F20200099
:10406000008080808080808000203F20003F2000F2
:104070003F8080008080800000203F210000203FA2
:10408000200000808080800000001F202020201F52
:1040900000808000808000000080FFA12020110EA1
:1040A000000000008080808000000E112020A0FF12
:1040B00080808080008080800020203F21200001BF
:1040C0000000008080808080000033242424241994
:1040D00000008080E0808000000000001F202000A1
:1040E000008080000000808000001F202020103F02
:1040F00020808080000080808000010E3008060152
:104100000080800080008080800F300C030C300F16
:104110000000808000808080000020312E0E312041
:1041200000808080000080808080818E7018060171
:104130000000808080808080000021302C2221308F
:104140000000000000807C020200000000003F40F0
:104150004000000000FF00000000000000FF000021
:10416000000002027C800000000040403F00000090
:10417000000006010102020404000000000000002B
:1041800000404042CC0040404040FF404040404062
:10419000000000000000000000000000000000001F
:1041A000000000007F2010000000FF000000000061
:1041B00000000000000000000000000000000000FF
:1041C0000090523410FF10345280708F0808F808A5
:1041D00000000000000000000000000000000000DF
:1041E00000829A566322528E008040330C33408006
:1041F00000000000000000000000000000000000BF
:104200000080809E9292929EE0809EB2D2929E808A
:10421000000000000000000000000000000000009E
:10422000000808F4949292F10001F2929494F80834
:10423000000000000000000000000000000000007E
:104240000090523410FF10345280708F0808F80824
:10425000000000000000000000000000000000005E
:1042600000829A566322528E008040330C33408085
:10427000000000000000000000000000000000003E
:1042800000008060F80704E4A4A4BFA4A4E4040030
:10429000000000000000000000000000000000001E
:1042A00000010000FF40407F4A4A4A4A4A7F40409E
:1042B00000000000000000000000000000000000FE
:1042C00000000000000000000000000000000000EE
:1042D00000000000000000000000000000000000DE
:1042E0000000003636000000000000000000000062
:1042F00000000000000000000000000000000000BE
:10430000002030AC632018084848487F48484808D7
:10431000000000000000000000000000000000009D
:104320000022672212121200FE4242424242FE0066
:10433000000000000000000000000000000000007D
:1043400000000000FE929292FE929292FE00000007
:10435000000000000000000000000000000000005D
:104360000044442425140C04FF040C142524444464
:10437000000000000000000000000000000000003D
:10438000000000000000000000000000000000002D
:10439000000000000000000000000000000000001D
:1043A00000000036360000000000000000000000A1
:1043B00000000000000000000000000000000000FD
:1043C00000000000E443000800000020540000004A
:1043D0009C3500083844000854000020BC08000048
:1043E000AC350008000000000000000000000000E4
:1043F0000000361000000000000000000000000077
:1044000000000000000000000000000000000000AC
:10441000000000000048E80100000000000000006B
:104420000001000001000001000000000000000089
:08443000000000000000000084
:04000005080000F5FA
:00000001FF
