:020000040800F2
:10000000A80B002009010008D332000813010008E2
:10001000D1320008D90E00089564000800000000E5
:100020000000000000000000000000001B010008AC
:10003000DB0E0008000000001F010008DD5800086A
:100040002301000823010008230100082301000800
:100050002301000823010008F50E00083F0F0008E7
:100060004F0F00085F0F00086F0F00082301000802
:1000700023010008230100082301000823010008D0
:1000800023010008230100082301000823010008C0
:100090002301000823010008230100087F0F000846
:1000A00000000000230100082301000823010008CC
:1000B000A15A0008AD5A00082301000823010008D6
:1000C0002301000823010008230100082301000880
:1000D00023010008596000082301000823010008DB
:1000E000050F00084D38000823010008230100080F
:1000F00023010008DFF80CD000F092FC0048004714
:100100009D720008A80B002006488047064800475B
:10011000FEE7FEE7FEE7FEE7FEE7FEE7FEE7FEE7B7
:10012000FEE7FEE7515A0008F500000840EA010327
:100130009B0703D009E008C9121F08C0042AFAD29D
:1001400003E011F8013B00F8013B521EF9D2704761
:10015000D2B201E000F8012B491EFBD27047002209
:10016000F6E710B513460A4604461946FFF7F0FFB6
:10017000204610BDF0B480EA0102D40F4200B2EB79
:10018000410F02D20246084611464A0042D0C30D32
:10019000DDB2C1F3C752AD1A202D35DAC1F3160115
:1001A00041F4000204B15242C5F1200602FA06F100
:1001B0002A411044B3EBD05F23D0C4B1012DA0EB92
:1001C000C35009DCF0BC4FF0004202EAC352DBB27C
:1001D00000F5000000F054BB400000F1807000EB1F
:1001E000C350A0F1807040EAD170490009E049088D
:1001F00041EAC071A0EBC35000F50000400800EBDD
:10020000C350F0BC00F033BB6142012202EB41015C
:10021000001BF6E7F0BC704781F00041AAE780F0D0
:100220000040A7E780EA010210B502F00043400059
:1002300022D04A001FD0010E01EB1261C0F356001C
:10024000C2F3560240F4000042F40002A0FB022078
:1002500000047F39140400D0401C50EA124001D43D
:100260004000491EC2B20C0604EBD010401C4008EE
:10027000802A02D003E0002010BD20F001000029F8
:1002800000DA0020184310BD30B480EA010202F009
:10029000004530F0004221F0004013D090B1C30D72
:1002A000D40DC2F31601C0F31600E41A41F40001A4
:1002B00040F400027D34914201D3641C00E0490007
:1002C000002C02DA30BC002070474FF400000023FD
:1002D000914201D3891A034340084FEA4101F7D103
:1002E00051B1914202D14FF0004105E002D24FF0EE
:1002F000010101E06FF0010103EBC450284430BC60
:1003000000F0B5BA2DE9FE4F804681EA0300C00F28
:100310000C46009021F0004123F00045B8EB0200AC
:10032000A94105D24046214690461C460B4602464E
:1003300023F00040104347D0270DC7F30A00C3F352
:100340000A510290401A019040286BDAC3F313005F
:1003500040F4801B0098924620B10023D2EB030AA0
:1003600063EB0B0B01985946C0F14002504600F078
:100370004DFA06460D4650465946019A00F065FA78
:1003800010EB08006141002487EA115284EAE77308
:100390001A4340D0009A62B3019A012A4FEA0752E9
:1003A00015DC001B61EB02014FF0004202EA07522C
:1003B000CDE90042001C41F5801132462B4600F089
:1003C0009CFA03B0BDE8F08F40462146F9E7001BD8
:1003D00061EB0201001C41F5801300185B412018FD
:1003E000A2F5001747EB030140EAD570B6196D413D
:1003F00011E06D084FEA360645EAC0754FEA07522C
:10040000001B61EB0201001C41F5801149084FEA15
:1004100030000019514132462B4603B0BDE8F04F81
:1004200000F05CBA0098012240000023D0EB0202E9
:1004300063EBE073009821464FEAE074B8EB0000EC
:1004400061EB0401E9E783F000435BE781F00041E1
:1004500058E72DE9FE4F81EA030404F0004421F03F
:10046000004100944FF0000B23F0004350EA0104D8
:100470005ED052EA03045BD0C3F30A54C1F30A55B9
:100480002C44A4F2F3340194A0FB0254C1F31301F1
:1004900041F48011C3F3130343F4801301FB0244BE
:1004A00000FB034E840A970A44EA815447EA8357C3
:1004B000A4FB076802958D0A05FB07854FEA932C7C
:1004C00004FB0C542705029D4FEA065847EA1637ED
:1004D000B5EB08056EEB070C870E920E47EA811705
:1004E00042EA8312A7FB0201B6EB0B0164EB0004A6
:1004F0002B0D43EA0C335E1844EB1C50DA46514690
:10050000E7FB0201C5F313044FEA0B3343EA14532C
:100510004FEA0432019C43EA0603A4F10C0402945E
:10052000009CCDE900B400F0E8F903B0BDE8F08F1D
:1005300000200146F9E72DE9F04D81EA030404F0BB
:10054000004B21F0004514464FF0000A23F0004113
:1005500050EA050220D054EA01021DD0C5F30A5723
:100560000246C5F31303C1F31300C1F30A5640F466
:10057000801543F48013A7EB0608101BD64608F23B
:10058000FD3873EB050002D308F1010801E0921871
:100590005B41B8F1000F03DA00200146BDE8F08DA1
:1005A00000204FF48011064684460EE0171B73EBC3
:1005B000050705D3121B63EB050306434CEA010C48
:1005C00049084FEA300092185B4150EA0107EDD12B
:1005D00052EA030012D082EA040083EA05010843CC
:1005E00005D0101BAB4106D20122002306E00022F9
:1005F0004FF0004302E06FF0010253101AEB0600C7
:100600004CEB085110EB0A0041EB0B01BDE8F04D3B
:1006100000F064B970B521F0004303430CD0C1F37E
:100620000A550024D5EB040564EB0403D617AD1A74
:10063000B34102DB0020014670BD201841EB02519E
:1006400070BD96230022114600F01AB90EB5C10FF5
:1006500080EAE0700844CA07002140F233438DE885
:100660000E000A460B4600F048F903B000BD0EB577
:1006700040F2334102910021CDE900110A460B46B8
:1006800000F03BF903B000BD20F00040C10DC0F305
:10069000160040F400007F2901DA002070479629F7
:1006A00003DCC1F19601C840704796398840704715
:1006B00070B5C1F30A5201F000450024C1F31301E3
:1006C00040F2FF3341F480119A4201DA002070BDFC
:1006D00040F233439A42A2F2334203DC524200F02A
:1006E000A4F800E090402C43F1D0404270BDC1F32B
:1006F0000A5210B5C1F3130140F2FF3341F48011E7
:100700009A4201DA002010BD40F233439A42A2F22D
:10071000334203DC524200F088F810BD904010BD17
:1007200000F0004230F000400AD0C10D01F56071C8
:10073000C0F3160042EA0151C20840071143704756
:10074000002001467047000030B5041E71F100041E
:1007500004DB4FF00044404264EB0101141E73F1CE
:10076000000405DB1C464FF00043524263EB0403D8
:100770008B4208BF824230BD30B5041E71F10004C7
:1007800004DB4FF00044404264EB0101141E73F19E
:10079000000405DB1C464FF00043524263EB0403A8
:1007A000994208BF904230BD01F0004330B421F0BF
:1007B000004150EA010206D00A0DA2F56072C1F3B1
:1007C0001301002A02DC30BC00207047440F44EAC9
:1007D000C104C100E01830BC00EBC25000F047B8C3
:1007E00030B50B46014600202022012409E021FA01
:1007F00002F59D4205D303FA02F5491B04FA02F5FE
:100800002844151EA2F10102F1DC30BD202A04DBD0
:10081000203A00FA02F1002070479140C2F1200313
:1008200020FA03F3194390407047202A04DB203A52
:1008300021FA02F00021704721FA02F3D040C2F100
:1008400020029140084319467047202A06DBCB1747
:10085000203A41FA02F043EAE07306E041FA02F37B
:10086000D040C2F120029140084319467047002948
:10087000A8BF7047401C490008BF20F00100704726
:1008800010B4B0FA80FC00FA0CF050EA010404BF86
:1008900010BC704749B1CCF1200421FA04F411FADC
:1008A0000CF118BF012121430843A3EB0C01CB1D20
:1008B0004FEA00614FEA102042BF002010BC704791
:1008C00000EBC35010440029A4BF10BC7047401C6B
:1008D000490008BF20F0010010BC704710B5141E7D
:1008E00073F1000408DA401C41F1000192185B41E9
:1008F0001A4301D120F0010010BD2DE9F04D9246C0
:100900009B4611B1B1FA81F202E0B0FA80F22032D6
:100910009046FFF77BFF04460F4640EA0A0041EA93
:100920000B0153465A46084313D0114653EA0100BF
:1009300019D0C8F140025046FFF777FF05460E4632
:10094000504659464246FFF761FF084305D0012053
:1009500004E020463946BDE8F08D0020054346EA14
:10096000E0762C4337430A986305E40AA0EB0800BD
:100970000022FD0A44EA47540A3002D5002001460D
:10098000E9E7010510196941DDE9084500196941E8
:10099000BDE8F04DA2E700002DE9F041054621F049
:1009A00000400C46284309D0C4F30A5040F23341BA
:1009B000884205DD28462146BDE8F0812846FBE750
:1009C00040F2FE31884210DC0CDB4FEA043040EA92
:1009D000155050EA053105D0104804F0004101439C
:1009E0000020E9E700200146E6E7A0F23340464256
:1009F000C6F1400228462146FFF708FF0746884611
:100A0000284621463246FFF710FF43463A46FFF795
:100A100065FF3246BDE8F041FFF7F8BE0000F03F49
:100A2000064C074D06E0E06840F0010394E807003B
:100A300098471034AC42F6D3FFF760FB588E00089D
:100A4000788E00082DE9F04D00231A461B1A8A41C2
:100A500003DB00200146BDE8F08DC1F30A52C1F36B
:100A6000130141F480154FF0000BD10702D100189B
:100A70006D41521E0027044640F2FF11384601EB3B
:100A8000620A3E468046024600204FF48011FFF77E
:100A9000CCFEC2197141BB1846EB0100B4EB030C4C
:100AA00075EB000C04D3E41A65EB000517460E46FF
:100AB000241908F101006D4180463428E3DDF9195D
:100AC00046EB0600091BA84103D24FF0FF32134644
:100AD00001E0002213461BEB070046EB0A51BDE87C
:100AE000F04DFFF7FBBE000010B50021044800F0F8
:100AF00069F803480221BDE810400C3000F062B8EC
:100B00008400002070B5044600680168C9434906A6
:100B10001CD4816821F00101816000F013FF0546BB
:100B20000FE000BF00F00EFF401B022809D9E06C67
:100B300040F01000E064206D40F0010020650120CD
:100B400070BD20680068C0434006EBD5002070BD32
:100B5000F8B500260446009600680168C9434906B6
:100B60002AD5816841F00101816014481449006868
:100B7000B0FBF1F000EB400000E0401E00900028C8
:100B8000FBD100F0DFFE054611E000BF00F0DAFE09
:100B9000401B02280BD9E06C40F01000E064206D8F
:100BA00040F00100206584F848600120F8BD20680D
:100BB0000068C0434006E9D40020F8BD480000208A
:100BC00040420F00064A10B51378002B07D10123CD
:100BD000137000F01DF8BDE8104000F003B810BD20
:100BE00070000020094800214FF020628160C16040
:100BF0004162C162C0E90D214FF480624261C1636C
:100C0000012281618262C16100F02CBCB801002028
:100C10007CB50C460E4905460C4808600D4908682D
:100C200040F400700860086800F400700090084804
:100C300000F092FB601C08D0002100910B4601914E
:100C400003222146284600F0C7F97CBD002401405C
:100C5000B8010020203802402DE9FF474FF000087E
:100C6000012494FAA4F0324EB0FA80F0CDF800805E
:100C7000CDF80480CDF8088046F820402D4D2D4B4E
:100C80003435022090FAA0F2B2FA82F242F0200249
:100C9000520901D01A6800E02A6890FAA0F7B7FA62
:100CA00087F707F01F0704FA07F73A42EAD0214D09
:100CB0002035286840F4007028602868CDE90014C9
:100CC00000F4007003900620029069461A4800F074
:100CD0009FFA194F3868816841F0010181603846F8
:100CE00000F0E3FC4FF0FF31384600F08BFC384653
:100CF00000F0B4FB1FFA80F93868816821F0010127
:100D000081600098102801D0112802D10A4800F013
:100D100023FB286820F40070286094FAA4F1B1FA4B
:100D200081F146F8218004B04846BDE8F087000014
:100D30000000474200380240B801002001484068E6
:100D40007047000008000020034A12780AB1FFF73C
:100D500083BF002070470000700000202DE9F041A3
:100D600000211548FFF7F0FF144C2080FFF77FFCAF
:100D70006FF00B052A46FFF74DFC114F4FF066361A
:100D800032463B46FFF765FBFFF70EFD60600A4801
:100D900002210C30FFF7D8FF6080FFF768FC2A467D
:100DA000FFF738FC32463B46FFF753FBFFF7FCFCEE
:100DB000A060BDE8F0810000840000200800002051
:100DC00066660A4010B5040001D002F0F7FF014842
:100DD000C47010BD2000002072B602484178491C42
:100DE000417070471C00002004494878401E10F0F4
:100DF000FF00487000D162B6704700001C00002060
:100E000030B51B4D85B02878A0B104F0BDFD00BF02
:100E10004FF0FF300090052306220721154804F00B
:100E2000D5FC03F06BFB2878002801D10120287045
:100E300005B030BD00F094FD04F058FD02F076FFDF
:100E40000024009401230322122102A8019400F03F
:100E5000C3F8009400230322082102A8019400F0A3
:100E6000BBF800F06DFC00F05BFC00F061FCCFE72C
:100E70001C000020800600201CB50024009423469E
:100E8000012203211348019400F0A6F811480094B0
:100E90000023012218210C30019400F09DF801205C
:100EA000CDE900040B4800231A462D21183000F02C
:100EB00093F80121074800F0A9F9064801210C30F8
:100EC00000F0A4F9BDE81C4002480121183000F0F0
:100ED0009DB900000C020020FEE77047002104E0ED
:100EE00000BF00BF00BF00BF491C8142F8D370475C
:100EF00000F02EBC10B502F061FFBDE810400120EB
:100F000000F044BC10B502F059FF4FF4806000F0CF
:100F10003DFC4FF4006000F039FC4FF4805000F0CD
:100F200035FC4FF4005000F031FC4FF4804000F0ED
:100F30002DFCBDE810404FF4004000F027BC10B578
:100F400002F03CFFBDE81040022000F01FBC10B5CD
:100F500002F034FFBDE81040042000F017BC10B5CB
:100F600002F02CFFBDE81040082000F00FBC10B5C7
:100F700002F024FFBDE81040102000F007BC10B5BF
:100F800002F01CFF202000F001FC402000F0FEFBDE
:100F9000802000F0FBFB4FF4807000F0F7FBBDE811
:100FA00010404FF4007000F0F1BB0000094A00212E
:100FB00052F83130834208D802EBC1039B68834268
:100FC00003D902EBC10000797047491CC9B2152949
:100FD000EED3FEE7E08C00087CB5DDE90645CDE9FF
:100FE000004500F001F87CBDF0B587B00546DDE9AD
:100FF0000C760170481C6AD001F00F04012000FA41
:1010000004F46C80334C11F0F00F1FD0C1F30311C6
:10101000012925D002292DD0032935D02E49696018
:10102000216841F020012160216801F02001059133
:1010300069880091AF720221CDE9027172B3032A6F
:101040002ED0022A2FD0012B35D035E023496960FC
:10105000216841F001012160216801F00101E6E70A
:101060001F496960216841F002012160216801F097
:101070000201DCE71B496960216841F0040121603D
:10108000216801F00401D2E717496960216841F045
:1010900008012160216801F00801C8E7002000E094
:1010A000032001900FE0012B02D0019104960AE089
:1010B00012200190FAE711200190012A03D1314654
:1010C000284600F097F86946686800F06BFB07B0A7
:1010D000F0BD00001C380240001402400000024035
:1010E0000004024000080240000C02402DE9F041DB
:1010F00086B01F00904605464FF000064FF00604EC
:101100006CD068880090012916D0022916D0354885
:101110000190A87A0290022003906946686800F066
:1011200041FB5FEA08000BD0012809D0022809D052
:10113000B8F1030F09D107E02B48E9E72B48E7E7AF
:10114000032602E0022600E001266888B0F5807FD1
:1011500033D012DC10282ED008DC012830D0022831
:1011600023D0042823D008282AD122E0202824D004
:10117000402822D0802823D11FE0B0F5805F1ED008
:1011800009DCB0F5007F18D0B0F5806F17D0B0F54E
:10119000006F15D113E0B0F5005F10D0B0F5804FAF
:1011A0000DD0B0F5004F0BD109E0072408E008246A
:1011B00006E0092404E00A2402E0172400E02824C1
:1011C00028780B4900F00F00002241F820703146CA
:1011D000204600F0F1FB204600F0E3FB06B0BDE83E
:1011E000F0810000000031100000111000002110FB
:1011F0007402002090F90020521C04D0CAB2418829
:10120000406800F09ABB7047FFF770BFFFF7F2BF6E
:10121000F8B50024009490F848202546012A12D001
:10122000012280F848204A681F23072A0DD2066849
:10123000376C521E02EB820293409F430B6893402F
:101240001F43376435E00220F8BD0D2A0BD2076832
:10125000FE6BD21F02EB820293409E430B689340C9
:101260001E43FE6325E0132A0BD20668B76B0D3AC6
:1012700002EB820293409F430B6893401F43B76386
:1012800017E00668192A0AD2776B133A02EB82023A
:1012900093409F430B6893401F43776309E0376B8C
:1012A000193A02EB820293409F430B6893401F431D
:1012B00037630A6807230A2A0AD20668776902EBAD
:1012C000420293409F438B6893401F4377611CE029
:1012D000142A0BD207683E690A3A02EB4202934095
:1012E0009E438B6893401E433E610EE01A2A0BD842
:1012F0000768FE68143A02EB420293409E438B68F3
:1013000093401E43FE6000E000BF0A68102A01D02F
:10131000112A17D10D4A13681B0213D4136843F422
:1013200000031360096810290CD10949094A0968AA
:10133000B1FBF2F101EB8101490000E0491E00918F
:101340000029FBD180F848502046F8BD0427014011
:101350004800002040420F0070B504000BD0E06C44
:1013600040F00200E0642046FFF7CCFB06004FF09F
:10137000000502D065E0012070BD21686FF01F00FC
:10138000086020684168314A1140416020688168E6
:101390002F4A1140816000BF2068C1686FF31401BB
:1013A000C1602068016901F0404101612068416924
:1013B00001F040414161206881696FF30B01816157
:1013C0002068C1696FF30B01C1612068016A6FF386
:1013D0000B0101622068416A6FF30B0141622068D2
:1013E000816A6FF30B0181622068C16A6FF30B01A0
:1013F000C1622068016B174A114001632068416B8C
:1014000001F0404141632068816B01F040418163FC
:101410002068C16B01F04041C1632068016C01F09C
:10142000404101642068416C6FF3150141640A4832
:10143000016821F400010160204600F0E1F8256513
:10144000E56484F84850304670BD000000003CF868
:101450008CF0808000800FFE042701400068806DC2
:1014600070470000F8B504004FF0000503D0E06CB1
:10147000002610B110E00120F8BD26655B4884F815
:101480004860016841F001010160006800F001005E
:101490000090204600F0B5F8E06CC00678D4E06C0F
:1014A00020F4885040F00200E0645148016862680E
:1014B00021F44031114301606169E0684FF4007329
:1014C000084393FAA3F3E26BB3FA83F3216A9A40D9
:1014D00011430843022191FAA1F1626AB1FA81F144
:1014E00002FA01F10843616B102902D0A36B194382
:1014F0000843236819684FF48077C943490629D502
:10150000A169D4F81CC00843A168D4F810E041EAEE
:101510000C01BE450CD0BEF1010F09D04FF0000CFC
:1015200041EA0C01D4F82CC0BCF1010F02D00AE052
:10153000BC46F5E76AB3E26C42F02002E264226D39
:1015400042F0010222655A68DFF8A8C002EA0C02E4
:101550000A435A6021688A68274B1A4002438A600E
:101560002169B94224D0012922D021680A6B22F0D6
:10157000F8720A6321688968204A1140814227D1A4
:101580002665E06C20F0020040F00100E0642AE0F3
:1015900028E0FFE74FF4604C226B9CFAACFCBCFAED
:1015A0008CFC521E02FA0CF20A4342F40061CAE7B4
:1015B00021680A6B4FF0F87722F0F873A26A97FA65
:1015C000A7F7B7FA87F7521EBA4013430B63D1E768
:1015D000E06C20F0020040F01000E064206D40F06C
:1015E0000100206501252846F8BD00002038024092
:1015F00004270140FF16FCFC8DF1FFC0FEFF80BFF9
:10160000704770472DE9F041044600680D46816837
:101610004FF0000749050BD58068C00508D5E06C80
:1016200040F02000E06484F848700120BDE8F081BB
:1016300000F088F906460FE0681C0DD025B100F0D7
:1016400081F9801BA84207D9E06C40F00400E064F7
:1016500084F848700320E9E7206800688007EBD52C
:10166000A06918B921686FF012000860E06C40F4BE
:101670000070E0642068816811F0405F13D1616AF6
:1016800089B9016B11F0F87F02D0806840050AD457
:10169000E06C20F48070E064E06CC00403D4E06C83
:1016A00040F00100E0640020C0E710B5044690F867
:1016B0004800012822D0012084F848002046FFF786
:1016C00047FA00281BD1E16C40F20162914341F4DA
:1016D0008071E16421684A68520505D5E26C22F404
:1016E000005242F48052E264E26CD3044FF00002F4
:1016F00006D5236D23F00603236502E0022010BD0A
:10170000226584F848206FF022020A6021688A6806
:1017100012F0405FF3D18A6842F080428A6010BDC7
:101720000248416841F0010141607047002004E037
:101730000248416841F0040141607047002004E024
:101740000248416841F0020141607047002004E016
:1017500031B500F0F7F8044600F0F4F80099001BEA
:101760008842F9D338BD0000002118B904E04008D0
:10177000491CC9B20128FAD1034850F821000028B9
:1017800000D000477047000074020020044910B5E3
:101790000A68024202D00860FFF7E6FF10BD0000B1
:1017A000140401402DE9F84FDFF864B100234FF035
:1017B000010C4FF0030A4FF00F090BF1040EA0E0EB
:1017C0000CFA03F6324072D04C68022C01D0122C75
:1017D0000ED1DC0800EB8408D8F820405D07EF0E3E
:1017E00009FA07F5AC430D69BD402543C8F8205000
:1017F00007685D0091F804800AFA05F408F0030810
:10180000A74308FA05F848EA0708C0F800804F68BF
:10181000012F05D0022F03D0112F01D0122F11D18B
:101820008768D1F80C80A74308FA05F848EA07084A
:10183000C0F808804768B7430E79C6F300169E408B
:101840003E434660C668A6438C68AC403443C460DF
:101850004C68E40054D52F4C256845F001052560FF
:10186000246823F0030504F0010400942A4C254465
:10187000AF689C07240F09FA04F6B743274EB0421D
:1018800001D1002615E0264EB04201D1012610E01C
:10189000244EB04201D102260BE0234EB04201D1CA
:1018A000032606E0214EB04202D1042601E027E0E3
:1018B0000526A6403E43AE60DBF800405D464E681C
:1018C0009443F60300D514432C60DEF800407546BF
:1018D0004E689443B60300D514432C600C4D083574
:1018E0002C684E689443F60200D514432C60084DD2
:1018F0000C352C684E689443B60200D514432C6016
:101900005B1C0A6832FA03F47FF45AAFBDE8F88F23
:101910000004014020380240000001400000024065
:101920000004024000080240000C02400010024087
:101930000069084000D0012070470AB181617047FA
:101940000904FBE701480068704700004C000020D4
:1019500002480168491C0160704700004C000020EB
:1019600010B5032000F048F8002000F005F800F062
:1019700017F8002010BD000010B5044607484FF4CA
:101980007A710068B0FBF1F001F0A4F90022214661
:10199000501E00F011F8002010BD0000480000208B
:1019A000704700F01F02012191404009800000F1C2
:1019B000E020C0F800117047F0B40E4B1B680C46D5
:1019C000C3F30223C3F10705042D00D90425191D13
:1019D000072901D2002300E0DB1E012606FA05F1EB
:1019E000491E214099409E40761E16403143F0BC6E
:1019F00001F0D8BC0CED00E0064900F007020868D1
:101A00004FF6FF03184040EA0220034A10430860E3
:101A1000704700000CED00E00000FA050248006885
:101A200000F4C05070470000007000402DE9F84FEE
:101A300006460078C00775D0DFF84C810027D8F83B
:101A40000000C0000BD4D8F8001041F08051C8F855
:101A50000010D8F80000012700F0805000904B4C97
:101A60002068C00510D4206840F480702060FFF723
:101A700069FF054605E000BFFFF764FF401B6428CF
:101A80004ED82068C005F7D53F4D243D286800F0AA
:101A9000C041706800F0C0428A4209D0C0F30141E1
:101AA000032905D12968890302D50120BDE8F88FF3
:101AB000354C1034216811F440314AD000F44030E4
:101AC000884246D03078C00743D020684FF40002E7
:101AD00092FAA2F1B1FA81F14FEA810C2C494FF050
:101AE000010A8C4420F44030CCF880A692FAA2F28D
:101AF000B2FA82F201EB82010023C1F88036206045
:101B0000C00526D5FFF71EFF81464FF4007B0AE093
:101B1000FFF718FFA0EB090141F28830814202D99A
:101B20000320C3E72EE09BFAABF0B0FA80F040F060
:101B30004001BAEB511F01D1296800E021689BFAEE
:101B4000ABF2B2FA82F202F01F020AFA02F001428C
:101B5000DED07068C0F30141032906D1296800F086
:101B6000C04021F0C041014329602068716801F440
:101B70004031084320602FB1D8F8001021F0805187
:101B8000C8F80010002091E724380240007000409F
:101B9000000047422DE9F047DFF8BC8105460E46BC
:101BA000D8F8000000F00100B04214D2012E05D197
:101BB000D8F8001041F00401C8F80010D8F800105F
:101BC00021F001013143C8F80010D8F8000000F0FE
:101BD0000100B04271D12878604C800705D520689B
:101BE000A96820F0F000084320602878C00771D071
:101BF0005A4A5A4B69680120083A2C33022910D0FE
:101C000003292ED001292FD05FEA402797FAA7FC9D
:101C1000BCFA8CFC4CF0200C5FEA5C1C04D012680F
:101C200003E04FF40037F1E71A6897FAA7F3B3FA25
:101C300083F303F01F039840024262D0206820F033
:101C4000030008432060FFF77DFE6968074641F204
:101C50008830022910D003291CD00129814626D0C2
:101C600034E04FF00077D1E70227CFE7FFF76AFEB5
:101C7000C11B494501D926E081462068C0F3810097
:101C80000228F3D126E000BFFFF75CFEC11B4945E7
:101C900001D918E081462068C0F381000328F3D100
:101CA00018E000BFFFF74EFEC11B49450BD8206866
:101CB000C0F381000128F5D10CE022E0FFF742FEDD
:101CC000C11B494502D90320BDE8F087206810F008
:101CD0000C0FF3D1D8F80010404601F00101B142D9
:101CE00011D9012E03D1016841F00401016001689E
:101CF00021F0010131430160006800F00100B042B1
:101D000001D00120E0E72878400705D52068E96880
:101D100020F4E060084320602878000706D520689A
:101D2000296920F4605040EAC100206000F052F8B8
:101D30002168F02292FAA2F201F0F001B2FA82F2E6
:101D4000D140074A515CC840064908600020FFF7AF
:101D500013FE0020B8E70000003C024008380240B3
:101D600065830008480000200148006870470000B3
:101D70004800002008480949006809684FF4E062FB
:101D800092FAA2F201F4E061B2FA82F2D140044A7E
:101D9000515CC840704700004800002008380240ED
:101DA0007583000808480949006809684FF46052C3
:101DB00092FAA2F201F46051B2FA82F2D140044ADE
:101DC000515CC840704700004800002008380240BD
:101DD000758300081E4A116801F00C00042813D016
:101DE000082813D00C2813D0101F006800F460419D
:101DF0004FF4604090FAA0F0B0FA80F0C1404FF488
:101E00000040491C8840704712487047124870478C
:101E10004FF4701393FAA3F301F47010B3FA83F341
:101E2000D8400E4B01F440011268185C4FF4400397
:101E300093FAA3F3B3FA83F3D940491CD20301D533
:101E4000054A00E0034A5043B0FBF1F07047000040
:101E5000083802400024F40000127A005C83000875
:101E60002DE9F84F07460078FB4EFC4DC0074FF0B8
:101E7000010428D0F848083001684FF40038C1F355
:101E80008101022907D00168C1F3810103291BD117
:101E90000068C00318D598FAA8F0B0FA80F040F0B6
:101EA0002000400901D0306800E0286898FAA8F1C5
:101EB000B1FA81F101F01F0104FA01F108425CD08E
:101EC000786800287BD058E0786801280AD008B1EB
:101ED000052811D0306820F480303060306820F45C
:101EE000802002E0306840F480303060786828B3A9
:101EF000FFF728FD81460BE0306840F48020306019
:101F0000F0E700BFFFF71EFDA0EB0900642872D8C0
:101F100098FAA8F0B0FA80F040F02000400901D013
:101F2000306800E0286898FAA8F1B1FA81F101F070
:101F30001F0104FA01F10842E4D01EE0FFF702FDA0
:101F4000814605E0FFF7FEFCA0EB09006428DED81F
:101F500098FAA8F0B0FA80F040F02000400901D0D3
:101F6000306800E0286898FAA8F1B1FA81F101F030
:101F70001F0104FA01F10842E4D13878DFF8E08269
:101F800080074FF0000B4FF002095FD5B2480830D0
:101F90000168C1F38101012907D00168C1F3810102
:101FA00003291CD10068C00319D499FAA9F0B0FA2A
:101FB00080F040F02000400902D0306801E086E067
:101FC000286899FAA9F1B1FA81F101F01F0104FA28
:101FD00001F108422BD0F868012878D127E0F86891
:101FE000A8B394FAA4F0B0FA80F048F82040FFF7C4
:101FF000A9FC824606E066E1FFF7A4FCA0EB0A001C
:10200000022884D899FAA9F1B1FA81F141F02001AE
:10201000490901D0316800E0296899FAA9F0B0FABD
:1020200080F000F01F0004FA00F00142E4D08A487A
:10203000001D01684FF4F85393FAA3F33A69B3FA19
:1020400083F321F4F8519A401143016025E0FFE742
:1020500094FAA4F1B1FA81F148F821B0FFF772FCCB
:10206000824605E0FFF76EFCA0EB0A000228C8D804
:1020700099FAA9F0B0FA80F040F02000400901D0B0
:10208000306800E0286899FAA9F1B1FA81F101F00D
:102090001F0104FA01F10842E4D138784FF4007AC4
:1020A000C0067CD56C480830006810F00C0F0FD0CB
:1020B000B9694FF48070002972D090FAA0F0B0FA9C
:1020C00080F048F82040FFF73DFC00907EE087E07C
:1020D0009AFAAAF0B0FA80F040F02000400901D04E
:1020E000306800E028689AFAAAF1B1FA81F101F0AB
:1020F0001F0104FA01F1084202D0B86900286FD02C
:102100005548396A001D006800F4604081421AD9C0
:10211000084601F05FFB002862D14F48001D0168AE
:102120003A6A21F460411143016001684FF07F4336
:1021300093FAA3F3FA69B3FA83F321F07F419A404B
:102140001143016018E04448001D026822F4604217
:102150000A43026001684FF07F4393FAA3F3FA69E0
:10216000B3FA83F321F07F419A4011430160386A4A
:1021700001F030FB0028CFD14FF4604191FAA1F17A
:10218000386AB1FA81F1C8404FF40041401C8140E7
:10219000314808300068F02200F0F00001E070E003
:1021A00040E092FAA2F2B2FA82F2D0402D4A105CDC
:1021B000C1402D4801600020FFF7DEFB61E000BF59
:1021C000FFF7C0FB0099401A02287CD89AFAAAF0BF
:1021D000B0FA80F040F02000400902D0306801E001
:1021E000BCE128689AFAAAF1B1FA81F101F01F0165
:1021F00004FA01F10842E3D01748001D01683A6A69
:1022000021F460411143016001684FF07F4393FA6C
:10221000A3F3FA69B3FA83F321F07F419A401143A3
:1022200001602EE090FAA0F0B0FA80F048F820B0FB
:10223000FFF788FB009005E0FFF784FB0099401A48
:102240000228C2D89AFAAAF0B0FA80F040F0200032
:1022500040090BD030680AE00038024034380240B0
:1022600000004742658300084800002028689AFA69
:10227000AAF1B1FA81F101F01F0104FA01F108425B
:10228000DAD13878000753D5786948B394FAA4F0C6
:10229000B0FA80F008EB8000C0F88046FFF752FBF0
:1022A000009005E0FFF74EFB0099401A02288CD8F9
:1022B00099FAA9F0B0FA80F040F04000B4EB501F5A
:1022C00002D1306801E08EE0286899FAA9F1B1FAEC
:1022D00081F101F01F0104FA01F21042E2D027E07F
:1022E00094FAA4F1B1FA81F108EB8101C1F880B64A
:1022F000FFF728FB009005E0FFF724FB0099401A48
:10230000022870D899FAA9F0B0FA80F040F04000A5
:10231000B4EB501F01D1306800E0286899FAA9F1A8
:10232000B1FA81F101F01F0104FA01F21042E3D188
:10233000387840077BD59B484FF000090068C00003
:102340000AD49848016841F08051016000684FF05C
:10235000010900F08050009093480168C90511D42C
:10236000016841F480710160FFF7ECFA009005E02C
:10237000FFF7E8FA0099401A642834D88A480068C0
:10238000C005F5D5B86801280AD008B1052811D0D4
:10239000286820F480702860286820F4806002E0BB
:1023A000286840F480702860B86848B3FFF7CAFA1C
:1023B00000900DE0286840F480602860F0E700BFDE
:1023C000FFF7C0FA0099411A41F2883081420AD8D9
:1023D0009AFAAAF0B0FA80F040F04000B4EB501F37
:1023E00002D1306801E095E028689AFAAAF1B1FAC2
:1023F00081F101F01F0104FA01F21042E0D022E065
:10240000FFF7A0FA009007E0FFF79CFA0099411A45
:1024100041F2883081427DD89AFAAAF0B0FA80F071
:1024200040F04000B4EB501F02D1306801E012E0F0
:1024300028689AFAAAF1B1FA81F101F01F0104FAB1
:1024400001F21042E0D1B9F1000F04D05548016803
:1024500021F080510160786AE8B3DFF84891A9F172
:102460001C09D9F80010C1F38101032976D0022894
:102470004FF080714FF0007A58460BD091FAA1F1DD
:10248000B1FA81F148F82100FFF75CFAB04607463F
:1024900056466DE04FF0807191FAA1F1B1FA81F1E9
:1024A0008A0042495050FFF74DFAB34680465646DF
:1024B00006E000BFFFF746FAA0EB0800022854D858
:1024C00096FAA6F0B0FA80F040F02000400903D060
:1024D000DBF8000001E061E0286896FAA6F1B1FAA5
:1024E00081F101F01F0104FA01F10842E2D1D7E9BC
:1024F0000A103A6BD9F80030014323F47D031A43E4
:102500001143C9F800104FF0807090FAA0F0B0FAB3
:1025100080F000E029E0810024480C50FFF712FA17
:10252000074604E0FFF70EFAC01B02281DD896FAF2
:10253000A6F0B0FA80F040F02000400902D0DBF8AD
:10254000000000E0286896FAA6F1B1FA81F101F0E6
:102550001F0104FA01F10842E4D01FE020E000BFAF
:10256000FFF7F0F9C01B022802D90320BDE8F88F5D
:1025700096FAA6F0B0FA80F040F02000400902D0B0
:10258000D8F8000000E0286896FAA6F1B1FA81F1C7
:1025900001F01F0104FA01F10842E1D10020E5E752
:1025A0000120E3E724380240007000400000474269
:1025B00070472DE9F0470446007F01281CD0012612
:1025C0002677022060772168CA204862216853205C
:1025D00048622068816821F4806181602068816898
:1025E00021F480418160FFF7ADF9054600274FF0E7
:1025F000FF084FF47A790EE00220BDE8F087FFF77C
:10260000A1F9401B484506D92168C1F82480032060
:1026100060772777F1E72068C0684007EFD5216829
:10262000C1F82480667727770020E6E7704700002E
:1026300010B5044600688168C9040CD5C068C0059F
:1026400009D52046FFF7F2FF2068C16801F080013C
:1026500061F4C071C1602068816889040CD5C068CC
:10266000800509D52046FFF7A3FF2068C16801F067
:10267000800161F42071C16003494FF400300860AB
:102680000120607710BD0000140401402DE9F047DF
:102690000446007F012822D04FF0010884F81C80F6
:1026A000022060772268CA2050622268532050625C
:1026B00020680025FF26B1F5807F81684FF0030A6E
:1026C0004FF47A790ED021F400718160206881681E
:1026D00021F400518160FFF735F9074624E002201C
:1026E000BDE8F08721F4807181602068816821F461
:1026F00080518160FFF726F9074604E0FFF722F9D1
:10270000C01B484509D82068C068C007F6D00FE054
:10271000FFF718F9C01B484506D92068466284F8BF
:102720001DA025770320DBE72068C0688007EFD570
:102730002068466284F81D8025770020D0E710B518
:102740000C464FF480718A4203D1A1610068C169CF
:1027500004E04FF40071A1610068016AC1F3054013
:102760002070C1F30622627001F07F02A270402245
:1027700002EA1142E270C1F30562227501F0804263
:1027800001F08031C4E9031273B901F075F82070CB
:10279000607801F071F86070A07801F06DF8A070B9
:1027A000207D01F069F82075002010BD10B500688B
:1027B0000B4641680D480140080CD870C1F3042451
:1027C0005C7001F03F049C70C1F34231197052B942
:1027D00001F052F8D870587801F04EF85870987897
:1027E00001F04AF89870002010BD00003FFFFF0084
:1027F00010B500680C4601680E480140C1F3054061
:102800002070C1F30623637001F07F03A37040239F
:1028100003EA1141E17052B901F02EF8207060789E
:1028200001F02AF86070A07801F026F8A07000206E
:1028300010BD00007F7F7F0070B5040002D0607F74
:1028400010B106E0012070BD00202077204600F086
:1028500041F8022060772168CA204862216853202D
:102860004862204601F01CF8FF210028206803D0B0
:10287000416204206077E5E78268154B1A40826068
:102880002268906863681843D4E904352B431843E1
:1028900090602268E068106120680269238942EA3A
:1028A000034202612068C26822F08002C260206890
:1028B000026C22F4802202642068026CA3691A432D
:1028C00002642068416201206077002070BD000032
:1028D000BFFF8FFF704700002DE9F05F0446007FC7
:1028E0000D46012844D04FF0010B84F81CB00220A3
:1028F00060772068002780684FEA4060BAB30028FC
:1029000052DA287800F0B8FF287D00F0B5FFA878EB
:102910002978EA7840EA01406978090241EA0241EF
:102920000843297D40EA0166286921680643E86872
:102930000643CA204862216853204862A869FF25DF
:10294000B0F5807F20684FF0030A4FF47A798168F0
:102950002CD021F4007181602068C16801F08001F1
:1029600061F42071C160FEF7EDFF80464FE002E0A8
:102970000220BDE8F09F002800DBEF70287800F00F
:1029800084FF0604687800F080FF46EA0026A878F5
:1029900000F07BFF0643E87846EA0046287D00F019
:1029A00074FF46EA0066BFE7EF70ADE721F480717F
:1029B00081602068C16801F0800161F4C071C1606C
:1029C000FEF7C0FF804605E0FEF7BCFFA0EB080065
:1029D000484515D82068C068C007F5D02068C66192
:1029E0002068816841F4807181602068816841F4C9
:1029F00080511BE0FEF7A6FFA0EB0800484506D972
:102A00002068456284F81DA027770320B1E720687D
:102A1000C0688007EED5206806622068816841F4AE
:102A2000007181602068816841F40051816009482B
:102A3000016841F40031016006480830016841F442
:102A4000003101602068456284F81DB027770020BE
:102A50008FE70000000401402DE9F0470446007FA5
:102A60000B46012825D04FF0010984F81C90022064
:102A70006077587802B300F0FFFE987800F0FCFE13
:102A80009878D97840EA014558781978000240EAE8
:102A9000413005432168CA204862216853204862BA
:102AA000204600F0FDFE0026FF274FF0040838BB4B
:102AB00019E00220BDE8F087C10603D500F0EF0061
:102AC0000A305870D87800F0E0FE0204587800F020
:102AD000DCFE42EA0022987800F0D7FE0243187824
:102AE00042EA4035D6E70D48054020684560206839
:102AF000C16821F08001C160204600F085F830B146
:102B00002068476284F81D8026770120D2E720687C
:102B1000476284F81D9026770020CBE73FFFFF0037
:102B20002DE9F0470446007F0D46012811D04FF0F3
:102B3000010A84F81CA002206077206800268068C3
:102B40004FEA406042B100281ADA287800F094FE7B
:102B500017E00220BDE8F087002800DBEE7028783F
:102B600000F093FE0204687800F08FFE42EA002233
:102B7000A87800F08AFE0243E87842EA00470AE0BB
:102B8000EE70A878297840EA01476878E978000271
:102B900040EA014007432168CA2048622168532067
:102BA0004862204600F07CFE4FF0FF084FF0040919
:102BB000C0B914480740206807602068816821F484
:102BC00080218160D5E90101084321688A681043AA
:102BD00088602068C16821F08001C160204600F053
:102BE00013F838B12168C1F8248084F81D90267745
:102BF0000120AFE72168C1F8248084F81DA0267762
:102C00000020A7E77F7F7F0070B504460068C16899
:102C100021F0A001C160FEF795FE05464FF47A76DB
:102C200007E000BFFEF78EFE401BB04201D9032033
:102C300070BD2068C0688006F4D5002070BD70B5F6
:102C4000040004D094F85100002510B106E00120E2
:102C500070BD84F85050204600F02EF8022084F811
:102C600051002068016821F040010160D4E90101B0
:102C70000843D4E903121143084361690843218BD7
:102C800001F400710843E1690843216A0843A16A1D
:102C9000084321680860A069042101EA1040616AC4
:102CA0000843216848602168E06A08616565012081
:102CB00084F85100002070BD70474FF0E0210428D7
:102CC000086903D020F004000861704740F0040058
:102CD000FAE7704710B5401EB0F1807F01D30120A4
:102CE00010BD4FF0E02460610F21601700F05AFB27
:102CF0000020A06107202061002010BD10B5FFF763
:102D0000E8FF10BD10B5040003D094F8350010B1F1
:102D100007E0012010BD002084F83400204600F0B8
:102D20000DF8022084F83500211D206802F0C4FE51
:102D3000012084F83500002010BD000008B50168AE
:102D40001448B1F1804F14D0134A914220D1016848
:102D500041F0020101600068012200F002000090D1
:102D600003211D20FEF728FE1D20BDE80840FEF7C8
:102D700018BE016841F0010101600068002200F006
:102D80000100009003211C20FEF716FE1C20ECE73A
:102D900008BD000024380240000400400168CA68F1
:102DA00042F00102CA600068016841F0010101605F
:102DB00000207047704770B50446006801694FF005
:102DC0000005C943890715D4C168C943890711D4CF
:102DD000E91E016101202075206880698007204676
:102DE00002D0FFF7E7FF04E000F078F8204600F09B
:102DF00076F8257520680169C943490717D4C16869
:102E0000C943490713D46FF0040101610220207502
:102E10002068806910F4407F204602D0FFF7CAFF87
:102E200004E000F05BF8204600F059F825752068B2
:102E30000169C943090716D4C168C943090712D4F7
:102E40006FF008010161042020752068C0698007C7
:102E5000204602D0FFF7AEFF04E000F03FF8204626
:102E600000F03DF8257520680169C943C90617D4EB
:102E7000C168C943C90613D46FF01001016108206D
:102E800020752068C06910F4407F204602D0FFF70B
:102E900091FF04E000F022F8204600F020F82575AC
:102EA00020680169C943C90708D1C168C943C90776
:102EB00004D1891E0161204600F012F820680169E2
:102EC000C943490609D4C168C943490605D46FF00E
:102ED00040010161204600F017F870BD704770474F
:102EE00001680748B1F1804F06D0064A914205D1EA
:102EF0004068002802D000470068FAE770470000E9
:102F00003400002000040040704770B5040004D075
:102F100094F83900002510B106E0012070BD84F856
:102F20003850204600F020F8022084F8390020684C
:102F3000C16821F40051C160204602F033FF2068CF
:102F4000016921F4904101612068416921F02A0161
:102F500041612068C16841F40051C160E56301200E
:102F600084F83900002070BD7047000090F83930B7
:102F7000012B01D0122B2CD139B332B390F8383059
:102F8000012B26D0012380F8383081628285C285EA
:102F90000021C16390F83920122A18D05FF0220274
:102FA00080F8392080F838100168CA6842F48072CD
:102FB000CA6001684A6942F001024A610068C1685A
:102FC00041F02001C160002070470120704732228B
:102FD000E6E702207047000010B586B0142168466D
:102FE000FDF7BDF80E48016841F00201016000687C
:102FF0000C4C00F0020005900122C0212046FEF793
:103000009CFCC02000901120019001200290022021
:10301000039069462046FEF7C5FB06B010BD0000D0
:103020001C380240000402402DE9F05F8B4600216D
:103030000170364D91468046012280212846FEF7D8
:103040007CFC012000F016F9802601224021284650
:10305000FEF773FC0120FDF741FF4C4600270120DD
:1030600000F056F84FF47A7A07E0641EE4B201D219
:1030700004270BE05046FDF731FF40212846FEF7BC
:1030800057FC0028F1D0002000F042F80320FDF7A3
:1030900025FF80212846FEF74BFC20B198F8000060
:1030A000304388F80000002240212846FEF745FC06
:1030B0000120FDF713FF7608C7D1002000F0DAF8F1
:1030C000BBF1000F1FD0012280212846FEF735FCFE
:1030D0000120FDF703FF012240212846FEF72DFCC9
:1030E0000520FDF7FBFE002240212846FEF725FCC7
:1030F000012280212846FEF720FC1420FDF7EEFE79
:103100003846BDE8F09F0022DEE7000000040240E0
:1031100010B586B0044614216846FDF720F840201B
:103120000090012C01D0112000E00020019001202E
:1031300002900220039069460248FEF733FB06B076
:1031400010BD00000004024010B5114C0122802186
:103150002046FEF7F2FB0120FDF7C0FE01224021D0
:103160002046FEF7EAFB0120FDF7B8FE0022802191
:103170002046FEF7E2FB0A20FDF7B0FE00224021C8
:103180002046FEF7DAFBBDE810400A20FDF7A6BE98
:103190000004024010B5114C002240212046FEF7E9
:1031A000CCFB0120FDF79AFE002280212046FEF78D
:1031B000C4FB0120FDF792FE012240212046FEF7CC
:1031C000BCFB0A20FDF78AFE012280212046FEF783
:1031D000B4FBBDE810400A20FDF780BE00040240A9
:1031E0002DE9F0410025224E074680243C4201D1C2
:1031F000002200E0012280213046FEF79EFB0120E4
:10320000FDF76CFE012240213046FEF796FB0520BB
:10321000FDF764FE002240213046FEF78EFB0120C0
:10322000FDF75CFE6408E1D1012280213046FEF703
:1032300084FB012240213046FEF77FFB0120FDF791
:103240004DFE012000F016F880213046FEF770FB9D
:1032500000B10125002240213046FEF76EFB14200C
:10326000FDF73CFE002000F005F82846BDE8F0819F
:103270000004024010B586B0044614216846FCF7ED
:103280006EFF80200090012C01D0112000E0002072
:103290000190012002900220039069460248FEF747
:1032A00081FA06B010BD00000004024010B5FDF721
:1032B000A7FDFDF7E1FD03F0AFFD044804F0E8FFD2
:1032C000BDE81040012002F02DBC0000AD5B0008FD
:1032D000FEE77047084807490160084981600849CE
:1032E00041600849C1600849016108480168024815
:1032F00008470000813700089C0000200D370008B7
:103300009937000869370008513700080083000822
:103310002DE9F0411D4614460E460746FFF7DAFF39
:1033200022463146384600F009F80348416B2846EA
:10333000BDE8F04108470000008300082DE9F04196
:10334000174D88468AB0E9681646884700240594D8
:103350000694CDE9074608270320CDE90107012699
:1033600007200090CDE90346D5F81CC0234622462D
:1033700041463046E047CDE90846CDE9044606948B
:1033800005200794CDE90204CDE900470323072275
:103390000021AC690120A0470AB0BDE8F08100001F
:1033A000008300080907090E002806DA00F00F0064
:1033B00000F1E02080F8141D704700F1E02080F853
:1033C0000014704770B5002404F1B000C0B20021B1
:1033D00000F068F90021022000F064F900211020BB
:1033E00000F060F900250121002000F05BF96D1C60
:1033F000EDB2802DF7D3641CE4B2082CE4D370BD89
:1034000070B50446861C18E004F1B000C0B200217B
:1034100000F048F90021022000F044F900211020BA
:1034200000F040F900250121002000F03BF96D1C5F
:10343000EDB2802DF7D3641CE4B2B442E4D370BD86
:10344000A62000F001B800007CB5012405460094D8
:10345000002322461C214D480194FDF7BDFD4B4839
:103460000094002301221E210C300194FDF7B4FDCD
:1034700046480094002301221D2118300194FDF7D5
:10348000ABFD42480094002301221F212430019407
:10349000FDF7A2FD0021AE2000F004F9002102207A
:1034A00000F000F90021102000F0FCF8002140207D
:1034B00000F0F8F80021812000F0F4F80021CF207E
:1034C00000F0F0F80021A12000F0ECF80021C82065
:1034D00000F0E8F80021A62000F0E4F80021A82080
:1034E00000F0E0F800213F2000F0DCF80021D320BC
:1034F00000F0D8F80021084600F0D4F80021D520CB
:1035000000F0D0F80021802000F0CCF80021D92074
:1035100000F0C8F80021F12000F0C4F80021DA2002
:1035200000F0C0F80021122000F0BCF80021DB20E0
:1035300000F0B8F80021402000F0B4F8002120206D
:1035400000F0B0F80021022000F0ACF800218D203E
:1035500000F0A8F80021142000F0A4F80021A42015
:1035600000F0A0F80021284600F09CF80021AF20D0
:1035700000F098F80021AF2000F094F8FFF722FF48
:10358000BDE87C400021084600F002B82C05002070
:1035900010B50446B031C8B2002100F083F8102005
:1035A00040EA1410002100F07DF804F00F00BDE89F
:1035B000104040F00100002100F074B82DE9F04106
:1035C00015460E460746FFF7E3FF0F48002400EBC1
:1035D00085150121285D00F065F8641CE4B2102C0B
:1035E000F7D3761CF1B23846FFF7D2FF0024281932
:1035F000012190F8200000F055F8641CE4B2102C72
:10360000F5D3BDE8F08100006D8900082DE9F04197
:10361000203A00240D468046D7B27F2803D90020E7
:103620008D1C8046EDB22946FFF7B2FF0F4E00BF5A
:1036300004EB07100121305C00F034F8641CE4B2A4
:10364000082CF5D36D1CE9B24046FFF7A1FF00241A
:1036500004EB071030440121007A00F023F8641CC9
:10366000E4B2082CF4D3BDE8F08100007D830008AB
:103670002DE9F04117460E46044600250CE0314680
:103680002046FFF7C3FF0834E4B2782C02D90024A7
:10369000B61CF6B26D1CEDB27A5D002AEFD1BDE822
:1036A000F081000070B5054601B101211648FDF713
:1036B000ADFD154800210C38FDF7A8FD0024124887
:1036C00000210C30FDF7A2FD280601D5012100E004
:1036D00000210D481830FDF799FD0B4801210C30F1
:1036E000FDF794FD6806641C050EE4B2082CE6D3D1
:1036F000054801210C38FDF789FDBDE87040012126
:103700000148FDF783BD0000380500202DE9F04792
:103710000C4E07469946F06A15460C468047DFF87E
:10372000288022463946A8F802400848FCF7FEFCEB
:1037300088F8005088F80190716BBDE8F0474FF4AD
:103740007A7008470083000814000020B8000020A9
:1037500010B5044CE06A8047616BBDE810404FF43F
:103760007A7008470083000810B5044CE06A80476F
:10377000616BBDE810404FF47A7008470083000881
:1037800010B5044CE06A8047616BBDE810404FF40F
:103790007A7008470083000810B5044CE06A80473F
:1037A000616BBDE810404FF47A7008470083000851
:1037B00010B5064802F0B0FA05484178002903D058
:1037C000002141700121017010BD0000180500208A
:1037D00040000020F8B507461A48002600681A4D38
:1037E00010F0F00F20D1174C1C342068C00002D517
:1037F000FEF714F90DE0206840F08050206020684A
:1038000000F080500090FEF709F9216821F0805106
:103810002160B0F5C05F07D1B7F5404F04D12868EB
:10382000012640F004002860286820F001003043A1
:103830002860286800F00100B04201D00120F8BDE6
:103840000020F8BD08380240003C024010B509488D
:10385000FEF7EEFE4FF480710648FEF717FF00F00A
:10386000ADFA00F02BF90020FDF7ACFABDE81040EE
:1038700002F0E0B9B4020020010901EB810100F07F
:103880000F0000EB4100C0B27047002102E00A388F
:10389000C0B2491C0A28FAD2090740EA11607047F1
:1038A00070B504460068C168490614D44FF0FF3172
:1038B000C160FEF747F805464FF47A7607E000BF8F
:1038C000FEF740F8401BB04201D9032070BD2068CC
:1038D000C0684006F4D5002070BD00000FB414226B
:1038E0002DE9F04F87B00C4612A96846FCF71EFC84
:1038F0009DF85200059067489DF851809DF85070E2
:103900009DF84C60844201D214B102E0044600E00C
:1039100001242046FCF7ABFE5F4A604BFCF799FDA3
:103920008A46814604F0B0FA04460D464A4653469C
:10393000FCF789FD00225A4BFCF78BFDDFF864A1F0
:1039400081468B46DAF80C00FCF780FE4A465B465F
:10395000FCF7D8FCFCF7ACFEDFF84C91DFF84CB17B
:10396000CAF80C00B0F5F47F16DBA0F5F470CAF8C5
:103970000C0000224E4B20462946FCF7C3FC0446AF
:103980000D4609E000224B4620462946FCF75BFD28
:10399000761C04460D46B6B200224B462046294608
:1039A000FCF7EAFEEED9D94600224B4620462946CE
:1039B000FCF7E2FE17D800224B4620462946FCF7CA
:1039C00042FD7F1C04460D46BFB2EDE700224B4688
:1039D00020462946FCF737FD044608F101000D4654
:1039E0001FFA80F801E0DFF8CC9000224B46204619
:1039F0002946FCF7C1FEE9D90598FCF738FE2246B6
:103A00002B46FCF77FFCFCF772FE80B205E03C38E9
:103A100008F1010180B21FFA81F83C28F7D205E0D5
:103A2000A8F13C017F1C1FFA81F8BFB2B8F13C0F2E
:103A3000F6D203E0183F761CBFB2B6B2182FF9D207
:103A40009DF84D1009B39AF80620114489071CD03F
:103A50009DF84B201849491E515CB14203D2B6FB78
:103A6000F1F201FB12668DF80A008DF809808DF8DD
:103A700004608DF80870142269461098FCF756FB14
:103A800007B0BDE8F00F5DF814FB0B499DF84B2023
:103A90000C31E0E742061200FCA9F1D24D62004071
:103AA00000408F40200000200018F5400020AC406E
:103AB0000000F03F00004E40E882000810B5224CA4
:103AC00092B0607900283CD10DA800F0F1F81422E2
:103AD0000DA901A8FCF72AFB00234FF4807206A968
:103AE0001A48FEF72CFE9DF81900C0EB001081006B
:103AF0009DF81800C0EB4012C2EB002001EB001053
:103B00009DF81A1008449DF80D10C1EB01118A00B0
:103B10009DF80C10C1EB4113C3EB012102EB011125
:103B20009DF80E201144081AFCF7A1FD0022084B55
:103B3000FCF78FFC02F0BCFEFCF7D9FDA060012071
:103B4000607112B010BD000020000020B4020020FF
:103B50000040DF3F2DE9F04700248AB0254680B1C0
:103B6000142201466846FCF7E1FA9DF80510BDF8FD
:103B700000000026DFF8F490DFF8F4A088460F1864
:103B800012E005A800F094F8142205A9EAE7CEB1E6
:103B9000B00717D00022534620462946FCF7B2FB57
:103BA000761C04460D4636B2B742F0DCB8F1000F81
:103BB0000BD0B80709D09DF803700026DFF8B48059
:103BC0007F1E2BE000224B46E6E7DFF8A8809DF839
:103BD0000370002608F10C087F1E0DE018F806009F
:103BE00025494843FCF743FD22462B46FCF78AFB58
:103BF000761C04460D46F6B2B742EFDC10E000BF7B
:103C000018F806001C494843FCF731FD22462B46B4
:103C1000FCF778FB761C04460D46F6B2B742EFDCA3
:103C20009DF809109DF80A00C1EB011100EB81021B
:103C30009DF808004FF4616148439DF8041040F27C
:103C4000A323594300EBC1101044FCF710FD22469A
:103C50002B46FCF757FB0022084BFCF7FAFB04F05D
:103C600013F90AB0BDE8F047FCF741BD50287E418A
:103C700038137E41E8820008805101000040DF3F98
:103C80000A498B680022984204D94B7813B14A70D4
:103C90008B68C01A8B68984202D9322801D28A7088
:103CA000704701228A708968401A704720000020FE
:103CB00010B586B004460022114802A9FEF798FD0F
:103CC00000220F480DF10201FEF770FD0D499DF82D
:103CD0000530CA88ADF80020632B03D0087840B1C6
:103CE0001BB106E00120087003E000200870643278
:103CF000CA80142269462046FCF718FA06B010BDA7
:103D0000B40200202000002010B50020FFF722FFA1
:103D100004460548FFF71EFF844202D2C0432044F8
:103D200010BD201A10BD0000D402002070B51F4E37
:103D300086B03079002837D10125A80590FAA0F087
:103D40001B49B0FA80F001EB8000C0F880561A4899
:103D500018490024C0E9001403218160C0E903145C
:103D600044618461FEF768FD8DF8035006208DF8EC
:103D700005408DF802008DF8045000220E480DF128
:103D80000201FEF769FE0294039400220A4802A988
:103D90000494FEF7C5FE002204212920FDF70CFE45
:103DA0002920FDF7FEFD357106B070BD2000002012
:103DB0000000474200280040B40200200C4841683F
:103DC000C943C9070ED00B49012048700A48016851
:103DD000C1F38101012903D0006810F00C0F06D156
:103DE000FDF70EB8016841F004010160EEE770478D
:103DF000007000402000002008380240AFF300802F
:103E000030B505464FF4807499B021462048FEF73E
:103E10003DFC1F48FEF7CDFB14A8FFF749FF142215
:103E200014A908A8FCF782F91948142208A920301F
:103E3000FCF77CF90AAB93E807008DE80700DDE9A1
:103E40000823294614A8FFF749FD142214A903A842
:103E5000FCF76CF90020119010908DF837009DF858
:103E600016008DF836009DF815008DF835009DF888
:103E7000140013948DF834009DF810008DF848005C
:103E800000220DA90248FEF727FD19B030BD000041
:103E9000B402002070B5092000F0A9FD05460620F7
:103EA00000F0A5FD0404072000F0A1FD44EA002471
:103EB000082000F09CFD2043FCF7D9FB0022184BA2
:103EC000FCF7C7FAFCF713FC04460021092001F0B7
:103ED000B1FB3B2000F08BFD40F040013B2001F0A6
:103EE000A9FB3B2000F083FD8006FAD40D4800F0CA
:103EF00059FE3B2000F07BFD40F040013B2001F0EB
:103F000099FB3B2000F073FD8006FAD42946092076
:103F100001F090FB2046BDE8704000F043BE000079
:103F200080844E4000A1BC3310B501F0DDFB03F0EE
:103F3000F5FF04F0ABF8BDE810404FF47A5001F003
:103F4000C5BB70B50446FF20002240F231150FE0DA
:103F5000A35C58400823060602D585EA400000E02D
:103F600040005B1EC0B213F0FF03F4D1521CD2B26A
:103F70008A42EDD370BD000010B5FCF762FB044926
:103F8000FCF750F9BDE810400249FCF77DB900008C
:103F90000000C84200FF7F4710B5FCF752FB0549FF
:103FA000FCF740F90449FCF76FF9BDE810400349FC
:103FB000FCF732B900002F4300FF7F470000344276
:103FC00030B4029C23B1012B06D030BC8020704756
:103FD000234630BC00F004B8234630BC00F040B8A3
:103FE0002DE9FC41984615460E46074600F0EEF8CE
:103FF000040025D16DB1012D08D0022D03D08024FD
:10400000FFF7C8F829E042F6104004E042F60D4000
:1040100001E042F6064000F0E7F8040010D100F09D
:10402000C5F804000CD142460021684600F086F82D
:10403000040005D10022012101A800F07FF8044608
:10404000FFF7A8F84CB9BDF80000FFF7A5FF3860EE
:10405000BDF80400FFF790FF30602046BDE8FC810A
:104060002DE9FC411D4617468846064600F0AEF88D
:10407000040034D15FB1012F06D0022F01D080247B
:104080002DE042F2164004E042F20B4001E04FF412
:10409000105000F0A9F8040008D020E000F086F8E5
:1040A000040008D03846FCF719FF01E04FF47A7796
:1040B0006D1EEDB2F2D20DB124B110E00424FFF771
:1040C00069F81AE000221146684600F037F8054604
:1040D0000022012101A800F031F840EA0504FFF7B1
:1040E00059F854B9BDF80000FFF756FF3060BDF82D
:1040F0000400FFF741FFC8F800002046BDE8FC813E
:1041000000B50448FCF7EAFE4CF250305DF804EBD1
:10411000FCF7E4BEA086010038B50446FEF75CFF5C
:104120000548447000F02FF84CF25030FCF7D6FEF2
:10413000684600F064F838BD5E0000207CB50D468E
:10414000044600216846FEF76FFFB8B90022114609
:104150000DF10100FEF768FF80B90022294601A891
:10416000FEF762FF50B9684602219DF80450FFF740
:10417000E8FEA84201D0022000E00020BDF80010B7
:1041800049BA21807CBD10B500F020F8044643F206
:10419000A20000F029F80443FEF7FCFF1CB94CF222
:1041A0005030FCF79BFE204610BD000010B5FEF716
:1041B000CBFF054801214078BDE8104001EB4000ED
:1041C000C0B2FFF70DB800005E00002010B5FEF78A
:1041D000BBFF04484078BDE810404006000EFEF7E3
:1041E000FFBF00005E00002070B50446000AFEF725
:1041F000F7FF0546E0B2FEF7F3FF284370BDF8B5C0
:104200000546FFF7E3FF06464FF45E50FFF7ECFF6D
:1042100050EA060411D1FFF7C9FF04000DD1642252
:1042200000216846FFF78AFF040006D10022012121
:104230000DF10200FFF782FF0446FEF7ABFF1CB949
:1042400000984FEA304028602046F8BD10B5442061
:10425000FFF762FF002804D0FFF766FE0149012046
:10426000087010BD5E00002001207047034988429D
:1042700001D28020704700207047000040DD4A1FB7
:10428000014890F8AC0070475C0600202DE9F34F20
:104290000200724981B04FF000000CD0012A7DD19C
:1042A0000024D1F8EC002546072854D0082855D022
:1042B000092858D155E08A46D1F8C400FCF7D7F94F
:1042C00006460F460298FCF7D2F980468946302010
:1042D00000F08DFB30F0F9004FF0000401D0604D8C
:1042E00000E00025272000F082FB20F0F800BAF85B
:1042F000C810401C0844FCF7BAF99AF8CA20012AF1
:104300004FF0000222D0564BFBF7FCFF22462B4613
:10431000FBF7F8FF42464B46FBF7F4FF9AF8CC2038
:10432000012A4FF0000213D05FF00003FBF7EAFF11
:104330000322FCF76FF932463B46FCF7FCF80022FB
:10434000484BFCF786F803F09FFD7FE00023DBE796
:104350004FF08043EAE70024434D04E00024434D3E
:1043600001E0434D00243D4E012056F8F07FB84057
:10437000FCF76CF902460B4620462946FCF7DBF8B1
:1043800002460B4600203649FCF7D5F804460D4698
:10439000F088FCF76CF90022364B00E05BE0FBF79D
:1043A000B1FF22462B46FCF754F883460091707902
:1043B000001DFCF75CF980463079894600B1022087
:1043C000381A8000FCF753F9064602988A46C10065
:1043D00022487A4201EB820190F8FA2090F8F80026
:1043E00001EB021100B11420081A1C30FCF73FF950
:1043F00032465346FCF79FF802F05AFA42464B46C3
:10440000FCF727F8002207460E461346FCF7B4F9DE
:1044100002D23846314601E0002001460022164B08
:10442000FBF770FF22462B46FCF713F802460B46BB
:1044300058460099FBF766FF00220A4BFCF709F883
:104440000E4A0F4BFBF75EFF02F0A0FA03B0BDE887
:10445000F04FFCF74CB9BDE8FE8F00005C06002071
:104460000000F03F00408F408084FE4080840E4179
:1044700080841E4100001140000020402B8716D987
:10448000CEF7EF3F70B5184908601849184801F099
:104490008FFB17481549143001F08AFB1448134963
:1044A000283001F085FBFFF7F5FC002000F0F2FB5F
:1044B0000D48001D00F042F80E4D002404EB4406A8
:1044C000A85D00F0ABFB70198178407801F0B2F87C
:1044D000641CE4B2102CF1D3002000F09FFB0649CD
:1044E000002081F8AC0070BD60000020D1480008B9
:1044F0006C070020B08C00085C0600207CB501240D
:1045000000940023224604210B480194FCF764FD2B
:10451000002509482B462A461B219438CDE9004541
:10452000FCF75AFD044800231A461A218838CDE9C1
:104530000045FCF751FD7CBDFC06002010B504468B
:104540000368032201210648FCF75EFE0448636805
:1045500003220121BDE810400C30FCF755BE0000DD
:104560006806002070B514460E46054600F056FB5E
:10457000304600F017FB052000F08CFB0120FCF713
:10458000B7FC284600F066FA054600F069FEA54231
:1045900001DD002070BD012070BD0000F8B50025D0
:1045A0008DF800508E4C8F4E94F8AC0001280AD044
:1045B000022854D104F5887001F0AEFB94F8AD00E8
:1045C00001287DD1FCE094F8AD00B8B1012846D1B6
:1045D0004021122001F02EF8122000F008FA8DF888
:1045E00000009DF8000080066BD52021122001F00C
:1045F00021F894F8FE0000287ED090E094F8CC00DA
:10460000012834D13F2000F0F2F98DF800009DF828
:10461000000080072BD40B213E2001F00BF8102165
:104620003F2001F007F8704801F076FB94F8CE00C7
:10463000B0B10D2000F0DBF940F040010D2000F09A
:10464000F9FF6948143001F037FB306810B1006998
:1046500000B1804704F8D85F6570A5816581F8BD19
:104660006148143001F058FB84F8AC50EDE7B4F821
:10467000E2105E4F11B9B4F8E40030B1B4F8E400D0
:10468000091AC9B23844E2340EE094F8CA00A0B363
:10469000322000F0ACF9A4F8E20000BF14F8E21FE9
:1046A0006088091AC9B2384400F0CEF934F8020B18
:1046B00024F8E4094C4801F02FFB94F8CE0001E007
:1046C00082E034E010B30D2000F091F940F0400199
:1046D0000D2000F0AFFF4448143001F0EDFA3068CF
:1046E0000028B7D08668002EB4D094F9DA20B4F848
:1046F000E21000233D4801E00FE001E0B047A9E7E8
:1047000039480121423800F09FF9C7E7364884F85C
:10471000AC50143001F000FBE1E784F8AC503248B3
:1047200001F0FAFA3068002899D0006952E01920A7
:1047300000F05DF940B284F80801010605D5C043D8
:10474000401CC0F38500474201E0C0F385071A20F2
:1047500000F04DF92649D4F8B020002F06DA00EB1E
:1047600020108A42384405D99D3804E08A4200EB83
:104770002010F9D8A438A4F80A01132000F037F962
:1047800084F80C010146194800F05EF994F8FE0027
:1047900008B984F8AC50144801F0BEFA306800281B
:1047A000C2D08568002DBFD094F90831B4F90A2130
:1047B00094F80C1101B0AC46BDE8F0400B486047DE
:1047C0000821122000F036FF84F8AC503068002831
:1047D000AAD000680028A7D001B0BDE8F04000478B
:1047E0005C06002060000020800700205C0500209F
:1047F00040DD4A1F70B5334C204694F8AC3090F839
:10480000AD20B0F8E210B0F8E400A4F58075012BFB
:1048100015D0022B12D1002A10D10A1A234694F87F
:10482000E710B3F8E430284618448A4243DD00F02C
:104830002BFF34F8E40FE1780844208070BDAAB162
:10484000012AFBD1204801F067FA8021122000F0F4
:10485000F1FE002084F8AC001C4800680028EDD070
:10486000C0680028EAD0BDE87040004741B938B9B7
:1048700094F8CA00A0B1322000F0B9F8A4F8E20020
:10488000B4F8E210B4F8E4000A1A94F8E6108A4288
:104890000CDD284400F0D8F834F8E40FA178CBE719
:1048A00009480121423800F0CFF8E9E7D1B22844A5
:1048B00000F0CAF802E0D1B200F0E6FE34F8E20FF0
:1048C000608070BD5C060020800700206000002032
:1048D0002DE9F047324CDFF8CC904FF0000894F807
:1048E000AC00012829D0022857D1FFF7D3FA0020C5
:1048F00000F0D0F92C4E002505EB4507F05D00F0E7
:104900008DF9B8198178407800F094FE6D1CEDB2F5
:10491000102DF1D3002000F081F994F8040100F08B
:10492000D1F984F8AC80D9F80000002835D040686F
:10493000002832D0BDE8F047004794F8AD00D0B968
:1049400084F8D88084F8D980A4F8E480A4F8E280C0
:1049500045460B213E20CE3400F06CFE10213F2056
:1049600000F068FE14F8CE0901280AD084F8AC5093
:104970000E4801F0D1F9D9F8000000280DD0C06828
:10498000D6E70D2000F033F840F040010D2000F094
:1049900051FE064801F090F9EDE7BDE8F087000010
:1049A0005C06002060000020B08C00089407002006
:1049B00070B50025012000F031F9FF21112000F031
:1049C00039FE052000F066F900240120FCF790FA7A
:1049D0002C2000F00CF800F00100A040641C0543FE
:1049E000E4B2202CF1D300F03BFC284670BD08B5A2
:1049F0000122694600F004F89DF8000008BD00009F
:104A00002DE9F04104460F480E4615460021804628
:104A1000FCF7FCFB0B4804F07F017C38074600F0F4
:104A2000B9FE002406E00021384600F0B3FE305500
:104A3000641CE4B2AC42F6D34046BDE8F04101212B
:104A4000FCF7E4BBFC0600200A4601460020FFF705
:104A5000D7BF000010B520B1012808D04FF0FF30BB
:104A600010BD1120FFF7C3FF4008404210BD0848A9
:104A70000849D0F8B00088424FF01B0003D9FFF777
:104A8000B6FF9D3810BDFFF7B2FFA43810BD00007F
:104A90005C06002040DD4A1F73B53B4C05460020F4
:104AA00094F8AD1011B101296BD12DE00020A4F8CC
:104AB000E4009DF80410A4F8E21094F8CA0058B17C
:104AC000322000F0B7FD00BF9DF80420501E3F28A3
:104AD00007D884F8E7200BE0012101A800F0D4FDFD
:104AE000F2E72946294802F0C7FC202084F8E700B5
:104AF00094F8E7102846D03400F0C6FDA08AE17D86
:104B00000844A08220683CE094F8FD0001284FF0A2
:104B1000330021D0FFF76BFF00F0BE013320491CAA
:104B200000F088FD1D213B2000F084FD9DF804105D
:104B300084F80C11222000F07DFD00210E2000F0F1
:104B400079FD00210D2000F075FD0120FFF74FFFDA
:104B500030F0F80009D00DE0FFF749FF00F0BE018A
:104B6000332000F067FD1921DDE700F08DFB012007
:104B7000FCF7BEF99DF80410284600F085FDD4F836
:104B8000000100F095FB7CBD5C0600205C05002068
:104B90007047000002490A78824200D008707047CE
:104BA000300000200E4910B5C1F8B000FBF75FFDE2
:104BB00000220C4BFBF7BFFCFBF799FD0446C0F34A
:104BC0000741062000F036FDC4F30721072000F05E
:104BD00031FDE1B2BDE81040082000F02BBD00001F
:104BE0005C06002080844E4070B50D46044600F0FF
:104BF00015F824B1012C0DD12946232006E00648E2
:104C000090F8CA00002805D129463220BDE870403E
:104C100000F010BD70BD00005C06002010B5044619
:104C20000120FFF7E4FE1A49000601D5012000E04B
:104C3000002081F8AD00C0B2A04227D081F8AD407D
:104C4000012C0FD000F00CFB0120FFF7D0FE00F08C
:104C50007F01012000F0EEFC0021402000F0EAFC82
:104C600030210EE000F0FCFA0120FFF7C0FE40F01A
:104C70008001012000F0DEFC0021402000F0DAFC81
:104C80000021BDE81040412000F0D4BC10BD000060
:104C90005C06002010B5040010D00020FFF77AFF5A
:104CA0002046FFF775FF0120FFF7A1FE00F0F80195
:104CB0002143BDE81040012000F0BCBC0120FFF7FB
:104CC00069FFF0E710B504460120FFF7A7FF06488B
:104CD00080F804410CB1342100E01221BDE81040FD
:104CE000392000F0A7BC00005C06002070B5044627
:104CF0000920FFF77CFE06464D20FFF778FE0546AB
:104D00002248D0F8B000FFF7B1FA06F07F0108435F
:104D100040F0700001062BD5112C02DD45F007058F
:104D200002E005F0F8052D1DE943490703D0022CE8
:104D30000CDA02240DE0052C01DA052402E0142C23
:104D400000DD142400F0F001641F05E0112C00DDEB
:104D5000112400F0F001A41E04F00F00014309200B
:104D600000F068FC2946BDE870404D2000F062BCB0
:104D70004FF0FF318C4201DA0C4602E00E2C00DDD0
:104D80000E2400F0F001641CE6E700005C06002041
:104D900070B5854C0546002694F8AD0010B1012889
:104DA00024D124E014F8CE6F4020FFF720FE00F05D
:104DB000030040F00C01402000F03CFC4120FFF7D4
:104DC00016FE40F0C101412000F034FC3520FFF711
:104DD0000EFE00F03F0020761E210D2000F02AFC80
:104DE0000020A072E072E082A082CE3C9EE094F8A7
:104DF000FD0001284FF0330027D0FFF7F8FD00F049
:104E0000BE013320491C00F015FC1D213B2000F0A1
:104E100011FCD4F8EC0009284FF031007ED2FFF7E6
:104E2000E6FD00F07F01312000F004FC002130207D
:104E300000F000FCD4F8EC0009285BD2DFE800F0B9
:104E40000E19242F3A4556565600FFF7D0FD40F074
:104E50004101332000F0EEFB1921D7E748212F2034
:104E600000F0E8FBD4F8B000FBF701FC00224F4B48
:104E700035E044212F2000F0DDFBD4F8B000FBF733
:104E8000F6FB00224A4B2AE044212F2000F0D2FBFF
:104E9000D4F8B000FBF7EBFB0022464B1FE04421A7
:104EA0002F2000F0C7FBD4F8B000FBF7E0FB002296
:104EB000414B14E044212F2000F0BCFBD4F8B0009B
:104EC000FBF7D5FB00223D4B09E044212F2000F0E9
:104ED000B1FBD4F8B000FBF7CAFB0022384BFBF75C
:104EE00011FAFBF704FCFFF75DFE03E040212F20E1
:104EF00000F0A0FB94F8FB0094F8FE60012831D08C
:104F00001F21112000F096FB4020FFF770FD00F0FC
:104F10003F01402000F08EFB002100E01CE00F204C
:104F200000F088FB00210D2000F084FB4FF480711D
:104F30002448FBF714F9012084F8AC0035B1294668
:104F4000214800F0B1FE204800F0B6FE94F8AD0014
:104F500090B116B3052021E0FFF749FD40F0800134
:104F60003120C5E71D21112000F064FB4020FFF730
:104F70003EFD00F03301CCE70520FFF78BFE002E4D
:104F800010D11148D4F8D410143000F08DFEBDE8D3
:104F900070400D48143000F08FBE0620BDE8704010
:104FA000FFF778BE70BD00005C0600200082BE40A6
:104FB000005AC4400082CE408057D4408084DE40F6
:104FC000C058E4405C050020800700202DE9FC5F0C
:104FD0009B4614468A468046DDF844900D9F0F9EFE
:104FE000FFF71CFE380A994D0090B8F1000F06D06B
:104FF000B8F1010F74D1BAF1020F73D9FEE745F889
:10500000BCAFAC600C986860AE731098E87385F81C
:105010001090149868741598A874AF812046FBF717
:1050200026FB04460B460191224600208849FBF7E7
:1050300082FA0322FBF7EEFA80468B460E98FBF7C6
:1050400016FB42465B46FBF704FA0022814BFBF756
:1050500000FAFBF74CFBA861224600207E49019B29
:10506000FBF769FAFBF743FB84B2210A022000F048
:10507000E1FAE1B2032000F0DDFA5046FBF796FFBB
:105080000146122000F0D6FA0C98FBF78FFF01467C
:10509000132000F0CFFA2520009900F0CBFAF9B2E6
:1050A000262000F0C7FA0EB1109900E0FF2132204F
:1050B00000F0C0FA3020FFF79AFC00F06F000EB14C
:1050C000002100E08021084340EA0911302000F06F
:1050D000B1FA3120FFF78BFC40F040013120A5E010
:1050E000B2E0FFE728460AF10708E0E93B840C2C10
:1050F00080F809B0478106731099417380F80E90CB
:105100001299C1731399017414994174159985F812
:10511000FE1001D90C2402E0062C00D20624B8F1BE
:10512000070F03D0B8F1080F02D003E00B2C47D0D3
:105130000C2C45D05FF0000185F8F4101D20FFF71E
:1051400056FC4FEA081141EA4B003043C1B21D2022
:1051500000F070FA1E20FFF74AFC00F0080040EA59
:10516000041141EA89000E99032202EA1121084341
:10517000C1B21E2000F05EFA2620FFF738FC00F0D6
:10518000F70195F8F40041EAC000C1B2262000F012
:1051900051FA0E98C1B21F2000F04CFA202000995D
:1051A00000F048FAF9B2212000F044FA1EB12220A2
:1051B000109900F03FFA95F8FB00012802D00EE0AC
:1051C0000121B9E74420FFF712FC40F080014420A0
:1051D00000F030FA95F8FC10242000F02BFAB8F11A
:1051E000090F02D00321362010E01C49D5F8B00089
:1051F00088424FF002014FF0360003D900F01AFA4E
:10520000642102E000F016FA7F213A2000F012FA41
:10521000062C4FF031000DD0FFF7E9FB00F0F8014C
:105220003120C91C00F006FA0A213720BDE8FC5FD6
:1052300000F000BAFFF7DBFB00F0F8013120491D58
:1052400000F0F8F90C21F0E7BDE8FC9F5C060020B7
:105250000000F03F00408F4080847E4140DD4A1FC7
:1052600010B5074800F058FD0548143800F054FD0B
:105270000020FFF70FFD0349002081F8AC0010BDAE
:10528000800700205C06002010B5074800F044FDB0
:105290000548143800F040FD0120FFF7FBFC0349EE
:1052A000002081F8AC0010BD800700205C060020C3
:1052B00010B50146254800F0F7FC254C94F8AD00E8
:1052C00010B101282DD119E04020FFF790FB00F02C
:1052D000030040F01001402000F0ACF94120FFF73E
:1052E00086FB00F03E01412000F0A4F93520FFF7D5
:1052F0007EFB00F03F0084F8E60012E094F8FB002B
:10530000012819D0F721112000F094F94020FFF76F
:105310006EFB00F03F0000BF40F04001402000F075
:1053200089F9022084F8AC00084800F0C5FCBDE80B
:1053300010400320FFF7AEBCF521112000F07AF9F0
:105340004020FFF754FB00F03300E5E76C07002036
:105350005C0600202DE9FF4F81B01D46DDE90E4BB4
:10536000DDE910688946DDF854A0129F0198FFF727
:1053700055FC4846FFF7BAFC7548320A019900927D
:1053800031B1012972D180F8E890022D54D9FEE79D
:1053900000F8B49F03990461C0E90115868280F882
:1053A0001680077680F819A01699C1610398FBF75B
:1053B0005EF90022674BFBF7BEF8FBF798F985B260
:1053C000290A042000F036F9E9B2052000F032F98C
:1053D0002046FBF74CF902460B4600205E49FBF7DE
:1053E000AAF8FBF784F984B2210A022000F022F91E
:1053F000E1B2032000F01EF92520009900F01AF90F
:10540000F1B2262000F016F93020FFF7F0FA00F094
:105410006F00B8F1000F01D0002100E080210843A7
:1054200040EA0711302000F005F93120FFF7DFFADC
:1054300040F04001312078E0ED1DC0E93B5480F898
:10544000F5B0A0F8F66080F8F880139980F8FB10AA
:10545000149A80F8FC2080F8FA7080F8FDA0169A63
:10546000C0F800210C2C02D90C2403E06CE0062CBF
:1054700000D20624072D02D0082D02D003E00B2C09
:1054800008D00C2C06D0002280F8F4208146012997
:1054900002D00EE00122F7E74420FFF7A8FA40F01F
:1054A0008001442000F0C6F899F8FC10242000F098
:1054B000C1F81D20FFF79BFA290141EA4B0040EAA1
:1054C0000800C1B21D2000F0B5F81E20FFF78FFACA
:1054D00000F00B0040EA041040EA8700C1B21E2031
:1054E00000F0A8F82620FFF782FA00F0F70199F8FB
:1054F000F40041EAC000C1B2262000F09BF8202051
:10550000009900F097F8F1B2212000F093F8062CF2
:105510004FF031000ED0FFF76AFA00F0F8013120A9
:10552000C91C00F087F80A21372005B0BDE8F04F0C
:1055300000F080B8FFF75BFA00F0F8013120491D58
:1055400000F078F80C21EFE705B0BDE8F08F00001F
:105550005C06002080844E4080847E4170B5064603
:105560008AB00D461046FBF782F800221E4BFAF770
:1055700070FFFBF7BCF804463046FFF713FB002032
:1055800005900690CDE907040521CDE901010390BE
:1055900004904FF49650002300901A46294618466E
:1055A000FFF7D8FE3120FFF722FA00F0BF013120CB
:1055B00000F040F8F021402000F03CF8A02141200C
:1055C00000F038F82146094800F06EFB0849022037
:1055D00081F8AC00054800F06FFB0AB00320BDE87D
:1055E0007040FFF757BB000000408F406C07002061
:1055F0005C06002010B50E4C94F8AD00002815D0C4
:10560000012813D1FA21112000F014F84020FFF7EF
:10561000EEF900F0FC01402000F00CF8032084F8C3
:10562000AC00BDE810400720FFF734BB10BD000000
:105630005C06002013B5012201A900F001F81CBD91
:105640002DE9F04104460F480E46154600218046DC
:10565000FBF7DCFD0B4844F080017C38074600F086
:1056600099F8002405E0315D384600F093F8641C99
:10567000E4B2AC42F7D34046BDE8F0410121FBF76C
:10568000C5BD0000FC0600200A4601460020FFF7C9
:10569000D7BF000010B586B0044614216846FAF75B
:1056A0005EFD80200090012C01D0112000E0002040
:1056B0000190012002900220039069460248FCF705
:1056C00071F806B010BD000000040240002208E09E
:1056D000002100BF00BF00BF00BF491C0829F8D34C
:1056E000521C8242F4D3704710B586B0142168462C
:1056F000FAF735FD0E48016841F0020101600068CB
:105700000C4C00F0020005900122C0212046FCF75D
:1057100014F9C02000901120019001200290022075
:10572000039069462046FCF73DF806B010BD000026
:105730001C3802400004024030B50024039D846000
:1057400061B14FF40061C160046207214462C0E9A5
:105750000A41C0E904231DB1446030BDC460F3E7D1
:105760004FF48271416030BD094B00221B6803E099
:105770005B08521C072A01D28B42F9D8302101EA7A
:10578000C201D20700D008221143C1617047000056
:105790004800002070B5044600680D46016841F0DD
:1057A00040010160FBF718FB20688168C943890745
:1057B000FBD4E9B2C16020688168C943C907FBD145
:1057C000C068C4B2FBF710FB204670BD2DE9FF4F47
:1057D00083B08B460446109FFBF7FEFA0525022690
:1057E00004F1580004F1640904F1700804F17C0A22
:1057F000BBF1070F03D0BBF11F0F2ED021E03349BF
:105800000A6842F480520A600A6822F480520A60F0
:105810002E490C310A6842F480520A60096801F48A
:10582000805100912A492DE04FF40070A0610020C2
:10583000009000E0009600231A4619462046FFF724
:105840007BFF24492046FFF78FFF2046FDF7F7F93D
:1058500007B0BDE8F04FFBF7C7BA1C49091D0A683D
:1058600042F480420A600A6822F480420A601749C2
:1058700010310A6842F480420A60096801F48041EC
:10588000009115492160CDE90065002302225946A7
:10589000FBF7A2FBCDE900650023022248460599EB
:1058A000FBF79AFBCDE900650023022240460699EA
:1058B000FBF792FB0126CDE9006500230222394661
:1058C0005046FBF789FB7F1CB4D1ADE7143802408A
:1058D00000300140809698000038004010B5FCF779
:1058E00037F8BDE81040FDF709BA000030B524488C
:1058F00095B0016841F080510160006800F080506F
:1059000014902048016821F4C05141F40061016005
:1059100001240520CDE900040220C5030294CDE94D
:1059200009054FF440200B90A0050C906846FCF749
:1059300097FA0F200D9003200E9000200F901090EA
:10594000119001210DA8FCF725F912A8CDE9124507
:10595000FCF76CF8FCF708FA4FF47A71B0FBF1F041
:10596000FDF7B8F90420FDF7A8F90320FCF744F887
:1059700000221146501EFCF71FF815B030BD000084
:10598000243802400070004038B52E48016841F0CC
:1059900080510160006800F0805000902A48016842
:1059A00021F4C05141F4006101602649243908689E
:1059B00040F480300860234C4FF400321034012052
:1059C00092FAA2F3B3FA83F343F020035B0901D008
:1059D0000B6800E0236892FAA2F5B5FA85F505F0A8
:1059E0001F0500FA05F52B42EAD04FF0807292FABB
:1059F000A2F2164BB2FA82F243F822004FF0007383
:105A000093FAA3F2B2FA82F242F02002520901D0D4
:105A10000A6800E0226893FAA3F5B5FA85F505F067
:105A20001F0500FA05F52A42EAD006481C3801682D
:105A300041F0030101600168C1F381010329FAD13A
:105A400038BD00002438024000700040000047428A
:105A50000F48016841F4807101600D4908310A68FE
:105A60000C4B1A400A6002680B4B1A400260026835
:105A700022F480220260086820F47D000860002083
:105A8000091D086005494FF000600860704700007C
:105A9000003802400CC0FF88FEFFFEEE08ED00E07B
:105AA0000148FDF788B90000E80200200148FDF731
:105AB00082B900002003002070B502684FF08046D4
:105AC000134B144CB04203D0984201D0A04205D1F0
:105AD00022F070054A682A43B0420CD098420AD09E
