:020000040800F2
:10000000D809002009010008BF2E000813010008CC
:10001000BD2E0008450F0008A13F000800000000A9
:100020000000000000000000000000001B010008AC
:10003000470F0008000000001F010008FD3A0008FB
:100040002301000823010008230100082301000800
:100050002301000823010008570F0008A10F000822
:10006000B10F0008C10F0008D10F000823010008DC
:1000700023010008230100082301000823010008D0
:1000800023010008230100082301000823010008C0
:10009000230100082301000823010008E10F0008E4
:1000A00000000000230100082301000823010008CC
:1000B000C13C0008CD3C0008D93C000823010008E1
:1000C0002301000823010008230100082301000880
:1000D00023010008593F00082301000823010008FC
:1000E000670F0008093300082301000823010008F6
:1000F00023010008DFF80CD000F0C8FC00480047DE
:10010000854F0008D8090020064880470648004768
:10011000FEE7FEE7FEE7FEE7FEE7FEE7FEE7FEE7B7
:10012000FEE7FEE7713C0008F500000840EA010325
:100130009B0703D009E008C9121F08C0042AFAD29D
:1001400003E011F8013B00F8013B521EF9D2704761
:10015000F0B480EA0102D40F4200B2EB410F02D2A8
:100160000246084611464A0042D0C30DDDB2C1F333
:10017000C752AD1A202D35DAC1F3160141F4000241
:1001800004B15242C5F1200602FA06F12A41104498
:10019000B3EBD05F23D0C4B1012DA0EBC35009DC79
:1001A000F0BC4FF0004202EAC352DBB200F500009F
:1001B00000F085BB400000F1807000EBC350A0F15F
:1001C000807040EAD170490009E0490841EAC071F5
:1001D000A0EBC35000F50000400800EBC350F0BC9A
:1001E00000F064BB6142012202EB4101001BF6E713
:1001F000F0BC704781F00041AAE780F00040A7E71B
:1002000080EA010210B502F00043400022D04A000B
:100210001FD0010E01EB1261C0F35600C2F356026B
:1002200040F4000042F40002A0FB022000047F39E9
:10023000140400D0401C50EA124001D44000491E72
:10024000C2B20C0604EBD010401C4008802A02D039
:1002500003E0002010BD20F00100002900DA00209A
:10026000184310BD30B480EA010202F0004530F0BE
:10027000004221F0004013D090B1C30DD40DC2F361
:100280001601C0F31600E41A41F4000140F4000224
:100290007D34914201D3641C00E04900002C02DA55
:1002A00030BC002070474FF400000023914201D37E
:1002B000891A034340084FEA4101F7D151B19142F5
:1002C00002D14FF0004105E002D24FF0010101E000
:1002D0006FF0010103EBC450284430BC00F0E6BAD3
:1002E0002DE9FE4F804681EA0300C00F0C460090C6
:1002F00021F0004123F00045B8EB0200A94105D2EE
:100300004046214690461C460B46024623F00040DC
:10031000104347D0270DC7F30A00C3F30A510290D8
:10032000401A019040286BDAC3F3130040F4801B9D
:100330000098924620B10023D2EB030A63EB0B0B2B
:1003400001985946C0F14002504600F07EFA064638
:100350000D4650465946019A00F096FA10EB0800F7
:100360006141002487EA115284EAE7731A4340D0BE
:10037000009A62B3019A012A4FEA075215DC001B6A
:1003800061EB02014FF0004202EA0752CDE9004260
:10039000001C41F5801132462B4600F0CDFA03B027
:1003A000BDE8F08F40462146F9E7001B61EB0201F2
:1003B000001C41F5801300185B412018A2F50017BE
:1003C00047EB030140EAD570B6196D4111E06D08A5
:1003D0004FEA360645EAC0754FEA0752001B61EB4B
:1003E0000201001C41F5801149084FEA3000001954
:1003F000514132462B4603B0BDE8F04F00F08DBAB4
:100400000098012240000023D0EB020263EBE0736E
:10041000009821464FEAE074B8EB000061EB04015C
:10042000E9E783F000435BE781F0004158E72DE9FD
:10043000FE4F81EA030404F0004421F000410094DF
:100440004FF0000B23F0004350EA01045ED052EA63
:1004500003045BD0C3F30A54C1F30A552C44A4F23D
:10046000F3340194A0FB0254C1F3130141F4801151
:10047000C3F3130343F4801301FB024400FB034E58
:10048000840A970A44EA815447EA8357A4FB076821
:1004900002958D0A05FB07854FEA932C04FB0C544B
:1004A0002705029D4FEA065847EA1637B5EB0805BF
:1004B0006EEB070C870E920E47EA811742EA831211
:1004C000A7FB0201B6EB0B0164EB00042B0D43EA22
:1004D0000C335E1844EB1C50DA465146E7FB020130
:1004E000C5F313044FEA0B3343EA14534FEA0432C3
:1004F000019C43EA0603A4F10C040294009CCDE99C
:1005000000B400F019FA03B0BDE8F08F00200146F6
:10051000F9E72DE9F04D81EA030404F0004B21F0E6
:10052000004514464FF0000A23F0004150EA05024E
:1005300020D054EA01021DD0C5F30A570246C5F384
:100540001303C1F31300C1F30A5640F4801543F4BA
:100550008013A7EB0608101BD64608F2FD3873EB94
:10056000050002D308F1010801E092185B41B8F1DF
:10057000000F03DA00200146BDE8F08D00204FF4A3
:100580008011064684460EE0171B73EB050705D362
:10059000121B63EB050306434CEA010C49084FEAC2
:1005A000300092185B4150EA0107EDD152EA030096
:1005B00012D082EA040083EA0501084305D0101B2B
:1005C000AB4106D20122002306E000224FF0004397
:1005D00002E06FF0010253101AEB06004CEB0851D9
:1005E00010EB0A0041EB0B01BDE8F04D00F095B9AE
:1005F00070B521F0004303430CD0C1F30A55002429
:10060000D5EB040564EB0403D617AD1AB34102DB46
:100610000020014670BD201841EB025170BD9623A9
:100620000022114600F04BB90EB5C10F80EAE07010
:100630000844CA07002140F233438DE80E000A4601
:100640000B4600F079F903B000BD0EB540F233411E
:1006500002910021CDE900110A460B4600F06CF929
:1006600003B000BD20F00040C10DC0F3160040F4FF
:1006700000007F2901DA00207047962903DCC1F1D0
:100680009601C840704796398840704770B5C1F3ED
:100690000A5201F000450024C1F3130140F2FF3378
:1006A00041F480119A4201DA002070BD40F23343D8
:1006B0009A42A2F2334203DC524200F0D5F800E045
:1006C00090402C43F1D0404270BDC1F30A5210B5A6
:1006D000C1F3130140F2FF3341F480119A4201DA71
:1006E000002010BD40F233439A42A2F2334203DCB1
:1006F000524200F0B9F810BD904010BD00F0004229
:1007000030F000400AD0C10D01F56071C0F3160051
:1007100042EA0151C20840071143704700200146D8
:100720007047000030B5041E71F1000404DB4FF087
:100730000044404264EB0101141E73F1000405DB28
:100740001C464FF00043524263EB04038B4208BF48
:10075000824230BD30B5041E71F1000404DB4FF05D
:100760000044404264EB0101141E73F1000405DBF8
:100770001C464FF00043524263EB0403994208BF0A
:10078000904230BD01F0004330B421F0004150EA06
:10079000010206D00A0DA2F56072C1F31301002A0E
:1007A00002DC30BC00207047440F44EAC104C100A1
:1007B000E01830BC00EBC25000F078B830B50B4602
:1007C000014600202022012409E021FA02F59D4281
:1007D00005D303FA02F5491B04FA02F52844151E55
:1007E000A2F10102F1DC30BD2DE9F05F05460020E9
:1007F00092469B4688460646814640241BE0284692
:1008000041464746224600F02FF853465A46C01A42
:10081000914110D311461846224600F016F82D1AC1
:1008200067EB01084F4622460120002100F00DF839
:1008300017EB00094E41201EA4F10104DFDC4846FD
:1008400031462A464346BDE8F09F202A04DB203A81
:1008500000FA02F1002070479140C2F1200320FA13
:1008600003F3194390407047202A04DB203A21FA11
:1008700002F00021704721FA02F3D040C2F12002B9
:100880009140084319467047202A06DBCB17203ACF
:1008900041FA02F043EAE07306E041FA02F3D04085
:1008A000C2F1200291400843194670470029A8BFB1
:1008B0007047401C490008BF20F00100704710B489
:1008C000B0FA80FC00FA0CF050EA010404BF10BC3E
:1008D000704749B1CCF1200421FA04F411FA0CF16B
:1008E00018BF012121430843A3EB0C01CB1D4FEAA4
:1008F00000614FEA102042BF002010BC704700EB9F
:10090000C35010440029A4BF10BC7047401C4900CC
:1009100008BF20F0010010BC704710B5141E73F121
:10092000000408DA401C41F1000192185B411A43AF
:1009300001D120F0010010BD2DE9F04D92469B46FB
:1009400011B1B1FA81F202E0B0FA80F220329046A1
:10095000FFF77BFF04460F4640EA0A0041EA0B011D
:1009600053465A46084313D0114653EA010019D0A2
:10097000C8F140025046FFF777FF05460E46504645
:1009800059464246FFF761FF084305D0012004E0C5
:1009900020463946BDE8F08D0020054346EAE07662
:1009A0002C4337430A986305E40AA0EB08000022B1
:1009B000FD0A44EA47540A3002D500200146E9E71F
:1009C000010510196941DDE9084500196941BDE8D3
:1009D000F04DA2E72DE9F041054621F000400C461C
:1009E000284309D0C4F30A5040F23341884205DD60
:1009F00028462146BDE8F0812846FBE740F2FE315B
:100A0000884210DC0CDB4FEA043040EA155050EA13
:100A1000053105D0104804F0004101430020E9E70A
:100A200000200146E6E7A0F233404642C6F140020C
:100A300028462146FFF709FF0746884628462146F3
:100A40003246FFF711FF43463A46FFF766FF32464C
:100A5000BDE8F041FFF7F9BE0000F03FC1F30A52D4
:100A6000C1F3130140F2FF3341F480119A4202DADC
:100A700000200146704740F233439A42A2F23342CB
:100A800002DC5242FFF7F0BEFFF7DFBE064C074D17
:100A900006E0E06840F0010394E80700984710344E
:100AA000AC42F6D3FFF72AFB787600089876000868
:100AB0002DE9F04D00231A461B1A8A4103DB002062
:100AC0000146BDE8F08DC1F30A52C1F3130141F4B0
:100AD00080154FF0000BD10702D100186D41521E56
:100AE0000027044640F2FF11384601EB620A3E46F9
:100AF0008046024600204FF48011FFF7B5FEC21970
:100B00007141BB1846EB0100B4EB030C75EB000C14
:100B100004D3E41A65EB000517460E46241908F1C4
:100B200001006D4180463428E3DDF91946EB0600EB
:100B3000091BA84103D24FF0FF32134601E0002207
:100B400013461BEB070046EB0A51BDE8F04DFFF7DB
:100B5000E4BE000010B50021044800F069F8034825
:100B60000221BDE810400C3000F062B89000002077
:100B700070B5044600680168C94349061CD4816801
:100B800021F00101816000F08FFE05460FE000BFFB
:100B900000F08AFE401B022809D9E06C40F01000EA
:100BA000E064206D40F001002065012070BD2068E8
:100BB0000068C0434006EBD5002070BDF8B50026A4
:100BC0000446009600680168C94349062AD5816831
:100BD00041F001018160144814490068B0FBF1F054
:100BE00000EB400000E0401E00900028FBD100F028
:100BF0005BFE054611E000BF00F056FE401B0228D8
:100C00000BD9E06C40F01000E064206D40F0010072
:100C1000206584F848600120F8BD20680068C04362
:100C20004006E9D40020F8BD4800002040420F00F3
:100C3000064A10B51378002B07D10123137000F07A
:100C40001DF8BDE8104000F003B810BD5F000020A3
:100C5000094800214FF020628160C1604162C16299
:100C6000C0E90D214FF480624261C16301228161BC
:100C70008262C16100F0A8BBA80000207CB50C46D0
:100C80000E4905460C4808600D49086840F400709C
:100C90000860086800F400700090084800F00EFB3F
:100CA000601C08D0002100910B46019103222146CF
:100CB000284600F0C9F97CBD00240140A8000020AE
:100CC000203802402DE9FF474FF00008012494FA34
:100CD000A4F0324EB0FA80F0CDF80080CDF8048058
:100CE000CDF8088046F820402D4D2D4B343502209C
:100CF00090FAA0F2B2FA82F242F02002520901D038
:100D00001A6800E02A6890FAA0F7B7FA87F707F0A8
:100D10001F0704FA07F73A42EAD0214D2035286828
:100D200040F4007028602868CDE9001400F40070D9
:100D300003900620029069461A4800F01BFA194FEA
:100D40003868816841F001018160384600F05FFC3D
:100D50004FF0FF31384600F007FC384600F030FB1A
:100D60001FFA80F93868816821F0010181600098DC
:100D7000102801D0112802D10A4800F09FFA2868F3
:100D800020F40070286094FAA4F1B1FA81F146F8D9
:100D9000218004B04846BDE8F087000000004742CB
:100DA00000380240A8000020014840687047000059
:100DB00010000020034A12780AB1FFF783BF002019
:100DC000704700005F0000202DE9F0410021154828
:100DD000FFF7F0FF144C2080FFF737FC6FF00B0596
:100DE0002A46FFF705FC114F4FF0663632463B4668
:100DF000FFF71DFBFFF7C6FC60600A4802210C30BC
:100E0000FFF7D8FF6080FFF720FC2A46FFF7F0FBD2
:100E100032463B46FFF70BFBFFF7B4FCA060BDE892
:100E2000F0810000900000201000002066660A405B
:100E300010B5040001D002F01FFD0148C47010BDC0
:100E40002400002072B602484178491C4170704766
:100E50002000002004494878401E10F0FF00487030
:100E600000D162B6704700002000002030B51B4D55
:100E700085B02878A0B102F097FE00BF4FF0FF3098
:100E80000090052306220721154802F0AFFD02F06D
:100E90005FFD2878002801D10120287005B030BD01
:100EA00000F010FD02F032FE02F09EFC00240094DF
:100EB00001230322122102A8019400F0C5F8009436
:100EC00000230322082102A8019400F0BDF800F0DD
:100ED000E9FB00F0D7FB00F0DDFBCFE720000020AE
:100EE000B00400201CB500240094234601220321F5
:100EF0001348019400F0A8F811480094002301223F
:100F000018210C30019400F09FF80120CDE9000475
:100F10000B4800231A462D21183000F095F80121C6
:100F2000074800F025F9064801210C3000F020F9AF
:100F3000BDE81C4002480121183000F019B900003A
:100F4000FC000020FEE7704710B5FFF78BFBBDE803
:100F5000104000F0AFBB10B502F08EFCBDE81040B1
:100F6000012000F0C5BB10B502F086FC4FF4806094
:100F700000F0BEFB4FF4006000F0BAFB4FF480506D
:100F800000F0B6FB4FF4005000F0B2FB4FF480408D
:100F900000F0AEFBBDE810404FF4004000F0A8BBED
:100FA00010B502F069FCBDE81040022000F0A0BBC3
:100FB00010B502F061FCBDE81040042000F098BBC1
:100FC00010B502F059FCBDE81040082000F090BBBD
:100FD00010B502F051FCBDE81040102000F088BBB5
:100FE00010B502F049FC202000F082FB402000F008
:100FF0007FFB802000F07CFB4FF4807000F078FBDA
:10100000BDE810404FF4007000F072BB0A4808B50C
:10101000007860B101280CD0022807D107482023AE
:1010200000901A460221302001F078FF08BD0448E4
:10103000F5E70448F3E700000000002039740008D9
:1010400039730008B97300087CB5DDE90645CDE9C0
:10105000004500F001F87CBDF0B587B00546DDE93C
:101060000C760170481C6AD001F00F04012000FAD0
:1010700004F46C80334C11F0F00F1FD0C1F3031156
:10108000012925D002292DD0032935D02E496960A8
:10109000216841F020012160216801F020010591C3
:1010A00069880091AF720221CDE9027172B3032AFF
:1010B0002ED0022A2FD0012B35D035E0234969608C
:1010C000216841F001012160216801F00101E6E79A
:1010D0001F496960216841F002012160216801F027
:1010E0000201DCE71B496960216841F004012160CD
:1010F000216801F00401D2E717496960216841F0D5
:1011000008012160216801F00801C8E7002000E023
:10111000032001900FE0012B02D0019104960AE018
:1011200012200190FAE711200190012A03D13146E3
:10113000284600F013F86946686800F0E5FA07B041
:10114000F0BD00001C3802400014024000000240C4
:101150000004024000080240000C024090F9002008
:10116000521C04D0CAB24188406800F098BB704756
:10117000FFF7F4BFF8B50024009490F84820254606
:10118000012A12D0012280F848204A681F23072A2A
:101190000DD20668376C521E02EB820293409F43C9
:1011A0000B6893401F43376435E00220F8BD0D2AD9
:1011B0000BD20768FE6BD21F02EB820293409E4364
:1011C0000B6893401E43FE6325E0132A0BD206688A
:1011D000B76B0D3A02EB820293409F430B6893403A
:1011E0001F43B76317E00668192A0AD2776B133AD0
:1011F00002EB820293409F430B6893401F43776347
:1012000009E0376B193A02EB820293409F430B6867
:1012100093401F4337630A6807230A2A0AD20668E5
:10122000776902EB420293409F438B6893401F43D0
:1012300077611CE0142A0BD207683E690A3A02EB78
:10124000420293409E438B6893401E433E610EE0F2
:101250001A2A0BD80768FE68143A02EB4202934040
:101260009E438B6893401E43FE6000E000BF0A6807
:10127000102A01D0112A17D10D4A13681B0213D46A
:10128000136843F400031360096810290CD109495D
:10129000094A0968B1FBF2F101EB8101490000E064
:1012A000491E00910029FBD180F848502046F8BD26
:1012B000042701404800002040420F0070B50400A0
:1012C0000BD0E06C40F00200E0642046FFF750FCD9
:1012D00006004FF0000502D065E0012070BD2168D6
:1012E0006FF01F00086020684168314A114041607A
:1012F000206881682F4A1140816000BF2068C16862
:101300006FF31401C1602068016901F0404101617F
:101310002068416901F040414161206881696FF3B3
:101320000B0181612068C1696FF30B01C161206805
:10133000016A6FF30B0101622068416A6FF30B01D0
:1013400041622068816A6FF30B0181622068C16A83
:101350006FF30B01C1622068016B174A11400163F2
:101360002068416B01F0404141632068816B01F0CE
:10137000404181632068C16B01F04041C163206836
:10138000016C01F0404101642068416C6FF315016C
:1013900041640A48016821F400010160204600F020
:1013A000E1F82565E56484F84850304670BD0000DA
:1013B00000003CF88CF0808000800FFE0427014084
:1013C0000068806D70470000F8B504004FF000051C
:1013D00003D0E06C002610B110E00120F8BD2665B6
:1013E0005B4884F84860016841F0010101600068D1
:1013F00000F001000090204600F0B5F8E06CC00657
:1014000078D4E06C20F4885040F00200E064514849
:101410000168626821F44031114301606169E0684C
:101420004FF40073084393FAA3F3E26BB3FA83F328
:10143000216A9A4011430843022191FAA1F1626A9C
:10144000B1FA81F102FA01F10843616B102902D06F
:10145000A36B19430843236819684FF48077C94385
:10146000490629D5A169D4F81CC00843A168D4F85D
:1014700010E041EA0C01BE450CD0BEF1010F09D0CD
:101480004FF0000C41EA0C01D4F82CC0BCF1010F64
:1014900002D00AE0BC46F5E76AB3E26C42F02002F3
:1014A000E264226D42F0010222655A68DFF8A8C0AA
:1014B00002EA0C020A435A6021688A68274B1A40E4
:1014C00002438A602169B94224D0012922D02168CF
:1014D0000A6B22F0F8720A6321688968204A114079
:1014E000814227D12665E06C20F0020040F0010027
:1014F000E0642AE028E0FFE74FF4604C226B9CFA9E
:10150000ACFCBCFA8CFC521E02FA0CF20A4342F408
:101510000061CAE721680A6B4FF0F87722F0F87390
:10152000A26A97FAA7F7B7FA87F7521EBA40134391
:101530000B63D1E7E06C20F0020040F01000E064A3
:10154000206D40F00100206501252846F8BD00000F
:101550002038024004270140FF16FCFC8DF1FFC03B
:10156000FEFF80BF704770472DE9F04104460068D8
:101570000D4681684FF0000749050BD58068C0050E
:1015800008D5E06C40F02000E06484F84870012049
:10159000BDE8F08100F088F906460FE0681C0DD028
:1015A00025B100F081F9801BA84207D9E06C40F01A
:1015B0000400E06484F848700320E9E720680068CC
:1015C0008007EBD5A06918B921686FF01200086098
:1015D000E06C40F40070E0642068816811F0405FC6
:1015E00013D1616A89B9016B11F0F87F02D080686C
:1015F00040050AD4E06C20F48070E064E06CC00424
:1016000003D4E06C40F00100E0640020C0E710B5B6
:10161000044690F84800012822D0012084F84800B0
:101620002046FFF7CBFA00281BD1E16C40F20162A3
:10163000914341F48071E16421684A68520505D5FF
:10164000E26C22F4005242F48052E264E26CD30471
:101650004FF0000206D5236D23F00603236502E058
:10166000022010BD226584F848206FF022020A6033
:1016700021688A6812F0405FF3D18A6842F08042A4
:101680008A6010BD0248416841F001014160704725
:10169000002004E00248416841F0040141607047C5
:1016A000002004E00248416841F0020141607047B7
:1016B000002004E031B500F0F7F8044600F0F4F83B
:1016C0000099001B8842F9D338BD0000002118B9E9
:1016D00004E04008491CC9B20128FAD1034850F877
:1016E0002100002800D00047704700002C01002096
:1016F000044910B50A68024202D00860FFF7E6FF0D
:1017000010BD0000140401402DE9F84FDFF864B16A
:1017100000234FF0010C4FF0030A4FF00F090BF1BB
:10172000040EA0E00CFA03F6324072D04C68022C92
:1017300001D0122C0ED1DC0800EB8408D8F8204030
:101740005D07EF0E09FA07F5AC430D69BD4025436F
:10175000C8F8205007685D0091F804800AFA05F483
:1017600008F00308A74308FA05F848EA0708C0F894
:1017700000804F68012F05D0022F03D0112F01D018
:10178000122F11D18768D1F80C80A74308FA05F809
:1017900048EA0708C0F808804768B7430E79C6F3DF
:1017A00000169E403E434660C668A6438C68AC4027
:1017B0003443C4604C68E40054D52F4C256845F090
:1017C00001052560246823F0030504F0010400945A
:1017D0002A4C2544AF689C07240F09FA04F6B74346
:1017E000274EB04201D1002615E0264EB04201D16D
:1017F000012610E0244EB04201D102260BE0234E18
:10180000B04201D1032606E0214EB04202D10426A7
:1018100001E027E00526A6403E43AE60DBF800402D
:101820005D464E689443F60300D514432C60DEF801
:10183000004075464E689443B60300D514432C60AF
:101840000C4D08352C684E689443F60200D51443BD
:101850002C60084D0C352C684E689443B60200D5B8
:1018600014432C605B1C0A6832FA03F47FF45AAF0D
:10187000BDE8F88F0004014020380240000001401C
:10188000000002400004024000080240000C024038
:10189000001002400069084000D0012070470AB1E2
:1018A000816170470904FBE7014800687047000048
:1018B0004C00002002480168491C0160704700008C
:1018C0004C00002010B5032000F048F8002000F084
:1018D00005F800F017F8002010BD000010B5044610
:1018E00007484FF47A710068B0FBF1F001F074F929
:1018F00000222146501E00F011F8002010BD00000B
:1019000048000020704700F01F020121914040096B
:10191000800000F1E020C0F800117047F0B40E4BD9
:101920001B680C46C3F30223C3F10705042D00D93D
:101930000425191D072901D2002300E0DB1E012622
:1019400006FA05F1491E214099409E40761E164038
:101950003143F0BC01F0B4BA0CED00E0064900F0F0
:10196000070208684FF6FF03184040EA0220034AC6
:1019700010430860704700000CED00E00000FA051D
:101980000248006800F4C05070470000007000403A
:101990002DE9F84F06460078C00775D0DFF84C8176
:1019A0000027D8F80000C0000BD4D8F8001041F090
:1019B0008051C8F80010D8F80000012700F08050CE
:1019C00000904B4C2068C00510D4206840F4807013
:1019D0002060FFF769FF054605E000BFFFF764FFE1
:1019E000401B64284ED82068C005F7D53F4D243DE4
:1019F000286800F0C041706800F0C0428A4209D0F7
:101A0000C0F30141032905D12968890302D50120CA
:101A1000BDE8F88F354C1034216811F440314AD0BC
:101A200000F44030884246D03078C00743D0206868
:101A30004FF4000292FAA2F1B1FA81F14FEA810C5F
:101A40002C494FF0010A8C4420F44030CCF880A699
:101A500092FAA2F2B2FA82F201EB82010023C1F8FB
:101A600080362060C00526D5FFF71EFF81464FF463
:101A7000007B0AE0FFF718FFA0EB090141F2883074
:101A8000814202D90320C3E72EE09BFAABF0B0FA03
:101A900080F040F04001BAEB511F01D1296800E00D
:101AA00021689BFAABF2B2FA82F202F01F020AFA44
:101AB00002F00142DED07068C0F30141032906D173
:101AC000296800F0C04021F0C0410143296020682E
:101AD000716801F44031084320602FB1D8F800103C
:101AE00021F08051C8F80010002091E7243802400E
:101AF00000700040000047422DE9F047DFF8BC814C
:101B000005460E46D8F8000000F00100B04214D29D
:101B1000012E05D1D8F8001041F00401C8F80010DA
:101B2000D8F8001021F001013143C8F80010D8F8AE
:101B3000000000F00100B04271D12878604C8007AD
:101B400005D52068A96820F0F000084320602878B7
:101B5000C00771D05A4A5A4B69680120083A2C33A1
:101B6000022910D003292ED001292FD05FEA402767
:101B700097FAA7FCBCFA8CFC4CF0200C5FEA5C1CCA
:101B800004D0126803E04FF40037F1E71A6897FABF
:101B9000A7F3B3FA83F303F01F039840024262D025
:101BA000206820F0030008432060FFF77DFE69688D
:101BB000074641F28830022910D003291CD00129A0
:101BC000814626D034E04FF00077D1E70227CFE7F7
:101BD000FFF76AFEC11B494501D926E0814620680E
:101BE000C0F381000228F3D126E000BFFFF75CFEBE
:101BF000C11B494501D918E081462068C0F3810026
:101C00000328F3D118E000BFFFF74EFEC11B494582
:101C10000BD82068C0F381000128F5D10CE022E048
:101C2000FFF742FEC11B494502D90320BDE8F087FA
:101C3000206810F00C0FF3D1D8F80010404601F0E6
:101C40000101B14211D9012E03D1016841F0040113
:101C50000160016821F0010131430160006800F07A
:101C60000100B04201D00120E0E72878400705D507
:101C70002068E96820F4E0600843206028780007C5
:101C800006D52068296920F4605040EAC100206030
:101C900000F022F82168F02292FAA2F201F0F0019D
:101CA000B2FA82F2D140074A515CC8400649086046
:101CB0000020FFF713FE0020B8E70000003C0240C0
:101CC00008380240115D0008480000200148006803
:101CD00070470000480000201E4A116801F00C0007
:101CE000042813D0082813D00C2813D0101F006824
:101CF00000F460414FF4604090FAA0F0B0FA80F038
:101D0000C1404FF40040491C88407047124870475A
:101D1000124870474FF4701393FAA3F301F4701054
:101D2000B3FA83F3D8400E4B01F440011268185CFB
:101D30004FF4400393FAA3F3B3FA83F3D940491C59
:101D4000D20301D5054A00E0034A5043B0FBF1F04D
:101D500070470000083802400024F40000127A00A6
:101D6000085D00082DE9F84F07460078FB4EFC4D52
:101D7000C0074FF0010428D0F848083001684FF43C
:101D80000038C1F38101022907D00168C1F3810144
:101D900003291BD10068C00318D598FAA8F0B0FA3F
:101DA00080F040F02000400901D0306800E0286851
:101DB00098FAA8F1B1FA81F101F01F0104FA01F1DA
:101DC00008425CD0786800287BD058E07868012809
:101DD0000AD008B1052811D0306820F48030306076
:101DE000306820F4802002E0306840F480303060B9
:101DF000786828B3FFF758FD81460BE0306840F45F
:101E000080203060F0E700BFFFF74EFDA0EB090037
:101E1000642872D898FAA8F0B0FA80F040F0200058
:101E2000400901D0306800E0286898FAA8F1B1FABA
:101E300081F101F01F0104FA01F10842E4D01EE033
:101E4000FFF732FD814605E0FFF72EFDA0EB09000C
:101E50006428DED898FAA8F0B0FA80F040F02000AC
:101E6000400901D0306800E0286898FAA8F1B1FA7A
:101E700081F101F01F0104FA01F10842E4D1387840
:101E8000DFF8E08280074FF0000B4FF002095FD5CA
:101E9000B24808300168C1F38101012907D0016807
:101EA000C1F3810103291CD10068C00319D499FA38
:101EB000A9F0B0FA80F040F02000400902D030686C
:101EC00001E086E0286899FAA9F1B1FA81F101F000
:101ED0001F0104FA01F108422BD0F868012878D1DB
:101EE00027E0F868A8B394FAA4F0B0FA80F048F8B4
:101EF0002040FFF7D9FC824606E066E1FFF7D4FCFC
:101F0000A0EB0A00022884D899FAA9F1B1FA81F16C
:101F100041F02001490901D0316800E0296899FAAF
:101F2000A9F0B0FA80F000F01F0004FA00F00142BE
:101F3000E4D08A48001D01684FF4F85393FAA3F3E4
:101F40003A69B3FA83F321F4F8519A4011430160DE
:101F500025E0FFE794FAA4F1B1FA81F148F821B045
:101F6000FFF7A2FC824605E0FFF79EFCA0EB0A000B
:101F70000228C8D899FAA9F0B0FA80F040F0200001
:101F8000400901D0306800E0286899FAA9F1B1FA57
:101F900081F101F01F0104FA01F10842E4D138781F
:101FA0004FF4007AC0067CD56C480830006810F009
:101FB0000C0F0FD0B9694FF48070002972D090FADD
:101FC000A0F0B0FA80F048F82040FFF76DFC0090D8
:101FD0007EE087E09AFAAAF0B0FA80F040F02000A4
:101FE000400901D0306800E028689AFAAAF1B1FAF5
:101FF00081F101F01F0104FA01F1084202D0B86931
:1020000000286FD05548396A001D006800F4604010
:1020100081421AD9084601F03BF9002862D14F48A5
:10202000001D01683A6A21F46041114301600168B2
:102030004FF07F4393FAA3F3FA69B3FA83F321F0E5
:102040007F419A401143016018E04448001D026836
:1020500022F460420A43026001684FF07F4393FA22
:10206000A3F3FA69B3FA83F321F07F419A40114355
:102070000160386A01F00CF90028CFD14FF46041BB
:1020800091FAA1F1386AB1FA81F1C8404FF40041E8
:10209000401C8140314808300068F02200F0F00018
:1020A00001E070E040E092FAA2F2B2FA82F2D0408F
:1020B0002D4A105CC1402D4801600020FFF70EFC46
:1020C00061E000BFFFF7F0FB0099401A02287CD8BE
:1020D0009AFAAAF0B0FA80F040F02000400902D04D
:1020E000306801E0BCE128689AFAAAF1B1FA81F1FE
:1020F00001F01F0104FA01F10842E3D01748001D66
:1021000001683A6A21F460411143016001684FF0AF
:102110007F4393FAA3F3FA69B3FA83F321F07F4183
:102120009A40114301602EE090FAA0F0B0FA80F0DE
:1021300048F820B0FFF7B8FB009005E0FFF7B4FBCC
:102140000099401A0228C2D89AFAAAF0B0FA80F090
:1021500040F0200040090BD030680AE0003802400F
:102160003438024000004742115D0008480000205A
:1021700028689AFAAAF1B1FA81F101F01F0104FA74
:1021800001F10842DAD13878000753D5786948B3AD
:1021900094FAA4F0B0FA80F008EB8000C0F8804612
:1021A000FFF782FB009005E0FFF77EFB0099401AE5
:1021B00002288CD899FAA9F0B0FA80F040F04000DB
:1021C000B4EB501F02D1306801E08EE0286899FA24
:1021D000A9F1B1FA81F101F01F0104FA01F21042F4
:1021E000E2D027E094FAA4F1B1FA81F108EB810181
:1021F000C1F880B6FFF758FB009005E0FFF754FBED
:102200000099401A022870D899FAA9F0B0FA80F023
:1022100040F04000B4EB501F01D1306800E0286866
:1022200099FAA9F1B1FA81F101F01F0104FA01F262
:102230001042E3D1387840077BD59B484FF0000926
:102240000068C0000AD49848016841F080510160DC
:1022500000684FF0010900F0805000909348016839
:10226000C90511D4016841F480710160FFF71CFBBE
:10227000009005E0FFF718FB0099401A642834D855
:102280008A480068C005F5D5B86801280AD008B1A9
:10229000052811D0286820F480702860286820F470
:1022A000806002E0286840F480702860B86848B315
:1022B000FFF7FAFA00900DE0286840F4806028608B
:1022C000F0E700BFFFF7F0FA0099411A41F28830B9
:1022D00081420AD89AFAAAF0B0FA80F040F04000A1
:1022E000B4EB501F02D1306801E095E028689AFAFB
:1022F000AAF1B1FA81F101F01F0104FA01F21042D2
:10230000E0D022E0FFF7D0FA009007E0FFF7CCFA28
:102310000099411A41F2883081427DD89AFAAAF098
:10232000B0FA80F040F04000B4EB501F02D13068AA
:1023300001E012E028689AFAAAF1B1FA81F101F0FD
:102340001F0104FA01F21042E0D1B9F1000F04D0EC
:102350005548016821F080510160786AE8B3DFF8E0
:102360004891A9F11C09D9F80010C1F38101032992
:1023700076D002284FF080714FF0007A58460BD08B
:1023800091FAA1F1B1FA81F148F82100FFF78CFA36
:10239000B046074656466DE04FF0807191FAA1F1C4
:1023A000B1FA81F18A0042495050FFF77DFAB346F5
:1023B0008046564606E000BFFFF776FAA0EB08001D
:1023C000022854D896FAA6F0B0FA80F040F0200027
:1023D000400903D0DBF8000001E061E0286896FACC
:1023E000A6F1B1FA81F101F01F0104FA01F10842EE
:1023F000E2D1D7E90A103A6BD9F80030014323F44F
:102400007D031A431143C9F800104FF0807090FA11
:10241000A0F0B0FA80F000E029E0810024480C50E0
:10242000FFF742FA074604E0FFF73EFAC01B022816
:102430001DD896FAA6F0B0FA80F040F020004009CE
:1024400002D0DBF8000000E0286896FAA6F1B1FAA5
:1024500081F101F01F0104FA01F10842E4D01FE00C
:1024600020E000BFFFF720FAC01B022802D903209A
:10247000BDE8F88F96FAA6F0B0FA80F040F02000A0
:10248000400902D0D8F8000000E0286896FAA6F1CA
:10249000B1FA81F101F01F0104FA01F10842E1D122
:1024A0000020E5E70120E3E7243802400070004007
:1024B0000000474270472DE9F0470446007F01289D
:1024C0001CD001262677022060772168CA20486246
:1024D0002168532048622068816821F4806181600E
:1024E0002068816821F480418160FFF7DDF90546AD
:1024F00000274FF0FF084FF47A790EE00220BDE884
:10250000F087FFF7D1F9401B484506D92168C1F88B
:102510002480032060772777F1E72068C0684007B0
:10252000EFD52168C1F82480667727770020E6E799
:102530007047000010B5044600688168C9040CD5D6
:10254000C068C00509D52046FFF7F2FF2068C168C2
:1025500001F0800161F4C071C16020688168890464
:102560000CD5C068800509D52046FFF7A3FF206879
:10257000C16801F0800161F42071C16003494FF42A
:10258000003008600120607710BD00001404014095
:102590002DE9F0470446007F012822D04FF00108C2
:1025A00084F81C80022060772268CA20506222686A
:1025B0005320506220680025FF26B1F5807F816896
:1025C0004FF0030A4FF47A790ED021F40071816044
:1025D0002068816821F400518160FFF765F90746A2
:1025E00024E00220BDE8F08721F48071816020683A
:1025F000816821F480518160FFF756F9074604E0B5
:10260000FFF752F9C01B484509D82068C068C007C9
:10261000F6D00FE0FFF748F9C01B484506D92068FF
:10262000466284F81DA025770320DBE72068C06898
:102630008007EFD52068466284F81D80257700204A
:10264000D0E710B50C464FF480718A4203D1A161E6
:102650000068C16904E04FF40071A1610068016A7B
:10266000C1F305402070C1F30622627001F07F02C1
:10267000A270402202EA1142E270C1F305622275A3
:1026800001F0804201F08031C4E9031273B900F017
:1026900051FE2070607800F04DFE6070A07800F070
:1026A00049FEA070207D00F045FE2075002010BD81
:1026B00010B500680B4641680D480140080CD87001
:1026C000C1F304245C7001F03F049C70C1F34231FB
:1026D000197052B900F02EFED870587800F02AFE1A
:1026E0005870987800F026FE9870002010BD000009
:1026F0003FFFFF0010B500680C4601680E4801401E
:10270000C1F305402070C1F30623637001F07F031D
:10271000A370402303EA1141E17052B900F00AFEB0
:102720002070607800F006FE6070A07800F002FE75
:10273000A070002010BD00007F7F7F0070B50400F6
:1027400002D0607F10B106E0012070BD002020772C
:10275000204600F041F8022060772168CA204862D4
:10276000216853204862204600F0F8FDFF21002830
:10277000206803D0416204206077E5E78268154B4A
:102780001A4082602268906863681843D4E904356F
:102790002B43184390602268E0681061206802694A
:1027A000238942EA034202612068C26822F0800263
:1027B000C2602068026C22F4802202642068026CED
:1027C000A3691A43026420684162012060770020F7
:1027D00070BD0000BFFF8FFF704700002DE9F05F64
:1027E0000446007F0D46012844D04FF0010B84F8C9
:1027F0001CB0022060772068002780684FEA4060A4
:10280000BAB3002852DA287800F094FD287D00F051
:1028100091FDA8782978EA7840EA014069780902B0
:1028200041EA02410843297D40EA0166286921689E
:102830000643E8680643CA2048622168532048627C
:10284000A869FF25B0F5807F20684FF0030A4FF498
:102850007A7981682CD021F4007181602068C16888
:1028600001F0800161F42071C160FFF71DF880461E
:102870004FE002E00220BDE8F09F002800DBEF708F
:10288000287800F060FD0604687800F05CFD46EAF8
:102890000026A87800F057FD0643E87846EA00468F
:1028A000287D00F050FD46EA0066BFE7EF70ADE717
:1028B00021F4807181602068C16801F0800161F4B9
:1028C000C071C160FEF7F0FF804605E0FEF7ECFF47
:1028D000A0EB0800484515D82068C068C007F5D0AF
:1028E0002068C6612068816841F480718160206839
:1028F000816841F480511BE0FEF7D6FFA0EB080091
:10290000484506D92068456284F81DA02777032032
:10291000B1E72068C0688007EED5206806622068AD
:10292000816841F4007181602068816841F4005140
:1029300081600948016841F40031016006480830AF
:10294000016841F4003101602068456284F81DB0DF
:10295000277700208FE70000000401402DE9F047B1
:102960000446007F0B46012825D04FF0010984F86A
:102970001C9002206077587802B300F0DBFC987856
:1029800000F0D8FC9878D97840EA01455878197851
:10299000000240EA413005432168CA2048622168AC
:1029A00053204862204600F0D9FC0026FF274FF054
:1029B000040838BB19E00220BDE8F087C10603D542
:1029C00000F0EF000A305870D87800F0BCFC020428
:1029D000587800F0B8FC42EA0022987800F0B3FC86
:1029E0000243187842EA4035D6E70D480540206892
:1029F00045602068C16821F08001C160204600F078
:102A000085F830B12068476284F81D802677012060
:102A1000D2E72068476284F81D9026770020CBE734
:102A20003FFFFF002DE9F0470446007F0D460128D7
:102A300011D04FF0010A84F81CA0022060772068B2
:102A4000002680684FEA406042B100281ADA2878F0
:102A500000F070FC17E00220BDE8F087002800DBE2
:102A6000EE70287800F06FFC0204687800F06BFCD0
:102A700042EA0022A87800F066FC0243E87842EAC5
:102A800000470AE0EE70A878297840EA01476878A4
:102A9000E978000240EA014007432168CA20486201
:102AA000216853204862204600F058FC4FF0FF0890
:102AB0004FF00409C0B91448074020680760206837
:102AC000816821F480218160D5E9010108432168F2
:102AD0008A68104388602068C16821F08001C16065
:102AE000204600F013F838B12168C1F8248084F83A
:102AF0001D9026770120AFE72168C1F8248084F873
:102B00001DA026770020A7E77F7F7F0070B50446D1
:102B10000068C16821F0A001C160FEF7C5FE05464E
:102B20004FF47A7607E000BFFEF7BEFE401BB042CE
:102B300001D9032070BD2068C0688006F4D500204C
:102B400070BD70B5040004D094F85100002510B198
:102B500006E0012070BD84F85050204600F02EF8A9
:102B6000022084F851002068016821F040010160D2
:102B7000D4E901010843D4E9031211430843616910
:102B80000843218B01F400710843E1690843216A7D
:102B90000843A16A084321680860A069042101EA8A
:102BA0001040616A0843216848602168E06A086152
:102BB0006565012084F85100002070BD70474FF01A
:102BC000E0210428086903D020F004000861704760
:102BD00040F00400FAE7704710B5401EB0F1807F66
:102BE00001D3012010BD4FF0E02460610F21601778
:102BF00000F066F90020A06107202061002010BDD0
:102C000010B5FFF7E8FF10BD10B5040003D094F82D
:102C1000350010B107E0012010BD002084F8340019
:102C2000204600F00DF8022084F83500211D2068B0
:102C300001F058F8012084F83500002010BD000094
:102C400008B501681D48B1F1804F11D01C4A91426E
:102C50001DD1016841F0020101600068012200F00D
:102C60000200009003211D20FEF758FE1D201FE0EA
:102C7000016841F0010101600068002200F00100DC
:102C8000009003211C20FEF749FE1C2010E00D4A95
:102C9000914211D1016841F00401016000680122F4
:102CA00000F00400009003211E20FEF737FE1E20D6
:102CB000BDE80840FEF727BE08BD000024380240EA
:102CC00000040040000800400168CA6842F00102A8
:102CD000CA600068016841F001010160002070478E
:102CE000704770B50446006801694FF00005C9439C
:102CF000890715D4C168C943890711D4E91E016148
:102D000001202075206880698007204602D0FFF7E7
:102D1000E7FF04E000F078F8204600F076F825752B
:102D200020680169C943490717D4C168C9434907E5
:102D300013D46FF0040101610220207520688069BE
:102D400010F4407F204602D0FFF7CAFF04E000F0F5
:102D50005BF8204600F059F8257520680169C943E1
:102D6000090716D4C168C943090712D46FF00801D6
:102D70000161042020752068C0698007204602D0C8
:102D8000FFF7AEFF04E000F03FF8204600F03DF80A
:102D9000257520680169C943C90617D4C168C943AC
:102DA000C90613D46FF01001016108202075206856
:102DB000C06910F4407F204602D0FFF791FF04E085
:102DC00000F022F8204600F020F8257520680169FF
:102DD000C943C90708D1C168C943C90704D1891EBD
:102DE0000161204600F012F820680169C9434906D4
:102DF00009D4C168C943490605D46FF04001016197
:102E0000204600F01DF870BD704770470168094802
:102E1000B1F1804F06D0084A914205D140680028A0
:102E200007D000470068FAE7044A914201D1806860
:102E3000F5E770473400002000040040000800401F
:102E40007047000038B50D4C0546607810B1012878
:102E50000FD101E00A4800E00A48009020231E221A
:102E60000221312000F05AF82846FDF7D8FBFEF782
:102E70006BF8607880F00100607038BD00000020C1
:102E8000B97400083175000810B5FDF7EFFFFEF7C3
:102E900029F801F035FE074802F0F8FE012000F0A5
:102EA00057FF054802F0F8FEBDE810404FF47A6085
:102EB00000F092BF613E0008653E0008FEE77047E3
:102EC0000907090E002806DA00F00F0000F1E020E3
:102ED00080F8141D704700F1E02080F8001470475E
:102EE00070B5002404F1B000C0B2002100F09CF9DC
:102EF0000021022000F098F90021102000F094F940
:102F000000250121002000F08FF96D1CEDB2802D0D
:102F1000F7D3641CE4B2082CE4D370BD38B501EBE0
:102F2000D303049C0244DBB2D2B2009400F001F857
:102F300038BD2DE9F04798461746824600260C46D4
:102F4000DDF8209011E02146504600F0B9F85546D2
:102F500007E019F806000121761C00F065F96D1CE8
:102F6000EDB2BD42F5D3641CE4B24445EBD3BDE8F9
:102F7000F087A720AFF300807CB5012405460094BC
:102F8000002322461C214D480194FEF75DF84B4872
:102F90000094002301221E210C300194FEF754F806
:102FA00046480094002301221D2118300194FEF7A9
:102FB0004BF842480094002301221F212430019441
:102FC000FEF742F80021AE2000F02EF90021022089
:102FD00000F02AF90021102000F026F900214020FD
:102FE00000F022F90021812000F01EF90021CF20FD
:102FF00000F01AF90021A12000F016F90021C820E4
:1030000000F012F90021A62000F00EF90021A820FE
:1030100000F00AF900213F2000F006F90021D3203A
:1030200000F002F90021084600F0FEF80021D5204A
:1030300000F0FAF80021802000F0F6F80021D920F5
:1030400000F0F2F80021F12000F0EEF80021DA2083
:1030500000F0EAF80021122000F0E6F80021DB2061
:1030600000F0E2F80021402000F0DEF800212020EE
:1030700000F0DAF80021022000F0D6F800218D20BF
:1030800000F0D2F80021142000F0CEF80021A42096
:1030900000F0CAF80021284600F0C6F80021AF2051
:1030A00000F0C2F80021AF2000F0BEF8FFF718FFD3
:1030B000BDE87C400021084600F002B85C03002017
:1030C00010B50446B031C8B2002100F0ADF81020B0
:1030D00040EA1410002100F0A7F804F00F00BDE84A
:1030E000104040F00100002100F09EB82DE9F041B1
:1030F00015460E460746FFF7E3FF0F48002400EB96
:1031000085150121285D00F08FF8641CE4B2102CB5
:10311000F7D3761CF1B23846FFF7D2FF0024281906
:10312000012190F8200000F07FF8641CE4B2102C1C
:10313000F5D3BDE8F0810000396500082DE9F041C4
:10314000203A00240D468046D6B27F2802D98D1C35
:10315000A046EDB21A48294600781028404610D003
:10316000FFF7AEFF174906EB460001EB40050121D2
:10317000285D00F059F8641CE4B2062CF7D3BDE8D2
:10318000F081FFF79DFF104F04EB06100121385C22
:1031900000F04AF8641CE4B2082CF5D36D1CE9B2C7
:1031A0004046FFF78DFF002404EB06103844012150
:1031B000007A00F039F8641CE4B2082CF4D3DEE79E
:1031C0005E000020215D0008495F00082DE9F04104
:1031D00016468846044600250D4F11E0414620461C
:1031E000FFF7ACFF387810280FD0A41DE4B2782C7C
:1031F00004D908F10200002400F0FF086D1CEDB2B4
:10320000725D002AEAD1BDE8F0810834EEE70000E3
:103210005E00002030B4034C227030BC1A46FFF729
:10322000D5BF00005E00002070B5054601B1012148
:103230001648FDF79DFF154800210C38FDF798FF53
:103240000024124800210C30FDF792FF280601D51A
:10325000012100E000210D481830FDF789FF0B48DF
:1032600001210C30FDF784FF6806641C050EE4B2F2
:10327000082CE6D3054801210C38FDF779FFBDE89D
:10328000704001210148FDF773BF00006803002072
:10329000F8B507461A48002600681A4D10F0F00FDE
:1032A00020D1174C1C342068C00002D5FEF768FB03
:1032B0000DE0206840F080502060206800F08050D1
:1032C0000090FEF75DFB216821F080512160B0F590
:1032D000C05F07D1B7F5404F04D12868012640F000
:1032E00004002860286820F0010030432860286826
:1032F00000F00100B04201D00120F8BD0020F8BD6F
:1033000008380240003C024010B50948FFF712F9A6
:103310004FF480710648FFF73BF900F0ADFA00F07A
:103320002BF90020FDF784FDBDE8104000F0D0BD72
:103330006C010020010901EB810100F00F0000EB9E
:103340004100C0B27047002102E00A38C0B2491CF7
:103350000A28FAD2090740EA1160704770B504469E
:103360000068C168490614D44FF0FF31C160FEF710
:103370009BFA05464FF47A7607E000BFFEF794FA11
:10338000401BB04201D9032070BD2068C0684006D0
:10339000F4D5002070BD00000FB414222DE9F04FC9
:1033A00087B00C4612A96846FCF7C0FE9DF8520093
:1033B000059067489DF851809DF850709DF84C60CD
:1033C000844201D214B102E0044600E00124204608
:1033D000FDF73BF95F4A604BFDF729F88A468146C5
:1033E00002F098FB04460D464A465346FDF719F88D
:1033F00000225A4BFDF71BF8DFF864A181468B468B
:10340000DAF80C00FDF710F94A465B46FCF768FF56
:10341000FDF73CF9DFF84C91DFF84CB1CAF80C002D
:10342000B0F5F47F16DBA0F5F470CAF80C000022AA
:103430004E4B20462946FCF753FF04460D4609E053
:1034400000224B4620462946FCF7EBFF761C04463B
:103450000D46B6B200224B4620462946FDF77AF9C2
:10346000EED9D94600224B4620462946FDF772F98F
:1034700017D800224B4620462946FCF7D2FF7F1C76
:1034800004460D46BFB2EDE700224B4620462946D2
:10349000FCF7C7FF044608F101000D461FFA80F84B
:1034A00001E0DFF8CC9000224B4620462946FDF78C
:1034B00051F9E9D90598FDF7C8F822462B46FCF7E3
:1034C0000FFFFDF702F980B205E03C3808F1010179
:1034D00080B21FFA81F83C28F7D205E0A8F13C0140
:1034E0007F1C1FFA81F8BFB2B8F13C0FF6D203E09F
:1034F000183F761CBFB2B6B2182FF9D29DF84D1006
:1035000009B39AF80620114489071CD09DF84B2076
:103510001849491E515CB14203D2B6FBF1F201FBDE
:1035200012668DF80A008DF809808DF804608DF818
:103530000870142269461098FCF7F8FD07B0BDE842
:10354000F00F5DF814FB0B499DF84B200C31E0E7C0
:1035500042061200FCA9F1D24D62004000408F40AB
:10356000240000200018F5400020AC400000F03F8F
:1035700000004E40F05C000810B5224C92B060791B
:1035800000283CD10DA800F0F1F814220DA901A8E3
:10359000FCF7CCFD00234FF4807206A91A48FFF710
:1035A00050F89DF81900C0EB001081009DF818003C
:1035B000C0EB4012C2EB002001EB00109DF81A1086
:1035C00008449DF80D10C1EB01118A009DF80C1004
:1035D000C1EB4113C3EB012102EB01119DF80E2059
:1035E0001144081AFDF731F80022084BFCF71FFFC1
:1035F00001F0FCF9FDF769F8A0600120607112B0DC
:1036000010BD0000240000206C0100200040DF3FBE
:103610002DE9F04700248AB0254680B114220146E6
:103620006846FCF783FD9DF80510BDF800000026F4
:10363000DFF8F490DFF8F4A088460F1812E005A830
:1036400000F094F8142205A9EAE7CEB1B00717D02C
:103650000022534620462946FCF742FE761C0446CB
:103660000D4636B2B742F0DCB8F1000F0BD0B80708
:1036700009D09DF803700026DFF8B4807F1E2BE090
:1036800000224B46E6E7DFF8A8809DF8037000268D
:1036900008F10C087F1E0DE018F806002549484384
:1036A000FCF7D3FF22462B46FCF71AFE761C044695
:1036B0000D46F6B2B742EFDC10E000BF18F8060086
:1036C0001C494843FCF7C1FF22462B46FCF708FE85
:1036D000761C04460D46F6B2B742EFDC9DF80910A1
:1036E0009DF80A00C1EB011100EB81029DF8080072
:1036F0004FF4616148439DF8041040F2A3235943FD
:1037000000EBC1101044FCF7A0FF22462B46FCF74B
:10371000E7FD0022084BFCF78AFE02F0FBF90AB035
:10372000BDE8F047FCF7D1BF50287E4138137E41F9
:10373000F05C0008805101000040DF3F0A498B68BF
:103740000022984204D94B7813B14A708B68C01A92
:103750008B68984202D9322801D28A7070470122C0
:103760008A708968401A70472400002010B586B01E
:1037700004460022114802A9FEF7BCFF00220F48B0
:103780000DF10201FEF794FF0D499DF80530CA883E
:10379000ADF80020632B03D0087840B11BB106E0E0
:1037A0000120087003E0002008706432CA801422EF
:1037B00069462046FCF7BAFC06B010BD6C0100203B
:1037C0002400002010B50020FFF722FF0446054822
:1037D000FFF71EFF844202D2C043204410BD201ACE
:1037E00010BD00008C01002070B51F4E86B03079EE
:1037F000002837D10125A80590FAA0F01B49B0FA9E
:1038000080F001EB8000C0F880561A481849002467
:10381000C0E9001403218160C0E90314446184619C
:10382000FEF78CFF8DF8035006208DF805408DF8CB
:1038300002008DF8045000220E480DF10201FFF73E
:103840008DF80294039400220A4802A90494FFF719
:10385000E9F8002204212920FEF760F82920FEF76C
:1038600052F8357106B070BD2400002000004742B8
:10387000002800406C0100200C484168C943C9077A
:103880000ED00B49012048700A480168C1F381013C
:10389000012903D0006810F00C0F06D1FDF7E6BA3D
:1038A000016841F004010160EEE7704700700040DC
:1038B0002400002008380240AFF3008030B50546F0
:1038C0004FF4807499B021462048FEF761FE1F48EE
:1038D000FEF7F1FD14A8FFF749FF142214A908A868
:1038E000FCF724FC1948142208A92030FCF71EFC20
:1038F0000AAB93E807008DE80700DDE908232946B5
:1039000014A8FFF749FD142214A903A8FCF70EFC24
:103910000020119010908DF837009DF816008DF85A
:1039200036009DF815008DF835009DF814001394AD
:103930008DF834009DF810008DF8480000220DA984
:103940000248FEF74BFF19B030BD00006C010020AB
:103950007CB5012400940023224604210B480194E5
:10396000FDF772FB002509482B462A461B21943897
:10397000CDE90045FDF768FB044800231A461A21EB
:103980008838CDE90045FDF75FFB7CBD2C050020A4
:1039900030B50024039D846061B14FF40061C160C3
:1039A000046207214462C0E90A41C0E904231DB151
:1039B000446030BDC460F3E74FF48271416030BDB4
:1039C000094B00221B6803E05B08521C072A01D246
:1039D0008B42F9D8302101EAC201D20700D0082277
:1039E0001143C16170470000480000202DE9FF4FDE
:1039F00083B08B460446109FFDF724FA0525022666
:103A000004F1580004F1640904F1700804F17C0A1F
:103A1000BBF1070F03D0BBF11F0F2ED021E03349BC
:103A20000A6842F480520A600A6822F480520A60EE
:103A30002E490C310A6842F480520A60096801F488
:103A4000805100912A492DE04FF40070A0610020C0
:103A5000009000E0009600231A4619462046FFF722
:103A600097FF24492046FFF7ABFF2046FFF769F890
:103A700007B0BDE8F04FFDF7EDB91C49091D0A6814
:103A800042F480420A600A6822F480420A601749C0
:103A900010310A6842F480420A60096801F48041EA
:103AA000009115492160CDE90065002302225946A5
:103AB000FDF7CAFACDE900650023022248460599C0
:103AC000FDF7C2FACDE900650023022240460699BF
:103AD000FDF7BAFA0126CDE9006500230222394636
:103AE0005046FDF7B1FA7F1CB4D1ADE7143802405F
:103AF00000300140809698000038004010B5FDF776
:103B0000D9FEBDE81040FFF77BB8000030B524486F
:103B100095B0016841F080510160006800F080506C
:103B200014902048016821F4C05141F40061016003
:103B300001240520CDE900040220C5030294CDE94B
:103B400009054FF440200B90A0050C906846FEF745
:103B500009F90F200D9003200E9000200F90109077
:103B6000119001210DA8FDF7C7FF12A8CDE912455C
:103B7000FDF70EFFFEF7AAF84FF47A71B0FBF1F0F3
:103B8000FFF72AF80420FFF71AF80320FDF7E6FEF6
:103B900000221146501EFDF7C1FE15B030BD0000D9
:103BA000243802400070004038B52E48016841F0CA
:103BB00080510160006800F0805000902A48016840
:103BC00021F4C05141F4006101602649243908689C
:103BD00040F480300860234C4FF400321034012050
:103BE00092FAA2F3B3FA83F343F020035B0901D006
:103BF0000B6800E0236892FAA2F5B5FA85F505F0A6
:103C00001F0500FA05F52B42EAD04FF0807292FAB8
:103C1000A2F2164BB2FA82F243F822004FF0007380
:103C200093FAA3F2B2FA82F242F02002520901D0D2
:103C30000A6800E0226893FAA3F5B5FA85F505F065
:103C40001F0500FA05F52A42EAD006481C3801682B
:103C500041F0030101600168C1F381010329FAD138
:103C600038BD000024380240007000400000474288
:103C70000F48016841F4807101600D4908310A68FC
:103C80000C4B1A400A6002680B4B1A400260026833
:103C900022F480220260086820F47D000860002081
:103CA000091D086005494FF000600860704700007A
:103CB000003802400CC0FF88FEFFFEEE08ED00E079
:103CC0000148FFF70EB80000A00100200148FFF7EF
:103CD00008B80000D80100200148FFF702B8000032
:103CE0001002002070B502684FF08046134B144C50
:103CF000B04203D0984201D0A04205D122F0700515
:103D00004A682A43B0420CD098420AD0A04208D058
:103D10000C4B984205D00C4B984202D00B4B98426A
:103D200003D122F44073CA681A4302608A68C262EF
:103D3000096881620121416170BD000000040040FA
:103D40000008004000080140000C01400010014044
:103D5000134910B509684FF47A42B1FBF2F21149E8
:103D60004FF08043521E0B604FF0FF3303EB801087
:103D7000C86000200861C1E901200846FEF744FF41
:103D800010B109A000F00EF90648FEF79DFF0028CB
:103D900004D0BDE810400AA000F004B910BD000036
:103DA00048000020A0010020B6A8CAB1C6F732B36F
:103DB000F5CABCBBAFCAA7B0DCA3A10D0A000000C6
:103DC000B6A8CAB1C6F732C6F4B6AFD6D0B6CFCA17
:103DD000A7B0DCA3A10D0A00124910B509684FF481
:103DE0007A42B1FBF2F211490F4B521E0B604FF0B9
:103DF000FF3303EB0010C86000200861C1E9012017
:103E00000846FEF701FF10B109A000F0CBF8074803
:103E1000FEF75AFF002804D0BDE810400AA000F0C9
:103E2000C1B810BD4800002000040040D8010020A7
:103E3000B6A8CAB1C6F733B3F5CABCBBAFCAA7B000
:103E4000DCA3A10D0A000000B6A8CAB1C6F733C6AC
:103E5000F4B6AFD6D0B6CFCAA7B0DCA3A10D0A0086
:103E600000F040BE38B5144CE078002823D1A0788B
:103E700000906378227811A1144800F0A3F8134B46
:103E80000C2200214E20FFF7C5F9A078401CC0B2DB
:103E9000A0703C280FD10020A0706178491CC9B2E5
:103EA00061703C2907D160702178491CC9B221702A
:103EB000182900D1207038BD0C0000202530326454
:103EC0003A253032643A2530326400007A0000200E
:103ED00010B5134C6068002820D0FFF773FC6168B0
:103EE00000220B68834201D80A6001E0181A0860BA
:103EF0000A7204E001696160C06800B180476068CF
:103F000000280BD001680029F4D0017A012905D0DE
:103F100001210172BDE8104000F004B810BD00009E
:103F20006000002010B50649044600200870206893
:103F3000FFF704FC2060BDE81040FFF7BDBC0000A7
:103F400060000020034A0146002012680A4200D0A7
:103F5000012070470038014000B52020FFF7F2FF34
:103F6000002810D000F014F80849074B8A889854AC
:103F7000521C90B20022888001238A704B70FF2867
:103F800000D38A804B7000BD480200204000002012
:103F900002480068C0F30800704700000438014080
:103FA000FEE700000FB4054B10B503A9044A0298C0
:103FB00000F080F910BC5DF814FB0000C94A00084D
:103FC000680000200FB4084B10B504A902AA03989A
:103FD00000F070F9044602A9002000F002FD20461E
:103FE00010BC5DF814FB0000E3490008490050EAEA
:103FF000C12018BF04204A0D18BF40F0010040F254
:10400000FF72B2EB515F08BF40F00200012808BF09
:10401000052070472DE9F0414F1E00EBC701044613
:10402000D1E9000115461E4637F006020DD02A469A
:104030003346FCF7FCF97F1E04EBC703D3E90023EA
:10404000FCF74EF937F00602F1D1022F25D0042FEC
:1040500013D0062F18BFBDE8F0812A463346FCF77F
:10406000E6F9D4E90A23FCF73BF92A463346FCF784
:10407000DEF9D4E90823FCF733F92A463346FCF786
:10408000D6F9D4E90623FCF72BF92A463346FCF788
:10409000CEF9D4E90423FCF723F92A463346FCF78A
:1040A000C6F9D4E90223FCF71BF92A463346FCF78C
:1040B000BEF9D4E90023BDE8F041FCF711B90000D6
:1040C0000022134610460149FCF723BA0000F03FD6
:1040D0000122FCF78DBAFCF703B900221346104603
:1040E0001146FCF716BA40F2013200204FF0E041D1
:1040F000FCF77EBA024A00201107FCF779BA0000EB
:1041000001FDFFFF02E008C8121F08C1002AFAD112
:1041100070477047002001E001C1121F002AFBD147
:104120007047000001490860704700006C000020E3
:104130002DE9FF5F82B00021DDE90430020DDDF8DA
:1041400040B0034318D044F61050A2F2FF3242436D
:104150001514119801281FD0A5EB0B00401C5FEA35
:10416000000A4FF000064E4FDFF83891B046504637
:1041700015D5CAF1000413E0119801244AA30128BF
:1041800001D16FEA0B010298119AC0E90031C0E930
:10419000024206B0BDE8F09FCBF10000DFE7044625
:1041A0000021404A491842EB0450CDE9001012E0CA
:1041B000E00707D032463B4640464946FCF737F910
:1041C0008046894632463B4610461946FCF72FF991
:1041D00006460F466410002CEAD1DDE90401DDE952
:1041E0000023BAF1000F06DAFCF721F942464B46EC
:1041F000FCF71DF905E0FCF78CF942464B46FCF74D
:1042000088F904460E460022284BFCF7A3FA03D88F
:104210004FF0FF30014607E00022254B2046314693
:10422000FCF75EF8FCF71AFC102409E0002C0ADB0E
:104230000A220023FCF7D8FA039B30321A55641E79
:1042400050EA0102F2D1641C039AC4F11103144430
:10425000119A012A03D0012208430DD10AE0084334
:1042600004D000204FF0110B119072E7A3EB0B0567
:104270006D1E0DE05B4504DD4FF0000205F1010508
:1042800004E003DA4FF00002A5F10105002AECD0AA
:1042900002981199C0E90231C0E9004579E70000B0
:1042A000000014400000F03F300000000000F04328
:1042B0000000E03F2DE9FF4F95B09B46894606463A
:1042C00000250FE2252877D100242746F84A01214E
:1042D000059400E0044316F8013F203B01FA03F087
:1042E0001042F7D130782A2811D06FF02F033078A0
:1042F000A0F13002092A16D8059A44F0020402EB14
:10430000820203EB42021044761C0590EFE759F855
:10431000042B0592002A03DA504244F4005405901D
:1043200044F00204761C30782E2816D116F8010FBE
:1043300044F004042A280DD06FF02F023078A0F149
:104340003003092B09D807EB870302EB4303C71897
:10435000761CF3E759F8047B761C30786C280FD074
:1043600006DC4C2817D068280DD06A2814D104E048
:10437000742810D07A280FD10DE044F400140AE01C
:1043800044F4801401E044F440147278824202D173
:1043900004F58014761C761C307866280BD013DC6C
:1043A000582877D009DC002875D04528F6D0462853
:1043B000F4D047281AD19DE118E0632835D064284D
:1043C00079D0652812D195E1702873D008DC672870
:1043D000F1D069286FD06E280DD06F2806D1B5E0D6
:1043E00073282CD0752875D0782874D05A46179920
:1043F00090476D1C75E1C4F30250022809D00328D0
:104400000DD0D9F8001004280DD00D6009F1040971
:1044100067E1D9F80010EA17C1E90052F6E7D9F8C8
:1044200000100D80F2E70D70F0E719F8041B8DF80D
:10443000001000208DF80100EA46012003E059F841
:1044400004AB4FF0FF3061074FF0000102D40DE0E4
:1044500008F101018846B9420FDA8045F8DB1AF805
:1044600008100029F4D108E008F1010188468142D2
:10447000FADB1AF808100029F6D105985B46A0EB84
:10448000080721463846179A00F094FA284400EBB2
:10449000080507E04DE029E10DE01AF8010B5A4646
:1044A00017999047B8F10108F7D25B462146384684
:1044B000179A13E142E00A220092C4F302524FF02D
:1044C000000A022A08D059F804CB032A4FEAEC71FB
:1044D0000AD00DE029E02AE009F1070121F00702E6
:1044E000F2E802C1914609E00FFA8CFC4FEAEC7148
:1044F000042A03D14FFA8CFC4FEAEC71002907DA49
:104500000A460021DCF1000C61EB02012D2202E0E1
:10451000220504D52B228DF80420012203E0E207B6
:1045200001D02022F7E7904659E00A2102E010224C
:104530000DE010214FF0000A00910BE010224FF027
:10454000000A44F004040827009203E008224FF018
:10455000000A0092C4F30252022A05D059F804CB93
:104560000021032A08D009E009F1070121F0070220
:10457000F2E802C1914605E01FFA8CFC042A01D141
:104580000CF0FF0C4FF00008220728D5702806D049
:10459000009B83F0100353EA0A0305D00EE040228B
:1045A0008DF80420012208E05CEA010206D03022E6
:1045B0008DF804208DF8050002229046009B83F0C0
:1045C000080353EA0A030AD15CEA010201D1620737
:1045D00005D530228DF804204FF001087F1E5828A1
:1045E00004D034A003900EA802900DE036A0F9E7A5
:1045F00053466046009AFCF7F7F884460398825CBD
:104600000298401E029002705CEA0100F0D102980C
:1046100006A9081A00F1200A600702D524F48034A4
:1046200000E00127574502DDA7EB0A0000E000206B
:1046300000EB0A01009005984144401A0590E00300
:1046400006D45B462146179A059800F0B3F9054455
:10465000002706E001A85A46C05D179990476D1CD7
:104660007F1C4745F6DBE0030CD55B462146179AD5
:10467000059800F09FF9054404E030205A46179948
:1046800090476D1C0099481E00900029F5DC08E059
:10469000029802995A460078491C0291179990474E
:1046A0006D1CBAF10001AAF1010AF1DC65E100001C
:1046B00009280100303132333435363738396162F8
:1046C00063646566000000003031323334353637BC
:1046D00038394142434445460000000000F058F993
:1046E0000544761C307800287FF4ECAD19B02846DC
:1046F000BDE8F08F620700D4062709F1070222F017
:10470000070CFCE80223E14603F000485FEA080CCE
:1047100002D00FF2702C0DE05FEA045C02D50FF2BC
:10472000682C07E05FEAC47C02D00FF2602C01E045
:10473000AFF2700C4FF0FF3823F00043CDF850C0BB
:1047400065280CD006DC452809D046281DD047280E
:104750003DD13DE0662818D067287ED138E00021A1
:10476000112F01DB112000E0781CCDE9000106A922
:104770000EA8FFF7DDFCDDE90F010E9A0391002181
:10478000009207F1010A04914DE04FF000400097BC
:10479000CDE9011006A90EA8FFF7CAFCDDE90F025A
:1047A00003920E9B11990022DDF80CA00093049255
:1047B00011B9791C00EB010AB7EB0A0004D4C0F16F
:1047C000FF3007F1010A0490AAEB0700019044E0D2
:1047D000012F00DA01270021112F01DD112000E057
:1047E0003846CDE9000106A90EA8FFF7A1FCDDE9D6
:1047F0000F010E9A0391002104910092BA462107FD
:104800000CD40399514500DA8A46BAF1010F05DD4F
:10481000009AAAF10101515C302908D0B84202DAAD
:1048200010F1040F06DA0121CDE9011015E0AAF11B
:104830000101E9E7002805DC049901440491AAEB91
:10484000000102E0411C514500DD8A460499401AEE
:10485000401C01904FF000400290200704D40198C2
:10486000504501DBCDF8048000208DF84F00029800
:104870000DF14F07B0F1004F25D02B200E9002987C
:104880004FF0020800280CDA404202902D200E90D2
:1048900007E00A210298FBF791FF3031029007F8F8
:1048A000011DB8F10001A8F10108F2DC029800280E
:1048B000EFD1791E0E980870307800F0200040F09B
:1048C000450007F8020D12A8C01B00F10708149854
:1048D000007800B1012000EB0A01019801EBE071C2
:1048E00005984144401A401E0590E00306D45B46FB
:1048F0002146179A059800F05DF805441498007851
:1049000018B15A46179990476D1CE00324D55B46B1
:104910002146179A059800F04DF805441CE00498CC
:10492000002807DBDDE90301884203DD0098405CD5
:10493000179901E0179930205A469047049805F1DD
:104940000105401C04900198401E019004D12E20C6
:104950005A46179990476D1CBAF10001AAF1010A55
:10496000DDDC05E017F8010B5A46179990476D1CDE
:10497000B8F10001A8F10108F4DC5B462146179A62
:104980000598ABE62D0000002B0000002000000081
:104990002DE9F041044600251E461746880404D43C
:1049A00005E039462020B0476D1C641EF9D5284625
:1049B000BDE8F0812DE9F041044600251E469046F1
:1049C000C80301D5302700E02027880404D505E07E
:1049D00041463846B0476D1C641EF9D52846BDE8EF
:1049E000F0810A68531C0B60107070472DE9F0418C
:1049F000C1F30A52A2F2FF362F4A304B0D4604464D
:104A0000142E2FDA002E12DAFBF76AFC002213466E
:104A1000FBF7A0FE4CD2002DBCBF4FF00045002498
:104A200046DB55EA040018BF254D19D140E0DFF8F8
:104A300094C02CFA06F705EA070C5CEA040C08BFE0
:104A4000BDE8F081FBF74CFC00221346FBF782FE29
:104A50002ED2002D03DD4FF48010F0400544BD43FD
:104A6000002425E0332EC8BFBDE8F081A6F1140C68
:104A70004FF0FF3727FA0CF73C4208BFBDE8F08142
:104A8000FBF7D2FC00221346FBF764FE10D2002D88
:104A90000DDD142E08BF6D1C09D0C6F134000121B4
:104AA00001FA00F02044A04238BF6D1C0446BC430C
:104AB00029462046BDE8F0819C7500883CE4377E9D
:104AC0000000F03FFFFF0F007047000001488078B2
:104AD00070470000500000200148C0787047000077
:104AE0005000002005490868401C08600A2803D3CC
:104AF0000020086001F058B8704700001C0000203A
:104B0000F0B585B04FF400500024012503268DE850
:104B1000710069460948FCF7F7FD02208DE8710035
:104B2000074F69463846FCF7EFFD20208DE87100FD
:104B300069463846FCF7E8FD05B0F0BD00080240C4
:104B4000000402402DE9F04DC84A002490B0914283
:104B500005DA21F00043934201D805D120B110B00D
:104B6000BDE8F04DFFF7B4BAB1F5801F1BDA53EA88
:104B7000000209D0002911DA0120FFF7D3FA10B0A2
:104B8000BDE8F04DFFF7A9BA0220FFF7CBFAFFF717
:104B900097FA10B081F00041BDE8F08D6FF0350458
:104BA0003622FBF725FD04EB2152C1F31308B0496F
:104BB000A2F2FF33414401F4801282F07F6103EBE3
:104BC000225281F04051009241EA08010022A94B93
:104BD000FBF727FC044608F10200A74EC0F31300C0
:104BE0000D467E44032867D2D6E900232046FBF712
:104BF00099FD1ED10098002802BFD6E9000110B02F
:104C0000BDE8F08DFBF710FD07460C469B4A9C4B18
:104C1000FBF70DFC06460D469A4A9B4B384621464B
:104C2000FBF705FC10B032462B46BDE8F04DFBF714
:104C300057BB4FF05532954B20462946FBF7F7FB03
:104C40000022934BFBF7F0FB06460F4622462B460D
:104C500010461946FBF7EBFB32463B46FBF7E7FBFA
:104C6000064600980F46F0B1FBF7DEFC80468A4608
:104C7000824A834BFBF7DBFB32463B46FBF7D4FB18
:104C800022462B46FBF7CDFB05460C467D4A7E4B64
:104C900040465146FBF7CBFB10B02A462346BDE801
:104CA000F04DFBF7BEBB0B4610B0324620462946FE
:104CB000BDE8F04DFBF7B5BB00224FF08043204626
:104CC000FBF70EFB02460B4620462946FBF721FC6C
:104CD00006460F460098FBF7A7FCCDE904013246D3
:104CE0003B4610463946FBF7A2FB0C9069480C9AEC
:104CF0004044019009910B461046FBF798FB824611
:104D0000024665488B46C8F151080B4608F5D7287E
:104D100003217844FFF77EF952465B46FBF787FB99
:104D20000A905E480D9152465B4604217844FFF795
:104D300071F9099B0C9AFBF77AFB844601980D9B4D
:104D400040EA080860460A9AFBF7CAFA83460891C7
:104D5000B8F1000F4EDD4FF0FF3220462946FBF739
:104D600047FC22462B46FBF762FB804600988A46AA
:104D700060B3DDE90401414A414BFBF758FB09915F
:104D800000905A4640465146089BFBF7A9FA324626
:104D90003B46FBF74CFB099B009AFBF7A1FA424606
:104DA0005346FBF741FB22462B46FBF73AFB0446F2
:104DB0000D46DDE90401334A334BFBF738FB10B0F5
:104DC00022462B46BDE8F04DFBF72BBB5A4640462A
:104DD000089BFBF785FA32463B46FBF728FB424629
:104DE0005346FBF721FB10B022462B46BDE8F04DA1
:104DF000FBF71ABB009840B3DDE904011F4A204BC2
:104E0000FBF715FB80468A465A4620462946089BF2
:104E1000FBF707FB32463B46FBF709FB424653468E
:104E2000FBF7FFFA22462B46FBF7FBFA04460D463A
:104E3000DDE90401134A144BFBF7F9FA10B02246DE
:104E40002B46BDE8F04DFBF7ECBA0B465A46204620
:104E50002946FBF7E6FA32463B46FBF7E8FA10B084
:104E600022462B46BDE8F04DFBF7DEBA0000F07F8E
:104E7000645F09000000F03F8A2A0000763C793523
:104E8000EF39EA3D0000E0FE422EE63F5555D53FA2
:104E90000000E03F86EBF9FF2229000020290000F6
:104EA0002DE9F041044630480025814205DA21F021
:104EB0000042824201D805D124B12046BDE8F0412C
:104EC000FFF706B9B1F5801F1BDA52EA040008D0DB
:104ED00000290FDA0120FFF725F9BDE8F041FFF7BF
:104EE000FCB80220FFF71EF9FFF7EAF881F0004155
:104EF000BDE8F0816FF0350536222046FBF778FBE0
:104F0000044605EB2150A0F2FF32D00F40F2FF33F0
:104F10001B1A0D4663F31F551044FBF785FB06462D
:104F20000F4629462046FFF70DFE104A104BFBF7AF
:104F30007EFA04460D460F4A0F4B30463946FBF7C2
:104F400076FA22462B46FBF7CBF905460C460B4A70
:104F50000B4B30463946FBF76AFA2A462346BDE832
:104F6000F041FBF7BDB900000000F07F0EE526150B
:104F70007BCBDB3F362BF111F3FE593D00609F5098
:104F80001344D33F08B5FDF77FFFFDF7F2FFFBF7B2
:104F9000E1FD534E20231A46022130200096FDF7F2
:104FA000BDFF002206213020FEF7A0F801220621D5
:104FB0004020FEF79BF8DFF82C814B4D4B4C00272F
:104FC0002878002869D00128FAD1FBF7FDFEFBF70D
:104FD000EBFE01464648FBF745F94649FBF70AF95F
:104FE000FBF78CFBFFF75CFF434A444BFBF71CFAD3
:104FF0004FF03332424BFBF78CFA02460B4600204F
:10500000404900F08FF8FBF7BDFB3F49A0608842A4
:1050100008DAFBF7C9FE4146FBF7F2F83B49FBF71C
:10502000EFF8A060FBF76AFB02460B4638A13B484D
:10503000FEF7C8FF394B102206213820FEF7EAF8A8
:10504000A1684046814200DB35486060FBF70AFBFF
:10505000C0B2FDF7F7FEFFF739FD0028B0D0FDF72D
:105060003FFF002206213020FEF740F801220621F2
:105070004020FEF73BF820231A46022130200096FC
:10508000FDF74CFF2F702078FBF7C0FF6088FEF71C
:10509000A3FE00BF00F032FD92E7FFF717FD50B10D
:1050A0002078401CC0B22070032800D327702078DD
:1050B000FBF7ACFFEEE7FFF70FFD002880D00120E3
:1050C0002870FDF70DFF022206211820FEF70EF8CA
:1050D000032206212820FEF709F800F015FD6FE7EE
:1050E000397300080000C8420F00002000000020B3
:1050F00000000442000020417B14AE47E17AFC3FEF
:105100003333E33F000024400000484300002040C8
:105110003A252E30666C7578202000007000002043
:105120000000FA432DE9F04D1D460C4698B0174695
:1051300021F0004123F00043002814BF4FF0010C80
:105140004FF0000C0CEB440CFE4A0CEB02064FEA4D
:10515000620C66452BD33E0018BF012606EB4506C0
:105160001644F94A964222D3F84A53EA070C02D071
:10517000944205D148B918B000201146BDE8F08D21
:10518000002808BF4FF0000C01D04FF0010C0CEBD1
:10519000440212F5001F0AD8002F14BF4FF0010C73
:1051A0004FF0000C0CEB450212F5001F07D918B0A8
:1051B0003A462B462146BDE8F04DFEF78CBF002253
:1051C000DFF88CA3002CB8BF534526DADFF884C380
:1051D0006345A8BF022220DADFF870C39C451CDCBF
:1051E000DFF874C30CEB235CBCF1140F08DDCCF1C9
:1051F000340627FA06FC0CFA06F6BE420DD108E08A
:105200005FB9CCF1140623FA06FC0CFA06F69E42AE
:1052100003D10CF00102C2F1020251EA000C19D1D3
:10522000002D17DA002C18BF022A01D0012A07D05E
:105230000220FEF777FF18B0BDE8F04DFEF740BF43
:105240000220FEF76FFFFEF73BFF18B081F0004130
:10525000BDE8F08DB7F1000C6CD1534525D104F1B8
:10526000804212F5801201BF00280020B74918B013
:1052700008BFBDE8F08DB548884207DC002DA1BF0E
:105280006046294618B0BDE8F08D07E0281E05DA13
:1052900080F0004118B06046BDE8F08DAF49794418
:1052A000D1E9000118B0BDE8F08DDFF8A0C2634578
:1052B00025D1002D1FDA19B1514512D1D8B909E015
:1052C000002840F0EC82A24A214618B062F31E0189
:1052D000BDE8F08D0020214618B060F31E01BDE846
:1052E000F08D08DA18B02346BDE8F04D02460020E4
:1052F0006146FBF70EB918B02146BDE8F08D514567
:1053000018DAB5F1804F0DD0A5F1005CBCF1FF5C5F
:1053100010D1B4F1000C0DDB18B06146BDE8F04DC2
:1053200000F0C0BC234618B00246BDE8F04D194657
:10533000FBF77DB8060024F0004C3BD1D9B15145B4
:1053400033D1002C06DD002DA1BF0020514618B03E
:10535000BDE8F08D002C01DD002D1BDB002C13DAE5
:10536000002D11DB012A4FF0000014BF78497C4961
:1053700018B0BDE8F08D022A18BF002C0AD0012A0F
:1053800008D1002C06DA0AE0002CB8BF002D11DA93
:10539000012A04D0002018B00146BDE8F08D18B0F5
:1053A00000204FF00041BDE8F08DA1F14050B0F178
:1053B0007F601AD0012000EBE47050EA020421D093
:1053C000624C521E4FF0000B104304BF4FF0000B15
:1053D000644C654883427CDD644A654893421FDD26
:1053E000884217DB002D25DB37E0002C00DA4AB1BC
:1053F000022A0CBF01204FF0FF3018B0BDE8F04D7D
:10540000FBF712B90120FEF78DFE18B0BDE8F04D94
:10541000FEF763BE4D4A8A4202DC002D0ADC1CE026
:10542000814202DA002D18DA04E0484B994220DD6F
:10543000002D12DD0220FEF775FEFEF754FE054634
:105440000E460022534658462146FAF7F0FF18B0A0
:1054500066F31E012846BDE8F08D0220FEF762FECD
:10546000FEF748FE0A46214618B062F31E01BDE869
:10547000F08D002230466146FAF7D3FF80460E4693
:105480006FF00102FBF7B4F84FF05532394BFAF7E1
:10549000CBFF42463346FAF7CAFF0022364BFAF7F3
:1054A000C3FF824642463346049110461946FAF736
:1054B000BEFF5246049BFAF7BAFF8A4600904FF0AF
:1054C000C0422E4B40463146FAF7B1FF2C4A2B4BD7
:1054D00000E027E0CDE9060151460098FAF7A7FF62
:1054E00082460191274A284B40463146FAF79FFFF2
:1054F0005246019BFAF795FF82460B4602460591FC
:10550000DDE90601FAF7ECFEDDE906230026884610
:105510003046FAF786FF5246059BFAF785FF0246AA
:1055200000F07EB90020B1F5801F07DA3522304641
:105530006146FBF75DF806466FF0340000EB215042
:1055400024E00000FFFF1F00FFFF0F000000F03FFE
:105550000000F07F0000404301FCFFFFCE2300006D
:105560000000F0FF0000F0BF0000E0410000F04349
:10557000FFFFEF3F5555D53F0000E03F4715F73F90
:10558000FE822B6544DF5DF80BAE543EA0F2FF3087
:105590000190C1F3130040F07F6141F0405102914E
:1055A000FE498842D8BF002004DDFD498142C8BFC2
:1055B000012001DD0D9008E000200D900198401CB5
:1055C00001900298A0F5801002900299F548784465
:1055D0000B910D9900EBC100D0E900230F933046E9
:1055E0000A920B99FAF71DFFCDE90601DDE90A21C0
:1055F00030460F9BFAF774FE02460B460020EA493C
:10560000FAF787FF059102460B460090DDE9060197
:10561000FAF70DFF1490E5488A464FF000087844E9
:105620000299006812904FF0005040EA61010D9815
:105630000F9B01EB804000F5002109910A9A129816
:10564000FAF7EFFE32460B9BFAF7EEFE4246534660
:10565000FAF7EDFE0646029140465146099B129A22
:10566000FAF7E5FEDDE90623FAF7DEFE3246029B95
:10567000FAF7D7FE059B009AFAF7D9FE0091149A23
:105680000490534610461946FAF7D1FE06460246E4
:10569000C7480B46029106217844FEF7BBFCCDE9D2
:1056A0000510029B324610461946FAF7C0FEDDE9A6
:1056B0000532FAF7BCFE05910646534640461946A8
:1056C000149AFAF70DFE009B049AFAF7B0FE3246E0
:1056D000059BFAF705FECDE90510424653461046F4
:1056E0001946FAF7A4FE0022B24B02910A90FAF78B
:1056F000F7FDDDE90532FAF7F3FD0E464246AD4B04
:105700004046FAF78EFE029B0A9AFAF78AFEDDE916
:105710000532FAF789FE424602910A903346104656
:105720005146FAF784FECDE906015346149A0299D0
:105730000A98FAF77CFE8A46029033464246009960
:105740000498FAF774FE5346029AFAF7C9FD8246A6
:105750000B4602460591DDE90601FAF7C1FDDDE9D8
:105760000623002088460646FAF75BFE5246059B54
:10577000FAF75AFE824609914FF060428E4B30464E
:105780004146FAF754FE049006918C4A8A4B5046E3
:105790000999FAF74CFE82460291894A894B3046B4
:1057A0004146FAF744FE5246029BFAF799FD864BB2
:1057B0007B440D9A03EBC203D3E90023FAF790FD73
:1057C0000E9007910198FAF72FFF0591DDE9061376
:1057D00082460E9A0498FAF783FD7C4A7A440D9B20
:1057E00002EBC303D3E9002300930292FAF778FD9A
:1057F0005246059BFAF774FD00268846524630460D
:10580000059BFAF70EFE009B029AFAF70AFE069B2A
:10581000049AFAF706FE079B0E9AFAF705FE02466F
:1058200000200B46029038462946FAF700FE8246D1
:1058300001912B4638461946029AFAF7F2FD324694
:105840004346FAF7F4FD5246019BFAF749FD074635
:105850008A463246434629460298FAF7E8FD05464D
:105860000E463A465346FAF73BFD594A884691425E
:1058700021DBA8EB020353EA000210D12A4633468B
:10588000FAF7CFFDCDE90401524A534B3846514651
:10589000FAF726FDDDE90423FAF75CFF21D20220A6
:1058A000FEF740FCFEF71FFC0A46214618B062F3E3
:1058B0001E01BDE8F08D494B28F000429A4210D3FA
:1058C000474A08EB020353EA00027FF4C6AD2A46BA
:1058D0003346FAF7A6FD3A465346FAF73BFF7FF602
:1058E000BCAD0022019228F000403E493E4A01EB47
:1058F0002051824223DA481C4FF4801121FA00F033
:1059000040443A4AC0F30A517A44394BA1F2FF317C
:10591000CB4020EA0303C0F3130040F48010C1F130
:105920001401C84012680190B8F1000FBCBF40429A
:10593000019028463146FAF774FD05460E462A4680
:10594000334638465146FAF7CBFC4FF00008424642
:10595000284B40460591FAF76AFDCDE90601264A33
:10596000264B40460599FAF762FD009102902A46BF
:10597000334640460599FAF754FD3A465346FAF73E
:1059800053FD1F4A1F4BFAF752FD009B029AFAF78C
:10599000A7FC0746884602460B4635E08E98030072
:1059A0007AB60B00DE1F00000000F03F4E20000022
:1059B000441F00000000084009C7EE3FFD033ADC29
:1059C000F5015B14E02F3EBE1C1E0000E01D000030
:1059D00000009040FE822B654715973C00CC90401C
:1059E00000346F3F01FCFFFF0000E03F641D00003A
:1059F000FFFF0F00432EE63F396CA80C615C20BE10
:105A0000EF39FAFE422EE63FDDE90601FAF768FCBF
:105A1000DDE9062305460E46FAF703FD3A464346FE
:105A2000FAF702FD0F462A46334600901046194603
:105A3000FAF7FDFC824602462E4888460B460521B1
:105A40007844FEF7E7FA52464346FAF7F0FC2A4656
:105A50003346FAF7E9FC80468A463B4628463146FB
:105A6000009AFAF7E4FC3B46009AFAF739FC0691F3
:105A7000009000224FF0804340465146FAF7D1FC97
:105A80000F460C904246534628463146FAF7CFFC63
:105A90003B460C9AFAF73DFD069B009AFAF7C1FCCB
:105AA0002A463346FAF7BDFC0022134BFAF7BCFC3A
:105AB000054601980E4601EB00510815002810DC40
:105AC00028463146019AFAF793FDFEF78FFA04282B
:105AD00008BFFEF70FFB28463146019AFAF788FD0A
