:020000040800F2
:10000000F80C002009010008E33100081301000882
:10001000E1310008E10E0008D55C00080000000096
:100020000000000000000000000000001B010008AC
:10003000E30E0008000000001F010008A55700089B
:100040002301000823010008230100082301000800
:100050002301000823010008FD0E0008470F0008D7
:10006000570F0008670F0008770F000823010008EA
:1000700023010008230100082301000823010008D0
:1000800023010008230100082301000823010008C0
:10009000230100082301000823010008870F00083E
:1000A00000000000230100082301000823010008CC
:1000B0006959000875590008815900082301000892
:1000C0002301000823010008230100082301000880
:1000D000230100088D5C00082301000823010008AB
:1000E0000D0F0008A93600082301000823010008AD
:1000F00023010008DFF80CD000F096FC0048004710
:1001000071690008F80C002006488047064800473F
:10011000FEE7FEE7FEE7FEE7FEE7FEE7FEE7FEE7B7
:10012000FEE7FEE719590008F500000840EA010360
:100130009B0703D009E008C9121F08C0042AFAD29D
:1001400003E011F8013B00F8013B521EF9D2704761
:10015000D2B201E000F8012B491EFBD27047002209
:10016000F6E710B513460A4604461946FFF7F0FFB6
:10017000204610BDF0B480EA0102D40F4200B2EB79
:10018000410F02D20246084611464A0042D0C30D32
:10019000DDB2C1F3C752AD1A202D35DAC1F3160115
:1001A00041F4000204B15242C5F1200602FA06F100
:1001B0002A411044B3EBD05F23D0C4B1012DA0EB92
:1001C000C35009DCF0BC4FF0004202EAC352DBB27C
:1001D00000F5000000F058BB400000F1807000EB1B
:1001E000C350A0F1807040EAD170490009E049088D
:1001F00041EAC071A0EBC35000F50000400800EBDD
:10020000C350F0BC00F037BB6142012202EB410158
:10021000001BF6E7F0BC704781F00041AAE780F0D0
:100220000040A7E780EA010210B502F00043400059
:1002300022D04A001FD0010E01EB1261C0F356001C
:10024000C2F3560240F4000042F40002A0FB022078
:1002500000047F39140400D0401C50EA124001D43D
:100260004000491EC2B20C0604EBD010401C4008EE
:10027000802A02D003E0002010BD20F001000029F8
:1002800000DA0020184310BD30B480EA010202F009
:10029000004530F0004221F0004013D090B1C30D72
:1002A000D40DC2F31601C0F31600E41A41F40001A4
:1002B00040F400027D34914201D3641C00E0490007
:1002C000002C02DA30BC002070474FF400000023FD
:1002D000914201D3891A034340084FEA4101F7D103
:1002E00051B1914202D14FF0004105E002D24FF0EE
:1002F000010101E06FF0010103EBC450284430BC60
:1003000000F0B9BA2DE9FE4F804681EA0300C00F24
:100310000C46009021F0004123F00045B8EB0200AC
:10032000A94105D24046214690461C460B4602464E
:1003300023F00040104347D0270DC7F30A00C3F352
:100340000A510290401A019040286BDAC3F313005F
:1003500040F4801B0098924620B10023D2EB030AA0
:1003600063EB0B0B01985946C0F14002504600F078
:1003700051FA06460D4650465946019A00F069FA70
:1003800010EB08006141002487EA115284EAE77308
:100390001A4340D0009A62B3019A012A4FEA0752E9
:1003A00015DC001B61EB02014FF0004202EA07522C
:1003B000CDE90042001C41F5801132462B4600F089
:1003C000A0FA03B0BDE8F08F40462146F9E7001BD4
:1003D00061EB0201001C41F5801300185B412018FD
:1003E000A2F5001747EB030140EAD570B6196D413D
:1003F00011E06D084FEA360645EAC0754FEA07522C
:10040000001B61EB0201001C41F5801149084FEA15
:1004100030000019514132462B4603B0BDE8F04F81
:1004200000F060BA0098012240000023D0EB0202E5
:1004300063EBE073009821464FEAE074B8EB0000EC
:1004400061EB0401E9E783F000435BE781F00041E1
:1004500058E72DE9FE4F81EA030404F0004421F03F
:10046000004100944FF0000B23F0004350EA0104D8
:100470005ED052EA03045BD0C3F30A54C1F30A55B9
:100480002C44A4F2F3340194A0FB0254C1F31301F1
:1004900041F48011C3F3130343F4801301FB0244BE
:1004A00000FB034E840A970A44EA815447EA8357C3
:1004B000A4FB076802958D0A05FB07854FEA932C7C
:1004C00004FB0C542705029D4FEA065847EA1637ED
:1004D000B5EB08056EEB070C870E920E47EA811705
:1004E00042EA8312A7FB0201B6EB0B0164EB0004A6
:1004F0002B0D43EA0C335E1844EB1C50DA46514690
:10050000E7FB0201C5F313044FEA0B3343EA14532C
:100510004FEA0432019C43EA0603A4F10C0402945E
:10052000009CCDE900B400F0ECF903B0BDE8F08F19
:1005300000200146F9E72DE9F04D81EA030404F0BB
:10054000004B21F0004514464FF0000A23F0004113
:1005500050EA050220D054EA01021DD0C5F30A5723
:100560000246C5F31303C1F31300C1F30A5640F466
:10057000801543F48013A7EB0608101BD64608F23B
:10058000FD3873EB050002D308F1010801E0921871
:100590005B41B8F1000F03DA00200146BDE8F08DA1
:1005A00000204FF48011064684460EE0171B73EBC3
:1005B000050705D3121B63EB050306434CEA010C48
:1005C00049084FEA300092185B4150EA0107EDD12B
:1005D00052EA030012D082EA040083EA05010843CC
:1005E00005D0101BAB4106D20122002306E00022F9
:1005F0004FF0004302E06FF0010253101AEB0600C7
:100600004CEB085110EB0A0041EB0B01BDE8F04D3B
:1006100000F068B970B521F0004303430CD0C1F37A
:100620000A550024D5EB040564EB0403D617AD1A74
:10063000B34102DB0020014670BD201841EB02519E
:1006400070BD96230022114600F01EB90EB5C10FF1
:1006500080EAE0700844CA07002140F233438DE885
:100660000E000A460B4600F04CF903B000BD0EB573
:1006700040F2334102910021CDE900110A460B46B8
:1006800000F03FF903B000BD00F0004220F0004050
:10069000C10DC0F3160040F400007F2901DA0020EC
:1006A0007047962903DCC1F19601C84001E09639F4
:1006B0008840002AF4D04042704770B5C1F30A5216
:1006C00001F000450024C1F3130140F2FF3341F46F
:1006D00080119A4201DA002070BD40F233439A4201
:1006E000A2F2334203DC524200F0A3F800E0904053
:1006F0002C43F1D0404270BDC1F30A5210B5C1F392
:10070000130140F2FF3341F480119A4201DA0020D4
:1007100010BD40F233439A42A2F2334203DC52420C
:1007200000F087F810BD904010BD00F0004230F09E
:1007300000400AD0C10D01F56071C0F3160042EA15
:100740000151C2084007114370470020014670471D
:1007500030B5041E71F1000404DB4FF00044404248
:1007600064EB0101141E73F1000405DB1C464FF01D
:100770000043524263EB04038B4208BF824230BD08
:1007800030B5041E71F1000404DB4FF00044404218
:1007900064EB0101141E73F1000405DB1C464FF0ED
:1007A0000043524263EB0403994208BF904230BDBC
:1007B00001F0004330B421F0004150EA010206D0BC
:1007C0000A0DA2F56072C1F31301002A02DC30BCED
:1007D00000207047440F44EAC104C100E01830BC57
:1007E00000EBC25000F047B830B50B460146002080
:1007F0002022012409E021FA02F59D4205D303FAE3
:1008000002F5491B04FA02F52844151EA2F1010263
:10081000F1DC30BD202A04DB203A00FA02F100208E
:1008200070479140C2F1200320FA03F3194390402E
:100830007047202A04DB203A21FA02F00021704799
:1008400021FA02F3D040C2F1200291400843194638
:100850007047202A06DBCB17203A41FA02F043EA20
:10086000E07306E041FA02F3D040C2F12002914069
:100870000843194670470029A8BF7047401C49002B
:1008800008BF20F00100704710B4B0FA80FC00FAF5
:100890000CF050EA010404BF10BC704749B1CCF120
:1008A000200421FA04F411FA0CF118BF01212143AC
:1008B0000843A3EB0C01CB1D4FEA00614FEA102067
:1008C00042BF002010BC704700EBC3501044002909
:1008D000A4BF10BC7047401C490008BF20F00100B5
:1008E00010BC704710B5141E73F1000408DA401CE8
:1008F00041F1000192185B411A4301D120F001003F
:1009000010BD2DE9F04D92469B4611B1B1FA81F22E
:1009100002E0B0FA80F220329046FFF77BFF0446F7
:100920000F4640EA0A0041EA0B0153465A46084383
:1009300013D0114653EA010019D0C8F140025046C5
:10094000FFF777FF05460E46504659464246FFF7E9
:1009500061FF084305D0012004E020463946BDE888
:10096000F08D0020054346EAE0762C4337430A9891
:100970006305E40AA0EB08000022FD0A44EA47549C
:100980000A3002D500200146E9E701051019694146
:10099000DDE9084500196941BDE8F04DA2E7000016
:1009A0002DE9F041054621F000400C46284309D0CE
:1009B000C4F30A5040F23341884205DD28462146FF
:1009C000BDE8F0812846FBE740F2FE31884210DCAA
:1009D0000CDB4FEA043040EA155050EA053105D0EF
:1009E000104804F0004101430020E9E700200146DF
:1009F000E6E7A0F233404642C6F1400228462146CF
:100A0000FFF708FF07468846284621463246FFF78B
:100A100010FF43463A46FFF765FF3246BDE8F04116
:100A2000FFF7F8BE0000F03F064C074D06E0E06817
:100A300040F0010394E8070098471034AC42F6D325
:100A4000FFF75CFB788E0008988E00082DE9F04DCA
:100A500000231A461B1A8A4103DB00200146BDE829
:100A6000F08DC1F30A52C1F3130141F480154FF028
:100A7000000BD10702D100186D41521E0027044619
:100A800040F2FF11384601EB620A3E4680460246BC
:100A900000204FF48011FFF7CCFEC2197141BB1842
:100AA00046EB0100B4EB030C75EB000C04D3E41A25
:100AB00065EB000517460E46241908F101006D414B
:100AC00080463428E3DDF91946EB0600091BA841EE
:100AD00003D24FF0FF32134601E0002213461BEB16
:100AE000070046EB0A51BDE8F04DFFF7FBBE0000E2
:100AF00010B50021044800F069F803480221BDE860
:100B000010400C3000F062B89402002070B504462A
:100B100000680168C94349061CD4816821F00101BD
:100B2000816000F013FF05460FE000BF00F00EFFEC
:100B3000401B022809D9E06C40F01000E064206DF1
:100B400040F001002065012070BD20680068C043AE
:100B50004006EBD5002070BDF8B50026044600968F
:100B600000680168C94349062AD5816841F001013E
:100B70008160144814490068B0FBF1F000EB4000BC
:100B800000E0401E00900028FBD100F0DFFE05468B
:100B900011E000BF00F0DAFE401B02280BD9E06C28
:100BA00040F01000E064206D40F00100206584F802
:100BB00048600120F8BD20680068C0434006E9D4C1
:100BC0000020F8BD5800002040420F00064A10B532
:100BD0001378002B07D10123137000F01DF8BDE836
:100BE000104000F003B810BD80000020094800212B
:100BF0004FF020628160C1604162C162C0E90D2195
:100C00004FF480624261C163012281618262C161ED
:100C100000F02CBCC80300207CB50C460E490546EC
:100C20000C4808600D49086840F4007008600868C6
:100C300000F400700090084800F092FB601C08D09F
:100C4000002100910B46019103222146284600F025
:100C5000C7F97CBD00240140C803002020380240B1
:100C60002DE9FF474FF00008012494FAA4F0324E1A
:100C7000B0FA80F0CDF80080CDF80480CDF808807F
:100C800046F820402D4D2D4B3435022090FAA0F22D
:100C9000B2FA82F242F02002520901D01A6800E052
:100CA0002A6890FAA0F7B7FA87F707F01F0704FA47
:100CB00007F73A42EAD0214D2035286840F4007009
:100CC00028602868CDE9001400F400700390062025
:100CD000029069461A4800F09FFA194F38688168F7
:100CE00041F001018160384600F0E3FC4FF0FF3134
:100CF000384600F08BFC384600F0B4FB1FFA80F950
:100D00003868816821F0010181600098102801D0C5
:100D1000112802D10A4800F023FB286820F4007053
:100D2000286094FAA4F1B1FA81F146F8218004B068
:100D30004846BDE8F0870000000047420038024006
:100D4000C8030020014840687047000018000020D8
:100D5000034A12780AB1FFF783BF002070470000F2
:100D6000800000202DE9F04100211548FFF7F0FF39
:100D7000144C2080FFF77BFC6FF00B052A46FFF731
:100D800049FC114F4FF0663632463B46FFF761FB98
:100D9000FFF70EFD60600A4802210C30FFF7D8FF14
:100DA0006080FFF764FC2A46FFF734FC32463B467E
:100DB000FFF74FFBFFF7FCFCA060BDE8F0810000EF
:100DC000940200201800002066660A4010B5040056
:100DD00001D002F035FF0148C47010BD3000002082
:100DE00072B602484178491C417070472C000020BF
:100DF00004494878401E10F0FF00487000D162B6E8
:100E0000704700002C00002030B51B4D85B02878BD
:100E1000A0B104F01DFD00BF4FF0FF30009005238E
:100E200006220721154804F035FC03F0ABFA2878B8
:100E3000002801D10120287005B030BD00F094FDDC
:100E400004F0B8FC02F0B4FE002400940123032255
:100E5000122102A8019400F0C3F800940023032299
:100E6000082102A8019400F0BBF800F06DFC00F02E
:100E70005BFC00F061FCCFE72C000020D0070020D5
:100E80001CB5002400942346012203211348019439
:100E900000F0A6F8114800940023012218210C301C
:100EA000019400F09DF80120CDE900040B480023D7
:100EB0001A462D21183000F093F80121074800F060
:100EC000A9F9064801210C3000F0A4F9BDE81C4046
:100ED00002480121183000F09DB900001C040020D8
:100EE000FEE77047002104E000BF00BF00BF00BF65
:100EF000491C8142F8D3704700F02EBC10B502F0B7
:100F00009FFEBDE81040012000F044BC10B502F087
:100F100097FE4FF4806000F03DFC4FF4006000F05D
:100F200039FC4FF4805000F035FC4FF4005000F0D5
:100F300031FC4FF4804000F02DFCBDE810404FF430
:100F4000004000F027BC10B502F07AFEBDE810406A
:100F5000022000F01FBC10B502F072FEBDE8104088
:100F6000042000F017BC10B502F06AFEBDE8104086
:100F7000082000F00FBC10B502F062FEBDE8104082
:100F8000102000F007BC10B502F05AFE202000F03F
:100F900001FC402000F0FEFB802000F0FBFB4FF442
:100FA000807000F0F7FBBDE810404FF4007000F0D7
:100FB000F1BB0000094A002152F83130834208D8C1
:100FC00002EBC1039B68834203D902EBC1000079A5
:100FD0007047491CC9B21529EED3FEE7008D000801
:100FE0007CB5DDE90645CDE9004500F001F87CBDA2
:100FF000F0B587B00546DDE90C760170481C6AD073
:1010000001F00F04012000FA04F46C80334C11F05D
:10101000F00F1FD0C1F30311012925D002292DD0D3
:10102000032935D02E496960216841F020012160F3
:10103000216801F02001059169880091AF720221B9
:10104000CDE9027172B3032A2ED0022A2FD0012BD0
:1010500035D035E023496960216841F00101216004
:10106000216801F00101E6E71F496960216841F04C
:1010700002012160216801F00201DCE71B4969607F
:10108000216841F004012160216801F00401D2E7E8
:1010900017496960216841F008012160216801F069
:1010A0000801C8E7002000E0032001900FE0012BB9
:1010B00002D0019104960AE012200190FAE7112073
:1010C0000190012A03D13146284600F097F869467D
:1010D000686800F06BFB07B0F0BD00001C380240F0
:1010E00000140240000002400004024000080240D8
:1010F000000C02402DE9F04186B01F0090460546E5
:101100004FF000064FF006046CD06888009001296B
:1011100016D0022916D035480190A87A02900220F4
:1011200003906946686800F041FB5FEA08000BD055
:10113000012809D0022809D0B8F1030F09D107E02E
:101140002B48E9E72B48E7E7032602E0022600E008
:1011500001266888B0F5807F33D012DC10282ED0AD
:1011600008DC012830D0022823D0042823D0082806
:101170002AD122E0202824D0402822D0802823D140
:101180001FE0B0F5805F1ED009DCB0F5007F18D0FD
:10119000B0F5806F17D0B0F5006F15D113E0B0F542
:1011A000005F10D0B0F5804F0DD0B0F5004F0BD1DF
:1011B00009E0072408E0082406E0092404E00A24E2
:1011C00002E0172400E0282428780B4900F00F00E3
:1011D000002241F820703146204600F0F1FB204605
:1011E00000F0E3FB06B0BDE8F08100000000311024
:1011F00000001110000021104C04002090F9002084
:10120000521C04D0CAB24188406800F09ABB7047B3
:10121000FFF770BFFFF7F2BFF8B50024009490F815
:1012200048202546012A12D0012280F848204A6829
:101230001F23072A0DD20668376C521E02EB82026A
:1012400093409F430B6893401F43376435E002206F
:10125000F8BD0D2A0BD20768FE6BD21F02EB82028B
:1012600093409E430B6893401E43FE6325E0132A80
:101270000BD20668B76B0D3A02EB820293409F4394
:101280000B6893401F43B76317E00668192A0AD218
:10129000776B133A02EB820293409F430B689340B3
:1012A0001F43776309E0376B193A02EB82029340E0
:1012B0009F430B6893401F4337630A6807230A2A3A
:1012C0000AD20668776902EB420293409F438B681B
:1012D00093401F4377611CE0142A0BD207683E69D4
:1012E0000A3A02EB420293409E438B6893401E43AE
:1012F0003E610EE01A2A0BD80768FE68143A02EB2A
:10130000420293409E438B6893401E43FE6000E080
:1013100000BF0A68102A01D0112A17D10D4A13689C
:101320001B0213D4136843F40003136009681029E7
:101330000CD10949094A0968B1FBF2F101EB8101BD
:10134000490000E0491E00910029FBD180F8485077
:101350002046F8BD042701405800002040420F00FD
:1013600070B504000BD0E06C40F00200E064204651
:10137000FFF7CCFB06004FF0000502D065E001202E
:1013800070BD21686FF01F00086020684168314A15
:1013900011404160206881682F4A1140816000BF80
:1013A0002068C1686FF31401C1602068016901F011
:1013B000404101612068416901F04041416120687C
:1013C00081696FF30B0181612068C1696FF30B01C3
:1013D000C1612068016A6FF30B0101622068416AF4
:1013E0006FF30B0141622068816A6FF30B01816228
:1013F0002068C16A6FF30B01C1622068016B174A54
:10140000114001632068416B01F040414163206855
:10141000816B01F0404181632068C16B01F0404164
:10142000C1632068016C01F0404101642068416C97
:101430006FF3150141640A48016821F4000101605D
:10144000204600F0E1F82565E56484F84850304610
:1014500070BD000000003CF88CF0808000800FFE22
:10146000042701400068806D70470000F8B5040053
:101470004FF0000503D0E06C002610B110E0012011
:10148000F8BD26655B4884F84860016841F00101B9
:101490000160006800F001000090204600F0B5F8FF
:1014A000E06CC00678D4E06C20F4885040F0020074
:1014B000E06451480168626821F4403111430160E1
:1014C0006169E0684FF40073084393FAA3F3E26B99
:1014D000B3FA83F3216A9A4011430843022191FA37
:1014E000A1F1626AB1FA81F102FA01F10843616B7C
:1014F000102902D0A36B19430843236819684FF4DD
:101500008077C943490629D5A169D4F81CC008438E
:10151000A168D4F810E041EA0C01BE450CD0BEF140
:10152000010F09D04FF0000C41EA0C01D4F82CC097
:10153000BCF1010F02D00AE0BC46F5E76AB3E26CE9
:1015400042F02002E264226D42F0010222655A68F4
:10155000DFF8A8C002EA0C020A435A6021688A68D0
:10156000274B1A4002438A602169B94224D00129DD
:1015700022D021680A6B22F0F8720A632168896818
:10158000204A1140814227D12665E06C20F00200FC
:1015900040F00100E0642AE028E0FFE74FF4604CEF
:1015A000226B9CFAACFCBCFA8CFC521E02FA0CF2C8
:1015B0000A4342F40061CAE721680A6B4FF0F877EA
:1015C00022F0F873A26A97FAA7F7B7FA87F7521EC4
:1015D000BA4013430B63D1E7E06C20F0020040F007
:1015E0001000E064206D40F00100206501252846D0
:1015F000F8BD00002038024004270140FF16FCFC23
:101600008DF1FFC0FEFF80BF704770472DE9F041AC
:10161000044600680D4681684FF0000749050BD568
:101620008068C00508D5E06C40F02000E06484F8D4
:1016300048700120BDE8F08100F088F906460FE00F
:10164000681C0DD025B100F081F9801BA84207D994
:10165000E06C40F00400E06484F848700320E9E79F
:10166000206800688007EBD5A06918B921686FF081
:1016700012000860E06C40F40070E064206881684B
:1016800011F0405F13D1616A89B9016B11F0F87FE5
:1016900002D0806840050AD4E06C20F48070E064D9
:1016A000E06CC00403D4E06C40F00100E064002072
:1016B000C0E710B5044690F84800012822D0012068
:1016C00084F848002046FFF747FA00281BD1E16C58
:1016D00040F20162914341F48071E16421684A68FB
:1016E000520505D5E26C22F4005242F48052E264C5
:1016F000E26CD3044FF0000206D5236D23F00603FD
:10170000236502E0022010BD226584F848206FF0B6
:1017100022020A6021688A6812F0405FF3D18A6869
:1017200042F080428A6010BD0248416841F00101E8
:1017300041607047002004E00248416841F0040124
:1017400041607047002004E00248416841F0020116
:1017500041607047002004E031B500F0F7F804461E
:1017600000F0F4F80099001B8842F9D338BD00005E
:10177000002118B904E04008491CC9B20128FAD177
:10178000034850F82100002800D0004770470000AF
:101790004C040020044910B50A68024202D00860D7
:1017A000FFF7E6FF10BD0000140401402DE9F84FDB
:1017B000DFF864B100234FF0010C4FF0030A4FF043
:1017C0000F090BF1040EA0E00CFA03F6324072D0C0
:1017D0004C68022C01D0122C0ED1DC0800EB8408DE
:1017E000D8F820405D07EF0E09FA07F5AC430D6904
:1017F000BD402543C8F8205007685D0091F804807B
:101800000AFA05F408F00308A74308FA05F848EABD
:101810000708C0F800804F68012F05D0022F03D0C1
:10182000112F01D0122F11D18768D1F80C80A74356
:1018300008FA05F848EA0708C0F808804768B7437F
:101840000E79C6F300169E403E434660C668A64326
:101850008C68AC403443C4604C68E40054D52F4CD1
:10186000256845F001052560246823F0030504F090
:10187000010400942A4C2544AF689C07240F09FA00
:1018800004F6B743274EB04201D1002615E0264E9C
:10189000B04201D1012610E0244EB04201D102260F
:1018A0000BE0234EB04201D1032606E0214EB042A8
:1018B00002D1042601E027E00526A6403E43AE60A3
:1018C000DBF800405D464E689443F60300D51443B0
:1018D0002C60DEF8004075464E689443B60300D590
:1018E00014432C600C4D08352C684E689443F60266
:1018F00000D514432C60084D0C352C684E68944379
:10190000B60200D514432C605B1C0A6832FA03F45B
:101910007FF45AAFBDE8F88F000401402038024040
:1019200000000140000002400004024000080240A4
:10193000000C0240001002400069084000D0012065
:1019400070470AB1816170470904FBE701480068EC
:10195000704700005C00002002480168491C0160DB
:10196000704700005C00002010B5032000F048F82C
:10197000002000F005F800F017F8002010BD00006E
:1019800010B5044607484FF47A710068B0FBF1F0D7
:1019900001F074F900222146501E00F011F80020D9
:1019A00010BD000058000020704700F01F02012108
:1019B00091404009800000F1E020C0F8001170471C
:1019C000F0B40E4B1B680C46C3F30223C3F10705AA
:1019D000042D00D90425191D072901D2002300E098
:1019E000DB1E012606FA05F1491E214099409E4062
:1019F000761E16403143F0BC01F05CBC0CED00E0FB
:101A0000064900F0070208684FF6FF03184040EA55
:101A10000220034A10430860704700000CED00E00C
:101A20000000FA050248006800F4C050704700004A
:101A3000007000402DE9F84F06460078C00775D0C9
:101A4000DFF84C810027D8F80000C0000BD4D8F88C
:101A5000001041F08051C8F80010D8F800000127AC
:101A600000F0805000904B4C2068C00510D42068D6
:101A700040F480702060FFF769FF054605E000BF75
:101A8000FFF764FF401B64284ED82068C005F7D5D7
:101A90003F4D243D286800F0C041706800F0C0420E
:101AA0008A4209D0C0F30141032905D1296889037D
:101AB00002D50120BDE8F88F354C1034216811F4AF
:101AC00040314AD000F44030884246D03078C007D8
:101AD00043D020684FF4000292FAA2F1B1FA81F1EA
:101AE0004FEA810C2C494FF0010A8C4420F440301D
:101AF000CCF880A692FAA2F2B2FA82F201EB82014D
:101B00000023C1F880362060C00526D5FFF71EFFF0
:101B100081464FF4007B0AE0FFF718FFA0EB0901B4
:101B200041F28830814202D90320C3E72EE09BFABC
:101B3000ABF0B0FA80F040F04001BAEB511F01D198
:101B4000296800E021689BFAABF2B2FA82F202F057
:101B50001F020AFA02F00142DED07068C0F30141B0
:101B6000032906D1296800F0C04021F0C04101439B
:101B700029602068716801F44031084320602FB16A
:101B8000D8F8001021F08051C8F80010002091E72B
:101B90002438024000700040000047422DE9F04721
:101BA000DFF8BC8105460E46D8F8000000F00100C1
:101BB000B04214D2012E05D1D8F8001041F0040132
:101BC000C8F80010D8F8001021F001013143C8F81E
:101BD0000010D8F8000000F00100B04271D1287860
:101BE000604C800705D52068A96820F0F000084304
:101BF00020602878C00771D05A4A5A4B6968012082
:101C0000083A2C33022910D003292ED001292FD0D5
:101C10005FEA402797FAA7FCBCFA8CFC4CF0200C3A
:101C20005FEA5C1C04D0126803E04FF40037F1E770
:101C30001A6897FAA7F3B3FA83F303F01F039840E7
:101C4000024262D0206820F0030008432060FFF7C2
:101C50007DFE6968074641F28830022910D00329C9
:101C60001CD00129814626D034E04FF00077D1E71F
:101C70000227CFE7FFF76AFEC11B494501D926E0DD
:101C800081462068C0F381000228F3D126E000BF1E
:101C9000FFF75CFEC11B494501D918E08146206869
:101CA000C0F381000328F3D118E000BFFFF74EFE18
:101CB000C11B49450BD82068C0F381000128F5D12C
:101CC0000CE022E0FFF742FEC11B494502D9032088
:101CD000BDE8F087206810F00C0FF3D1D8F80010A1
:101CE000404601F00101B14211D9012E03D1016832
:101CF00041F004010160016821F0010131430160FC
:101D0000006800F00100B04201D00120E0E728782F
:101D1000400705D52068E96820F4E06008432060AA
:101D20002878000706D52068296920F4605040EA29
:101D3000C100206000F022F82168F02292FAA2F29D
:101D400001F0F001B2FA82F2D140074A515CC8407A
:101D5000064908600020FFF713FE0020B8E70000E6
:101D6000003C024008380240CD79000858000020AD
:101D70000148006870470000580000201E4A1168A2
:101D800001F00C00042813D0082813D00C2813D01D
:101D9000101F006800F460414FF4604090FAA0F01A
:101DA000B0FA80F0C1404FF40040491C88407047B1
:101DB00012487047124870474FF4701393FAA3F318
:101DC00001F47010B3FA83F3D8400E4B01F44001D4
:101DD0001268185C4FF4400393FAA3F3B3FA83F349
:101DE000D940491CD20301D5054A00E0034A5043BB
:101DF000B0FBF1F070470000083802400024F40006
:101E000000127A00C47900082DE9F84F07460078DF
:101E1000FB4EFC4DC0074FF0010428D0F8480830B5
:101E200001684FF40038C1F38101022907D001682D
:101E3000C1F3810103291BD10068C00318D598FAAA
:101E4000A8F0B0FA80F040F02000400901D03068DE
:101E500000E0286898FAA8F1B1FA81F101F01F01B9
:101E600004FA01F108425CD0786800287BD058E081
:101E7000786801280AD008B1052811D0306820F40C
:101E800080303060306820F4802002E0306840F418
:101E900080303060786828B3FFF758FD81460BE04A
:101EA000306840F480203060F0E700BFFFF74EFD5F
:101EB000A0EB0900642872D898FAA8F0B0FA80F074
:101EC00040F02000400901D0306800E0286898FA0E
:101ED000A8F1B1FA81F101F01F0104FA01F1084201
:101EE000E4D01EE0FFF732FD814605E0FFF72EFD4E
:101EF000A0EB09006428DED898FAA8F0B0FA80F0C8
:101F000040F02000400901D0306800E0286898FACD
:101F1000A8F1B1FA81F101F01F0104FA01F10842C0
:101F2000E4D13878DFF8E08280074FF0000B4FF003
:101F300002095FD5B24808300168C1F38101012967
:101F400007D00168C1F3810103291CD10068C003D7
:101F500019D499FAA9F0B0FA80F040F020004009B5
:101F600002D0306801E086E0286899FAA9F1B1FA58
:101F700081F101F01F0104FA01F108422BD0F86849
:101F8000012878D127E0F868A8B394FAA4F0B0FA51
:101F900080F048F82040FFF7D9FC824606E066E171
:101FA000FFF7D4FCA0EB0A00022884D899FAA9F123
:101FB000B1FA81F141F02001490901D0316800E016
:101FC000296899FAA9F0B0FA80F000F01F0004FA2D
:101FD00000F00142E4D08A48001D01684FF4F85334
:101FE00093FAA3F33A69B3FA83F321F4F8519A40D0
:101FF0001143016025E0FFE794FAA4F1B1FA81F101
:1020000048F821B0FFF7A2FC824605E0FFF79EFCEE
:10201000A0EB0A000228C8D899FAA9F0B0FA80F01B
:1020200040F02000400901D0306800E0286899FAAB
:10203000A9F1B1FA81F101F01F0104FA01F108429E
:10204000E4D138784FF4007AC0067CD56C4808306B
:10205000006810F00C0F0FD0B9694FF480700029A0
:1020600072D090FAA0F0B0FA80F048F82040FFF764
:102070006DFC00907EE087E09AFAAAF0B0FA80F05A
:1020800040F02000400901D0306800E028689AFA4A
:10209000AAF1B1FA81F101F01F0104FA01F108423D
:1020A00002D0B86900286FD05548396A001D006811
:1020B00000F4604081421AD9084601F0B9FA0028BC
:1020C00062D14F48001D01683A6A21F46041114312
:1020D000016001684FF07F4393FAA3F3FA69B3FA02
:1020E00083F321F07F419A401143016018E0444896
:1020F000001D026822F460420A43026001684FF04A
:102100007F4393FAA3F3FA69B3FA83F321F07F4193
:102110009A4011430160386A01F08AFA0028CFD151
:102120004FF4604191FAA1F1386AB1FA81F1C840E7
:102130004FF40041401C8140314808300068F022D3
:1021400000F0F00001E070E040E092FAA2F2B2FA92
:1021500082F2D0402D4A105CC1402D480160002021
:10216000FFF70EFC61E000BFFFF7F0FB0099401A9B
:1021700002287CD89AFAAAF0B0FA80F040F0200049
:10218000400902D0306801E0BCE128689AFAAAF15F
:10219000B1FA81F101F01F0104FA01F10842E3D024
:1021A0001748001D01683A6A21F46041114301603B
:1021B00001684FF07F4393FAA3F3FA69B3FA83F30C
:1021C00021F07F419A40114301602EE090FAA0F087
:1021D000B0FA80F048F820B0FFF7B8FB009005E0B7
:1021E000FFF7B4FB0099401A0228C2D89AFAAAF065
:1021F000B0FA80F040F0200040090BD030680AE0CF
:10220000003802403438024000004742CD790008CF
:102210005800002028689AFAAAF1B1FA81F101F079
:102220001F0104FA01F10842DAD13878000753D5CA
:10223000786948B394FAA4F0B0FA80F008EB800013
:10224000C0F88046FFF782FB009005E0FFF77EFBB9
:102250000099401A02288CD899FAA9F0B0FA80F0B7
:1022600040F04000B4EB501F02D1306801E08EE036
:10227000286899FAA9F1B1FA81F101F01F0104FA75
:1022800001F21042E2D027E094FAA4F1B1FA81F110
:1022900008EB8101C1F880B6FFF758FB009005E01C
:1022A000FFF754FB0099401A022870D899FAA9F058
:1022B000B0FA80F040F04000B4EB501F01D130681C
:1022C00000E0286899FAA9F1B1FA81F101F01F0143
:1022D00004FA01F21042E3D1387840077BD59B48DD
:1022E0004FF000090068C0000AD49848016841F026
:1022F0008051016000684FF0010900F080500090AB
:1023000093480168C90511D4016841F480710160E6
:10231000FFF71CFB009005E0FFF718FB0099401A3F
:10232000642834D88A480068C005F5D5B868012803
:102330000AD008B1052811D0286820F480702860E0
:10234000286820F4806002E0286840F480702860EB
:10235000B86848B3FFF7FAFA00900DE0286840F437
:1023600080602860F0E700BFFFF7F0FA0099411A9B
:1023700041F2883081420AD89AFAAAF0B0FA80F085
:1023800040F04000B4EB501F02D1306801E095E00E
:1023900028689AFAAAF1B1FA81F101F01F0104FA52
:1023A00001F21042E0D022E0FFF7D0FA009007E0FF
:1023B000FFF7CCFA0099411A41F2883081427DD86A
:1023C0009AFAAAF0B0FA80F040F04000B4EB501F47
:1023D00002D1306801E012E028689AFAAAF1B1FA55
:1023E00081F101F01F0104FA01F21042E0D1B9F1CC
:1023F000000F04D05548016821F080510160786ACF
:10240000E8B3DFF84891A9F11C09D9F80010C1F32D
:102410008101032976D002284FF080714FF0007AB5
:1024200058460BD091FAA1F1B1FA81F148F8210098
:10243000FFF78CFAB046074656466DE04FF08071C4
:1024400091FAA1F1B1FA81F18A0042495050FFF7A7
:102450007DFAB3468046564606E000BFFFF776FA9F
:10246000A0EB0800022854D896FAA6F0B0FA80F043
:1024700040F02000400903D0DBF8000001E061E0FB
:10248000286896FAA6F1B1FA81F101F01F0104FA69
:1024900001F10842E2D1D7E90A103A6BD9F80030CD
:1024A000014323F47D031A431143C9F800104FF090
:1024B000807090FAA0F0B0FA80F000E029E081008E
:1024C00024480C50FFF742FA074604E0FFF73EFAB3
:1024D000C01B02281DD896FAA6F0B0FA80F040F092
:1024E0002000400902D0DBF8000000E0286896FADE
:1024F000A6F1B1FA81F101F01F0104FA01F10842DD
:10250000E4D01FE020E000BFFFF720FAC01B022844
:1025100002D90320BDE8F88F96FAA6F0B0FA80F051
:1025200040F02000400902D0D8F8000000E0286800
:1025300096FAA6F1B1FA81F101F01F0104FA01F156
:102540000842E1D10020E5E70120E3E7243802401A
:10255000007000400000474270472DE9F0470446F4
:10256000007F01281CD00126267702206077216891
:10257000CA2048622168532048622068816821F49B
:10258000806181602068816821F480418160FFF76B
:10259000DDF9054600274FF0FF084FF47A790EE089
:1025A0000220BDE8F087FFF7D1F9401B484506D966
:1025B0002168C1F82480032060772777F1E720683D
:1025C000C0684007EFD52168C1F824806677277777
:1025D0000020E6E77047000010B5044600688168F7
:1025E000C9040CD5C068C00509D52046FFF7F2FF25
:1025F0002068C16801F0800161F4C071C160206889
:10260000816889040CD5C068800509D52046FFF78C
:10261000A3FF2068C16801F0800161F42071C160EE
:1026200003494FF4003008600120607710BD0000BE
:10263000140401402DE9F0470446007F012822D010
:102640004FF0010884F81C80022060772268CA20BD
:10265000506222685320506220680025FF26B1F5A1
:10266000807F81684FF0030A4FF47A790ED021F40D
:10267000007181602068816821F400518160FFF75A
:1026800065F9074624E00220BDE8F08721F4807157
:1026900081602068816821F480518160FFF756F9DC
:1026A000074604E0FFF752F9C01B484509D82068E7
:1026B000C068C007F6D00FE0FFF748F9C01B4845D7
:1026C00006D92068466284F81DA025770320DBE741
:1026D0002068C0688007EFD52068466284F81D80B6
:1026E00025770020D0E710B50C464FF480718A4260
:1026F00003D1A1610068C16904E04FF40071A161D8
:102700000068016AC1F305402070C1F306226270BF
:1027100001F07F02A270402202EA1142E270C1F38E
:102720000562227501F0804201F08031C4E9031294
:1027300073B900F0CFFF2070607800F0CBFF6070BD
:10274000A07800F0C7FFA070207D00F0C3FF2075C7
:10275000002010BD10B500680B4641680D480140CF
:10276000080CD870C1F304245C7001F03F049C7025
:10277000C1F34231197052B900F0ACFFD8705878EB
:1027800000F0A8FF5870987800F0A4FF987000201F
:1027900010BD00003FFFFF0010B500680C46016847
:1027A0000E480140C1F305402070C1F30623637059
:1027B00001F07F03A370402303EA1141E17052B995
:1027C00000F088FF2070607800F084FF6070A078CF
:1027D00000F080FFA070002010BD00007F7F7F0010
:1027E00070B5040002D0607F10B106E0012070BD1A
:1027F00000202077204600F041F802206077216811
:10280000CA204862216853204862204600F076FFC3
:10281000FF210028206803D0416204206077E5E7AB
:102820008268154B1A40826022689068636818437A
:10283000D4E904352B43184390602268E0681061A6
:1028400020680269238942EA034202612068C26863
:1028500022F08002C2602068026C22F480220264AE
:102860002068026CA3691A43026420684162012057
:102870006077002070BD0000BFFF8FFF7047000031
:102880002DE9F05F0446007F0D46012844D04FF04B
:10289000010B84F81CB00220607720680027806854
:1028A0004FEA4060BAB3002852DA287800F012FFED
:1028B000287D00F00FFFA8782978EA7840EA0140E7
:1028C0006978090241EA02410843297D40EA01662C
:1028D000286921680643E8680643CA2048622168DF
:1028E00053204862A869FF25B0F5807F20684FF02B
:1028F000030A4FF47A7981682CD021F40071816049
:102900002068C16801F0800161F42071C160FFF7A7
:102910001DF880464FE002E00220BDE8F09F00284D
:1029200000DBEF70287800F0DEFE0604687800F027
:10293000DAFE46EA0026A87800F0D5FE0643E878DD
:1029400046EA0046287D00F0CEFE46EA0066BFE774
:10295000EF70ADE721F4807181602068C16801F0FB
:10296000800161F4C071C160FEF7F0FF804605E0B0
:10297000FEF7ECFFA0EB0800484515D82068C068BA
:10298000C007F5D02068C6612068816841F4807175
:1029900081602068816841F480511BE0FEF7D6FF1A
:1029A000A0EB0800484506D92068456284F81DA0C0
:1029B00027770320B1E72068C0688007EED520683C
:1029C00006622068816841F4007181602068816836
:1029D00041F4005181600948016841F4003101600F
:1029E00006480830016841F4003101602068456202
:1029F00084F81DB0277700208FE700000004014015
:102A00002DE9F0470446007F0B46012825D04FF002
:102A1000010984F81C9002206077587802B300F016
:102A200059FE987800F056FE9878D97840EA01452A
:102A300058781978000240EA413005432168CA20DD
:102A40004862216853204862204600F057FE002665
:102A5000FF274FF0040838BB19E00220BDE8F087DB
:102A6000C10603D500F0EF000A305870D87800F0A6
:102A70003AFE0204587800F036FE42EA00229878C6
:102A800000F031FE0243187842EA4035D6E70D489F
:102A90000540206845602068C16821F08001C16060
:102AA000204600F085F830B12068476284F81D8028
:102AB00026770120D2E72068476284F81D902677A8
:102AC0000020CBE73FFFFF002DE9F0470446007FE1
:102AD0000D46012811D04FF0010A84F81CA00220F5
:102AE00060772068002680684FEA406042B1002885
:102AF0001ADA287800F0EEFD17E00220BDE8F08732
:102B0000002800DBEE70287800F0EDFD0204687804
:102B100000F0E9FD42EA0022A87800F0E4FD02435B
:102B2000E87842EA00470AE0EE70A878297840EA9F
:102B300001476878E978000240EA014007432168CC
:102B4000CA204862216853204862204600F0D6FD22
:102B50004FF0FF084FF00409C0B91448074020683F
:102B600007602068816821F480218160D5E9010136
:102B7000084321688A68104388602068C16821F092
:102B80008001C160204600F013F838B12168C1F817
:102B9000248084F81D9026770120AFE72168C1F8D2
:102BA000248084F81DA026770020A7E77F7F7F0080
:102BB00070B504460068C16821F0A001C160FEF74D
:102BC000C5FE05464FF47A7607E000BFFEF7BEFE6D
:102BD000401BB04201D9032070BD2068C068800648
:102BE000F4D5002070BD70B5040004D094F85100F5
:102BF000002510B106E0012070BD84F85050204639
:102C000000F02EF8022084F851002068016821F0BD
:102C100040010160D4E901010843D4E903121143E2
:102C2000084361690843218B01F400710843E1699D
:102C30000843216A0843A16A084321680860A06923
:102C4000042101EA1040616A084321684860216854
:102C5000E06A08616565012084F85100002070BDBC
:102C600070474FF0E0210428086903D020F00400E9
:102C70000861704740F00400FAE7704710B5401E45
:102C8000B0F1807F01D3012010BD4FF0E0246061DE
:102C90000F21601700F00EFB0020A06107202061CB
:102CA000002010BD10B5FFF7E8FF10BD10B50400FF
:102CB00003D094F8350010B107E0012010BD0020CA
:102CC00084F83400204600F00DF8022084F8350026
:102CD000211D206802F05AFE012084F835000020F2
:102CE00010BD000008B501681D48B1F1804F11D03A
:102CF0001C4A91421DD1016841F002010160006847
:102D0000012200F00200009003211D20FEF758FE72
:102D10001D201FE0016841F00101016000680022F0
:102D200000F00100009003211C20FEF749FE1C204A
:102D300010E00D4A914211D1016841F00401016097
:102D40000068012200F00400009003211E20FEF71D
:102D500037FE1E20BDE80840FEF727BE08BD000074
:102D60002438024000040040000800400168CA689E
:102D700042F00102CA600068016841F0010101608F
:102D800000207047704770B50446006801694FF035
:102D90000005C943890715D4C168C943890711D4FF
:102DA000E91E0161012020752068806980072046A6
:102DB00002D0FFF7E7FF04E000F078F8204600F0CB
:102DC00076F8257520680169C943490717D4C16899
:102DD000C943490713D46FF0040101610220207533
:102DE0002068806910F4407F204602D0FFF7CAFFB8
:102DF00004E000F05BF8204600F059F825752068E3
:102E00000169C943090716D4C168C943090712D427
:102E10006FF008010161042020752068C0698007F7
:102E2000204602D0FFF7AEFF04E000F03FF8204656
:102E300000F03DF8257520680169C943C90617D41B
:102E4000C168C943C90613D46FF01001016108209D
:102E500020752068C06910F4407F204602D0FFF73B
:102E600091FF04E000F022F8204600F020F82575DC
:102E700020680169C943C90708D1C168C943C907A6
:102E800004D1891E0161204600F012F82068016912
:102E9000C943490609D4C168C943490605D46FF03E
:102EA00040010161204600F01DF870BD7047704779
:102EB00001680948B1F1804F06D0084A914205D116
:102EC0004068002807D000470068FAE7044A9142AA
:102ED00001D18068F5E770474400002000040040FD
:102EE000000800407047000010B586B01421684605
:102EF000FDF735F90E48016841F0020101600068F4
:102F00000C4C00F0020005900122C0212046FEF783
:102F100018FDC02000901120019001200290022095
:102F2000039069462046FEF741FC06B010BD000044
:102F30001C380240000402402DE9F05F8B4600215E
:102F40000170364D91468046012280212846FEF7C9
:102F5000F8FC012000F016F98026012240212846C5
:102F6000FEF7EFFC0120FDF7BDFF4C4600270120D6
:102F700000F056F84FF47A7A07E0641EE4B201D20A
:102F800004270BE05046FDF7ADFF40212846FEF731
:102F9000D3FC0028F1D0002000F042F80320FDF718
:102FA000A1FF80212846FEF7C7FC20B198F8000059
:102FB000304388F80000002240212846FEF7C1FC7B
:102FC0000120FDF78FFF7608C7D1002000F0DAF866
:102FD000BBF1000F1FD0012280212846FEF7B1FC73
:102FE0000120FDF77FFF012240212846FEF7A9FCC2
:102FF0000520FDF777FF002240212846FEF7A1FCBF
:10300000012280212846FEF79CFC1420FDF76AFF70
:103010003846BDE8F09F0022DEE7000000040240D1
:1030200010B586B0044614216846FDF798F8402094
:103030000090012C01D0112000E00020019001201F
:1030400002900220039069460248FEF7AFFB06B0EB
:1030500010BD00000004024010B5114C0122802177
:103060002046FEF76EFC0120FDF73CFF01224021C7
:103070002046FEF766FC0120FDF734FF0022802188
:103080002046FEF75EFC0A20FDF72CFF00224021BF
:103090002046FEF756FCBDE810400A20FDF722BF8F
:1030A0000004024010B5114C002240212046FEF7DA
:1030B00048FC0120FDF716FF002280212046FEF784
:1030C00040FC0120FDF70EFF012240212046FEF7C3
:1030D00038FC0A20FDF706FF012280212046FEF77A
:1030E00030FCBDE810400A20FDF7FCBE00040240A1
:1030F0002DE9F0410025224E074680243C4201D1B3
:10310000002200E0012280213046FEF71AFC012057
:10311000FDF7E8FE012240213046FEF712FC0520B3
:10312000FDF7E0FE002240213046FEF70AFC0120B8
:10313000FDF7D8FE6408E1D1012280213046FEF778
:1031400000FC012240213046FEF7FBFB0120FDF789
:10315000C9FE012000F016F880213046FEF7ECFB96
:1031600000B10125002240213046FEF7EAFB142081
:10317000FDF7B8FE002000F005F82846BDE8F08114
:103180000004024010B586B0044614216846FCF7DE
:10319000E6FF80200090012C01D0112000E00020EB
:1031A0000190012002900220039069460248FEF738
:1031B000FDFA06B010BD00000004024010B5FDF796
:1031C00023FEFDF75DFE03F091F9044804F094FB43
:1031D000BDE81040012002F00FBC0000815A000839
:1031E000FEE77047084807490160084981600849BF
:1031F00041600849C1600849016108480168024806
:103200000847000001360008AC0200208D35000898
:1032100019360008E9350008D1350008687900083A
:103220002DE9F0411D4614460E460746FFF7DAFF2A
:1032300022463146384600F009F80348416B2846DB
:10324000BDE8F04108470000687900082DE9F04129
:10325000174D88468AB0E9681646884700240594C9
:103260000694CDE9074608270320CDE9010701268A
:1032700007200090CDE90346D5F81CC0234622461E
:1032800041463046E047CDE90846CDE9044606947C
:1032900005200794CDE90204CDE900470323072266
:1032A0000021AC690120A0470AB0BDE8F081000010
:1032B000687900080907090E002806DA00F00F00F7
:1032C00000F1E02080F8141D704700F1E02080F844
:1032D0000014704770B5002404F1B000C0B20021A2
:1032E00000F020F90021022000F01CF9002110203C
:1032F00000F018F900250121002000F013F96D1CE1
:10330000EDB2802DF7D3641CE4B2082CE4D370BD79
:10331000A72000F001B800007CB501240546009408
:10332000002322461C214D480194FDF759FE4B48CD
:103330000094002301221E210C300194FDF750FE61
:1033400046480094002301221D2118300194FDF706
:1033500047FE42480094002301221F21243001949B
:10336000FDF73EFE0021AE2000F0DCF80021022037
:1033700000F0D8F80021102000F0D4F800214020FF
:1033800000F0D0F80021812000F0CCF80021CF20FF
:1033900000F0C8F80021A12000F0C4F80021C820E6
:1033A00000F0C0F80021A62000F0BCF80021A82001
:1033B00000F0B8F800213F2000F0B4F80021D3203D
:1033C00000F0B0F80021084600F0ACF80021D5204C
:1033D00000F0A8F80021802000F0A4F80021D920F6
:1033E00000F0A0F80021F12000F09CF80021DA2084
:1033F00000F098F80021122000F094F80021DB2062
:1034000000F090F80021402000F08CF800212020EE
:1034100000F088F80021022000F084F800218D20BF
:1034200000F080F80021142000F07CF80021A42096
:1034300000F078F80021284600F074F80021AF2051
:1034400000F070F80021AF2000F06CF8FFF742FFA9
:10345000BDE87C400021084600F002B87C06002050
:1034600010B50446B031C8B2002100F05BF810205E
:1034700040EA1410002100F055F804F00F00BDE8F8
:10348000104040F00100002100F04CB82DE9F0415F
:10349000203A00240D468046D7B27F2803D9002069
:1034A0008D1C8046EDB22946FFF7DAFF0F4E00BFB4
:1034B00004EB07100121305C00F034F8641CE4B226
:1034C000082CF5D36D1CE9B24046FFF7C9FF002474
:1034D00004EB071030440121007A00F023F8641C4B
:1034E000E4B2082CF4D3BDE8F0810000DD790008D7
:1034F0002DE9F04117460E46044600250CE0314602
:103500002046FFF7C3FF0834E4B2782C02D9002428
:10351000B61CF6B26D1CEDB27A5D002AEFD1BDE8A3
:10352000F081000070B5054601B101211648FDF794
:1035300071FE154800210C38FDF76CFE002412487E
:1035400000210C30FDF766FE280601D5012100E0C0
:1035500000210D481830FDF75DFE0B4801210C30AD
:10356000FDF758FE6806641C050EE4B2082CE6D38D
:10357000054801210C38FDF74DFEBDE870400121E2
:103580000148FDF747BE0000880600202DE9F047FE
:103590000C4E07469946F06A15460C468047DFF800
:1035A000288022463946A8F802400848FCF7BEFDAC
:1035B00088F8005088F80190716BBDE8F0474FF42F
:1035C0007A7008476879000824000020C8020020AB
:1035D00010B5044CE06A8047616BBDE810404FF4C1
:1035E0007A7008476879000810B5044CE06A804793
:1035F000616BBDE810404FF47A70084768790008A5
:1036000010B5044CE06A8047616BBDE810404FF490
:103610007A7008476879000810B5044CE06A804762
:10362000616BBDE810404FF47A7008476879000874
:10363000F8B507461A48002600681A4D10F0F00F3A
:1036400020D1174C1C342068C00002D5FEF7EAF9DF
:103650000DE0206840F080502060206800F080502D
:103660000090FEF7DFF9216821F080512160B0F56C
:10367000C05F07D1B7F5404F04D12868012640F05C
:1036800004002860286820F0010030432860286882
:1036900000F00100B04201D00120F8BD0020F8BDCB
:1036A00008380240003C024010B50948FEF794FF7C
:1036B0004FF480710648FEF7BDFF00F0C1FA00F03C
:1036C0003FF90020FDF782FBBDE8104002F01CBA74
:1036D0008C040020010901EB810100F00F0000EBD8
:1036E0004100C0B27047002102E00A38C0B2491C54
:1036F0000A28FAD2090740EA1160704770B50446FB
:103700000068C168490614D44FF0FF31C160FEF76C
:103710001DF905464FF47A7607E000BFFEF716F96B
:10372000401BB04201D9032070BD2068C06840062C
:10373000F4D5002070BD00000346074810B544884A
:1037400044B100214180224604491846FCF7EEFCB2
:10375000204610BD002010BD24000020C80200201B
:103760000FB414222DE9F04F87B00C4612A9684619
:10377000FCF7DCFC9DF85200059067489DF85180ED
:103780009DF850709DF84C60844201D214B102E063
:10379000044600E001242046FCF769FF5F4A604BC5
:1037A000FCF757FE8A46814603F09EFE04460D460E
:1037B0004A465346FCF747FE00225A4BFCF749FEA7
:1037C000DFF864A181468B46DAF80C00FCF73EFF77
:1037D0004A465B46FCF796FDFCF76FFFDFF84C911D
:1037E000DFF84CB1CAF80C00B0F5F47F16DBA0F599
:1037F000F470CAF80C0000224E4B20462946FCF714
:1038000081FD04460D4609E000224B46204629462C
:10381000FCF719FE761C04460D46B6B200224B4654
:1038200020462946FCF7ACFFEED9D94600224B468C
:1038300020462946FCF7A4FF17D800224B46204615
:103840002946FCF700FE7F1C04460D46BFB2EDE79B
:1038500000224B4620462946FCF7F5FD044608F1B8
:1038600001000D461FFA80F801E0DFF8CC9000223D
:103870004B4620462946FCF783FFE9D90598FCF71B
:10388000F6FE22462B46FCF73DFDFCF735FF80B2E5
:1038900005E03C3808F1010180B21FFA81F83C28AC
:1038A000F7D205E0A8F13C017F1C1FFA81F8BFB2F6
:1038B000B8F13C0FF6D203E0183F761CBFB2B6B2A7
:1038C000182FF9D29DF84D1009B39AF8062011442B
:1038D00089071CD09DF84B201849491E515CB14204
:1038E00003D2B6FBF1F201FB12668DF80A008DF8E7
:1038F00009808DF804608DF80870142269461098CC
:10390000FCF714FC07B0BDE8F00F5DF814FB0B49A1
:103910009DF84B200C31E0E742061200FCA9F1D2E1
:103920004D62004000408F40300000200018F540FC
:103930000020AC400000F03F00004E4050790008ED
:1039400010B5224C92B0607900283CD10DA800F04F
:10395000F1F814220DA901A8FCF7E8FB00234FF4AD
:10396000807206A91A48FEF7BEFE9DF81900C0EB4A
:10397000001081009DF81800C0EB4012C2EB00203F
:1039800001EB00109DF81A1008449DF80D10C1EBD2
:1039900001118A009DF80C10C1EB4113C3EB01210A
:1039A00002EB01119DF80E201144081AFCF75FFE8E
:1039B0000022084BFCF74DFD02F0AAFCFCF79CFE30
:1039C000A0600120607112B010BD00003000002026
:1039D0008C0400200040DF3F2DE9F04700248AB02E
:1039E000254680B1142201466846FCF79FFB9DF8EE
:1039F0000510BDF800000026DFF8F490DFF8F4A011
:103A000088460F1812E005A800F094F8142205A9C2
:103A1000EAE7CEB1B00717D0002253462046294628
:103A2000FCF770FC761C04460D4636B2B742F0DC5B
:103A3000B8F1000F0BD0B80709D09DF8037000262D
:103A4000DFF8B4807F1E2BE000224B46E6E7DFF86C
:103A5000A8809DF80370002608F10C087F1E0DE079
:103A600018F8060025494843FCF701FE22462B467C
:103A7000FCF748FC761C04460D46F6B2B742EFDC74
:103A800010E000BF18F806001C494843FCF7EFFDA2
:103A900022462B46FCF736FC761C04460D46F6B251
:103AA000B742EFDC9DF809109DF80A00C1EB011147
:103AB00000EB81029DF808004FF4616148439DF8D6
:103AC000041040F2A323594300EBC1101044FCF74B
:103AD000CEFD22462B46FCF715FC0022084BFCF7D6
:103AE000B8FC03F001FD0AB0BDE8F047FCF704BEE6
:103AF00050287E4138137E415079000880510100E2
:103B00000040DF3F0A498B680022984204D94B7875
:103B100013B14A708B68C01A8B68984202D9322858
:103B200001D28A70704701228A708968401A7047F2
:103B30003000002010B586B004460022114802A9CA
:103B4000FEF72AFE00220F480DF10201FEF702FEE9
:103B50000D499DF80530CA88ADF80020632B03D0CD
:103B6000087840B11BB106E00120087003E0002096
:103B700008706432CA80142269462046FCF7D6FADF
:103B800006B010BD8C0400203000002010B50020CD
:103B9000FFF722FF04460548FFF71EFF844202D2CA
:103BA000C043204410BD201A10BD0000AC0400200A
:103BB00070B51F4E86B03079002837D10125A80591
:103BC00090FAA0F01B49B0FA80F001EB8000C0F839
:103BD00080561A4818490024C0E900140321816066
:103BE000C0E9031444618461FEF7FAFD8DF80350C7
:103BF00006208DF805408DF802008DF80450002253
:103C00000E480DF10201FEF7FBFE02940394002220
:103C10000A4802A90494FEF757FF00220421292034
:103C2000FDF7CEFE2920FDF7C0FE357106B070BD50
:103C30003000002000004742002800408C04002093
:103C40000C484168C943C9070ED00B490120487090
:103C50000A480168C1F38101012903D0006810F00E
:103C60000C0F06D1FDF7D0B8016841F004010160E6
:103C7000EEE7704700700040300000200838024036
:103C8000AFF3008030B505464FF4807499B02146FB
:103C90002048FEF7CFFC1F48FEF75FFC14A8FFF793
:103CA00049FF142214A908A8FCF740FA1948142265
:103CB00008A92030FCF73AFA0AAB93E807008DE830
:103CC0000700DDE90823294614A8FFF749FD14225F
:103CD00014A903A8FCF72AFA0020119010908DF87F
:103CE00037009DF816008DF836009DF815008DF808
:103CF00035009DF8140013948DF834009DF81000E1
:103D00008DF8480000220DA90248FEF7B9FD19B050
:103D100030BD00008C04002070B5092000F0ADFD1E
:103D20000546062000F0A9FD0404072000F0A5FDCB
:103D300044EA0024082000F0A0FD2043FCF797FC93
:103D40000022184BFCF785FBFCF7D6FC044600214B
:103D5000092001F0D3FB3B2000F08FFD40F0400133
:103D60003B2001F0CBFB3B2000F087FD8006FAD41E
:103D70000D4800F07BFE3B2000F07FFD40F040014D
:103D80003B2001F0BBFB3B2000F077FD8006FAD41E
:103D90002946092001F0B2FB2046BDE8704000F042
:103DA00065BE000080844E4000A1BC3310B501F018
:103DB000FFFB03F0E3FB03F099FCBDE810404FF478
:103DC0007A5001F0E7BB70B50446FF20002240F2B4
:103DD00031150FE0A35C58400823060602D585EA9A
:103DE000400000E040005B1EC0B213F0FF03F4D1BE
:103DF000521CD2B28A42EDD370BD000010B5FCF760
:103E000020FC0449FCF70EFABDE810400249FCF71B
:103E10003BBA00000000C84200FF7F4710B5FCF726
:103E200010FC0549FCF7FEF90449FCF72DFABDE842
:103E300010400349FCF7F0B900002F4300FF7F4713
:103E40000000344230B4029C23B1012B06D030BCB8
:103E500080207047234630BC00F004B8234630BCB5
:103E600000F040B82DE9FC41984615460E4607463D
:103E700000F0EEF8040025D16DB1012D08D0022D1F
:103E800003D08024FFF70EF929E042F6104004E049
:103E900042F60D4001E042F6064000F0E7F804006B
:103EA00010D100F0C5F804000CD14246002168464C
:103EB00000F086F8040005D10022012101A800F0DD
:103EC0007FF80446FFF7EEF84CB9BDF80000FFF7A5
:103ED000A5FF3860BDF80400FFF790FF3060204672
:103EE000BDE8FC812DE9FC411D4617468846064683
:103EF00000F0AEF8040034D15FB1012F06D0022FDC
:103F000001D080242DE042F2164004E042F20B4042
:103F100001E04FF4105000F0A9F8040008D020E0B0
:103F200000F086F8040008D03846FCF7DBFF01E01B
:103F30004FF47A776D1EEDB2F2D20DB124B110E0DC
:103F40000424FFF7AFF81AE000221146684600F09B
:103F500037F805460022012101A800F031F840EAB7
:103F60000504FFF79FF854B9BDF80000FFF756FFAE
:103F70003060BDF80400FFF741FFC8F8000020469C
:103F8000BDE8FC8100B50448FCF7ACFF4CF25030B2
:103F90005DF804EBFCF7A6BFA086010038B5044627
:103FA000FEF7A2FF0548447000F02FF84CF25030A5
:103FB000FCF798FF684600F064F838BD6E000020FA
:103FC0007CB50D46044600216846FEF7B5FFB8B93A
:103FD000002211460DF10100FEF7AEFF80B900226C
:103FE000294601A8FEF7A8FF50B9684602219DF8AE
:103FF0000450FFF7E8FEA84201D0022000E00020B4
:10400000BDF8001049BA21807CBD10B500F020F841
:10401000044643F2A20000F029F80443FFF742F8F7
:104020001CB94CF25030FCF75DFF204610BD00007B
:1040300010B5FFF711F8054801214078BDE81040A0
:1040400001EB4000C0B2FFF753B800006E00002043
:1040500010B5FFF701F804484078BDE8104040066D
:10406000000EFFF745B800006E00002070B5044652
:10407000000AFFF73DF80546E0B2FFF739F828439C
:1040800070BDF8B50546FFF7E3FF06464FF45E50F6
:10409000FFF7ECFF50EA060411D1FFF7C9FF040057
:1040A0000DD1642200216846FFF78AFF040006D183
:1040B000002201210DF10200FFF782FF0446FEF706
:1040C000F1FF1CB900984FEA304028602046F8BD47
:1040D00010B54420FFF762FF002804D0FFF766FE0A
:1040E00001490120087010BD6E00002001207047BA
:1040F0000349884201D280207047002070470000A9
:1041000040DD4A1F014890F8AC007047AC07002022
:104110002DE9F34F0200724981B04FF000000CD03E
:10412000012A7DD10024D1F8EC002546072854D07F
:10413000082855D0092858D155E08A46D1F8C4003E
:10414000FCF795FA06460F460298FCF790FA80466F
:104150008946302000F091FB30F0F9004FF0000468
:1041600001D0604D00E00025272000F086FB20F004
:10417000F800BAF8C810401C0844FCF778FA9AF81E
:10418000CA20012A4FF0000222D0564BFCF7BAF8A1
:1041900022462B46FCF7B6F842464B46FCF7B2F8EF
:1041A0009AF8CC20012A4FF0000213D05FF00003F0
:1041B000FCF7A8F80322FCF72DFA32463B46FCF741
:1041C000BAF90022484BFCF744F903F08DF97FE07F
:1041D0000023DBE74FF08043EAE70024434D04E08F
:1041E0000024434D01E0434D00243D4E012056F88C
:1041F000F07FB840FCF72AFA02460B4620462946D3
:10420000FCF799F902460B4600203649FCF793F972
:1042100004460D46F088FCF72AFA0022364B00E0EF
:104220005BE0FCF76FF822462B46FCF712F9834659
:1042300000917079001DFCF71AFA804630798946A2
:1042400000B10220381A8000FCF711FA06460298E5
:104250008A46C10022487A4201EB820190F8FA2096
:1042600090F8F80001EB021100B11420081A1C307C
:10427000FCF7FDF932465346FCF75DF902F048F8C9
:1042800042464B46FCF7E5F8002207460E46134629
:10429000FCF776FA02D23846314601E000200146AA
:1042A0000022164BFCF72EF822462B46FCF7D1F8DD
:1042B00002460B4658460099FCF724F800220A4BA8
:1042C000FCF7C7F80E4A0F4BFCF71CF802F08EF80B
:1042D00003B0BDE8F04FFCF70FBABDE8FE8F000059
:1042E000AC0700200000F03F00408F408084FE407B
:1042F00080840E4180841E41000011400000204057
:104300002B8716D9CEF7EF3F70B5194908601949C8
:10431000194801F0B7FB18481649143001F0B2FBF8
:1043200015481449283001F0ADFB00F0FBFAFFF707
:10433000F3FC002000F012FC0D48001D00F042F8D4
:104340000E4D002404EB4406A85D00F0CBFB701971
:104350008178407801F0D2F8641CE4B2102CF1D3DB
:10436000002000F0BFFB0649002081F8AC0070BDC2
:104370007000002059470008BC080020D08C0008BD
:10438000AC0700207CB501240094002322460421C0
:104390000B480194FCF724FE002509482B462A46C9
:1043A0001B219438CDE90045FCF71AFE0448002390
:1043B0001A461A218838CDE90045FCF711FE7CBD6C
:1043C0004C08002010B5044603680322012106486A
:1043D000FCF71EFF0448636803220121BDE810407A
:1043E0000C30FCF715BF0000B807002070B514466C
:1043F0000E46054600F076FB304600F037FB052000
:1044000000F0ACFB0120FCF777FD284600F068FACD
:10441000054600F089FEA54201DD002070BD0120A7
:1044200070BD0000F8B500258DF800508E4C8F4E01
:1044300094F8AC0001280AD0022854D104F5887001
:1044400001F0D4FB94F8AD0001287DD1FCE094F894
:10445000AD00B8B1012846D14021122001F04EF83C
:10446000122000F00AFA8DF800009DF80000800686
:104470006BD52021122001F041F894F8FE000028AD
:104480007ED090E094F8CC00012834D13F2000F099
:10449000F4F98DF800009DF8000080072BD40B2163
:1044A0003E2001F02BF810213F2001F027F8704842
:1044B00001F09CFB94F8CE00B0B10D2000F0DDF9C6
:1044C00040F040010D2001F019F86948143001F066
:1044D0005DFB306810B1006900B1804704F8D85F17
:1044E0006570A5816581F8BD6148143001F07EFBDF
:1044F00084F8AC50EDE7B4F8E2105E4F11B9B4F8AF
:10450000E40030B1B4F8E400091AC9B23844E23426
:104510000EE094F8CA00A0B3322000F0AEF9A4F87F
:10452000E20000BF14F8E21F6088091AC9B23844DB
:1045300000F0D0F934F8020B24F8E4094C4801F0FB
:1045400055FB94F8CE0001E082E034E010B30D207A
:1045500000F093F940F040010D2000F0CFFF4448F7
:10456000143001F013FB30680028B7D08668002EA5
:10457000B4D094F9DA20B4F8E21000233D4801E009
:104580000FE001E0B047A9E739480121423800F0C7
:10459000A1F9C7E7364884F8AC50143001F026FB87
:1045A000E1E784F8AC50324801F020FB3068002885
:1045B00099D0006952E0192000F05FF940B284F808
:1045C0000801010605D5C043401CC0F385004742E1
:1045D00001E0C0F385071A2000F04FF92649D4F80E
:1045E000B020002F06DA00EB20108A42384405D9AB
:1045F0009D3804E08A4200EB2010F9D8A438A4F8D2
:104600000A01132000F039F984F80C010146194819
:1046100000F060F994F8FE0008B984F8AC50144832
:1046200001F0E4FA30680028C2D08568002DBFD0C0
:1046300094F90831B4F90A2194F80C1101B0AC4690
:10464000BDE8F0400B4860470821122000F056FFFB
:1046500084F8AC5030680028AAD000680028A7D0A1
:1046600001B0BDE8F0400047AC070020700000201A
:10467000D0080020AC06002040DD4A1F70B5334C46
:10468000204694F8AC3090F8AD20B0F8E210B0F8C5
:10469000E400A4F58075012B15D0022B12D1002A5D
:1046A00010D10A1A234694F8E710B3F8E4302846EC
:1046B00018448A4243DD00F04BFF34F8E40FE17800
:1046C0000844208070BDAAB1012AFBD1204801F026
:1046D0008DFA8021122000F011FF002084F8AC0038
:1046E0001C4800680028EDD0C0680028EAD0BDE86A
:1046F0007040004741B938B994F8CA00A0B13220DF
:1047000000F0BBF8A4F8E200B4F8E210B4F8E4005A
:104710000A1A94F8E6108A420CDD284400F0DAF810
:1047200034F8E40FA178CBE709480121423800F0C2
:10473000D1F8E9E7D1B2284400F0CCF802E0D1B2D8
:1047400000F006FF34F8E20F608070BDAC07002077
:10475000D0080020700000202DE9F047334CDFF82E
:10476000D0904FF0000894F8AC0001282BD002281C
:1047700059D100F0D7F8FFF7CFFA002000F0EEF99A
:104780002C4E002505EB4507F05D00F0ABF9B8199C
:104790008178407800F0B2FE6D1CEDB2102DF1D39F
:1047A000002000F09FF994F8040100F0EFF984F87C
:1047B000AC80D9F80000002835D04068002832D0FD
:1047C000BDE8F047004794F8AD00D0B984F8D88030
:1047D00084F8D980A4F8E480A4F8E28045460B214F
:1047E0003E20CE3400F08AFE10213F2000F086FEED
:1047F00014F8CE0901280AD084F8AC500E4801F014
:10480000F5F9D9F8000000280DD0C068D6E70D20D2
:1048100000F033F840F040010D2000F06FFE064834
:1048200001F0B4F9EDE7BDE8F0870000AC07002027
:1048300070000020D08C0008E408002070B500252E
:10484000012000F04FF9FF21112000F057FE052054
:1048500000F084F900240120FCF74EFB2C2000F02E
:104860000CF800F00100A040641C0543E4B2202CC9
:10487000F1D300F059FC284670BD08B50122694605
:1048800000F004F89DF8000008BD00002DE9F0419B
:1048900004460F480E46154600218046FCF7BAFC38
:1048A0000B4804F07F017C38074600F0D7FE002457
:1048B00006E00021384600F0D1FE3055641CE4B219
:1048C000AC42F6D34046BDE8F0410121FCF7A2BC62
:1048D0004C0800200A4601460020FFF7D7BF000021
:1048E00010B520B1012808D04FF0FF3010BD1120C5
:1048F000FFF7C3FF4008404210BD08480849D0F800
:10490000B00088424FF01B0003D9FFF7B6FF9D3877
:1049100010BDFFF7B2FFA43810BD0000AC070020A7
:1049200040DD4A1F10B50120FFF7A7FF10F0800FF0
:1049300007D0002000F0D6F80320FCF7DDFA0120B4
:1049400006E0012000F0CEF80320FCF7D5FA0020A5
:1049500000F0C8F8BDE810400620FCF7CDBA000012
:1049600073B53B4C0546002094F8AD1011B10129F8
:104970006BD12DE00020A4F8E4009DF80410A4F809
:10498000E21094F8CA0058B1322000F0B7FD00BF21
:104990009DF80420501E3F2807D884F8E7200BE03C
:1049A000012101A800F0D4FDF2E72946294802F0D0
:1049B000A5F8202084F8E70094F8E7102846D034C2
:1049C00000F0C6FDA08AE17D0844A08220683CE09A
:1049D00094F8FD0001284FF0330021D0FFF74DFF80
:1049E00000F0BE013320491C00F088FD1D213B2052
:1049F00000F084FD9DF8041084F80C11222000F0D2
:104A00007DFD00210E2000F079FD00210D2000F039
:104A100075FD0120FFF731FF30F0F80009D00DE0FF
:104A2000FFF72BFF00F0BE01332000F067FD1921D6
:104A3000DDE700F08DFB0120FCF75EFA9DF8041025
:104A4000284600F085FDD4F8000100F095FB7CBD00
:104A5000AC070020AC0600207047000002490A782D
:104A6000824200D008707047400000200E4910B507
:104A7000C1F8B000FBF7FBFD00220C4BFBF75BFD20
:104A8000FBF73AFE0446C0F30741062000F036FD6E
:104A9000C4F30721072000F031FDE1B2BDE810406A
:104AA000082000F02BBD0000AC07002080844E40A1
:104AB00070B50D46044600F015F824B1012C0DD157
:104AC0002946232006E0064890F8CA00002805D1B0
:104AD00029463220BDE8704000F010BD70BD0000D6
:104AE000AC07002010B504460120FFF7C6FE1A49A6
:104AF000000601D5012000E0002081F8AD00C0B221
:104B0000A04227D081F8AD40012C0FD000F00CFB63
:104B10000120FFF7B2FE00F07F01012000F0EEFC63
:104B20000021402000F0EAFC30210EE000F0FCFA09
:104B30000120FFF7A2FE40F08001012000F0DEFC22
:104B40000021402000F0DAFC0021BDE810404120A7
:104B500000F0D4BC10BD0000AC07002010B504006C
:104B600010D00020FFF77AFF2046FFF775FF0120E5
:104B7000FFF783FE00F0F8012143BDE8104001205B
:104B800000F0BCBC0120FFF769FFF0E710B5044658
:104B90000120FFF7A7FF064880F804410CB134213B
:104BA00000E01221BDE81040392000F0A7BC000051
:104BB000AC07002070B504460920FFF75EFE0646EC
:104BC0004D20FFF75AFE05462248D0F8B000FFF707
:104BD0008FFA06F07F01084340F0700001062BD5E4
:104BE000112C02DD45F0070502E005F0F8052D1D4A
:104BF000E943490703D0022C0CDA02240DE0052C0E
:104C000001DA052402E0142C00DD142400F0F00188
:104C1000641F05E0112C00DD112400F0F001A41E3A
:104C200004F00F000143092000F068FC2946BDE8AC
:104C300070404D2000F062BC4FF0FF318C4201DA31
:104C40000C4602E00E2C00DD0E2400F0F001641C86
:104C5000E6E70000AC07002070B5854C054600264D
:104C600094F8AD0010B1012824D124E014F8CE6FDF
:104C70004020FFF702FE00F0030040F00C0140204E
:104C800000F03CFC4120FFF7F8FD40F0C10141205D
:104C900000F034FC3520FFF7F0FD00F03F002076F7
:104CA0001E210D2000F02AFC0020A072E072E0829C
:104CB000A082CE3C9EE094F8FD0001284FF0330026
:104CC00027D0FFF7DAFD00F0BE013320491C00F0C9
:104CD00015FC1D213B2000F011FCD4F8EC00092844
:104CE0004FF031007ED2FFF7C8FD00F07F01312088
:104CF00000F004FC0021302000F000FCD4F8EC00AF
:104D000009285BD2DFE800F00E19242F3A455656E9
:104D10005600FFF7B2FD40F04101332000F0EEFBFA
:104D20001921D7E748212F2000F0E8FBD4F8B00084
:104D3000FBF79DFC00224F4B35E044212F2000F073
:104D4000DDFBD4F8B000FBF792FC00224A4B2AE0CE
:104D500044212F2000F0D2FBD4F8B000FBF787FCF1
:104D60000022464B1FE044212F2000F0C7FBD4F85F
:104D7000B000FBF77CFC0022414B14E044212F20C3
:104D800000F0BCFBD4F8B000FBF771FC00223D4BF7
:104D900009E044212F2000F0B1FBD4F8B000FBF76C
:104DA00066FC0022384BFBF7ADFAFBF7A5FCFFF7DA
:104DB0005DFE03E040212F2000F0A0FB94F8FB00F3
:104DC00094F8FE60012831D01F21112000F096FBDD
:104DD0004020FFF752FD00F03F01402000F08EFB25
:104DE000002100E01CE00F2000F088FB00210D20D6
:104DF00000F084FB4FF480712448FBF7B0F90120E8
:104E000084F8AC0035B12946214800F0B7FE2048AF
:104E100000F0BCFE94F8AD0090B116B3052021E07F
:104E2000FFF72BFD40F080013120C5E71D21112047
:104E300000F064FB4020FFF720FD00F03301CCE7D9
:104E40000520FFF78BFE002E10D11148D4F8D410A6
:104E5000143000F093FEBDE870400D48143000F0AF
:104E600095BE0620BDE87040FFF778BE70BD00001B
:104E7000AC0700200082BE40005AC4400082CE40F1
:104E80008057D4408084DE40C058E440AC06002007
:104E9000D00800202DE9FC5F9B4614468A468046D8
:104EA000DDF844900D9F0F9EFFF71CFE380A994DC8
:104EB0000090B8F1000F06D0B8F1010F74D1BAF12B
:104EC000020F73D9FEE745F8BCAFAC600C98686080
:104ED000AE731098E87385F810901498687415985C
:104EE000A874AF812046FBF7C2FB04460B46019134
:104EF000224600208849FBF71EFB0322FBF78AFBB2
:104F000080468B460E98FBF7B2FB42465B46FBF7AA
:104F1000A0FA0022814BFBF79CFAFBF7EDFBA8619E
:104F2000224600207E49019BFBF705FBFBF7E4FBD3
:104F300084B2210A022000F0E1FAE1B2032000F07D
:104F4000DDFA5046FCF736F80146122000F0D6FA9A
:104F50000C98FCF72FF80146132000F0CFFA25201B
:104F6000009900F0CBFAF9B2262000F0C7FA0EB192
:104F7000109900E0FF21322000F0C0FA3020FFF746
:104F80007CFC00F06F000EB1002100E0802108439E
:104F900040EA0911302000F0B1FA3120FFF76DFC32
:104FA00040F040013120A5E0B2E0FFE728460AF1D9
:104FB0000708E0E93B840C2C80F809B047810673B0
:104FC0001099417380F80E901299C173139901746E
:104FD00014994174159985F8FE1001D90C2402E04A
:104FE000062C00D20624B8F1070F03D0B8F1080F41
:104FF00002D003E00B2C47D00C2C45D05FF0000111
:1050000085F8F4101D20FFF738FC4FEA081141EA3B
:105010004B003043C1B21D2000F070FA1E20FFF794
:105020002CFC00F0080040EA041141EA89000E99C6
:10503000032202EA11210843C1B21E2000F05EFAE9
:105040002620FFF71AFC00F0F70195F8F40041EA7A
:10505000C000C1B2262000F051FA0E98C1B21F2044
:1050600000F04CFA2020009900F048FAF9B2212013
:1050700000F044FA1EB12220109900F03FFA95F892
:10508000FB00012802D00EE00121B9E74420FFF720
:10509000F4FB40F08001442000F030FA95F8FC1059
:1050A000242000F02BFAB8F1090F02D0032136209A
:1050B00010E01C49D5F8B00088424FF002014FF0D3
:1050C000360003D900F01AFA642102E000F016FA63
:1050D0007F213A2000F012FA062C4FF031000DD05B
:1050E000FFF7CBFB00F0F8013120C91C00F006FAF5
:1050F0000A213720BDE8FC5F00F000BAFFF7BDFBD6
:1051000000F0F8013120491D00F0F8F90C21F0E71A
:10511000BDE8FC9FAC0700200000F03F00408F403E
:1051200080847E4140DD4A1F10B5074800F05EFDD7
:105130000548143800F05AFD0020FFF70FFD034921
:10514000002081F8AC0010BDD0080020AC07002082
:1051500010B5074800F04AFD0548143800F046FD38
:105160000120FFF7FBFC0349002081F8AC0010BDD3
:10517000D0080020AC07002010B50146254800F0FB
:10518000FDFC254C94F8AD0010B101282DD119E09B
:105190004020FFF772FB00F0030040F010014020B8
:1051A00000F0ACF94120FFF768FB00F03E01412020
:1051B00000F0A4F93520FFF760FB00F03F0084F811
:1051C000E60012E094F8FB00012819D0F721112025
:1051D00000F094F94020FFF750FB00F03F0000BFC3
:1051E00040F04001402000F089F9022084F8AC0032
:1051F000084800F0CBFCBDE810400320FFF7AEBC30
:10520000F521112000F07AF94020FFF736FB00F07D
:105210003300E5E7BC080020AC0700202DE9FF4F74
:1052200081B01D46DDE90E4BDDE910688946DDF8E9
:1052300054A0129F0198FFF755FC4846FFF7BAFCAF
:105240007548320A0199009231B1012972D180F872
:10525000E890022D54D9FEE700F8B49F0399046149
:10526000C0E90115868280F81680077680F819A0BB
:105270001699C1610398FBF7FAF90022674BFBF717
:105280005AF9FBF739FA85B2290A042000F036F9F9
:10529000E9B2052000F032F92046FBF7E8F90246B2
:1052A0000B4600205E49FBF746F9FBF725FA84B26E
:1052B000210A022000F022F9E1B2032000F01EF9D9
:1052C0002520009900F01AF9F1B2262000F016F915
:1052D0003020FFF7D2FA00F06F00B8F1000F01D0D4
:1052E000002100E08021084340EA0711302000F04F
:1052F00005F93120FFF7C1FA40F04001312078E094
:10530000ED1DC0E93B5480F8F5B0A0F8F66080F8D8
:10531000F880139980F8FB10149A80F8FC2080F82C
:10532000FA7080F8FDA0169AC0F800210C2C02D962
:105330000C2403E06CE0062C00D20624072D02D0DA
:10534000082D02D003E00B2C08D00C2C06D0002234
:1053500080F8F4208146012902D00EE00122F7E70F
:105360004420FFF78AFA40F08001442000F0C6F89C
:1053700099F8FC10242000F0C1F81D20FFF77DFAF9
:10538000290141EA4B0040EA0800C1B21D2000F0AB
:10539000B5F81E20FFF771FA00F00B0040EA041088
:1053A00040EA8700C1B21E2000F0A8F82620FFF7CF
:1053B00064FA00F0F70199F8F40041EAC000C1B2C4
:1053C000262000F09BF82020009900F097F8F1B219
:1053D000212000F093F8062C4FF031000ED0FFF79B
:1053E0004CFA00F0F8013120C91C00F087F80A21BE
:1053F000372005B0BDE8F04F00F080B8FFF73DFA68
:1054000000F0F8013120491D00F078F80C21EFE799
:1054100005B0BDE8F08F0000AC07002080844E404E
:1054200080847E4170B506468AB00D461046FBF773
:105430001EF900221E4BFBF70CF8FBF75DF9044642
:105440003046FFF713FB002005900690CDE90704D6
:105450000521CDE90101039004904FF496500023FB
:1054600000901A4629461846FFF7D8FE3120FFF76C
:1054700004FA00F0BF01312000F040F8F021402094
:1054800000F03CF8A021412000F038F821460948FE
:1054900000F074FB0849022081F8AC00054800F0D8
:1054A00075FB0AB00320BDE87040FFF757BB000052
:1054B00000408F40BC080020AC07002010B50E4C07
:1054C00094F8AD00002815D0012813D1FA2111203D
:1054D00000F014F84020FFF7D0F900F0FC01402064
:1054E00000F00CF8032084F8AC00BDE81040072061
:1054F000FFF734BB10BD0000AC07002013B501223C
:1055000001A900F001F81CBD2DE9F04104460F4847
:105510000E46154600218046FBF77CFE0B4844F002
:1055200080017C38074600F099F8002405E0315DE1
:10553000384600F093F8641CE4B2AC42F7D340461E
:10554000BDE8F0410121FBF765BE00004C080020DA
:105550000A4601460020FFF7D7BF000010B586B00D
:10556000044614216846FAF7FAFD80200090012CC9
:1055700001D0112000E000200190012002900220C3
:10558000039069460248FCF711F906B010BD00000F
:1055900000040240002208E0002100BF00BF00BF5D
:1055A00000BF491C0829F8D3521C8242F4D370472B
:1055B00010B586B014216846FAF7D1FD0E4801688F
:1055C00041F00201016000680C4C00F002000590FF
:1055D0000122C0212046FCF7B4F9C0200090112020
:1055E0000190012002900220039069462046FCF7BA
:1055F000DDF806B010BD00001C3802400004024077
:1056000030B50024039D846061B14FF40061C16036
:10561000046207214462C0E90A41C0E904231DB1C4
:10562000446030BDC460F3E74FF48271416030BD27
:10563000094B00221B6803E05B08521C072A01D2B9
:105640008B42F9D8302101EAC201D20700D00822EA
:105650001143C161704700005800002070B5044636
:1056600000680D46016841F040010160FBF7B8FB9E
:1056700020688168C9438907FBD4E9B2C16020680A
:105680008168C943C907FBD1C068C4B2FBF7B0FB4E
:10569000204670BD2DE9FF4F83B08B460446109F16
:1056A000FBF79EFB0525022604F1580004F164096E
:1056B00004F1700804F17C0ABBF1070F03D0BBF1C1
:1056C0001F0F2ED021E033490A6842F480520A604D
:1056D0000A6822F480520A602E490C310A6842F4AA
:1056E00080520A60096801F4805100912A492DE036
:1056F0004FF40070A0610020009000E000960023AD
:105700001A4619462046FFF77BFF24492046FFF73B
:105710008FFF2046FDF767FA07B0BDE8F04FFBF7B3
:1057200067BB1C49091D0A6842F480420A600A6886
:1057300022F480420A60174910310A6842F480421C
:105740000A60096801F48041009115492160CDE9A2
:105750000065002302225946FBF742FCCDE90065B3
:105760000023022248460599FBF73AFCCDE9006583
:105770000023022240460699FBF732FC0126CDE9C0
:1057800000650023022239465046FBF729FC7F1CA6
:10579000B4D1ADE714380240003001408096980043
:1057A0000038004010B5FCF7D7F8BDE81040FDF711
:1057B00079BA000030B5244895B0016841F08051B5
:1057C0000160006800F0805014902048016821F4C6
:1057D000C05141F40061016001240520CDE90004BD
:1057E0000220C5030294CDE909054FF440200B9037
:1057F000A0050C906846FCF707FB0F200D900320D6
:105800000E9000200F901090119001210DA8FCF730
:10581000C5F912A8CDE91245FCF70CF9FCF7A8FA76
:105820004FF47A71B0FBF1F0FDF728FA0420FDF790
:1058300018FA0320FCF7E4F800221146501EFCF78A
:10584000BFF815B030BD00002438024000700040A1
:1058500038B52E48016841F080510160006800F0C1
:10586000805000902A48016821F4C05141F4006141
:10587000016026492439086840F480300860234CD0
:105880004FF400321034012092FAA2F3B3FA83F3FA
:1058900043F020035B0901D00B6800E0236892FA13
:1058A000A2F5B5FA85F505F01F0500FA05F52B42BE
:1058B000EAD04FF0807292FAA2F2164BB2FA82F25C
:1058C00043F822004FF0007393FAA3F2B2FA82F287
:1058D00042F02002520901D00A6800E0226893FADF
:1058E000A3F5B5FA85F505F01F0500FA05F52A427E
:1058F000EAD006481C38016841F0030101600168E4
:10590000C1F381010329FAD138BD000024380240D7
:1059100000700040000047420F48016841F4807168
:1059200001600D4908310A680C4B1A400A60026890
:105930000B4B1A400260026822F480220260086861
:1059400020F47D0008600020091D086005494FF023
:105950000060086070470000003802400CC0FF88FB
:10596000FEFFFEEE08ED00E00148FDF70CBA000076
:10597000C00400200148FDF706BA0000F80400202A
:105980000148FDF700BA00003005002070B502683C
:105990004FF08046134B144CB04203D0984201D0D4
:1059A000A04205D122F070054A682A43B0420CD0CB
:1059B00098420AD0A04208D00C4B984205D00C4B1C
:1059C000984202D00B4B984203D122F44073CA682C
:1059D0001A4302608A68C2620968816201214161DA
:1059E00070BD0000000400400008004000080140B5
:1059F000000C014000100140134910B509684FF434
:105A00007A42B1FBF2F211494FF08043521E0B6013
:105A10004FF0FF3303EB8010C86000200861C1E93C
:105A200001200846FDF742F910B109A000F054F931
:105A30000648FDF79BF9002804D0BDE810400AA0F5
:105A400000F04AB910BD000058000020C00400203A
:105A5000B6A8CAB1C6F732B3F5CABCBBAFCAA7B0C5
:105A6000DCA3A10D0A000000B6A8CAB1C6F732C671
:105A7000F4B6AFD6D0B6CFCAA7B0DCA3A10D0A004A
:105A800000F026BD0022026042600272C0E90312EB
:105A900070470000074B30B45A6822B10468091BF4
:105AA000116000211172012102610172586030BC45
:105AB00000F054B88400002070B5124A00255368E5
:105AC0001A6912B114680C4414E00268511A15E006
:105AD0000668A64208D2711A016012B11468611AF0
