:020000040000FA
:030000000200E318
:030013000206EDF5
:0300330002061FA3
:03003B0002074970
:03006B000204FF8D
:03007B0002058FEC
:100083000206AF00000080FB120113B90003020057
:10009300CDE4900301783E79038002F0A3D8FCD924
:1000A300FA90053EAA82AB839001167816790180F7
:1000B30015E493A3AC82AD838A828B83F0A3AA82D7
:1000C300AB838C828D83D8E9D9E775824E75830D16
:1000D30074001200F575828675830074001200F5B2
:1000E30075D00075813F751001751103759F00026E
:1000F300008BC09FF59FE473D09F22D083D082C032
:100103009FE493C0E0740193C0E0740293F59F22CF
:1001130079012201FF000000000000000000000040
:100123000000000000C201001200FEC70B00120015
:10013300FE010C001200FE1B0C001200FEDB0C0083
:100143001200FEFB0C001200FEB007001200FE5767
:1001530008001200FEB808001200FED509001200C4
:10016300FE5E0A001200FEFA0A001200FE0A0B00ED
:100173001200FEB30B001200FED410001200FE9E0C
:1001830010001200FEEE10001200FEF31000120029
:10019300FEF50F001200FE0510001200FE311000E4
:1001A3001200FEA10D001200FED00D001200FED5BC
:1001B3000D001200FEEB0D001200FE020E001200F5
:1001C300FE190E001200FE450E001200FE690E001D
:1001D3001200FE7A0E001200FE830E001200FE8C47
:1001E3000E001200FEA10E001200FEB60E00120059
:1001F300FED50E001200FEE80E001200FE5810009D
:10020300E4936670130874019366700C0874029388
:10021300667005087403936622C3E4939608740119
:1002230093960874029396087403939622E0FAA3B4
:10023300E0FBA3E0FCA3E0FD22EAF0A3EBF0A3ECD8
:10024300F0A3EDF022CAC0E0E6F0A308DAFAD0E0AA
:10025300FA22700422600D18C6C333C608C633C61B
:10026300D5E0F41822C0D0251010AF08F5105002C5
:1002730005118008F51050020511D2AFD0D0222508
:1002830010F58210AF08F510400215118008F51023
:1002930040021511D2AF851183222510F582E43572
:1002A30011F58322E4732510C582C0E0E51134FF04
:1002B300C583C0E0E510C3958224F810AF08858399
:1002C300118582108008858311858210D2AFCEF00C
:1002D300A3E520F0A37808E608F0A3DEFAEFF0A385
:1002E300E58124FAF8E608F0A3E608F0A3E608F0AF
:1002F300A30808E608F0A3E608F0A315811581D04A
:10030300E0FED0E0F8158115811581E8C0E0EEC06C
:10031300E022851183851082E0A3FEE0A3F5207817
:1003230008E0A3F608DFFAE0A3FFE0A3C0E0E0A340
:10033300C0E0E0A3C0E0E0A3C0E0E0A3C0E010AFF2
:10034300088582108583118008858210858311D2E8
:10035300AFD083D0820200FBC0D02510C582C0E09D
:10036300E51134FFC583C0E0E510C3958224F31083
:10037300AF088583118582108008858311858210DB
:10038300D2AFC8F0A3E9F0A3EAF0A3EBF0A3790896
:10039300E709F0A3D8FAECF0A3EDF0A3EEF0A3EF96
:1003A300F0A3D0E0F0A3D0E0F0A3D0E0F0A3E520E9
:1003B300F0A3E5F0F0A322851183851082E0C0E06D
:1003C300A3E0F9A3E0FAA3E0FBA37808E0F608A30F
:1003D300DFFAE0FCA3E0FDA3E0FEA3E0FFA3E0C09F
:1003E300E0A3E0C0E0A3E0F5D0A3E0F520A3E0A301
:1003F300F5F010AF0885831185821080088583117D
:10040300858210D2AFD082D083D0E0F8D0E03274AE
:10041300028000C0E0F404120282D0E012024822FB
:10042300D083D082ECC0E0EDC0E0EEC0E0EFC0E0EE
:10043300E493A3FCE493A3FDE493A3FEE493A3FF5B
:10044300EF4E4D4C601512049FEC24FFFCED34FF7E
:10045300FDEE34FFFEEF34FFFF80E5E493A3FCE4FD
:1004630093A3FDE493A3FEE493A3FFEF4E4D4C60EF
:10047300151204DCEC24FFFCED34FFFDEE34FFFE2B
:10048300EF34FFFF80E5D0E0FFD0E0FED0E0FDD009
:10049300E0FCE493A3C0E0E493C0E022C0E0C0F03A
:1004A30088F012021CA8F04007120203A8F0701A89
:1004B300A3A3A3A312021CA8F0A3A3A3A34013D036
:1004C300F0D0E0D0E0D0E0020489A3A3A3A3A3A3C8
:1004D300A3A3A3A3D0F0D0E022C0E0C0F088F01221
:1004E3000203A8F0A3A3A3A3700BD0F0D0E0D0E045
:1004F300D0E0020489A3A3D0F0D0E022C0E074F1DD
:1005030012035BC2C5E589607E7E008074750801B5
:10051300750900EE7808120255E508AF08E5895F12
:10052300605EEEF87900E875F002A4C8AAF075F0F1
:1005330000A42AFA75F002E9A42AF9740C28F582BA
:10054300740439F583E0F8A3E0F9E849602EEEF886
:100553007900E875F002A4C8AAF075F000A42AFA9D
:1005630075F002E9A42AF9740C28F582740439F5AC
:1005730083E0F8A3E0F58388821202A7EFF452899F
:100583000EEEC3940840867F020203BAC0E074F102
:1005930012035BC2EBE58A607E7E008074750801FE
:1005A300750900EE7808120255E508AF08E58A5F81
:1005B300605EEEF87900E875F002A4C8AAF075F061
:1005C30000A42AFA75F002E9A42AF9741C28F5821A
:1005D300740439F583E0F8A3E0F9E849602EEEF8F6
:1005E3007900E875F002A4C8AAF075F000A42AFA0D
:1005F30075F002E9A42AF9741C28F582740439F50C
:1006030083E0F8A3E0F58388821202A7EFF4528A0D
:100613000EEEC3940840867F020203BAC0E074F171
:1006230012035BC2E8E58B607E7E0080747508016F
:10063300750900EE7808120255E508AF08E58B5FEF
:10064300605EEEF87900E875F002A4C8AAF075F0D0
:1006530000A42AFA75F002E9A42AF9742C28F58279
:10066300740439F583E0F8A3E0F9E849602EEEF865
:100673007900E875F002A4C8AAF075F000A42AFA7C
:1006830075F002E9A42AF9742C28F582740439F56B
:1006930083E0F8A3E0F58388821202A7EFF4528B7C
:1006A3000EEEC3940540867F020203BAC0E074F2E3
:1006B30012035BA2AFE433FEC2AFE5E9A2E650202A
:1006C300900436E0F8A3E0F9E849600E900436E0C0
:1006D300F8A3E0F58388821202A7759B0053E9BF54
:1006E300EEA2E092AF7F010203BAC0E0C0D0E8C03F
:1006F300E0E9C0E0C082C083E5C1C0E09004B9E096
:10070300F87900743828F582740439F583D0E0F061
:100713009004B8E0F89004B9E0687006E595900499
:10072300BAF09004B9E024019004B9F0C394804076
:10073300069004B97400F0D083D082D0E0F9D0E001
:10074300F8D0D0D0E032C0E0C0D0E8C0E0C008C0EC
:1007530009C082C08390053BE0F890053CE06870D7
:100763000B539AFB90053D7401F08031C2E990056B
:100773003BE0F5087401250890053BF0750900740A
:10078300BB2508F58274043509F583E0F5C19005AE
:100793003BE0C39480400690053B7400F0D083D0C7
:1007A30082D009D008D0E0F8D0D0D0E03274F7126C
:1007B30002A9E9FEEAF8EBF9E8FAE9FB740B2E8AE1
:1007C300828B83F0900317E0F8A3E0F5838882A37C
:1007D300A3A3A3A3E06006786179888004784179B4
:1007E30088E88A828B83A3F0E4E9F88A828B83A367
:1007F300A3F0900310E08A828B83A3A3A3F090035A
:1008030017E0F8A3E0F5838882A3A3E0F8A3E0F957
:100813008A828B83A3A3A3A3E8F0A3E9F08A828B44
:1008230083A3A3A3A3A3A3ECF0A3EDF0900317E08A
:10083300F8A3E0F5838882E0F8A3E0F98A828B834A
:10084300A3A3A3A3A3A3A3A3E8F0A3E9F0790A7F37
:100853000102031574F21202A9ECFEEDFF8908A947
:1008630008EAFCEBFD7A197B03120149E9FB7A00E4
:1008730080348A0A750B00EE250AF582EF350BF5F5
:1008830083E0C0E08B0A750B008A0C750D00E50A46
:10089300250CF8E50B350DF9741928F58274033925
:1008A300F583D0E0F00AEAC3950840C6EB2508F9C2
:1008B3007F0602031574F71202A97E8C7F031201CF
:1008C300DF1201857901EEFAEFFB1201C78E828FE9
:1008D30083E0C2E7F08E828F83E0640570528E82DC
:1008E3008F83E0F97A8D7B031201C78E828F83A3F6
:1008F300E0A2E55004D2F08002C2F0A2F0E433900B
:100903000547F07890790388828983A3E0A2E740C2
:10091300030209CA8E828F83A3A3A3E0F890031076
:10092300E06860030209CA9003117401F00209CA66
:100933008E828F83E024F5900544F08E828F83E0CE
:10094300F97A8D7B031201C78E828F83A3E0A2E520
:100953005004D2F08002C2F0A2F0E433900547F0D5
:100963008E828F83A3A3A3A3A3A3A3A3E0F8A3E0EF
:10097300F9900540E8F0A3E9F09005457496F0A3DB
:100983007403F0900544E0F83395E0F9900545E0F1
:1009930028F8A3E039F988828983E0900548F08834
:1009A300828983A3E0A2E750128E828F83A3E0544F
:1009B300DF644170069005497401F08E828F83A332
:1009C300A3A3E090053FF012018B1201E57F010222
:1009D300031574F71202A9EAFEEBFF1201A3E964FF
:1009E3000170047901806F12018B900317EEF0A35D
:1009F300EFF09005457400F0A37400F090031274B7
:100A030001F090054B12023090031312023C900345
:100A130017E0F8A3E0F5838882A3A3A3A3E0F91268
:100A230001AF900317E0F8A3E0F5838882E0FAA30F
:100A3300E0FB1201B5900317E0F8A3E0F583888289
:100A4300A3A3E0FAA3E0FB1201BB7A557B011201D9
:100A5300EB12018579007F0102031574F41202A9D8
:100A6300EAFEEBFF8C0A8D0B8908900312E07003FA
:100A73001201D3E508C394675005850809800375FF
:100A830009678509081201F11201DFA908AC0AAD53
:100A93000BEEFAEFFB12014FE9F97A197B0312010E
:100AA300C11201E51201CDE960027E01900317E056
:100AB300F8A3E0F5838882A3A3A3A3A3E0601C901B
:100AC30003117400F07A4A7B02120197900311E03C
:100AD3006004740080027401FE80027E00900312A1
:100AE300E070031201D9EE7007900310E02401F0C7
:100AF300EEF97F04020315C082C083900549E0F933
:100B0300D083D0820200FB74F21202A98A0A8B0BF3
:100B1300ECFEEDFF740E12029DE0F508A3E0F5096B
:100B230012018B900544E0F83395E0F9C3E89EE9A0
:100B33009F500D900544E0F50C3395E0F50D8004CE
:100B43008E0C8F0D780C120412900545E0FCA3E087
:100B5300FDAA0AAB0B1201FD7402120268E50845F7
:100B63000960261201A9E9F50A900548E0F83395D2
:100B7300E0F9750B00E8C3950AF8E9950BF98508C8
:100B830082850983E8F0A3E9F09005497400F01227
:100B93000185900544E0F83395E0F9C3E89EE99FA9
:100BA3005007900544E0F98002EEF97F0602031531
:100BB300C082C0839003127401F01201D3D083D09A
:100BC300820200FBC082C08390030C7411F0A374F3
:100BD30011F090030E740BF090030A7433F0A374B6
:100BE30033F090030F7401F07A0A7B0312015BE97F
:100BF300640160F4120173D083D0820200FB43FED0
:100C03000143FE0243FE0843FE1053FEFBC294C29F
:100C130093C291C2900200FBC082C083A292402D76
:100C23007A057B0012019DA2924022A29250FC9071
:100C330003057400F0A37400F09003037400F0A3A1
:100C43007400F09003037401F0A37400F0900303A5
:100C5300E064017004A3E0640070767A057B0012FF
:100C6300019D900305E02401F0A3E03400F090031C
:100C730005C3E09464A3E094005032A292405290E2
:100C83000307E06401F079017C077D037A227B226C
:100C9300120161E978007900900305E8F0A3E9F017
:100CA300900303E8F0A3E9F0639001802490030527
:100CB300C3E09464A3E094004017780079009003A4
:100CC30005E8F0A3E9F0900303E8F0A3E9F06390EB
:100CD30008D083D0820200FBC082C08343E4017545
:100CE300F14043F40275E66475DCFF900309E0F517
:100CF300DDD083D0820200FBC082C083E5AF540203
:100D0300C39401403F53AFFD90053EE06401700979
:100D1300900309E02401F08007900309E024FFF029
:100D230075DCFF900309E0F5DD900309E0C394FE51
:100D3300400690053E7402F0900309E070069005AA
:100D43003E7401F0D083D0820200FB1201791201BC
:100D53002B12013112013D120137120167E9602B99
:100D6300E4F508F50978081204127C017D007A087D
:100D73007B0312016D7402120268E9600E9003088E
:100D8300E0F87900900301F0A3E9F0900301E06437
:100D9300017004A3E0640070BE12014380B9C082F5
:100DA300C083906189E04460F090619074D5F090C5
:100DB30061FA7409F09061B27415F09061AE740039
:100DC300F01201E57900D083D0820200FB79490259
:100DD30000FBC082C08375F005E9A424D490618F21
:100DE300F0D083D0820200FBC082C083EA9061749A
:100DF300F0E4EBFA906175F0D083D0820200FBC07F
:100E030082C083EA906172F0E4EBFA906173F0D0F0
:100E130083D0820200FB74F61202A975E1EE75918C
:100E2300FD780080138808750900EA2508F582EB30
:100E33003509F583E0F5D908E8C39940E87F020254
:100E43000315C082C0838011E5D98A828B83F08A1F
:100E5300828B83A3AA82AB8319E9C3940150E9D09F
:100E630083D0820200FB75E1E9E591A2E150FA75B6
:100E730091FD79000200FB75E1EC75E1E30200FBF3
:100E830075E1EF75E1EC0200FBC082C0839061A3C2
:100E9300E0C2E6F0539AFED083D0820200FBC08208
:100EA300C0839061A3E0D2E6F0439A01D083D0825D
:100EB3000200FBC082C083A2AFE433F8C2AF900448
:100EC30036EAF0A3EBF0E8A2E092AFD083D082023F
:100ED30000FBC082C083906193E0542270F8D083FA
:100EE300D0820200FB74F41202A98A088B098C0ACF
:100EF3008D0B53F1FE43F30C53F2F375868075C4E7
:100F0300807808120423000000000C000000B004E5
:100F130000005B0F60090000630FC01200006B0F3D
:100F230080250000730F403800007B0F004B00004A
:100F3300830F807000008B0F00960000930F00E179
:100F430000009B0F002C0100A30F00C20100AB0F98
:100F530000840300B30FBB0F75C23B75C505805EEC
:100F630075C23B75C506805675C23B75C507804E75
:100F730075C23B75C508804675C2D875C508803EE5
:100F830075C23B75C509803675C2D875C509802EF3
:100F930075C23B75C50A802675C2D875C50A801E01
:100FA30075C23B75C50B801675C2D875C50B800E0F
:100FB30075C2D875C50C800675C23B75C50A75C464
:100FC30002438640D2AA75C1009004B87400F09021
:100FD30004B97400F090053B7400F090053C740074
:100FE300F09004BA7400F090053D7400F07F0402A1
:100FF3000315C082C083790012017FD083D082029F
:1010030000FBEBC313FBEA13FAEAF8EBF9E824FF5E
:10101300FAE934FFFBE84960120000000000000019
:1010230000000000000000000080DE0200FB74F7F7
:101033001202A9EAFEEBFFEEF8EFF9E824FFFEE95E
:1010430034FFFFE84960097AE87B0312019780E7E0
:101053007F0102031574F61202A9740A12029DE0BD
:10106300FEA3E0FFEAF8EBF980188C828D83E08819
:10107300828983F0A3A882A9838C828D83A3AC8207
:10108300AD838E088F09E50824FF1EE50934FFFFB1
:10109300E508450970D47F02020315E5C65480F8BC
:1010A30053BEFBE59DA2E550FAE59DA2E240F400A4
:1010B3007401697007744948F5C68005E9700288B0
:1010C300C6E5C6F8E59EFAE86A70F943BE04020075
:1010D300FBC082C08312019190054F1202301201AE
:1010E300F7120185D083D0820200FBD2AF0200FB4E
:0510F300C2AF0200FB8A
:04000005000000E314
:00000001FF
